:020000040800F2
:1000000060090020A1010008A93D0008692F00082F
:10001000753B0008850A0008B5460008000000008E
:100020000000000000000000000000007D3F00080C
:100030006D0B000800000000193F0008894000080F
:10004000BB010008BB010008BB010008BB010008A0
:10005000BB010008BB010008BB010008BB01000890
:10006000BB010008BB010008BB010008BB01000880
:10007000BB010008BB010008BB010008BB01000870
:10008000BB010008BB010008BB010008BB01000860
:10009000BB010008BB010008BB010008BB01000850
:1000A000BB010008BB010008BB010008BB01000840
:1000B000BB010008BB010008BB010008BB01000830
:1000C000BB010008BB010008BB010008BB01000820
:1000D000BB010008914600089D460008A94600089B
:1000E000BB010008BB010008BB010008BB01000800
:1000F000BB010008BB010008BB010008BB010008F0
:10010000BB010008BB010008BB010008BB010008DF
:10011000BB010008BB010008314100083D41000857
:10012000BB010008BB010008890A0008BB010008E8
:10013000BB010008BB010008BB010008BB010008AF
:10014000BB010008BB010008BB010008BB0100089F
:10015000BB010008BB010008950A0008BB010008AC
:10016000BB010008BB010008BB010008BB0100087F
:10017000BB010008BB010008BB0100080000000033
:10018000BB010008BB010008DFF810D000F082FBC3
:1001900000480047356A0008AFF30080600900207E
:1001A0000648804706480047FEE7FEE7FEE7FEE711
:1001B000FEE7FEE7FEE7FEE7FEE7FEE72141000877
:1001C000890100082DE9F05F0546002092469B4614
:1001D00088460646814640241BE02846414647465D
:1001E000224600F059FA53465A46C01A914110D39C
:1001F00011461846224600F040FA2D1A67EB010816
:100200004F4622460120002100F037FA17EB000983
:100210004E41201EA4F10104DFDC484631462A4647
:100220004346BDE8F09F2DE9F0410024061B25461A
:1002300071F1000605DA01240027D0EB070067EB17
:100240000101161E73F1000605DA0027D2EB070242
:10025000012567EB0303FFF7B5FF86460E461746F9
:100260009C46AC4204D00025D0EB050E65EB0106A0
:1002700024B10020D2EB000760EB030C704631463E
:100280003A466346BDE8F081D2B201E000F8012BA6
:10029000491EFBD270470022F6E710B513460A4606
:1002A00004461946FFF7F0FF204610BD30B504465E
:1002B0000020034600E05B1C934203D2E05CCD5C6F
:1002C000401BF8D030BD2DE9FE4F804681EA030087
:1002D000C00F0C46009021F0004123F00045B8EB20
:1002E0000200A94105D24046214690461C460B46D5
:1002F000024623F00040104347D0270DC7F30A0001
:10030000C3F30A510290401A019040286BDAC3F3FC
:10031000130040F4801B0098924620B10023D2EBDA
:10032000030A63EB0B0B01985946C0F1400250469B
:1003300000F0A3F906460D4650465946019A00F0D2
:10034000BBF910EB08006141002487EA115284EAEE
:10035000E7731A4340D0009A62B3019A012A4FEA28
:10036000075215DC001B61EB02014FF0004202EA6C
:100370000752CDE90042001C41F5801132462B4660
:1003800000F0F2F903B0BDE8F08F40462146F9E7EE
:10039000001B61EB0201001C41F5801300185B415A
:1003A0002018A2F5001747EB030140EAD570B619F3
:1003B0006D4111E06D084FEA360645EAC0754FEA17
:1003C0000752001B61EB0201001C41F58011490836
:1003D0004FEA30000019514132462B4603B0BDE8C8
:1003E000F04F00F0B2B90098012240000023D0EB9A
:1003F000020263EBE073009821464FEAE074B8EB29
:10040000000061EB0401E9E783F000435BE781F062
:10041000004158E72DE9FE4F81EA030404F000444F
:1004200021F0004100944FF0000B23F0004350EA0C
:1004300001045ED052EA03045BD0C3F30A54C1F353
:100440000A552C44A4F2F3340194A0FB0254C1F3E6
:10045000130141F48011C3F3130343F4801301FB30
:10046000024400FB034E840A970A44EA815447EA97
:100470008357A4FB076802958D0A05FB07854FEAA1
:10048000932C04FB0C542705029D4FEA065847EABB
:100490001637B5EB08056EEB070C870E920E47EA90
:1004A000811742EA8312A7FB0201B6EB0B0164EB52
:1004B00000042B0D43EA0C335E1844EB1C50DA4663
:1004C0005146E7FB0201C5F313044FEA0B3343EA3D
:1004D00014534FEA0432019C43EA0603A4F10C04CE
:1004E0000294009CCDE900B400F03EF903B0BDE8F1
:1004F000F08F00200146F9E72DE9F04D81EA030471
:1005000004F0004B21F0004514464FF0000A23F0A0
:10051000004150EA050220D054EA01021DD0C5F383
:100520000A570246C5F31303C1F31300C1F30A5679
:1005300040F4801543F48013A7EB0608101BD64641
:1005400008F2FD3873EB050002D308F1010801E061
:1005500092185B41B8F1000F03DA00200146BDE8B4
:10056000F08D00204FF48011064684460EE0171BE4
:1005700073EB050705D3121B63EB050306434CEA37
:10058000010C49084FEA300092185B4150EA01071C
:10059000EDD152EA030012D082EA040083EA050199
:1005A000084305D0101BAB4106D20122002306E010
:1005B00000224FF0004302E06FF0010253101AEBEB
:1005C00006004CEB085110EB0A0041EB0B01BDE8B3
:1005D000F04D00F0BAB80EB540F23341029100215F
:1005E000CDE900110A460B4600F0BEF803B000BD8D
:1005F00000F0004230F000400AD0C10D01F56071FA
:10060000C0F3160042EA0151C20840071143704787
:1006100000200146704701F0004330B421F0004152
:1006200050EA010206D00A0DA2F56072C1F313016F
:10063000002A02DC30BC00207047440F44EAC104A9
:10064000C100E01830BC00EBC25000F047B830B534
:100650000B46014600202022012409E021FA02F580
:100660009D4205D303FA02F5491B04FA02F528441A
:10067000151EA2F10102F1DC30BD202A04DB203A74
:1006800000FA02F1002070479140C2F1200320FAE5
:1006900003F3194390407047202A04DB203A21FAE3
:1006A00002F00021704721FA02F3D040C2F120028B
:1006B0009140084319467047202A06DBCB17203AA1
:1006C00041FA02F043EAE07306E041FA02F3D04057
:1006D000C2F1200291400843194670470029A8BF83
:1006E0007047401C490008BF20F00100704710B45B
:1006F000B0FA80FC00FA0CF050EA010404BF10BC10
:10070000704749B1CCF1200421FA04F411FA0CF13C
:1007100018BF012121430843A3EB0C01CB1D4FEA75
:1007200000614FEA102042BF002010BC704700EB70
:10073000C35010440029A4BF10BC7047401C49009E
:1007400008BF20F0010010BC704710B5141E73F1F3
:10075000000408DA401C41F1000192185B411A4381
:1007600001D120F0010010BD2DE9F04D92469B46CD
:1007700011B1B1FA81F202E0B0FA80F22032904673
:10078000FFF77BFF04460F4640EA0A0041EA0B01EF
:1007900053465A46084313D0114653EA010019D074
:1007A000C8F140025046FFF777FF05460E46504617
:1007B00059464246FFF761FF084305D0012004E097
:1007C00020463946BDE8F08D0020054346EAE07634
:1007D0002C4337430A986305E40AA0EB0800002283
:1007E000FD0A44EA47540A3002D500200146E9E7F1
:1007F000010510196941DDE9084500196941BDE8A5
:10080000F04DA2E7C1F30A52C1F3130140F2FF33E6
:1008100041F480119A4202DA00200146704740F20A
:1008200033439A42A2F2334202DC5242FFF734BF12
:10083000FFF723BF30B5041E71F1000404DB4FF055
:100840000044404264EB0101141E73F1000405DB17
:100850001C464FF00043524263EB04038B4208BF37
:10086000824230BD30B5041E71F1000404DB4FF04C
:100870000044404264EB0101141E73F1000405DBE7
:100880001C464FF00043524263EB0403994208BFF9
:10089000904230BD064C074D06E0E06840F0010391
:1008A00094E8070098471034AC42F6D3FFF770FC89
:1008B000108A0008308A00082DE9F04D00231A46FE
:1008C0001B1A8A4103DB00200146BDE8F08DC1F30D
:1008D0000A52C1F3130141F480154FF0000BD10708
:1008E00002D100186D41521E0027044640F2FF114C
:1008F000384601EB620A3E468046024600204FF42D
:100900008011FFF7C9FEC2197141BB1846EB010007
:10091000B4EB030C75EB000C04D3E41A65EB000593
:1009200017460E46241908F101006D41804634280F
:10093000E3DDF91946EB0600091BA84103D24FF08D
:10094000FF32134601E0002213461BEB070046EB83
:100950000A51BDE8F04DFFF7F8BE0000464910B55A
:100960004A6822F440324A604A6843681A434A603F
:1009700001684A6822F480724A6001684A68036923
:1009800042EA03224A6001684A6822F040724A60E3
:1009900001684A6883681A434A6001688A6822F4D9
:1009A00000628A6001688A68C3681A438A60816A43
:1009B0006FF07062D14201688A6822F070628A60CA
:1009C00001688A680CD0836A1A438A6001688A6861
:1009D00022F040528A6001688A68C36A1A4301E0C3
:1009E00022F040528A6001688A6822F002028A601E
:1009F00001688A68037E42EA43028A6090F8201008
:100A0000002901684A680FD042F400624A60016818
:100A10004A6822F460424A6001684A68174C436A97
:100A200004EB43331A4301E022F400624A60016898
:100A3000CA6A22F47002CA620168CA6A838B104CC7
:100A400004EB03531A43CA6201688A6822F40072F5
:100A50008A6001688A6890F8303042EA43228A60EE
:100A600001688A6822F480628A6001688A68406945
:100A700042EA8020886010BD0023014000E0FFFFB3
:100A80000000F0FFFEE70000014800F0A9BA0000F6
:100A9000DC030020014800F0A3BA00003C04002061
:100AA00001681823CAB2103AB2FBF3F2054B6FF398
:100AB0000901032A9B5CC36500D9091D81650846AD
:100AC00070470000667C000810B5014600208B6965
:100AD0008A6A4FF0C07453B1B3F5005F15D072B19C
:100AE000012A0CD0022A0AD0032A09D104E01AB143
:100AF000012A06D0022A03D1C96AC90100D5012002
:100B000010BDC96AA142FAD010BD002AF7D0012A4F
:100B1000F2D0022AF3D0032AF3D010BD3EB540F63E
:100B2000FF74CDE900320A460146029401230448CD
:100B300000F076FD012000F08DFB00203EBD00009E
:100B4000000100203EB540F6FF74CDE900320A46B0
:100B5000014602940123044800F064FE012000F0E5
:100B600079FB00203EBD000000010020704772B6F6
:100B7000FEE702F061BC000078B50024009490F814
:100B80003C20012A19D0012280F83C200A68072362
:100B90000568092A13D9EE680A3A02EB420293402B
:100BA0009E43EE600B788A680A3B03EB43039A404E
:100BB0000368DD682A43DA6010E0022078BD2E6900
:100BC00002EB420293409E432E610B788A6803EB4E
:100BD00043039A4003681D692A431A614A681F2328
:100BE000072A13D205686E6B521E02EB82029340F5
:100BF0009E436E630B790A885B1E92B203EB8303FC
:100C00009A4003685D6B2A435A6327E005680D2A02
:100C100012D22E6BD21F02EB820293409E432E63B0
:100C20000B790A88DB1F92B203EB83039A400368B7
:100C30001D6B2A431A6311E0EE6A0D3A02EB820241
:100C400093409E43EE620B790A880D3B92B203EB10
:100C500083039A400368DD6A2A43DA62164B05680B
:100C6000144A9D4206D10D68122D03D1556845F4F2
:100C70008005556005689D4218D10B68102B01D086
:100C8000112B13D1536843F40003536009681029F2
:100C90000CD10A490A4A0968B1FBF2F101EB810162
:100CA000490000E0491E00910029FBD180F83C403A
:100CB000002078BD00230140002001402C000020CE
:100CC00040420F000068C06C704770B504004FF0E0
:100CD000000503D0206C002610B107E0012070BD94
:100CE000204600F01DF8666484F83C60206CC00665
:100CF00010D4206C20F4885040F00200206420467C
:100D0000FFF72CFE6664206C20F0020040F001002A
:100D1000206400E0012584F83C60284670BD000096
:100D200010B586B0044614216846FFF7B4FA11499D
:100D3000206888421CD110480021026842F4807269
:100D40000260006800F4807005900B481438026857
:100D500042F004020260006800F0040005901020D8
:100D600000900320CDE901016946044800F084FAAF
:100D700006B010BD00200140443802400008024087
:100D80002DE9F041044600680D4681684FF00007E8
:100D900049050BD58068C00508D5206C40F02000BF
:100DA000206484F83C700120BDE8F08100F06EFB07
:100DB000064613E0681C11D025B100F067FB801BCC
:100DC000A8420BD920680068800707D4206C40F047
:100DD0000400206484F83C700320E5E72068006884
:100DE0008007E7D521686FF012000860206C40F49E
:100DF000007020642068816811F0405F13D1217E6B
:100E000089B9C16A11F4700F02D0806840050AD414
:100E1000206C20F480702064206CC00403D4206C0B
:100E200040F0010020640020BEE7000018B500215A
:100E3000009190F83C20012A07D0012280F83C2044
:100E400002689368DB0702D011E0022018BD9368A6
:100E500043F0010393602E4A2E4B1268B2FBF3F26B
:100E600002EB420200E0521E0092002AFBD102680F
:100E70009368DB0742D0036C40F20164A34343F460
:100E80008073036453685B0505D5036C23F400533A
:100E900043F480530364036CDB0404D5436C23F0F8
:100EA0000603436400E0416480F83C101A496FF087
:100EB0002203136049680068CA06184906D08842B0
:100EC00024D1816811F0405F13D01FE08842F8D030
:100ED000134A904203D1D1F80423D206F1D0114A2B
:100EE000904213D1D1F8041301F01F011029E8D367
:100EF0000CE0816841F08041816007E0016C41F0C5
:100F000010010164416C41F001014164002018BDF1
:100F10002C00002040420F0000230140002001402F
:100F200000210140002201402DE9F0410446876D77
:100F300000F0ACFA064694F835000025022806D0E9
:100F40008020606584F834500120BDE8F08120687D
:100F5000016821F0160101602068416921F08001DB
:100F60004161206C08B9A06C20B12068016821F0B3
:100F7000080101602068016821F0010101600CE0B6
:100F800000F084FA801B052807D920206065032023
:100F900084F8350084F83450D7E720680068C0072B
:100FA000EED194F85C103F208840B860012084F8AE
:100FB000350084F834500020C7E790F83510022936
:100FC00003D08021416501207047052180F835104C
:100FD0000068016821F001010160002070470000F5
:100FE0002DE9F84304464FF00009CDF8009063481E
:100FF0004FF41651A56D0068B0FBF1F72E6894F818
:101000005C10082000FA01F131420FD021680A6813
:1010100052070BD50A6822F004020A6094F85C10AB
:101020008840A860606D40F00100606594F85C1035
:101030004FF0010808FA01F0304208D021684969F0
:10104000090604D5A860606D40F00200606594F860
:101050005C1004208840304208D021680968890764
:1010600004D5A860606D40F00400606594F85C10E1
:1010700010208840304218D021680968090714D52B
:10108000A86020680168490304D50068000308D5FA
:10109000A16C07E00168C90503D4016821F00801CB
:1010A0000160216C09B12046884794F85C1020202B
:1010B0008840304231D021680968C9062DD5A86022
:1010C00094F8350005282068016806D0490347D503
:1010D000006800031DD4616C1CE021F01601016062
:1010E0002068416921F080014161206C08B9A06C41
:1010F00020B12068016821F00801016094F85C10BB
:101100003F208840A86084F8358084F83490216DB1
:101110001FE0E16B09B120468847606D00282BD0A5
:10112000606DC00714D0052084F835002068016880
:1011300021F0010101600098401C0090B84203D8E2
:1011400020680068C007F6D184F8358084F83490B0
:10115000E16C002910D001B02046BDE8F0430847FB
:101160000168C905D5D4016821F01001016084F837
:10117000358084F83490CCE7BDE8F8832C0000205B
:101180002DE9F041044600F081F906465CB10220E9
:1011900084F83500002584F834502068016821F077
:1011A000010101600DE00120BDE8F08100F06EF961
:1011B000801B052805D920206065032084F83500B0
:1011C000F2E720680068C007F0D122681168204863
:1011D0000140D4E901031843D4E9033633431843EB
:1011E00063691843A3691843E3691843236A1843E2
:1011F0000843616A042903D1D4E90B131943084356
:10120000106020684069666A20F0070130460E438E
:10121000012704280CD1A06A0643E06A40B12046A9
:10122000FFF752FC20B14020606584F83570BAE7C2
:10123000206846612046FFF733FC94F85C203F218C
:1012400091408160656584F835700020ACE700004E
:101250003F8010F070B5044600F018F90546601C98
:1012600002D004480078044400F010F9401BA0426A
:10127000FAD370BD200000202DE9F84FDFF8BCA1A3
:101280000022012503264FF00F090AF1040BAAF1F1
:10129000040E00BF0B6805FA02F42340A34270D18C
:1012A0000F7907F00307012F01D0022F16D18768AD
:1012B0004FEA420806FA08FC27EA0C07D1F80CC0EE
:1012C0000CFA08FC4CEA070CC0F808C04768A743B2
:1012D0000C79C4F3001494403C4344600C79E4431B
:1012E000A4070AD0C4684FEA420C06FA0CF7BC43C4
:1012F0008F6807FA0CF72743C7600C7904F00304E2
:10130000022C12D1D40800EB840CDCF820405707E3
:10131000FF0E09FA07F824EA0804D1F8108008FA49
:1013200007F848EA0408CCF8208004684FEA420C29
:1013300006FA0CF7BC430F7907F0030707FA0CF71E
:10134000274307604C6814F4403F70D03C4C27683A
:1013500047F480472760246822F0030704F48044A0
:101360000094384C07EB040CDCF8084897074FEA68
:10137000177809FA08F7BC43334FB84202D1002767
:1013800024E054E0314FB84201D101271EE0304F34
:10139000B84201D1022719E02E4FB84201D10327EC
:1013A00014E02D4FB84201D104270FE02B4FB84273
:1013B00001D105270AE02A4FB84201D1062705E0EE
:1013C000284FB84201D1072700E0082707FA08F79D
:1013D0002743CCF80878DAF800405746D1F804C023
:1013E0009C435FEACC2C00D51C433C60DBF80040FA
:1013F0005F46D1F804C09C435FEA8C2C00D51C43A7
:101400003C60DEF800407746D1F804C09C435FEAB8
:101410008C3C00D51C433C60084F083F3C68D1F829
:1014200004C09C435FEACC3C00D51C433C60521C8A
:10143000102AFFF42FAFBDE8F88F0000083C0140F0
:1014400044380240003001400000024000040240E5
:1014500000080240000C024000100240001402404C
:1014600000180240001C02400069084000D0012022
:101470007047426921EA02030A4043EA024181615E
:1014800070470AB1816170470904FBE70148806831
:10149000704700002000002070B5040025D094F8AB
:1014A0003D00002520B984F83C50204600F052FA57
:1014B000242084F83D002068016821F001010160CA
:1014C0002068016841F4004101602068016821F44E
:1014D0000041016000F0B0FB4D4A6168914201D8C3
:1014E0004C4900E04C49884201D2012070BD4B4973
:1014F0002368B0FBF1F15E6826F03F060E435E60A4
:101500006368934206D94FF4967359434FF47A7344
:10151000B1FBF3F12368491C1E6A26F03F063143F4
:1015200019626168914210D84900401EB0FBF1F287
:10153000521CC2F30B02042A01D2042022E0B0FBA9
:10154000F1F0401CC0F30B001CE0A268F2B301EB09
:10155000C10303EB0116431EB3FBF6F35B1C43F41C
:1015600080431B0549D092B301EBC10202EB01118C
:10157000401EB0FBF1F0401CC0F30B0040F4804073
:1015800040F400402168CA694CF6FF739A43104347
:10159000C861D4E9071001432068026822F0C00244
:1015A00011430160D4E9030101432068826848F2D5
:1015B000FF339A4311438160D4E905010843216850
:1015C000CA6822F0FF021043C86001E00EE016E096
:1015D0002068016841F0010101602564202084F841
:1015E0003D00256384F83E50002070BD01EB4106AC
:1015F000431EB3FBF6F35B1CB3E70120C2E701EB2C
:101600004101401EB0FBF1F0401CC0F30B00B7E7F6
:10161000A086010080841E0000093D0040420F00AA
:101620002DE9FF4F83B09A46DDE9118793460446C2
:10163000DDF84090FFF72AFF054694F83D0020288A
:1016400070D11923012274492046009501F0A2FDB2
:101650000028F5D194F83C00012863D0012084F8DB
:101660003C0020680168C90703D1016841F001010D
:1016700001602068016821F400610160222084F883
:101680003D00402084F83E0000262664C4F82490E3
:10169000A4F82A80608D20856048E062CDE900755D
:1016A00053465A462046049901F076FC002879D129
:1016B000208DD0B1012821D00228206824D0416992
:1016C00080690090208D032866D801282BD05449CA
:1016D00002283B464FF00002009557D0884620462E
:1016E00001F058FD00285DD13AE020684169816928
:1016F0000091016841F4007101607DE0206801689B
:1017000021F480610160F0E7016821F480610160EB
:101710002068016841F400610160206841698069C6
:10172000009069E075E02A463946204601F0D8FD70
:1017300088BB54E02068016841F4007101602068B2
:101740000069616A0870606A401C6062218D491EF0
:101750002185618D491E618521680969017042E01A
:101760002068016821F48061016020680069616A75
:101770000870606A401C6062208D401E2085608D6C
:10178000401E60853B46002241460095204601F000
:1017900001FD00B9CEE705E02A463946204601F0B2
:1017A0009FFD18B1012007B0BDE8F08F20680069E7
:1017B000616A0870606A401C6062208D401E81B2C0
:1017C0002185608D401E608520684269D2435207A2
:1017D00012D4032903D1016821F4806101602068DB
:1017E0000069616A0870606A401C6062208D401E5A
:1017F0002085608D401E6085208D00287FF462AFBB
:10180000202084F83D0084F83E6084F83C6000208D
:10181000C9E70220C7E70000020010000000FFFF38
:10182000040001002DE9FF4F83B09A46DDE91197CE
:1018300093460446DDF84080FFF728FE054694F8FD
:101840003D0020287FD119230122404920460095E0
:1018500001F0A0FC002876D194F83C00012872D059
:10186000012084F83C0020680168C90703D10168A1
:1018700041F0010101602068016821F4006101600C
:10188000212084F83D00402084F83E000026266494
:10189000C4F82480A4F82A90608D20852C48E0624A
:1018A000CDE9007553465A462046049901F0F2FBF3
:1018B00070B930E02A463946204601F049FD58B15A
:1018C000206C042804D12068016841F40071016093
:1018D000012007B0BDE8F08F606A216800780861D8
:1018E000606A401C6062218D491E89B22185628D2B
:1018F000521E628522685369DB435B070BD469B1D2
:1019000000781061606A401C6062208D401E208556
:10191000608D401E6085208D0028CBD12A46394637
:10192000204601F00BFC0028CAD154F83D0B016899
:1019300041F400710160202004F81E09E677667703
:101940000020C6E7FFE70220C3E700000200100006
:101950000000FFFF10B586B0044614216846FEF76C
:101960009AFC18492068884229D1174C0021206828
:1019700040F400102060206800F400100590124828
:101980001038026842F002020260006800F00200B3
:1019900005904FF4407000901220CDE90101032022
:1019A00003900420049069460848FFF765FC20680E
:1019B00040F400102060206800F40010059006B08C
:1019C00010BD0000005400404038024000040240B6
:1019D000024881680278114481607047200000202D
:1019E0000B4810B5016841F400710160016841F4D1
:1019F00080610160016841F480710160032000F0A2
:101A00006FF80F2000F006F800F024F8002010BD59
:101A1000003C024070B50D4D04464FF47A712878B1
:101A2000B1FBF0F00A490968B1FBF0F000F00CFBE3
:101A300048B9102C07D200222146501E00F030F881
:101A400000206C6070BD012070BD000020000020EF
:101A50002C0000200A4808B5016841F4804101606B
:101A6000006800F4804000900548001F016841F0C4
:101A700080510160006800F08050009008BD0000B7
:101A800044380240002809DB00F01F020121914088
:101A90004009800000F1E020C0F80011704700000C
:101AA000F0B40E4B1B680C46C3F30223C3F10705C9
:101AB000042D00D90425191D072901D2002300E0B7
:101AC000DB1E012606FA05F1491E214099409E4081
:101AD000761E16403143F0BC02F01EBE0CED00E055
:101AE000064900F0070208684FF6FF03184040EA75
:101AF0000220034A10430860704700000CED00E02C
:101B00000000FA052DE9F0470E46050065D0DFF824
:101B10001481D8F80000F7B200F00700B04207D2F5
:101B200088F80070D8F8000000F00700B04254D1E7
:101B300028683D4C810712D5400703D5206840F442
:101B4000E05020602878000703D5206840F460400A
:101B500020602068A96820F0F00008432060287801
:101B6000C0072DD0304968680839012812D00228F2
:101B700013D0032811D00968890700292DDA2168BC
:101B800021F0030101432160FFF780FC814641F20F
:101B9000883A0EE009688903EFE709688901ECE7F4
:101BA000FFF774FCA0EB0901514502D90320BDE801
:101BB000F0872068696800F00C00B0EB810FEFD16E
:101BC000D8F80010404601F00701B14207D907706C
:101BD000006800F00700B04201D00120E7E7287854
:101BE000400705D52068E96820F4E05008432060EC
:101BF0002878000706D52068296920F4604040EA6B
:101C0000C100206000F038F82168084AC1F30311D0
:101C1000515CC8400649086006480068FFF7FAFEB4
:101C20000020C4E7003C0240083802406E7C0008F7
:101C30002C000020240000200448054900680968A1
:101C4000044AC1F38221515CC84070472C00002037
:101C5000083802407E7C000804480549006809688D
:101C6000044AC1F34231515CC84070472C00002047
:101C7000083802407E7C0008154810B5006810F056
:101C80000C02144813D01449042A0FD0082A0ED18C
:101C90000F4C241F2268236802F03F025B0207D525
:101CA0002068C0F38810A0FB010106E0084610BDC3
:101CB0002168C1F38811A1FB00010023FEF782FA1D
:101CC0002168C1F30141491C4900B0FBF1F010BD8E
:101CD000083802400024F40040787D012DE9F84FD7
:101CE00004006ED02078DFF84C93C007A9F10405FA
:101CF0004AD009F104000168C1F38101012908D02B
:101D00000068C0F3810002280AD1D9F8000040021F
:101D100006D52868800337D560680028E1D033E015
:101D20006068B0F5803F10D0B0F5A02F286810D0C3
:101D300020F480302860286820F4802028606068C3
:101D4000A8B1FFF7A3FB06460DE0286840F48030F9
:101D5000F4E740F480202860F7E700BFFFF796FB28
:101D6000801B642873D828688003F7D50CE0FFF740
:101D70008DFB064605E000BFFFF788FB801B64284B
:101D8000F0D828688003F7D42078DFF8AC82800789
:101D90004FF0000A3ED5A748001D016811F00C0F56
:101DA00008D00068C0F3810002280BD1D9F80000E8
:101DB000400207D42868800716D5E068012800D1C2
:101DC00012E033E1E068B8B10120C8F80000FFF785
:101DD0005DFB064605E000BFFFF758FB801B0228AD
:101DE000C0D828688007F7D52868216920F0F80056
:101DF00040EAC10028600DE0C8F800A0FFF746FBEC
:101E0000064604E0FFF742FB801B02281FD8286823
:101E10008007F7D42078000722D5864F874861696C
:101E2000703771B101210160FFF730FB064604E015
:101E3000FFF72CFB801B022809D838688007F7D5EC
:101E40000EE0C0F800A0FFF721FB064605E082E0A7
:101E5000FFF71CFB801B02287DD838688007F7D469
:101E60002078400768D5DFF8CCB100270BF13C0B98
:101E7000DBF80000C0000BD4DBF8001041F080510B
:101E8000CBF80010DBF80000012700F08050009034
:101E90006B4E3068C00510D4306840F480703060FC
:101EA000FFF7F4FA009005E0FFF7F0FA0099401A06
:101EB000022850D83068C005F6D55E4EA0686C3652
:101EC00001280FD00528306810D020F001003060C4
:101ED000306820F004003060A068B8B1FFF7D6FA8F
:101EE00000900FE0306840F00100F4E740F004009B
:101EF0003060F7E7FFF7CAFA0099411A41F28830DB
:101F0000814266D830688007F4D50EE0FFF7BEFA4C
:101F1000009007E0FFF7BAFA0099411A41F28830C1
:101F2000814256D830688007F4D42FB1DBF8001016
:101F300021F08051CBF80010A069C8B33D49091DBC
:101F40000968C1F3810102294AD00228504607D00E
:101F5000C8F8600000E03CE0FFF798FA04463BE078
:101F60004746C8F86000FFF791FA064605E000BF53
:101F7000FFF78CFA801B02282BD828688001F7D441
:101F8000D4E907010843A16A2E4A490802EB01413E
:101F9000626A41EA8211084394F82C1040EA016118
:101FA000C9F8001001203866FFF770FA044606E011
:101FB0003EE000BFFFF76AFA001B022809D8286834
:101FC0008001F7D534E000BFFFF760FA001B02285C
:101FD00002D90320BDE8F88F28688001F4D427E0F7
:101FE0000128F7D0D9F80000E26900F4800191429D
:101FF0001CD1226A00F03F01914217D147F6C0710F
:10200000626A0140B1EB821F10D1A26A4FF0FF3328
:1020100000F4403103EB5202B1EB024F06D194F8C9
:102020002C1000F07060B0EB016F01D00120D1E7FF
:102030000020CFE70438024000004742800E4742AC
:10204000007000400000FFFF10B5401EB0F1807F1F
:1020500001D3012010BD4FF0E02460610F21601713
:1020600002F05AFB0020A06107202061002010BD73
:102070007047704710B590F83C20012A22D0012209
:1020800080F83C20CA688C6822F4407222434C6875
:1020900022F4806222430C6822F4006222430C691D
:1020A00022F4805222434C6922F400522243C9692F
:1020B000002322F480420A4301684A6480F83C30DD
:1020C000002010BD022010BD70B590F83C20012A00
:1020D00032D0012480F83C40022280F83D20036881
:1020E0005A689D6822F070060A6832435A60134BA2
:1020F00002689A4214D0B2F1804F11D0104B9A422C
:102100000ED0104B9A420BD00F4B9A4208D00F4B77
:102110009A4205D00E4B9A4202D00E4B9A4204D1FD
:10212000496825F080031943916080F83D40002103
:1021300080F83C10084670BD022070BD00000140D0
:102140000004004000080040000C00400004014072
:10215000004001400018004010B5040003D094F87E
:102160003D0010B107E0012010BD002084F83C00C4
:10217000204600F01FF8022084F83D00211D206851
:1021800001F0E2FF012084F8460084F83E0084F864
:102190003F0084F8400084F8410084F8420084F84D
:1021A000430084F8440084F8450084F83D00002092
:1021B00010BD000008B52149026821488A4207D1B4
:1021C000016841F001010160006800F0010032E0A7
:1021D0001B491C4B091F9A420ED1086840F01000A1
:1021E00008600868002200F01000009011463620B8
:1021F000FFF756FC362010E0134B9A4211D10868C5
:1022000040F0200008600868002200F020000090E4
:1022100001213720FFF744FC3720BDE80840FFF7D5
:1022200031BC0A498A4207D1016841F002010160CC
:10223000006800F00200009008BD000000000140AE
:1022400044380240001000400014004000040140E7
:1022500090F83D10012901D001207047022180F83B
:102260003D100168CA6842F00102CA600068114965
:10227000884214D0B0F1804F11D00F4988420ED05F
:102280000E4988420BD00E49884208D00D49884239
:1022900005D00D49884202D00C49884204D181689A
:1022A00001F00701062903D0016841F00101016036
:1022B000002070470000014000040040000800407A
:1022C000000C0040000401400040014000180040A4
:1022D00070B5044690F83C000025012817D001266F
:1022E00084F83C60022084F83D002068826822F077
:1022F000770222F47F4282600868502838D00DDCD3
:1023000020284FD005DC90B3102811D14AE00220DC
:1023100070BD302846D040280AD13BE060282FD03D
:1023200070280DD0B0F5805F03D0B0F5005F12D0FB
:10233000012584F83D60002084F83C00284670BDEB
:10234000CB68D1E90121206801F077FF206881681E
:1023500041F0770109E0CB68D1E90121206801F063
:102360006CFF2068816841F480418160E1E719E0F9
:10237000CA684968206802F035F85021206806E0F4
:10238000CA684968206802F03EF86021206801F0C0
:102390005EFFCEE7CA684968206802F023F8402152
:1023A0002068F4E7226801461046F0E72DE9F04185
:1023B0000D46040003D094F83D0018B108E0012058
:1023C000BDE8F081002084F83C00204600F040F891
:1023D000022084F83D002068816844F2070291439E
:1023E0008160211D206801F0AFFE2268906891692C
:1023F000166A2B68AF69034340F20330814341EA18
:102400000721A868EF6908434FF6FC418843E96853
:1024100040EA0720014328692F6A000140EA07309B
:10242000084369686D6926F0AA0646EA051529433E
:1024300093602268906154F8460B0162012004F811
:102440001F09E0752076E0762077A0750020B7E7B9
:1024500030B587B0044614216846FDF71CFF2048BC
:1024600024681E4D00221E4910380223AC4216D1AA
:102470000C6844F004040C60096801F00401059143
:10248000016841F0020101600068694600F0020045
:102490000590C0200090CDE90132124818E0124D9D
:1024A000AC4219D10C6844F008040C60096801F0D2
:1024B00008010591016841F0010101600068694669
:1024C00000F00100059003200090CDE9013207489B
:1024D000CDE90323FEF7D0FE07B030BD0008004071
:1024E0004038024000040240000C0040000002405E
:1024F00070B590F83E60044690F83F5090F8423036
:1025000090F84320022021B104290ED0012E1BD1C6
:1025100014E0012E18D1012B16D184F83E0084F866
:10252000420001220021206820E0012D0CD1012A67
:102530000AD184F83F0084F8430014E0012D03D150
:10254000012B01D1012A01D0012070BD84F83E0089
:1025500084F83F0084F8420084F8430001220021FF
:10256000206801F05DFE01220421206801F058FE80
:102570002068016841F001010160002070BD7047D2
:102580002DE9F04104460068C66805694FF0000770
:10259000A90713D5B10711D5F91E016101202077D4
:1025A000206880698007204602D0FFF7E8FF04E03A
:1025B00000F0C2F8204600F054F92777680716D5D6
:1025C000700714D521686FF004000861022020779D
:1025D0002068806910F4407F204602D0FFF7CFFFCB
:1025E00004E000F0A9F8204600F03BF9277728071F
:1025F00015D5300713D521686FF008000861042055
:1026000020772068C0698007204602D0FFF7B7FF17
:1026100004E000F091F8204600F023F92777E8065F
:1026200016D5F00614D521686FF010000861082057
:1026300020772068C06910F4407F204602D0FFF761
:102640009EFF04E000F078F8204600F00AF92777B2
:10265000E80708D0F00706D021686FF00100086194
:10266000204600F063F9280608D5300606D5216813
:102670006FF0800008612046FFF7FAFC680608D575
:10268000700606D521686FF040000861204600F012
:10269000E3F9A8060AD5B00608D521686FF0200036
:1026A00008612046BDE8F041FFF7E3BCBDE8F081DA
:1026B00010B586B0044614216846FDF7ECFD23688A
:1026C000184C002118480222A34212D1036843F09B
:1026D00001030360006800F0010005904FF41060F2
:1026E0000090CDE901210120CDE9031069460F4892
:1026F00014E00F4CA34213D1036843F004030360BA
:10270000006800F0040005904FF470700090CDE96F
:1027100001210320CDE9031069460648FEF7ACFD10
:1027200006B010BD000001403038024000000240F9
:102730000004014000080240704770B5044690F85C
:102740003C0000260D4601280FD0012084F83C00F3
:102750006AB1042A1DD0082A2FD00C2A3FD00126A6
:10276000002084F83C00304670BD022070BD206817
:1027700001F076FD2068816941F0080181612068DF
:10278000816921F004018161206881692A6911430E
:1027900011E0206801F094FD2068816941F4006136
:1027A00081612068816921F480618161206881698B
:1027B0002A6941EA02218161D2E7206801F0B6FD71
:1027C0002068C16941F00801C1612068C16921F038
:1027D0000401C1612068C1692A69114311E02068C0
:1027E00001F0D8FD2068C16941F40061C161206831
:1027F000C16921F48061C1612068C1692A6941EA27
:102800000221C161ACE710B5040003D094F83D008B
:1028100010B107E0012010BD002084F83C002046E4
:1028200000F01EF8022084F83D00211D206801F010
:102830008BFC012084F8460084F83E0084F83F00B9
:1028400084F8400084F8410084F8420084F8430092
:1028500084F8440084F8450084F83D00002010BD51
:102860007047704710B50446022249B104290ED0C2
:10287000082913D094F84100012816D0012010BD7A
:1028800094F83E000128F9D184F83E200FE094F836
:102890003F000128F2D184F83F2008E094F840007E
:1028A0000128EBD184F8402001E084F84120012286
:1028B000206801F0B5FC16492068164A884201D00C
:1028C000904203D1436C43F4004343642068884240
:1028D00013D0B0F1804F10D00F4988420DD00F496E
:1028E00088420AD00E49884207D0904205D00D494F
:1028F000884202D00C49884204D1816801F0070166
:10290000062903D0016841F001010160002010BDDB
:1029100000000140000401400004004000080040A5
:10292000000C0040004001400018004070B5054612
:1029300000683549354C88423AD1A068A11C401C3A
:10294000A060881E01F00AFBE0886188304E0844D0
:10295000E080A08821880844A0803068012813D135
:1029600005F016F92B48B2EE040A80ED000A2A4859
:1029700080ED000AB4F9001028A001F0A5FEB4F91A
:10298000021029A001F0A0FE3068022801D101F058
:10299000F7FA306803280BD101F01EF9B4F90410DE
:1029A0001EA001F091FEB4F906101FA001F08CFEEC
:1029B00020492868884225D1E068401CE06001F089
:1029C0003FFBFDF708FE9FED1C1B53EC112BFDF7A1
:1029D00021FD9FED1B1B53EC112BFDF71BFD9FED04
:1029E0001A1B53EC112BFDF715FDFDF714FE1849CA
:1029F0000860E068052805D140211648FEF739FD3A
:102A00000020E06070BD0000001000403C0000208D
:102A1000380000209C040020C0040020D7F3C2D658
:102A2000A3BA25640D0A0000D3D2C2D6A3BA256486
:102A30000D0A0000001400406666666666660A407D
:102A40000000000000002640000000000000303FB1
:102A500008000020001002407047704770470000D7
:102A6000F8B5016804460868CA684B6910F00F0F92
:102A70004FF0000559D003F0010602F49077374378
:102A800065D0C10705D0D10503D5616C41F00101C6
:102A90006164410705D5D90703D0616C41F002019B
:102AA0006164810705D5D90703D0616C41F0040149
:102AB0006164010707D502F02001314303D0616C46
:102AC00041F008016164616C00293AD0800604D5A8
:102AD000900602D5204601F0D7FC20684069616C61
:102AE000C0F38010090700D460B3204601F0A5FCB4
:102AF00020684069400621D52068143050E8001F46
:102B000021F0400140E80012002AF5D1E06BA8B1A5
:102B10006E490165E06BFEF750FA002811D0E06BBA
:102B2000016D01B0BDE8F040084783060FD593065C
:102B30000DD52046BDE8F84001F0A6BC2046FFF7C1
:102B40008DFFF8BD2046FFF789FF6564F8BD266B51
:102B50002023012E7DD1C6067BD5D60679D50868FF
:102B60004868009048694FF00206400641D5E16B85
:102B7000086840680004000CE8D0A28D8242E5D9C4
:102B8000E085C869B0F5807F2DD020680C3050E812
:102B9000001F21F4807140E80012002AF5D120685E
:102BA000143050E8001F21F0010140E80012002A13
:102BB000F5D12068143050E8001F21F0400140E8B2
:102BC0000012002AF5D184F84230256320680C30C9
:102BD00050E8001F21F0100140E80012002AF5D152
:102BE000E06BFEF7A1F96663A08DE18D401A81B21A
:102BF0002AE0A08DE18D401A81B2E08D0028A5D099
:102C00000029A3D022680C3252E8000F20F4907003
:102C100042E80007002FF5D12068143050E8002F5B
:102C200022F0010240E80027002FF5D184F842305D
:102C3000256320680C3050E8002F22F0100240E895
:102C40000023002BF5D166632046FFF706FFF8BD91
:102C5000FFE705062BD5150629D594F84100212854
:102C6000F5D1A068B0F5805F01D12069B0B1206ACC
:102C7000411C2162216800784860E08C401E0004FD
:102C8000000CE084E3D12068C16821F08001C160BC
:102C90002068C16841F04001C160D8E7206A00881F
:102CA000C0F308004860206A801C2062E5E7400607
:102CB000CDD55006CBD5CA68204622F04002CA6066
:102CC00084F8413000F04FF9C1E700002B440008C0
:102CD00070B5040004D094F84100002510B106E05E
:102CE000012070BD84F84050204600F023F82420D5
:102CF00084F841002068C16821F40051C160204679
:102D000001F024FC2068016921F4904101612068F0
:102D1000416921F02A0141612068C16841F40051F4
:102D2000C1606564202084F8410084F84200656336
:102D3000002070BD2DE9F04186B00646142168469A
:102D4000FDF7A9FA5549D6F800C0554802220323D9
:102D50000727544D00248C4553D151491431D1F8E3
:102D600000C04CF0100CC1F800C0096801F010015F
:102D70000591016841F0010101600068694600F0B9
:102D80000100059058028DE81500CDE9033728466B
:102D9000FEF772FA454D44484FF000672860C5E9D8
:102DA00001744FF48068C5E903486C61AC61EC6163
:102DB0002C6228466C62FEF7E3F908B1FDF7D7FEF6
:102DC000F563AE63394D384860357830E5E8020781
:102DD0004020A5E81101354845F814496030AC6140
:102DE000EC612C626C62FEF7CBF908B1FDF7BFFE17
:102DF000B563002211462520AE63FEF751FE252063
:102E000023E027492A4E1031B44523D10E6846F4F9
:102E100000360E60096801F400310591016841F047
:102E2000010101600068694600F0010005900C2076
:102E30008DE81500CDE903372846FEF71DFA00227C
:102E400011462620FEF72CFE2620FEF71BFE06B0BC
:102E5000BDE8F081174DAC45F9D10D6845F48025EA
:102E60000D60096801F480210591016841F00201BB
:102E700001600068694600F0020005904FF4406070
:102E80008DE81500CDE903370B48FEF7F5F9002270
:102E900011462720FEF704FE2720D6E70010014048
:102EA000303802400000024040640240DC03002051
:102EB00000440040004800400004024090F84230C6
:102EC000202B01D00220704721B11AB100230363E7
:102ED00001F0C2BB0120704710B5044600681149DB
:102EE000884209D106221049104800F023F8062232
:102EF0000D490E48FFF7E2FF0D49206888420FD1C7
:102F000009490A480622891D483000F013F806498D
:102F100006480622891DBDE810404830FFF7CEBFA5
:102F200010BD0000001001400C0000200403002030
:102F30000044004090F84130202B01D0022070471F
:102F400079B172B101628284C2840021416421217D
:102F500080F841100068C16841F08001C160002024
:102F60007047012070477047FEE701684A69D24305
:102F700052050FD46FF480624A61002140F8301F7F
:102F8000202242738173026942F0040202610173DC
:102F900001207047002070472DE9F84F0446006873
:102FA00089460B9D01689846174641F4806101608F
:102FB0002068016841F48071016000954FF0011BA9
:102FC0000022594620460A9B00F0E4F84FF4007AAC
:102FD00040B120680068C00501D5C4F840A00320B6
:102FE000BDE8F88F216809F0FE0008612B462849EA
:102FF00020460A9A00F016F9F0BB20684169806902
:1030000000902A4620460A9900F0A2F940B1206CAF
:1030100004283AD12068016841F40071016034E06D
:10302000FEB2B8F1010F09D02168380A08612A46BA
:1030300020460A9900F08CF90028E8D12068066142
:103040002A4620460A9900F083F90028DFD120683B
:10305000016841F4807101600095002259462046C4
:103060000A9B00F097F80028B3D1216809F0FF000F
:1030700040F00100086100E007E02B4604492046CB
:103080000A9A00F0CFF80028AAD00120A8E7000093
:10309000020001002DE9F843044600680D46DDE911
:1030A000089701689846164641F4807101604B46C6
:1030B00000224FF001112046009700F06BF848B154
:1030C00020680068C00502D54FF40070206403201A
:1030D000BDE8F883216805F0FE0008613B464A46DA
:1030E0001549204600F09EF888B92068416980693A
:1030F00000903A464946204600F02AF948B1206C33
:10310000042804D12068016841F4007101600120A5
:10311000DEE7F5B2B8F1010F09D02168300A086185
:103120003A464946204600F013F90028E7D12068C6
:1031300005610020CCE700000200010070B51646D2
:103140000D4604461EE02046FFF70FFF08B10120A0
:1031500070BD681C16D0FEF799F9801BA84200D8F4
:1031600085B920684069C04340070BD5002044F86A
:10317000300F20216173A073216941F0200121618A
:103180002073E4E720684069C0434007DBD4002097
:1031900070BD00002DE9F047984617460D460446DD
:1031A000C1F30746DDF820902AE000BFB8F1FF3FE9
:1031B00026D0FEF76BF9A0EB0901414502D8B8F122
:1031C000000F1DD12068012E16D0806925EA00006D
:1031D0000004000C12D00020B84211D1002044F8A5
:1031E000300F20216173A073216941F0200121611A
:1031F00020730120BDE8F0874069E7E70120EBE795
:103200002068012E0AD0806925EA00000004000C25
:1032100006D00020B842C9D00020EBE74069F3E7B0
:103220000120F7E72DE9F047984616460D4604467B
:103230004FF000094FF0200AC1F3074723E0206850
:103240004069C043400515D42068016841F400710D
:10325000016021686FF480604861C4F8309084F8A0
:103260003DA084F83E90216C41F00401216484F873
:103270003C9021E0701C06D0FEF708F9A0EB080096
:10328000B04203D816B1012F1FD021E02068012FD2
:1032900015D0806925EA00000004000C18D000BF9A
:1032A00044F8309F84F80DA084F80E90216941F015
:1032B0002001216184F80C900120BDE8F08740696D
:1032C00025EA00000004000CEAD12068406901E012
:1032D0002068806925EA00000004000CAFD1ECE70B
:1032E0002DE9F041002590460E460446202728E0AF
:1032F0004069C043C0060CD454F8301B6FF0100076
:10330000486144F810596777A577206A20622577CD
:1033100014E0FEF7BBF8A0EB0800B04200D886B975
:1033200020684069C04340060BD544F8305F67739E
:10333000A573206940F02000206125730120BDE8BD
:10334000F08120684169C9434906D1D40020F6E7DD
:1033500070B516460D4604461EE02046FFF705FEF2
:1033600008B1012070BD681C16D0FEF78FF8801BD5
:10337000A84200D885B920684069C04300060BD533
:10338000002044F8300F20216173A073216941F0BF
:10339000200121612073E4E720684069C0430006F2
:1033A000DBD4002070BD00002DE9F041002003F0C7
:1033B000EFFA1E4C1E4F1F4E00256060012810D1F1
:1033C000C4E90150024610213846FEF75AF801229E
:1033D00040213046FEF755F8002210213046FEF716
:1033E00050F86068022810D1C4E901500022102171
:1033F0003846FEF746F8012240213046FEF741F8F4
:10340000012210213046FEF73CF8606803280BD1FA
:10341000C4E90150BDE8F0410A21F1EE080AB0EE1E
:10342000080A084600F0A8BBBDE8F0813000002083
:10343000000002400010024010B50122102108488F
:10344000FEF71FF8074C012240212046FEF719F82D
:1034500020460122BDE810401021FEF712B80000FE
:10346000000002400010024010B580216B2000F0E7
:1034700089F86420FDF7EEFE00216B2000F082F851
:10348000032000F04AF8002000F042F8322000F05B
:1034900061F80021382000F075F800216A2000F062
:1034A00071F80021232000F06DF88021372000F012
:1034B00069F8752000F012F8682801D0012010BDCD
:1034C00001216B2000F05EF800216C2000F05AF81A
:1034D000322000F03FF8002010BD00001FB5002191
:1034E0008DF80C1040F6FF73012203A98DE80E0041
:1034F00013460246D1210548FEF792F80120FDF758
:10350000A9FE9DF80C0004B010BD000000010020D1
:10351000C006010E1C2000F035B8C006010E1B20AD
:1035200000F030B8BC2801D3012110E0622801D39B
:1035300002210CE02A2801D3032108E0142801D33A
:10354000042104E00A2801D3052100E006211A2005
:1035500000F018B810B504464FF47A70844201D9CF
:10356000044602E0042C00D20424B0FBF4F0401E18
:10357000C1B2192000F006F86008BDE81040FFF75E
:10358000D1BF00001FB540F6FF738DF80C1001226B
:1035900003A98DE80E0013460246D0210448FEF729
:1035A00041F90120FDF756FE04B0002010BD0000D7
:1035B000000100207FB50024154800940194029476
:1035C0001249039401604FF48031C0E90114046191
:1035D000047680F820400F49C0E90A140125C5612E
:1035E000C46080F830404561FDF76FFB08B1FDF71E
:1035F000BEFA0E20CDE90005694602940448FDF7A5
:10360000BBFA002801D0FDF7B2FA7FBD00200140CF
:10361000B80000200100000F0D4808B5016841F412
:10362000800101600068002200F4800000901146D3
:103630003A20FEF735FA3A20FEF724FA0022114626
:103640004620FEF72DFABDE808404620FEF71ABADC
:10365000303802402DE9F04387B014216846FCF76A
:103660001AFE37480024016841F01001016001682A
:1036700001F010010591016841F004010160016849
:1036800001F004010591016841F0800101600168C9
:1036900001F080010591016841F0010101600168BC
:1036A00001F001010591016841F0400101600168EC
:1036B00001F040010591016841F0020101600068DC
:1036C000DFF8809000F0020005900022502148466B
:1036D000FDF7D7FE1C4F002210213846FDF7D1FE22
:1036E000DFF8688040F2EF16002231464046FDF7D1
:1036F000C8FE502000900125CDE901546946484696
:103700000394FDF7B9FD10200090CDE901546946FE
:1037100038460394FDF7B0FD0096CDE901546946A3
:1037200040460394FDF7A8FD4FF46070CDE9000416
:10373000694648460294FDF79FFD07B0BDE8F08357
:1037400030380240001002400000024000180240E1
:103750000D4810B50B4901600C49416000214FF440
:1037600080428160C0E9031241618161C1610162EF
:10377000FDF792FE002803D0BDE81040FDF7F7B931
:1037800010BD00000054004000010020801A060017
:1037900010B596B000240F941094119412941394C1
:1037A0001C2168461494FCF776FD202107A8FCF73D
:1037B00072FD2D482B4901605321C0E9011444F6E4
:1037C0001F61C0E903148021C0E90541FEF7C4FC74
:1037D00008B1FDF7CCF94FF480500F900FA92248A3
:1037E000FEF776FD08B1FDF7C2F91F48FFF70BF8A9
:1037F00008B1FDF7BCF9139413A91B481494FEF704
:1038000063FC08B1FDF7B3F96020CDE90004029430
:103810000394049405940022694613480694FEF725
:103820008CFF08B1FDF7A3F90C2269460E48FEF79C
:1038300084FF08B1FDF79BF90794089409944FF4AD
:1038400000500A94CDE90B4007A907480E94FEF7F3
:1038500011FC08B1FDF78BF90348FEF729FF16B0FC
:1038600010BD0000000001405401002010B58CB0D4
:1038700024216846FCF70FFD0024164809941449DA
:103880000A94C0E900144FF6FF71C0E902410461D7
:1038900084610320CDE900040120CDE902040494F1
:1038A000CDE90540079469460A480894FEF77EFD75
:1038B00008B1FDF75CF9099409A906480A94FEF7D6
:1038C00003FC002801D0FDF752F90CB010BD000038
:1038D000000800409C01002010B58CB024216846EF
:1038E000FCF7D9FC00241648099414490A94C0E94D
:1038F00000144FF6FF71C0E90241046184610320A6
:10390000CDE900040120CDE902040494CDE905408D
:10391000079469460A480894FEF748FD08B1FDF788
:1039200026F9099409A906480A94FEF7CDFB002858
:1039300001D0FDF71CF90CB010BD0000000C0040D8
:10394000E40100201CB500240F4800940D490194A7
:10395000016042F2CF01C0E901146321C1608021FE
:103960008161FEF7F9FB08B1FDF701F900946946A2
:1039700005480194FEF7A8FB002801D0FDF7F7F8F1
:103980001CBD0000001000402C0200201CB50024CB
:103990000F4800940D490194016042F2CF01C0E943
:1039A000011440F2CF718461C160FEF7D5FB08B10C
:1039B000FDF7DDF80094694605480194FEF784FBA5
:1039C000002801D0FDF7D3F81CBD00000014004012
:1039D0007402002010B596B000240F941094119436
:1039E000129413941C2168461494FCF754FC202173
:1039F00007A8FCF750FC3448324901600421C0E9B3
:103A0000011442F2CF01C0E9031444618461FEF75E
:103A1000A3FB08B1FDF7ABF84FF480500F900FA94E
:103A20002948FEF755FC08B1FDF7A1F82648FEF736
:103A3000EAFE08B1FDF79BF8139413A922481494E9
:103A4000FEF742FB08B1FDF792F86020CDE90004D3
:103A50000294039404940594002269461A4806943B
:103A6000FEF76BFE08B1FDF782F80422694616489E
:103A7000FEF763FE08B1FDF77AF80822694612489E
:103A8000FEF75BFE08B1FDF772F80C2269460E489E
:103A9000FEF753FE08B1FDF76AF8079408940994FD
:103AA0004FF400500A94CDE90B4007A906480E9444
:103AB000FEF7E0FA08B1FDF75AF80348FEF7F8FD03
:103AC00016B010BD00040140BC0200200C4810B527
:103AD0000A4901604FF4E1314160002181600C220C
:103AE000C160C0E904128161C161FFF7F1F80028EB
:103AF00003D0BDE81040FDF73AB810BD00100140FA
:103B0000040300200C4810B50A4901604FF4E1316C
:103B10004160002181600C22C160C0E90412816112
:103B2000C161FFF7D5F8002803D0BDE81040FDF7CC
:103B30001EB810BD004400404C0300200C4810B5D6
:103B40000A4901604FF4E1314160002181600C229B
:103B5000C160C0E904128161C161FFF7B9F80028B2
:103B600003D0BDE81040FDF702B810BD004800408A
:103B700094030020FEE7000070B5134A9FED131A6E
:103B8000144D108120EE010A1148518100F12404E6
:103B900080ED000A20EE810A84ED000AB5F90000EC
:103BA000D4ED000A00EE100AB8EEC00A30EE600A4A
:103BB000BDEEC00A10EE100A03F076FF0F28EDD21A
:103BC000BDE8704001F05CBF4C0000200000C34421
:103BD000E4040020420000202DE9F0476B4E6C4FBA
:103BE0002DED028B30883988084400B200EE100AAF
:103BF00030806848B8EEC00A00F08FF9BDEEC00A08
:103C0000654C10EE100A00B2A080B4F9081000F064
:103C100052FD00B200EE100ADFF87881A080B8EE05
:103C2000C00AA8F1480888ED000AB7F9000000EEC4
:103C3000100A4046B8EEC00A01F0EEFEBDEEC00A22
:103C400010EE100A00B2A08000F020F9B6F90000D2
:103C5000504D00EE100AD5ED000AB8EEC00A30EE65
:103C6000600ABDEEC00A10EE100A03F01DFF4FF00F
:103C700000099FED4A8A0A281CD288ED008AB7F90C
:103C8000000000EE100A4046B8EEC00A01F0C4FE83
:103C9000BDEEC00A10EE100A00B2A08000F0F6F8E7
:103CA000A6F8009085ED008A85ED018A85ED078AEA
:103CB00085ED028A3A4DDFF8EC802888B8F80010CC
:103CC0004646084400B200EE100A28803148B8EE9B
:103CD000C00A243000F021F9BDEEC00A10EE100A2F
:103CE00000B2E080B4F90A1000F0E5FC00B200EE8A
:103CF000100A284FE080B8EEC00A243F87ED000A82
:103D0000B6F9000000EE100A3846B8EEC00A01F01D
:103D100083FEBDEEC00A10EE100A00B2E08000F093
:103D2000D7F8B5F9000007F1480600EE100AD6ED05
:103D3000000AB8EEC00A30EE600ABDEEC00A10EE0E
:103D4000100A03F0B1FE0F281CD287ED008AB8F9E3
:103D5000000000EE100A3846B8EEC00A01F05CFE22
:103D6000BDEEC00A10EE100A00B2E08000F0B0F81C
:103D7000A5F8009086ED008A86ED018A86ED078A17
:103D800086ED028ABDEC028BBDE8F0874000002082
:103D90003C000020E40400204C0000200000000053
:103DA000420000203E000020FEE7000031489FED69
:103DB000300AB1EE041A80ED000A80ED080A80EDA9
:103DC000010A80ED020A80ED070ADFED2B0A80ED83
:103DD000041AC0ED050A80ED060A2430DFED291A29
:103DE00080ED000A80ED080A80ED010A80ED020AEC
:103DF00080ED070A80ED041AC0ED050A80ED060A81
:103E000024309FED1E1A80ED000A80ED080A80ED37
:103E1000010A80ED020A80ED070A80ED041A9FED89
:103E2000181A80ED051AC0ED061A243080ED000A3C
:103E300080ED080A80ED010A80ED020A80ED070A94
:103E40001030C0EC030A14309FED0F1A80ED000A09
:103E500080ED080A80ED010A80ED020A80ED070A74
:103E600080ED041A80ED050AC0ED060A70470000D7
:103E7000000000009C0400209A99193F9A99993EED
:103E800017B7D138EC51383ECDCC8C3F70B50146D8
:103E900003F00AFE0C4D84B2002906DB002220212B
:103EA0002846FDF7EEFA012205E0012220212846EE
:103EB000FDF7E7FA002240212846FDF7E2FA5420F8
:103EC00044430248046070BD001802403C040140B5
:103ED00070B5014603F0E8FD0D4D84B2AE15002922
:103EE00006DB012280212846FDF7CBFA002205E0FF
:103EF000002280212846FDF7C4FA012231462846D7
:103F0000FDF7BFFA542044430248046070BD00002E
:103F100000180240400401407047D0ED000A70EEE6
:103F2000C00AC0ED010A90ED070A30EE201A80EDBC
:103F3000071A90ED040AD0ED051A20EE200A01EED2
:103F4000810A90ED021AD0ED061A30EEC11A01EE88
:103F5000810A80ED080AC0ED020A7047054A13681D
:103F60000B8000211160044A13685B4203801160DA
:103F700070470000240C00402408004070470000F7
:103F80002A4810B590ED000A2948FFF7C6FFBDEE9C
:103F9000C00A284C10EE100AE060E16900F08BFBCB
:103FA000E060A169002903DDE269914205DD05E0D9
:103FB00004DAE2695242914200DDA261A1690A1A63
:103FC00000EE102A1A4A0844B8EEC00A903A82ED70
:103FD000000A00EE100A02F12400B8EEC00A80EDDB
:103FE000000A1548B0F9000000EE100A1046B8EEBD
:103FF000C00A01F011FDBDEEC00A104884ED040AAC
:10400000B0F9000000EE100A0948B8EEC00A6C389A
:1040100001F002FDBDEEC00A84ED050A2069FFF73C
:1040200035FF6069BDE81040FFF752BFAC000020CB
:104030002C0500204C0000203C0000203E00002009
:1040400010B50E48FCF7F2FE0A210C48FCF798FE6A
:104050000B4C207048B19FED0B0A00BF84ED010AA4
:10406000BCEEC00A10EE100A10BD0448FCF72AFE90
:1040700000EE100AB8EE400AF0E70000B800002099
:104080000000002000000000FDF7A2BC30B593B096
:1040900030216846FCF7FFF814210CA8FCF7FBF868
:1040A0001D480025016841F080510160006800F062
:1040B000805011901948016841F480410160006806
:1040C000022400F4804011900120039010200490FD
:1040D000009406940820CDE90750A820CDE90904F2
:1040E00004200B906846FDF7F9FD08B1FCF73FFD91
:1040F0000CA90F2081E831004FF4A0500F904FF42D
:104100008050109005210CA8FDF7FCFC002801D080
:10411000FCF72DFD13B030BD403802400070004068
:104120000248016841F470010160704788ED00E0C9
:104130000148FEF725BA00002C0200200148FEF7D6
:104140001FBA000074020020F0B50268294C2A4D05
:104150002A4E2B4F2B4B4FF0804CA04209D060458C
:1041600007D0A84205D0B04203D0B84201D098424F
:1041700004D122F0700E4A6842EA0E02A0421BD01F
:10418000604519D0A84217D0B04215D0B84213D01C
:10419000984211D01C4DA8420ED01C4DA8420BD005
:1041A0001B4DA84208D01B4DA84205D01A4DA8426D
:1041B00002D01A4DA84203D122F44075CA682A439E
:1041C0004D6922F080022A4302608A68C2620A684E
:1041D0008262A04201D0984201D1096901630121A4
:1041E00041610169C90703D0016921F00101016141
:1041F000F0BD000000000140000400400008004045
:10420000000C004000040140004001400044014017
:104210000048014000180040001C00400020004001
:1042200010B501F01F030121046A99408C43046218
:10423000016A9A401143016210BD10B5846842EAD8
:10424000032224F47F440A432243826010BD826823
:1042500022F070020A4342F00701816070470000BB
:10426000F0B5036A026A22F00102026242688469C0
:10427000124E24F073050C682C4323F002058B6862
:104280002B430D4DA84201D0B04205D123F00807C1
:10429000CB683B4323F00403A84201D0B04205D1D0
:1042A0004D6922F4407215438A692A434260846151
:1042B000496841630362F0BD000001400004014011
:1042C000F0B5026A036A23F010030362436884694D
:1042D0000D6824F4E64444EA05248D6822F02002A7
:1042E00042EA05120F4D104EA84201D0B04206D14D
:1042F000CF6822F0800242EA071222F04002A84270
:1043000001D0B04207D14D6923F4406343EA8503ED
:104310008D6943EA85034360846149688163026271
:10432000F0BD00000000014000040140F0B5026A49
:10433000036A23F4807303624368C46922F4007241
:1043400024F073050C68124E2C438D6842EA052256
:104350000E4DA84201D0B04206D1CF6822F40062CF
:1043600042EA072222F48062A84201D0B04207D17B
:104370004D6923F4405343EA05138D6943EA05135D
:104380004360C4614968C1630262F0BD000001403E
:104390000004014030B5046A026A22F480520262CD
:1043A0004268C3690D6823F4E64343EA05238D6838
:1043B00024F4005444EA0534084DA84202D0084DC4
:1043C000A84204D14D6922F4804242EA851242603B
:1043D000C36149680164046230BD0000000001400F
:1043E0000004014010B5036A046A24F00104046269
:1043F000846924F0F00444EA021423F00A020A4318
:104400008461026210BD10B5036A046A24F01004CE
:104410000462846923F0A00324F4704444EA023265
:1044200043EA01118261016210BD10B5806B002169
:10443000C185C184FEF712FB10BD01680C3151E843
:10444000002F22F4907241E80023002BF5D101687F
:10445000143151E8002F22F0010241E80023002B23
:10446000F5D1016B012909D101680C3151E8002F08
:1044700022F0100241E80023002BF5D1202180F822
:10448000421000210163704708B590F842102229BC
:1044900001D0022008BD82684FF480539A4201D1B6
:1044A000016921B1816A9A421BD04AB10AE00268CF
:1044B000816A5268C2F308020A80816A891C08E096
:1044C000026972B10268526802F07F020A70816A62
:1044D000491C8162C18D491E0904090CC18503D0A4
:1044E0001BE002685268F1E70168CA6822F0200206
:1044F000CA600168CA6822F48072CA6001684A69A9
:1045000022F001024A61202180F84210002141631B
:10451000026B012A03D0FEF7DFFC002008BD016317
:1045200001680C3151E8002F22F0100241E800230D
:10453000002BF5D101680A68D20602D50A684968DD
:104540000091818DFEF789FAE7E7000070B5044617
:1045500000680169E26821F4405111430161216959
:10456000A068E26908436169114308432168CA6889
:1045700049F20C639A430243CA6020684169A26908
:1045800021F440711143416131492068884202D0D1
:104590003049884202D1FDF75FFB01E0FDF74CFB9B
:1045A000E2690023192164253226B2F5004F6268C2
:1045B00028D0A0FB0101930F9200FBF703FE0146F8
:1045C000B0FBF5F06FF01802504301EB800006EBF2
:1045D0000010B0FBF5F000F0F002B1FBF5F002EBDB
:1045E0000012B1FBF5F06FF01803584301EB8000A7
:1045F00006EB0010B0FBF5F000F00F00216810444E
:10460000886070BDA0FB010192185B41FBF7DAFDE9
:104610000146B0FBF5F00201B1FBF5F06FF01803B5
:10462000584301EB800006EBC000B0FBF5F000F052
:10463000F80002EB4002B1FBF5F0584301EB8000BB
:1046400006EBC000B0FBF5F000F00700D6E7000075
:10465000001001400014014081628285C285002162
:104660004164222180F84210016921B10168CA68C1
:1046700042F48072CA6001684A6942F001024A61EC
:104680000068C16841F02001C1600020704700004F
:104690000148FEF7E5B90000040300200148FEF7D9
:1046A000DFB900004C0300200148FEF7D9B9000033
:1046B00094030020FEE74A42904200DA1046884206
:1046C00000DD0846704700000FB4054B10B503A984
:1046D000044A029800F0D4FD10BC5DF814FB000001
:1046E00071640008B000002003B4019841000098F4
:1046F00050EAC12018BF04204A0D18BF40F0010045
:1047000040F2FF72B2EB515F08BF40F00200012897
:1047100008BF052002B070470907090E002804DB16
:1047200000F1E02080F80014704700F00F0000F165
:10473000E02080F8141D704770B5C1482DED020BC4
:104740002DED0E8B82B0119D25F000449FEDBEDB58
:104750009FEDBFEB84423EDBA4F140511098A1F1E4
:104760007F6108430FD0BC48844202DC28D11098F6
:1047700030B39DED100B02B0BDEC0E8B02B0BDE866
:10478000704000F071BC9DED100B53EC1D2B51ECF3
:10479000100BFBF73FFE9DED100B41EC180B53EC9B
:1047A0001E2B51EC100BFBF735FE53EC182BFBF7CF
:1047B0008AFD41EC100B02B0BDEC0E8B02B070BD57
:1047C000012000F095FC02B0BDEC0E8B02B0BDE8FC
:1047D000704000F05DBCA1489FEDA18B844256DA89
:1047E0009DED100BB4F1795F0ADA51EC100BFFF775
:1047F0007BFF042808BF00F05BFC9DED100BDAE79F
:1048000053EC102B51EC100BFBF704FE41EC190B91
:1048100095480621B0EE490AF0EE690A784400F0A6
:10482000A7FB53EC192B51EC100BFBF7F3FD41ECFC
:104830001A0B8E48B0EE490AF0EE690A042178445A
:1048400000F096FB53EC192B51EC100BFBF7E2FD3B
:1048500053EC182BFBF737FD41EC100B51EC1A0B06
:1048600053EC102BFBF748FECDE900019DED000B4A
:1048700053EC102B9DED100B51EC100BFBF7CAFD08
:104880009DED101B53EC112BFBF71DFDD2E09DEDB0
:10489000100B51EC100B01F0DFFD53EC182BFBF764
:1048A000B6FD9FED730BCDE9000153EC102B9DED90
:1048B000000B51EC100BFBF7ADFD41EC190B6E48F2
:1048C0000621B0EE490AF0EE690A784400F050FB88
:1048D00053EC192B51EC100BFBF79CFD41EC1B0B1F
:1048E0006648B0EE490AF0EE690A0421784400F007
:1048F0003FFB53EC192B51EC100BFBF78BFD53ECEA
:10490000182BFBF7E0FC41EC1C0B51EC190B03F0EE
:1049100073F941EC180B5A489FED5BABA04222DCC7
:1049200053EC1C2B51EC1B0BFBF7E6FDCDE9000112
:104930009DED000B51EC180B53EC102BFBF76AFDAF
:1049400053EC182BFBF7BFFC53EC1A2BFBF762FD63
:1049500053EC1D2BFBF758FD53EC1E2BFBF757FDBB
:1049600041EC100B5FE08DED008B002000909DED81
:10497000000B51EC180B53EC102BFBF7A4FC9DED36
:10498000000B41EC1E0B53EC102B51EC100BFBF702
:1049900041FD53EC192BFBF73AFD53EC1E2BFBF7B3
:1049A000ABFD41EC190B53EC1C2B51EC1B0BFBF733
:1049B000A3FD41EC1B0B53EC1A2B51EC190BFBF72D
:1049C00029FD53EC1D2BFBF722FD41EC190B53EC99
:1049D0001A2B51EC180BFBF71DFD53EC1B2BFBF7AF
:1049E00019FD53EC192BFBF70FFD9DED000B41EC6E
:1049F000180B53EC1A2B51EC100BFBF70BFD9FED32
:104A0000249B53EC192BFBF702FD41EC100B51ECEE
:104A1000180B53EC102BFBF7F7FC53EC192BFBF79F
:104A2000F6FC41EC100B002D3FF7C5AE51EC100B1E
:104A300081F0004141EC100BBDE6000000000000D9
:104A40000000F03F00000000075C143326A6913CF4
:104A5000182D4454FB21F93F0000F07F0000E03F97
:104A6000000000000000F03FB0400000BE40000029
:104A7000000000000000E03F024000001040000085
:104A80003333EF3F00000000000000000000004052
:104A9000182D4454FB21E93F70B59B482DED020BC6
:104AA0002DED068B079D25F00044A04218DC9748A9
:104AB000844202DC0AD1069840B19DED060BBDECA4
:104AC000068B02B0BDE8704000F0CEBA002DCCBF1E
:104AD0009FED8F0B9FED900BBDEC068B02B070BD70
:104AE0008F48A04215DD8F48A042D8BF4FF0FF3459
:104AF00058DD9DED060B51EC100BFFF7F5FD04287A
:104B000008BF00F0D5FA9DED060BBDEC068B02B098
:104B100070BD9DED060B51EC100B01F09DFCCDE935
:104B2000060181489FED828BA0423CDD8248A04275
:104B30001FDD00249FED82AB9DED060B53EC1A2B7D
:104B400051EC100BFBF7BFFB9DED060B41EC190B75
:104B500053EC1A2B51EC100BFBF75CFC53EC182BAD
:104B6000FBF752FC53EC192BFBF7C6FCCDE9060111
:104B700049E09DED060B012453EC182B51EC100B72
:104B8000FBF7A1FB9DED060B41EC190B53EC182B29
:104B900051EC100BFBF738FC53EC192BFBF7ACFC7A
:104BA000CDE906012FE06848A0421FDD02249FEDF9
:104BB000689B9DED060B53EC192B51EC100BFBF78A
:104BC00029FC53EC182BFBF77EFB9DED060B41EC0B
:104BD000180B53EC192B51EC100BFBF715FC53EC95
:104BE000182BFBF789FCCDE906010CE09DED060BC7
:104BF000032453EC102B9FED580B51EC100BFBF7DB
:104C00007BFCCDE906019DED060B53EC102B51EC1E
:104C1000100BFBF7FFFB41EC180B53EC182BFBF7C9
:104C2000F9FB41EC190B4E480621B0EE490AF0EEB3
:104C3000690A784400F09CF953EC182B51EC100BE6
:104C4000FBF7E8FB41EC180B4648B0EE490AF0EEE2
:104C5000690A0521784400F08BF953EC192B51ECCB
:104C6000100BFBF7D7FB41EC100B51EC180B53EC7E
:104C7000102B002C0EDAFBF726FB9DED061B53ECE8
:104C8000112BFBF7C7FB9DED061B53EC112BFBF71C
:104C9000BEFB35E0FBF717FB9DED061B53EC112B1C
:104CA000FBF7B8FB41EC100B2F48784400EBC40035
:104CB00090ED001B51EC100B53EC112BFBF7A4FBF8
:104CC0009DED061B53EC112BFBF79EFB41EC100BEB
:104CD0002648784400EBC40090ED001B51EC100B0B
:104CE00053EC112BFBF793FB41EC100B002DA2BFF3
:104CF000BDEC068B02B070BD51EC100B81F0004191
:104D000041EC100B01E70000000010440000F07FB0
:104D1000182D4454FB21F93F182D4454FB21F9BFB1
:104D20000000DC3F0000203E0000F33F00000000D8
:104D3000000000000000F03F0000E63F000000001F
:104D40000000000000000040008003400000000060
:104D5000000000000000F83F000000000000F0BF6D
:104D6000523D0000083D0000923C00004A3C00001B
:104D700070B56F4E2DED040B2DED048B82B0DDF878
:104D800024C0DDE907235C422CF000411C4341EACA
:104D9000D474069D22F00040B44205D86C422C43E6
:104DA00040EAD474B4420BD99DED081B9DED060B6F
:104DB00002B0BDEC048B04B0BDE8704000F05EB9F9
:104DC000ACF14054A4F17F641C430BD0022404EAEC
:104DD000AC7444EAD27405439FED578B9FED582B7A
:104DE00007D015E09DED060B51EC100B00F03FFED7
:104DF00042E0002C11BF012C9DED060B02B0BDEC72
:104E0000048B04BF04B070BD022C38D0032C3BD0FF
:104E10000B439FED4D1B9FED4E0B0AD0B14218D1B5
:104E2000B04209D121F0804120F0804009910790E3
:104E30000FE0002A15DA10E0474B7B44002C08BF36
:104E400093ED000B0DD0012C10D0022C17D0032CA9
:104E50001AD0B0421DD1002A03DAB0EE410AF0EEBA
:104E6000610A02B0BDEC048B04B070BD93ED000B81
:104E700051EC100B81F0004141EC100BF1E7B0EE6A
:104E8000480AF0EE680AECE7B0EE420AF0EE620A79
:104E9000E7E7401A00159FED329B3C28C8BF8DED17
:104EA000000B17DCBCF1000FBCBF10F13C0F8DED07
:104EB000009B0FDB9DED080B53EC102B9DED060BBB
:104EC00051EC100BFBF718FB01F0C6FA00F0CFFD18
:104ED000CDE90001B4B1012C10D0022C9FED220BC2
:104EE00053EC102B9DED000B51EC100B19D0FBF780
:104EF0008BFA53EC182BFBF787FABDE7019880F08B
:104F0000004001909DED000B53EC192B51EC100B60
:104F1000FBF790FC04BF022000F0EAF89DED000BC7
:104F20009FE7FBF771FA53EC182BFBF770FAA3E736
:104F30000000F07F00000000182D4454FB210940C0
:104F4000182D4454FB2109C0182D4454FB21F9BFEE
:104F5000182D4454FB21F93F7A3B0000000000006B
:104F60000000000000000000075C143326A6A13CEE
:104F700070B504462DED028B4D1E00EBC500B0EE62
:104F8000408AF0EE608A90ED000B35F0060017D0F5
:104F900053EC182B51EC100BFBF73CFA41EC100BC7
:104FA0006D1E04EBC50090ED001B51EC100B53EC93
:104FB000112BFBF788F941EC100B35F00600E7D117
:104FC000022D36D0042D1CD0062D1CBFBDEC028B4B
:104FD00070BD53EC182B51EC100BFBF71BFA94ED42
:104FE0000A1B53EC112BFBF76EF953EC182BFBF754
:104FF00011FA94ED081B53EC112BFBF764F941EC0B
:10500000100B53EC182B51EC100BFBF703FA94ED3B
:10501000061B53EC112BFBF756F953EC182BFBF73F
:10502000F9F994ED040B53EC102BFBF74CF941EC20
:10503000100B53EC182B51EC100BFBF7EBF994ED24
:10504000021B53EC112BFBF73EF953EC182BFBF72B
:10505000E1F994ED001B53EC112BFBF734F9BDEC97
:10506000028B41EC100B70BD10B553EC102B51ECC2
:10507000100BFBF728F941EC100B10BD10B553ECE9
:10508000112B51EC100BFBF71EF941EC100B10BD6E
:105090009FED050B10B553EC102B51EC100BFBF7EB
:1050A0002BFA41EC100B10BD0000000000000000C6
:1050B0009FED050B10B553EC102B51EC100BFBF7CB
:1050C000A9F941EC100B10BD000000000000001019
:1050D00002E008C8121F08C1002AFAD170477047C1
:1050E000002001E001C1121F002AFBD1704700001F
:1050F0000149086070470000B40000202DE9FF5FFF
:1051000082B00021DDE90430020DDDF840B0034338
:1051100018D044F61050A2F2FF32424315141198F1
:1051200001281FD0A5EB0B00401C5FEA000A4FF0DE
:1051300000064E4FDFF83891B046504615D5CAF1FB
:10514000000413E0119801244AA3012801D16FEA59
:105150000B010298119AC0E90031C0E9024206B081
:10516000BDE8F09FCBF10000DFE704460021404A94
:10517000491842EB0450CDE9001012E0E00707D0D7
:1051800032463B4640464946FBF744F9804689464D
:1051900032463B4610461946FBF73CF906460F4699
:1051A0006410002CEAD1DDE90401DDE90023BAF145
:1051B000000F06DAFBF72EF942464B46FBF72AF9B9
:1051C00005E0FBF799F942464B46FBF795F9044693
:1051D0000E460022284BFBF745FB03D84FF0FF306B
:1051E000014607E00022254B20463146FBF76BF8CD
:1051F000FBF708FB102409E0002C0ADB0A2200233D
:10520000FAF7E0FF039B30321A55641E50EA0102A0
:10521000F2D1641C039AC4F111031444119A012AB7
:1052200003D0012208430DD10AE0084304D0002036
:105230004FF0110B119072E7A3EB0B056D1E0DE003
:105240005B4504DD4FF0000205F1010504E003DADF
:105250004FF00002A5F10105002AECD00298119947
:10526000C0E90231C0E9004579E7000000001440C0
:105270000000F03F300000000000F0430000E03F7D
:105280002DE9FF4F95B09A46884606460025EEE187
:10529000252877D100242746F94A0121039400E00C
:1052A000044316F8013F203B01FA03F01042F7D106
:1052B00030782A2811D06FF02F033078A0F1300217
:1052C000092A16D8039A44F0020402EB820203EB87
:1052D00042021044761C0390EFE758F8042B039227
:1052E000002A03DA504244F40054039044F00204CC
:1052F000761C30782E2816D116F8010F44F00404DD
:105300002A280DD06FF02F023078A0F13003092B3E
:1053100009D807EB870302EB4303C718761CF3E7B2
:1053200058F8047B761C30786C280FD006DC4C28AB
:1053300017D068280DD06A2814D104E0742810D042
:105340007A280FD10DE044F400140AE044F48014EC
:1053500001E044F440147278824202D104F58014D2
:10536000761C761C307866280BD013DC582877D052
:1053700009DC002875D04528F6D04628F4D0472807
:105380001AD193E118E0632835D0642879D06528D4
:1053900012D18BE1702873D008DC6728F1D069281E
:1053A0006FD06E280DD06F2806D1ACE073282CD0BA
:1053B000752874D0782853D05246179990476D1CA1
:1053C00054E1C4F30250022809D003280DD0D8F8C4
:1053D000001004280DD00D6008F1040846E1D8F84B
:1053E0000010EA17C1E90052F6E7D8F800100D8066
:1053F000F2E70D70F0E718F8041B8DF8001000209C
:105400008DF80100EB46012003E058F804BB4FF093
:10541000FF3061074FF0000102D40DE009F10101F6
:105420008946B9420FDA8145F8DB1BF809100029DB
:10543000F4D108E009F1010189468142FADB1BF849
:1054400009100029F6D103985346A0EB090721461D
:105450003846179A00F080FA284400EB090507E067
:1054600044E008E10DE01BF8010B52461799904704
:10547000B9F10109F7D2534621463846179AF2E0AE
:1054800039E00A21C4F302524FF0000B0091022AC6
:1054900006D058F8040BC117032A09D00AE023E00C
:1054A00008F1070020F00702F2E80201904605E04B
:1054B00000B2C117042A01D140B2C117002906DA8F
:1054C0000A460021404261EB02012D2202E0220542
:1054D00004D52B228DF80420012203E0E20701D03D
:1054E0002022F7E7914657E00A2100E010214FF013
:1054F000000B00910BE010214FF0000B44F004046E
:105500000827009103E008204FF0000B0090C4F33F
:105510000252022A05D058F8040B0021032A08D0B1
:1055200008E008F1070020F00702F2E802019046C7
:1055300003E080B2042A00D1C0B24FF00009220774
:105540002AD53278702A07D0DDF800C08CF0100C14
:105550005CEA0B0C05D00EE040228DF804200122FD
:1055600008E050EA010306D030238DF804308DF8AE
:10557000052002229146009B83F0080353EA0B03A7
:105580000AD150EA010201D1620705D530228DF817
:1055900004204FF001097F1E3278582A04D039A226
:1055A0000C920CAA02920BE03BA2F9E75B46009A30
:1055B000FAF708FE0C9B9B5C029A521E0292137033
:1055C00050EA0102F2D1029804A9081A00F1200B56
:1055D000600702D524F4803400E001275F4502DD36
:1055E000A7EB0B0000E0002000EB0B0100900398FC
:1055F0004944401A0390E00306D453462146179AC3
:10560000039800F0A9F90544002706E001A85246D6
:10561000C05D179990476D1C7F1C4F45F6DBE0037A
:105620000CD553462146179A039800F095F9054486
:1056300004E030205246179990476D1C0099481E8F
:1056400000900029F5DC08E00298029952460078A3
:10565000491C0291179990476D1CBBF10001ABF1F9
:10566000010BF1DC5BE100F065F90544761C307854
:1056700000287FF40DAE19B02846BDE8F08F000079
:105680000928010030313233343536373839616218
:1056900063646566000000003031323334353637DC
:1056A000383941424344454600000000600700D4B9
:1056B000062708F1070020F00700F0E802238046E3
:1056C00003F0004C5FEA0C0001D097A009E0200530
:1056D00001D596A005E0E00701D095A001E0AFF26A
:1056E0004C001390307823F0004365280CD006DC82
:1056F000452809D046281DD047287FD13BE06628A1
:1057000018D067287AD136E00021112F01DB112053
:1057100000E0781CCDE9000104A90CA8FFF7EEFC1D
:10572000DDE90D010C9A4FF0000B07F10109109211
:1057300000914EE04FF000400097CDE9011004A920
:105740000CA8FFF7DBFCDDE90D020C9B0F994FF075
:10575000000B91461093009211B9791C00EB0109DE
:10576000B7EB090003D4C0F1FF3B07F10109A9EB36
:105770000700019042E0012F00DA01270021112FDC
:1057800001DD112000E03846CDE9000104A90CA894
:10579000FFF7B4FCDDE90D010C9A00914FF0000B0E
:1057A000B946109221070FD4009A4A4503DA914670
:1057B00001E0A9F10109B9F1010F05DD109AA9F184
:1057C0000101515C3029F4D0B84202DA10F1040F23
:1057D00003DA0121CDE9011010E0002803DC834445
:1057E000A9EB000102E0411C494500DD8946A0EB20
:1057F0000B00401C01904FF000400290200705D4A0
:105800000198484502DB4FF0FF30019000208DF8F1
:105810004B0002980DF14B07B0F1004F25D002204C
:105820000C902B200D90029800280CDA4042029038
:105830002D200D9007E00A210298FAF708FF303179
:10584000029007F8011D0C99481E0C900029F2DC0B
:1058500002980028EFD1791E0D980870307800F07A
:10586000200040F0450007F8020D11A8C01BC01D24
:1058700002901398007800B1012000EB0901019813
:1058800001EBE071029801440398401A401E039016
:10589000E00306D453462146179A039800F05CF8BB
:1058A00005441398007818B15246179990476D1C1B
:1058B000E00323D553462146179A039800F04CF88D
:1058C00005441BE0BBF1000F07DB0098584504DDE1
:1058D0001098179910F80B0001E0179930205246E4
:1058E000904701980BF1010B401E05F10105019055
:1058F00004D12E205246179990476D1CB9F1000132
:10590000A9F10109DEDC05E017F8010B52461799F1
:1059100090476D1C0299481E02900029F4DC534602
:105920002146179A03989EE62D0000002B000000E8
:10593000200000002DE9F041044600251E461746D0
:10594000880404D405E039462020B0476D1C641E4D
:10595000F9D52846BDE8F0812DE9F041044600253F
:105960001E469046C80301D5302700E02027880452
:1059700004D505E041463846B0476D1C641EF9D594
:105980002846BDE8F0810000FEB506460D4600241D
:10599000684600F079FD00229FED1B1A6B4601213D
:1059A00056F8227055F82200381A00D5404200EE11
:1059B000100A03EB8200B8EEC00AD0ED000A20EE18
:1059C000010AF5EEC00AF1EE10FA0DD0C0EE201A71
:1059D000B7EE000A0D4F31EEC00AB0EEC00A10EE6D
:1059E000100AB84207DC09E010EE100A084F3844EC
:1059F000084FB84202D301FA02F00443521C032AB2
:105A0000CEDB2046FEBD000000008037295C0F3E43
:105A1000666666C19A99D900D0ED000AB0EE002AF8
:105A200070EEC00AC0ED010A90ED021AD0ED041A22
:105A300030EEC10A20EE210AD0ED051A01EEA00ACF
:105A4000F0EE601A41EE421A90ED032A71EE821ACE
:105A500090ED062A02EE210AD0ED081A30EE210A56
:105A600080ED080A80ED031AC0ED020A704710B5F8
:105A700041EC100BFFF710F851EC100B10BD0000BB
:105A80000D4800219FED0D0A01800D4880ED000AB0
:105A900080ED010A80ED020A80ED070A09480180C5
:105AA0000748243080ED000A80ED010A80ED020AEB
:105AB00080ED070A70470000400000200000000051
:105AC000E40400204200002008B560B120208DF8D9
:105AD000000028208DF8010030208DF802003820C9
