:020000040800F2
:10000000385500206102000831370008592E0008D9
:10001000FD340008BD0A0008D13F000800000000C0
:10002000000000000000000000000000A101000826
:10003000090C000800000000FD01000873390008E9
:100040007B0200087B0200087B0200087B0200089C
:100050007B0200087B0200087B0200087B0200088C
:100060007B0200087B0200087B0200087B0200087C
:100070007B0200087B0200087B0200087B0200086C
:100080007B0200087B0200087B0200087B0200085C
:100090007B0200087B0200087B0200087B0200084C
:1000A0007B020008313A00087B0200087B0200084E
:1000B0007B0200087B0200087B0200087B0200082C
:1000C0007B0200087B0200087B0200087B0200081C
:1000D0007B020008AD3F0008B93F0008C53F00089B
:1000E0007B0200087B0200087B0200087B020008FC
:1000F0007B0200087B0200087B0200087B020008EC
:100100007B0200087B0200087B0200087B020008DB
:100110007B0200087B0200084D3A0008593A0008AB
:100120007B0200087B020008750B00087B020008B8
:100130007B0200087B0200087B0200087B020008AB
:100140007B0200087B0200087B0200087B0200089B
:100150007B0200087B020008810B00087B0200087C
:100160007B0200087B0200087B0200087B0200087B
:100170007B0200087B0200087B02000800000000F0
:100180007B0200087B020008DFF810D000F08CFB37
:1001900000480047D54C0008AFF3008038550020D8
:1001A0002C4B19680868B0E8F04F80F30988BFF35A
:1001B0006F8F4FF0000080F311887047000000003F
:1001C00008480068006880F308884FF0000080F35A
:1001D000148862B661B6BFF34F8FBFF36F8F00DF35
:1001E00000BF00BF08ED00E0DFF80C00016841F43B
:1001F00070010160704700BF88ED00E0EFF30980F7
:10020000BFF36F8F134B1A681EF0100F08BF20ED5D
:10021000108A20E9F04F106009B44FF0500080F3CD
:100220001188BFF34F8FBFF36F8F05F0E3FD4FF0E1
:10023000000080F3118809BC19680868B0E8F04F25
:100240001EF0100F08BFB0EC108A80F30988BFF3CE
:100250006F8F704770000020EFF30580704700003B
:100260000648804706480047FEE7FEE7FEE7FEE750
:10027000FEE7FEE7FEE7FEE7FEE7FEE7213A0008BD
:10028000890100082DE9F05F0546002092469B4653
:1002900088460646814640241BE02846414647469C
:1002A000224600F017F953465A46C01A914110D31E
:1002B00011461846224600F0FEF82D1A67EB010899
:1002C0004F4622460120002100F0F5F817EB000907
:1002D0004E41201EA4F10104DFDC484631462A4687
:1002E0004346BDE8F09F40EA01039B0703D009E0C5
:1002F00008C9121F08C0042AFAD203E011F8013B12
:1003000000F8013B521EF9D27047D2B201E000F86A
:10031000012B491EFBD270470022F6E710B51346A9
:100320000A4604461946FFF7F0FF204610BD2DE9A6
:10033000FE4F81EA030404F0004421F000410094E0
:100340004FF0000B23F0004350EA01045ED052EA64
:1003500003045BD0C3F30A54C1F30A552C44A4F23E
:10036000F3340194A0FB0254C1F3130141F4801152
:10037000C3F3130343F4801301FB024400FB034E59
:10038000840A970A44EA815447EA8357A4FB076822
:1003900002958D0A05FB07854FEA932C04FB0C544C
:1003A0002705029D4FEA065847EA1637B5EB0805C0
:1003B0006EEB070C870E920E47EA811742EA831212
:1003C000A7FB0201B6EB0B0164EB00042B0D43EA23
:1003D0000C335E1844EB1C50DA465146E7FB020131
:1003E000C5F313044FEA0B3343EA14534FEA0432C4
:1003F000019C43EA0603A4F10C040294009CCDE99D
:1004000000B400F0BDF803B0BDE8F08F0020014655
:10041000F9E70EB540F2334102910021CDE9001118
:100420000A460B4600F0ACF803B000BD00F00042F5
:1004300030F000400AD0C10D01F56071C0F3160024
:1004400042EA0151C20840071143704700200146AB
:10045000704701F0004330B421F0004150EA01023E
:1004600006D00A0DA2F56072C1F31301002A02DC66
:1004700030BC00207047440F44EAC104C100E018BA
:1004800030BC00EBC25000F035B830B50B46014629
:1004900000202022012409E021FA02F59D4205D323
:1004A00003FA02F5491B04FA02F52844151EA2F1CD
:1004B0000102F1DC30BD202A04DB203A00FA02F10F
:1004C000002070479140C2F1200320FA03F3194342
:1004D00090407047202A04DB203A21FA02F00021E4
:1004E000704721FA02F3D040C2F120029140084344
:1004F000194670470029A8BF7047401C490008BF33
:1005000020F00100704710B4B0FA80FC00FA0CF043
:1005100050EA010404BF10BC704749B1CCF120047B
:1005200021FA04F411FA0CF118BF01212143084308
:10053000A3EB0C01CB1D4FEA00614FEA102042BF34
:10054000002010BC704700EBC35010440029A4BF2A
:1005500010BC7047401C490008BF20F0010010BCCF
:10056000704710B5141E73F1000408DA401C41F105
:10057000000192185B411A4301D120F0010010BD27
:100580002DE9F04D92469B4611B1B1FA81F202E09D
:10059000B0FA80F220329046FFF78DFF04460F46F6
:1005A00040EA0A0041EA0B0153465A46084313D079
:1005B000114653EA010019D0C8F140025046FFF736
:1005C00089FF05460E46504659464246FFF773FFDF
:1005D000084305D0012004E020463946BDE8F08DEF
:1005E0000020054346EAE0762C4337430A9863052A
:1005F000E40AA0EB08000022FD0A44EA47540A304E
:1006000002D500200146E9E7010510196941DDE93D
:10061000084500196941BDE8F04DA2E72DE9FE4FFC
:10062000804681EA0300C00F0C46009021F0004193
:1006300023F00045B8EB0200A94105D2404621460F
:1006400090461C460B46024623F00040104347D01C
:10065000270DC7F30A00C3F30A510290401A019014
:1006600040286BDAC3F3130040F4801B00989246D5
:1006700020B10023D2EB030A63EB0B0B0198594620
:10068000C0F140025046FFF716FF06460D465046A1
:100690005946019A00F01AF910EB08006141002454
:1006A00087EA115284EAE7731A4340D0009A62B392
:1006B000019A012A4FEA075215DC001B61EB020187
:1006C0004FF0004202EA0752CDE90042001C41F51A
:1006D000801132462B46FFF753FF03B0BDE8F08F81
:1006E00040462146F9E7001B61EB0201001C41F581
:1006F000801300185B412018A2F5001747EB030197
:1007000040EAD570B6196D4111E06D084FEA360622
:1007100045EAC0754FEA0752001B61EB0201001C5D
:1007200041F5801149084FEA300000195141324625
:100730002B4603B0BDE8F04FFFF713BF009801222E
:1007400040000023D0EB020263EBE07300982146E7
:100750004FEAE074B8EB000061EB0401E9E783F0D5
:1007600000435BE781F0004158E72DE9F04D81EA55
:10077000030404F0004B21F0004514464FF0000A3A
:1007800023F0004150EA050220D054EA01021DD0B6
:10079000C5F30A570246C5F31303C1F31300C1F3AF
:1007A0000A5640F4801543F48013A7EB0608101B8B
:1007B000D64608F2FD3873EB050002D308F10108B4
:1007C00001E092185B41B8F1000F03DA0020014606
:1007D000BDE8F08D00204FF48011064684460EE0FF
:1007E000171B73EB050705D3121B63EB05030643C9
:1007F0004CEA010C49084FEA300092185B4150EA7C
:100800000107EDD152EA030012D082EA040083EA24
:100810000501084305D0101BAB4106D2012200237D
:1008200006E000224FF0004302E06FF00102531097
:100830001AEB06004CEB085110EB0A0041EB0B01E0
:10084000BDE8F04DFFF78DBEC1F30A52C1F31301AD
:1008500040F2FF3341F480119A4202DA002001464F
:10086000704740F233439A42A2F2334202DC5242D2
:10087000FFF730BEFFF71FBE30B5041E71F1000454
:1008800004DB4FF00044404264EB0101141E73F19D
:10089000000405DB1C464FF00043524263EB0403A7
:1008A000994208BF904230BD064C074D06E0E06813
:1008B00040F0010394E8070098471034AC42F6D3A7
:1008C000FFF766FCA06A0008C06A0008202A06DB61
:1008D000CB17203A41FA02F043EAE07306E041FA0E
:1008E00002F3D040C2F120029140084319467047FC
:1008F000464910B54A6822F440324A604A68436863
:100900001A434A6001684A6822F480724A600168AA
:100910004A68036942EA03224A6001684A6822F091
:1009200040724A6001684A6883681A434A600168F5
:100930008A6822F400628A6001688A68C3681A4380
:100940008A60816A6FF07062D14201688A6822F021
:1009500070628A6001688A680CD0836A1A438A6070
:1009600001688A6822F040528A6001688A68C36A16
:100970001A4301E022F040528A6001688A6822F03E
:1009800002028A6001688A68037E42EA43028A6042
:1009900090F82010002901684A680FD042F40062E4
:1009A0004A6001684A6822F460424A6001684A6805
:1009B000174C436A04EB43331A4301E022F400620C
:1009C0004A600168CA6A22F47002CA620168CA6A8F
:1009D000838B104C04EB03531A43CA6201688A6884
:1009E00022F400728A6001688A6890F8303042EA26
:1009F00043228A6001688A6822F480628A60016802
:100A00008A68406942EA8020886010BD0023014066
:100A100000E0FFFF0000F0FF2DE9F0410126124D3C
:100A2000002700BF02F032FD02242F700321342082
:100A300003F0D0FA642000F05BFC287830B1BDE808
:100A4000F0414FF4E13109A003F0F2BB641EECD198
:100A5000761C0A2EE6DB0BA003F0EAFBBDE8F041B2
:100A60000EA003F0E5BB0000F0000020256420622A
:100A70006175642066696E642073656E736F720DB4
:100A80000A0D0A0063616E206E6F742066696E64E1
:100A90002073656E736F720D0A000000706C6561E3
:100AA000736520636865636B20796F757220636F6F
:100AB0006E6E656374696F6E0D0A0000FEE70000DC
:100AC0002DE9F04700270425DFF8A080DFF8A0908B
:100AD00050383E4601F1060A102845D2DFE800F002
:100AE0001108130C1517191B1D1F214444444423DE
:100AF00034240325402702E03D2403252E27012628
:100B000013E0302411E037242BE03A2429E041247B
:100B10000BE0452409E0492407E04D2405E0512479
:100B200003E0552401E0D8F82440032A19D04DB140
:100B30006A0009EB4400FFF7D6FBD8F814202946D9
:100B400020469047002E0FD0720009EB4700514617
:100B5000FFF7C9FB31463846D8F81420BDE8F04706
:100B6000104703250026E3E7BDE8F087F8000020E2
:100B700018500020014800F081BA0000480400200D
:100B8000014800F07BBA0000A80400200168182387
:100B9000CAB2103AB2FBF3F2054B6FF30901032A14
:100BA0009B5CC36500D9091D81650846704700003C
:100BB0007468000810B5014600208B698A6A4FF0FE
:100BC000C07453B1B3F5005F15D072B1012A0CD0D7
:100BD000022A0AD0032A09D104E01AB1012A06D058
:100BE000022A03D1C96AC90100D5012010BDC96A12
:100BF000A142FAD010BD002AF7D0012AF2D0022A71
:100C0000F3D0032AF3D010BD704772B6FEE702F0AE
:100C10006DB9000078B50024009490F83C20012ABA
:100C200019D0012280F83C200A6807230568092AA8
:100C300013D9EE680A3A02EB420293409E43EE60FB
:100C40000B788A680A3B03EB43039A400368DD682C
:100C50002A43DA6010E0022078BD2E6902EB4202DE
:100C600093409E432E610B788A6803EB43039A40BE
:100C700003681D692A431A614A681F23072A13D291
:100C800005686E6B521E02EB820293409E436E63B8
:100C90000B790A885B1E92B203EB83039A400368C8
:100CA0005D6B2A435A6327E005680D2A12D22E6B2A
:100CB000D21F02EB820293409E432E630B790A8877
:100CC000DB1F92B203EB83039A4003681D6B2A4338
:100CD0001A6311E0EE6A0D3A02EB820293409E43E2
:100CE000EE620B790A880D3B92B203EB83039A40C4
:100CF0000368DD6A2A43DA62164B0568144A9D428E
:100D000006D10D68122D03D1556845F48005556054
:100D100005689D4218D10B68102B01D0112B13D1FF
:100D2000536843F400035360096810290CD10A4941
:100D30000A4A0968B1FBF2F101EB8101490000E0C8
:100D4000491E00910029FBD180F83C40002078BD6D
:100D500000230140002001403000002040420F00ED
:100D60000068C06C704770B504004FF0000503D0F8
:100D7000206C002610B107E0012070BD204600F075
:100D80001DF8666484F83C60206CC00610D4206CAA
:100D900020F4885040F0020020642046FFF7A8FDB0
:100DA0006664206C20F0020040F00100206400E046
:100DB000012584F83C60284670BD000010B586B05F
:100DC000044614216846FFF7A7FA114920688842B3
:100DD0001CD110480021026842F480720260006851
:100DE00000F4807005900B481438026842F0040249
:100DF0000260006800F004000590102000900320BD
:100E0000CDE901016946044800F084FA06B010BD3E
:100E10000020014044380240000802402DE9F04122
:100E2000044600680D4681684FF0000749050BD560
:100E30008068C00508D5206C40F02000206484F84C
:100E40003C700120BDE8F08100F06EFB064613E027
:100E5000681C11D025B100F067FB801BA8420BD99C
:100E600020680068800707D4206C40F004002064EC
:100E700084F83C700320E5E7206800688007E7D528
:100E800021686FF012000860206C40F4007020644C
:100E90002068816811F0405F13D1217E89B9C16A51
:100EA00011F4700F02D0806840050AD4206C20F441
:100EB00080702064206CC00403D4206C40F00100DA
:100EC00020640020BEE7000018B50021009190F8D2
:100ED0003C20012A07D0012280F83C200268936858
:100EE000DB0702D011E0022018BD936843F0010334
:100EF00093602E4A2E4B1268B2FBF3F202EB4202D1
:100F000000E0521E0092002AFBD102689368DB07C2
:100F100042D0036C40F20164A34343F48073036442
:100F200053685B0505D5036C23F4005343F48053E9
:100F30000364036CDB0404D5436C23F006034364B1
:100F400000E0416480F83C101A496FF022031360FE
:100F500049680068CA06184906D0884224D18168C9
:100F600011F0405F13D01FE08842F8D0134A90423E
:100F700003D1D1F80423D206F1D0114A904213D103
:100F8000D1F8041301F01F011029E8D30CE08168A7
:100F900041F08041816007E0016C41F01001016483
:100FA000416C41F001014164002018BD3000002077
:100FB00040420F0000230140002001400021014079
:100FC000002201402DE9F0410446876D00F0ACFAA3
:100FD000064694F835000025022806D0802060657A
:100FE00084F834500120BDE8F0812068016821F0C8
:100FF000160101602068416921F080014161206C87
:1010000008B9A06C20B12068016821F008010160D6
:101010002068016821F0010101600CE000F084FA11
:10102000801B052807D920206065032084F835003F
:1010300084F83450D7E720680068C007EED194F8F0
:101040005C103F208840B860012084F8350084F8A7
:1010500034500020C7E790F83510022903D08021D2
:10106000416501207047052180F83510006801684E
:1010700021F0010101600020704700002DE9F843D4
:1010800004464FF00009CDF8009063484FF4165124
:10109000A56D0068B0FBF1F72E6894F85C1008208D
:1010A00000FA01F131420FD021680A6852070BD5CE
:1010B0000A6822F004020A6094F85C108840A86074
:1010C000606D40F00100606594F85C104FF001081D
:1010D00008FA01F0304208D021684969090604D5B0
:1010E000A860606D40F00200606594F85C10042018
:1010F0008840304208D021680968890704D5A86073
:10110000606D40F00400606594F85C101020884029
:10111000304218D021680968090714D5A8602068F2
:101120000168490304D50068000308D5A16C07E0F5
:101130000168C90503D4016821F008010160216C30
:1011400009B12046884794F85C102020884030423E
:1011500031D021680968C9062DD5A86094F83500FA
:1011600005282068016806D0490347D500680003B8
:101170001DD4616C1CE021F01601016020684169FA
:1011800021F080014161206C08B9A06C20B1206879
:10119000016821F00801016094F85C103F2088404C
:1011A000A86084F8358084F83490216D1FE0E16BED
:1011B00009B120468847606D00282BD0606DC007BC
:1011C00014D0052084F835002068016821F0010161
:1011D00001600098401C0090B84203D82068006865
:1011E000C007F6D184F8358084F83490E16C00298A
:1011F00010D001B02046BDE8F04308470168C9059A
:10120000D5D4016821F01001016084F8358084F89C
:101210003490CCE7BDE8F883300000202DE9F041A0
:10122000044600F081F906465CB1022084F83500DE
:10123000002584F834502068016821F00101016024
:101240000DE00120BDE8F08100F06EF9801B05285B
:1012500005D920206065032084F83500F2E7206876
:101260000068C007F0D12268116820480140D4E925
:1012700001031843D4E90336334318436369184321
:10128000A3691843E3691843236A18430843616A52
:10129000042903D1D4E90B131943084310602068D3
:1012A0004069666A20F0070130460E430127042892
:1012B0000CD1A06A0643E06A40B12046FFF77AFCF1
:1012C00020B14020606584F83570BAE72068466137
:1012D0002046FFF75BFC94F85C203F219140816041
:1012E000656584F835700020ACE700003F8010F0A1
:1012F00070B5044600F018F90546601C02D0044899
:101300000078044400F010F9401BA042FAD370BDED
:10131000240000202DE9F84FDFF8BCA100220125B0
:1013200003264FF00F090AF1040BAAF1040E00BFC7
:101330000B6805FA02F42340A34270D10F7907F03D
:101340000307012F01D0022F16D187684FEA420808
:1013500006FA08FC27EA0C07D1F80CC00CFA08FCC6
:101360004CEA070CC0F808C04768A7430C79C4F3DF
:10137000001494403C4344600C79E443A4070AD031
:10138000C4684FEA420C06FA0CF7BC438F6807FAB0
:101390000CF72743C7600C7904F00304022C12D128
:1013A000D40800EB840CDCF820405707FF0E09FA44
:1013B00007F824EA0804D1F8108008FA07F848EA88
:1013C0000408CCF8208004684FEA420C06FA0CF7B7
:1013D000BC430F7907F0030707FA0CF727430760B0
:1013E0004C6814F4403F70D03C4C276847F4804769
:1013F0002760246822F0030704F480440094384CEA
:1014000007EB040CDCF8084897074FEA177809FA4D
:1014100008F7BC43334FB84202D1002724E054E020
:10142000314FB84201D101271EE0304FB84201D1FF
:10143000022719E02E4FB84201D1032714E02D4FA7
:10144000B84201D104270FE02B4FB84201D1052744
:101450000AE02A4FB84201D1062705E0284FB842DA
:1014600001D1072700E0082707FA08F72743CCF83F
:101470000878DAF800405746D1F804C09C435FEA88
:10148000CC2C00D51C433C60DBF800405F46D1F813
:1014900004C09C435FEA8C2C00D51C433C60DEF802
:1014A00000407746D1F804C09C435FEA8C3C00D5ED
:1014B0001C433C60084F083F3C68D1F804C09C4383
:1014C0005FEACC3C00D51C433C60521C102AFFF460
:1014D0002FAFBDE8F88F0000083C014044380240BF
:1014E00000300140000002400004024000080240B9
:1014F000000C02400010024000140240001802409C
:10150000001C02400069084000D001207047426979
:1015100021EA02030A4043EA0241816170470AB1AD
:10152000816170470904FBE701488068704700004B
:101530002400002070B5040025D094F83D0000255B
:1015400020B984F83C50204600F0B8F8242084F8F4
:101550003D002068016821F00101016020680168F8
:1015600041F4004101602068016821F400410160FC
:1015700000F060FA4D4A6168914201D84C4900E0A0
:101580004C49884201D2012070BD4B492368B0FB11
:10159000F1F15E6826F03F060E435E606368934299
:1015A00006D94FF4967359434FF47A73B1FBF3F1B4
:1015B0002368491C1E6A26F03F06314319626168A0
:1015C000914210D84900401EB0FBF1F2521CC2F308
:1015D0000B02042A01D2042022E0B0FBF1F0401CEF
:1015E000C0F30B001CE0A268F2B301EBC10303EBF4
:1015F0000116431EB3FBF6F35B1C43F480431B054B
:1016000049D092B301EBC10202EB0111401EB0FBC5
:10161000F1F0401CC0F30B0040F4804040F4004067
:101620002168CA694CF6FF739A431043C861D4E934
:10163000071001432068026822F0C00211430160D4
:10164000D4E9030101432068826848F2FF339A43DA
:1016500011438160D4E9050108432168CA6822F07A
:10166000FF021043C86001E00EE016E02068016848
:1016700041F0010101602564202084F83D002563CC
:1016800084F83E50002070BD01EB4106431EB3FBC1
:10169000F6F35B1CB3E70120C2E701EB4101401EFA
:1016A000B0FBF1F0401CC0F30B00B7E7A0860100CF
:1016B00080841E0000093D0040420F0010B586B036
:1016C000044614216846FEF727FE18492068884220
:1016D00029D1174C0021206840F4001020602068B8
:1016E00000F40010059012481038026842F002021F
:1016F0000260006800F0020005904FF44070009016
:101700001220CDE9010103200390042004906946D2
:101710000848FFF7FFFD206840F4001020602068B3
:1017200000F40010059006B010BD00000054004009
:1017300040380240000402400248816802781144A7
:1017400081607047240000200B4810B5016841F407
:1017500000710160016841F480610160016841F439
:1017600080710160032000F099F80F2000F006F866
:1017700000F04AF8002010BD003C024030B505469C
:101780001C4887B00024016841F400310160006802
:1017900006A900F40030009001A800F02BF900F039
:1017A00059F915494000B0FBF1F11548134A491E9B
:1017B000026040F2E732C0E90324C0E90114846109
:1017C00000F0B4FB040012D10D4800F031FC04001D
:1017D0000DD1192000F034F8102D07D2002229462F
:1017E000192000F03BF80748056000E0012407B02D
:1017F000204630BD4438024040420F0000440140C2
:1018000008050020280000200C4882B0016841F43F
:1018100080410160006800F4804000900748001F8C
:10182000016841F0805101600068002200F08050A2
:1018300000900F21901E02B000F010B84438024012
:10184000002809DB00F01F020121914040098000BF
:1018500000F1E020C0F8001170470000F0B40E4B1A
:101860001B680C46C3F30223C3F10705042D00D9FE
:101870000425191D072901D2002300E0DB1E0126E3
:1018800006FA05F1491E214099409E40761E1640F9
:101890003143F0BC02F0F2BC0CED00E0064900F070
:1018A000070208684FF6FF03184040EA0220034A87
:1018B00010430860704700000CED00E00000FA05DE
:1018C0002DE9F0470E46050065D0DFF81481D8F801
:1018D0000000F7B200F00700B04207D288F80070AD
:1018E000D8F8000000F00700B04254D128683D4C01
:1018F000810712D5400703D5206840F4E0502060EE
:101900002878000703D5206840F4604020602068F4
:10191000A96820F0F000084320602878C0072DD087
:10192000304968680839012812D0022813D00328EA
:1019300011D00968890700292DDA216821F00301F7
:1019400001432160FFF7F0FD814641F2883A0EE045
:1019500009688903EFE709688901ECE7FFF7E4FD0F
:10196000A0EB0901514502D90320BDE8F0872068AA
:10197000696800F00C00B0EB810FEFD1D8F80010CF
:10198000404601F00701B14207D90770006800F036
:101990000700B04201D00120E7E72878400705D5CD
:1019A0002068E96820F4E0500843206028780007A8
:1019B00006D52068296920F4604040EAC100206013
:1019C00000F058F82168084AC1F30311515CC8407F
:1019D0000649086006480068FFF7D0FE0020C4E70B
:1019E000003C0240083802407C68000830000020BB
:1019F000280000200F2202600C4A136803F0030342
:101A00004360136803F0F0038360136803F4E0534A
:101A1000C36012684FF4E05303EAD2020261044843
:101A2000006800F0070008607047000008380240B6
:101A3000003C02400448054900680968044AC1F3B3
:101A40008221515CC84070473000002008380240B5
:101A50008C6800080448054900680968044AC1F315
:101A60004231515CC84070473000002008380240C5
:101A70008C680008154810B5006810F00C02144876
:101A800013D01449042A0FD0082A0ED10F4C241F5A
:101A90002268236802F03F025B0207D52068C0F38A
:101AA0008810A0FB010106E0084610BD2168C1F3C3
:101AB0008811A1FB00010023FEF7E4FB2168C1F3BC
:101AC0000141491C4900B0FBF1F010BD083802404B
:101AD0000024F40040787D012DE9F84F04006ED019
:101AE0002078DFF84C93C007A9F104054AD009F12A
:101AF00004000168C1F38101012908D00068C0F326
:101B0000810002280AD1D9F80000400206D52868D1
:101B1000800337D560680028E1D033E06068B0F515
:101B2000803F10D0B0F5A02F286810D020F480306E
:101B30002860286820F4802028606068A8B1FFF73A
:101B4000F3FC06460DE0286840F48030F4E740F4EA
:101B500080202860F7E700BFFFF7E6FC801B6428C1
:101B600073D828688003F7D50CE0FFF7DDFC064644
:101B700005E000BFFFF7D8FC801B6428F0D8286878
:101B80008003F7D42078DFF8AC8280074FF0000A9A
:101B90003ED5A748001D016811F00C0F08D0006861
:101BA000C0F3810002280BD1D9F80000400207D40D
:101BB0002868800716D5E068012800D112E033E1DB
:101BC000E068B8B10120C8F80000FFF7ADFC064698
:101BD00005E000BFFFF7A8FC801B0228C0D82868DA
:101BE0008007F7D52868216920F0F80040EAC10095
:101BF00028600DE0C8F800A0FFF796FC064604E058
:101C0000FFF792FC801B02281FD828688007F7D4B2
:101C10002078000722D5864F87486169703771B1F7
:101C200001210160FFF780FC064604E0FFF77CFC21
:101C3000801B022809D838688007F7D50EE0C0F865
:101C400000A0FFF771FC064605E082E0FFF76CFCA0
:101C5000801B02287DD838688007F7D42078400799
:101C600068D5DFF8CCB100270BF13C0BDBF80000A6
:101C7000C0000BD4DBF8001041F08051CBF800100D
:101C8000DBF80000012700F0805000906B4E3068B8
:101C9000C00510D4306840F480703060FFF744FC19
:101CA000009005E0FFF740FC0099401A022850D848
:101CB0003068C005F6D55E4EA0686C3601280FD09E
:101CC0000528306810D020F001003060306820F026
:101CD00004003060A068B8B1FFF726FC00900FE068
:101CE000306840F00100F4E740F004003060F7E7AE
:101CF000FFF71AFC0099411A41F28830814266D8F8
:101D000030688007F4D50EE0FFF70EFC009007E086
:101D1000FFF70AFC0099411A41F28830814256D8F7
:101D200030688007F4D42FB1DBF8001021F0805127
:101D3000CBF80010A069C8B33D49091D0968C1F37B
:101D4000810102294AD00228504607D0C8F8600015
:101D500000E03CE0FFF7E8FB04463BE04746C8F8FC
:101D60006000FFF7E1FB064605E000BFFFF7DCFB84
:101D7000801B02282BD828688001F7D4D4E90701FA
:101D80000843A16A2E4A490802EB0141626A41EA0E
:101D90008211084394F82C1040EA0161C9F8001040
:101DA00001203866FFF7C0FB044606E03EE000BFB6
:101DB000FFF7BAFB001B022809D828688001F7D575
:101DC00034E000BFFFF7B0FB001B022802D903205C
:101DD000BDE8F88F28688001F4D427E00128F7D007
:101DE000D9F80000E26900F4800191421CD1226A16
:101DF00000F03F01914217D147F6C071626A01407D
:101E0000B1EB821F10D1A26A4FF0FF3300F44031D2
:101E100003EB5202B1EB024F06D194F82C1000F004
:101E20007060B0EB016F01D00120D1E70020CFE757
:101E30000438024000004742800E474200700040D4
:101E40000000FFFF7047704710B590F83C20012A52
:101E500022D0012280F83C20CA688C6822F44072AB
:101E600022434C6822F4806222430C6822F4006210
:101E700022430C6922F4805222434C6922F400521E
:101E80002243C969002322F480420A4301684A645C
:101E900080F83C30002010BD022010BD70B590F8D5
:101EA0003C20012A32D0012480F83C40022280F8F4
:101EB0003D2003685A689D6822F070060A68324324
:101EC0005A60134B02689A4214D0B2F1804F11D07D
:101ED000104B9A420ED0104B9A420BD00F4B9A42A5
:101EE00008D00F4B9A4205D00E4B9A4202D00E4BAF
:101EF0009A4204D1496825F080031943916080F823
:101F00003D40002180F83C10084670BD022070BDA5
:101F1000000001400004004000080040000C0040A8
:101F200000040140004001400018004010B50400CA
:101F300003D094F83D0010B107E0012010BD00204F
:101F400084F83C00204600F01FF8022084F83D0091
:101F5000211D206801F086FD012084F8460084F8E8
:101F60003E0084F83F0084F8400084F8410084F883
:101F7000420084F8430084F8440084F8450084F863
:101F80003D00002010BD000008B524490268244827
:101F90008A420ED1016841F001010160006800220F
:101FA00000F0010000900F211920FFF757FC1920C5
:101FB00024E01B491B4B091F9A420ED1086840F0D0
:101FC000100008600868002200F010000090052151
:101FD0003620FFF743FC362010E0134B9A4211D114
:101FE000086840F0200008600868002200F0200027
:101FF000009005213720FFF731FC3720BDE808406D
:10200000FFF71EBC09498A4207D1016841F002016D
:102010000160006800F00200009008BD000001406F
:102020004438024000100040001400400004014009
:1020300090F83D10012901D001207047022180F85D
:102040003D100168CA6842F00102CA600068114987
:10205000884214D0B0F1804F11D00F4988420ED081
:102060000E4988420BD00E49884208D00D4988425B
:1020700005D00D49884202D00C49884204D18168BC
:1020800001F00701062903D0016841F00101016058
:10209000002070470000014000040040000800409C
:1020A000000C0040000401400040014000180040C6
:1020B00070B5044690F83C000025012817D0012691
:1020C00084F83C60022084F83D002068826822F099
:1020D000770222F47F4282600868502838D00DDCF5
:1020E00020284FD005DC90B3102811D14AE00220FF
:1020F00070BD302846D040280AD13BE060282FD060
:1021000070280DD0B0F5805F03D0B0F5005F12D01D
:10211000012584F83D60002084F83C00284670BD0D
:10212000CB68D1E90121206801F015FD20688168A4
:1021300041F0770109E0CB68D1E90121206801F085
:102140000AFD2068816841F480418160E1E719E07F
:10215000CA684968206801F0D3FD5021206806E074
:10216000CA684968206801F0DCFD6021206801F040
:10217000FCFCCEE7CA684968206801F0C1FD402137
:102180002068F4E7226801461046F0E72DE9F041A7
:102190000D46040003D094F83D0018B108E001207A
:1021A000BDE8F081002084F83C00204600F040F8B3
:1021B000022084F83D002068816844F207029143C0
:1021C0008160211D206801F04DFC226890689169B2
:1021D000166A2B68AF69034340F20330814341EA3A
:1021E0000721A868EF6908434FF6FC418843E96876
:1021F00040EA0720014328692F6A000140EA0730BE
:10220000084369686D6926F0AA0646EA0515294360
:1022100093602268906154F8460B0162012004F833
:102220001F09E0752076E0762077A0750020B7E7DB
:1022300030B587B0044614216846FEF76DF8204893
:1022400024681E4D00221E4910380223AC4216D1CC
:102250000C6844F004040C60096801F00401059165
:10226000016841F0020101600068694600F0020067
:102270000590C0200090CDE90132124818E0124DBF
:10228000AC4219D10C6844F008040C60096801F0F4
:1022900008010591016841F001010160006869468B
:1022A00000F00100059003200090CDE901320748BD
:1022B000CDE90323FFF72EF807B030BD000800403A
:1022C0004038024000040240000C00400000024080
:1022D00070B590F83E60044690F83F5090F8423058
:1022E00090F84320022021B104290ED0012E1BD1E9
:1022F00014E0012E18D1012B16D184F83E0084F889
:10230000420001220021206820E0012D0CD1012A89
:102310000AD184F83F0084F8430014E0012D03D172
:10232000012B01D1012A01D0012070BD84F83E00AB
:1023300084F83F0084F8420084F843000122002121
:10234000206801F0FBFB01220421206801F0F6FB6C
:102350002068016841F001010160002070BD7047F4
:102360002DE9F04104460068C66805694FF0000792
:10237000A90713D5B10711D5F91E016101202077F6
:10238000206880698007204602D0FFF7E8FF04E05C
:1023900000F0C2F8204600F054F92777680716D5F8
:1023A000700714D521686FF00400086102202077BF
:1023B0002068806910F4407F204602D0FFF7CFFFED
:1023C00004E000F0A9F8204600F03BF92777280741
:1023D00015D5300713D521686FF008000861042077
:1023E00020772068C0698007204602D0FFF7B7FF3A
:1023F00004E000F091F8204600F023F92777E80682
:1024000016D5F00614D521686FF010000861082079
:1024100020772068C06910F4407F204602D0FFF783
:102420009EFF04E000F078F8204600F00AF92777D4
:10243000E80708D0F00706D021686FF001000861B6
:10244000204600F063F9280608D5300606D5216835
:102450006FF0800008612046FFF7F4FC680608D59D
:10246000700606D521686FF040000861204600F034
:102470000DFAA8060AD5B00608D521686FF020002D
:1024800008612046BDE8F041FFF7DDBCBDE8F08102
:1024900010B586B0044614216846FDF73DFF236859
:1024A000184C002118480222A34212D1036843F0BD
:1024B00001030360006800F0010005904FF4106014
:1024C0000090CDE901210120CDE9031069460F48B4
:1024D00014E00F4CA34213D1036843F004030360DC
:1024E000006800F0040005904FF470700090CDE992
:1024F00001210320CDE9031069460648FEF70AFFD3
:1025000006B010BD0000014030380240000002401B
:102510000004014000080240704770B5044690F87E
:102520003C0000260D4601280FD0012084F83C0015
:102530006AB1042A1DD0082A2FD00C2A3FD00126C8
:10254000002084F83C00304670BD022070BD206839
:1025500001F014FB2068816941F008018161206865
:10256000816921F004018161206881692A69114330
:1025700011E0206801F032FB2068816941F40061BC
:1025800081612068816921F48061816120688169AD
:102590002A6941EA02218161D2E7206801F054FBF7
:1025A0002068C16941F00801C1612068C16921F05A
:1025B0000401C1612068C1692A69114311E02068E2
:1025C00001F076FB2068C16941F40061C1612068B7
:1025D000C16921F48061C1612068C1692A6941EA49
:1025E0000221C161ACE710B5040003D094F83D00AE
:1025F00010B107E0012010BD002084F83C00204607
:1026000000F01EF8022084F83D00211D206801F032
:1026100029FA012084F8460084F83E0084F83F003F
:1026200084F8400084F8410084F8420084F84300B4
:1026300084F8440084F8450084F83D00002010BD73
:102640007047704710B50446022249B104290ED0E4
:10265000082913D094F84100012816D0012010BD9C
:1026600094F83E000128F9D184F83E200FE094F858
:102670003F000128F2D184F83F2008E094F84000A0
:102680000128EBD184F8402001E084F841200122A8
:10269000206801F053FA16492068164A884201D092
:1026A000904203D1436C43F4004343642068884262
:1026B00013D0B0F1804F10D00F4988420DD00F4990
:1026C00088420AD00E49884207D0904205D00D4971
:1026D000884202D00C49884204D1816801F0070188
:1026E000062903D0016841F001010160002010BDFE
:1026F00000000140000401400004004000080040C8
:10270000000C0040004001400018004070B5054634
:1027100000684549454C88424AD1A068A11C401C2C
:10272000A060881E01F0DEF8E0886188404E084411
:10273000E080A08821880844A0803068012813D157
:1027400003F000F83B48B2EE040A80ED000A3A4874
:1027500080ED000AB4F9001038A001F069FDB4F969
:10276000021039A001F064FD3068022811D102F096
:10277000E9FF002001F04EF8002001F06DF8B4F9F7
:1027800000102EA001F054FDB4F902102EA001F0AB
:102790004FFD306803280BD100F0E2FEB4F90010C1
:1027A00026A001F045FDB4F9021027A001F040FD7C
:1027B0002849286888422ED1E068401CE06001F07A
:1027C000AFF8FDF726FE9FED241B53EC112BFDF710
:1027D000AEFD9FED231B53EC112BFDF7A8FD9FEDE4
:1027E000221B53EC112BFDF7A2FDFDF732FE204911
:1027F000086000F0F1FAE06805280CD11D48006877
:10280000FDF714FE41EC100B1BA053EC102B01F054
:102810000FFD0020E0601C492868884203D1BDE814
:102820007040FEF789BF70BD0010004040000020DE
:102830003C0000205005002074050020E5B7A6E804
:10284000BDAE25640D0A0000E58FB3E8BDAE25647A
:102850000D0A0000001400406666666666660A405F
:102860000000000000002640000000000000303F93
:102870000C000020F4000020616E676C653A252E84
:1028800033660D0A000000000044014070477047A5
:1028900070470000F8B5016804460868CA684B69CB
:1028A00010F00F0F4FF0000559D003F0010602F4AD
:1028B0009077374365D0C10705D0D10503D5616C4A
:1028C00041F001016164410705D5D90703D0616C6E
:1028D00041F002016164810705D5D90703D0616C1D
:1028E00041F004016164010707D502F02001314382
:1028F00003D0616C41F008016164616C00293AD039
:10290000800604D5900602D5204601F04BFA2068D7
:102910004069616CC0F38010090700D460B32046A1
:1029200001F019FA20684069400621D5206814306A
:1029300050E8001F21F0400140E80012002AF5D1C4
:10294000E06BA8B16E490165E06BFEF784FB0028DF
:1029500011D0E06B016D01B0BDE8F040084783067F
:102960000FD593060DD52046BDE8F84001F01ABA00
:102970002046FFF78DFFF8BD2046FFF789FF65640D
:10298000F8BD266B2023012E7DD1C6067BD5D60649
:1029900079D508684868009048694FF002064006FB
:1029A00041D5E16B086840680004000CE8D0A28DB6
:1029B0008242E5D9E085C869B0F5807F2DD02068D6
:1029C0000C3050E8001F21F4807140E80012002A0A
:1029D000F5D12068143050E8001F21F0010140E8D3
:1029E0000012002AF5D12068143050E8001F21F0B1
:1029F000400140E80012002AF5D184F842302563F6
:102A000020680C3050E8001F21F0100140E800124F
:102A1000002AF5D1E06BFEF7D5FA6663A08DE18D53
:102A2000401A81B22AE0A08DE18D401A81B2E08D7A
:102A30000028A5D00029A3D022680C3252E8000F4C
:102A400020F4907042E80007002FF5D12068143080
:102A500050E8002F22F0010240E80027002FF5D1B6
:102A600084F84230256320680C3050E8002F22F0B3
:102A7000100240E80023002BF5D166632046FFF7E3
:102A800006FFF8BDFFE705062BD5150629D594F8F6
:102A900041002128F5D1A068B0F5805F01D12069FF
:102AA000B0B1206A411C2162216800784860E08C46
:102AB000401E0004000CE084E3D12068C16821F0CE
:102AC0008001C1602068C16841F04001C160D8E761
:102AD000206A0088C0F308004860206A801C2062D9
:102AE000E5E74006CDD55006CBD5CA68204622F092
:102AF0004002CA6084F8413000F06DF9C1E700007F
:102B0000473D000870B5040004D094F8410000254A
:102B100010B106E0012070BD84F84050204600F05E
:102B200023F8242084F841002068C16821F4005172
:102B3000C160204601F098F92068016921F49041B4
:102B400001612068416921F02A0141612068C16862
:102B500041F40051C1606564202084F8410084F88C
:102B600042006563002070BD2DE9F04186B0064645
:102B700014216846FDF7D0FB5549D6F800C05548EA
:102B8000022203230727544D00248C4553D1514979
:102B90001431D1F800C04CF0100CC1F800C0096825
:102BA00001F010010591016841F001010160006828
:102BB000694600F00100059058028DE81500CDE946
:102BC00003372846FEF7A6FB454D44484FF0006703
:102BD0002860C5E901744FF48068C5E903486C6159
:102BE000AC61EC612C6228466C62FEF717FB08B101
:102BF000FEF70BF8F563AE63394D38486035783031
:102C0000E5E802074020A5E81101354845F81449D8
:102C10006030AC61EC612C626C62FEF7FFFA08B1C7
:102C2000FDF7F3FFB563002205212520AE63FEF713
:102C300015FE252023E027492A4E1031B44523D123
:102C40000E6846F400360E60096801F40031059103
:102C5000016841F0010101600068694600F001006F
:102C600005900C208DE81500CDE903372846FEF7C6
:102C700051FB002205212620FEF7F0FD2620FEF75D
:102C8000DFFD06B0BDE8F081174DAC45F9D10D6808
:102C900045F480250D60096801F4802105910168E3
:102CA00041F0020101600068694600F002000590F1
:102CB0004FF440608DE81500CDE903370B48FEF76F
:102CC00029FB002205212720FEF7C8FD2720D6E793
:102CD00000100140303802400000024040640240D1
:102CE0004804002000440040004800400004024026
:102CF00090F84230202B01D00220704721B11AB148
:102D00000023036301F036B90120704710B5044673
:102D100000681D4988420DD110211C48FEF7F7FBC1
:102D200006221B491B4800F03DF8062218491948A5
:102D3000FFF7DEFF18492068884211D1402117486B
:102D4000FEF7E5FB124913480622891D483000F0C2
:102D500029F80F490F480622891D4830FFF7C8FFA0
:102D60000F49206888420DD109490A480122491EAD
:102D70009030FFF7BDFF0648401E0078BDE81040C8
:102D800001F0CEB910BD000000100140000002406B
:102D90001100002070030020004400400010024099
:102DA0000048004090F84130202B01D002207047AD
:102DB00079B172B101628284C2840021416421210F
:102DC00080F841100068C16841F08001C1600020B6
:102DD0007047012070477047154910B508780028E2
:102DE00024D0144B9FED140ADFED140A144A00207E
:102DF00003EB4004B4F97A4001EE104A02EB800480
:102E0000401CB8EEC11A032821EE001A21EE201A48
:102E100084ED001AECDB0878400707D592ED020A32
:102E200081ED010A087820F00400087010BD000050
:102E3000F00000201850002000000038000034434B
:102E40000C4F002010B5034801F060F9BDE81040B8
:102E5000FDF7E2BD05390008FEE700002DE9F0416D
:102E6000002001F0E5FE1E4C1E4F1F4E0025606045
:102E7000012810D1C4E90150024610213846FEF75E
:102E80004EFB012240213046FEF749FB0022102173
:102E90003046FEF744FB6068022810D1C4E90150B7
:102EA000002210213846FEF73AFB0122402130462D
:102EB000FEF735FB012210213046FEF730FB60683B
:102EC00003280BD1C4E90150BDE8F0410A21F1EE1D
:102ED000080AB0EE080A084600F012BBBDE8F0810F
:102EE00034000020000002400010024010B5012212
:102EF00010210848FEF713FB074C01224021204611
:102F0000FEF70DFB20460122BDE810401021FEF720
:102F100006BB000000000240001002407FB5002404
:102F200015480094019402941249039401604FF4EF
:102F30008031C0E901140461047680F820400F4913
:102F4000C0E90A140125C561C46080F830404561BC
:102F5000FDF709FF08B1FDF758FE0E20CDE9000589
:102F6000694602940448FDF755FE002801D0FDF79C
:102F70004CFE7FBD00200140240100200100000F15
:102F80000D4808B5016841F4800101600068002225
:102F900000F48000009005213A20FEF75FFC3A2003
:102FA000FEF74EFC002205214620FEF757FCBDE847
:102FB00008404620FEF744BC3038024010B5044AB1
:102FC0000021044801F02AFF0349086010BD0000F9
:102FD0005068000869390008000000202DE9F0431E
:102FE00087B014216846FDF797F937480024016837
:102FF00041F010010160016801F0100105910168C4
:1030000041F004010160016801F0040105910168CB
:1030100041F080010160016801F0800105910168C3
:1030200041F001010160016801F0010105910168B1
:1030300041F040010160016801F040010591016823
:1030400041F0020101600068DFF8809000F00200AA
:103050000590002250214846FEF761FA1C4F0022DD
:1030600010213846FEF75BFADFF8688040F2EF1671
:10307000002231464046FEF752FA502000900125CA
:10308000CDE90154694648460394FEF743F9102000
:103090000090CDE90154694638460394FEF73AF9A9
:1030A0000096CDE90154694640460394FEF732F993
:1030B0004FF46070CDE90004694648460294FEF77B
:1030C00029F907B0BDE8F083303802400010024013
:1030D00000000240001802400D4810B50B49016085
:1030E0000C49416000214FF480428160C0E9031225
:1030F00041618161C1610162FEF71CFA002803D0C1
:10310000BDE81040FDF781BD10BD00000054004037
:103110006C010020801A060010B596B000240F94B0
:1031200010941194129413941C2168461494FDF782
:10313000F3F8202107A8FDF7EFF82D482B4901608F
:103140005321C0E9011444F61F61C0E90314802132
:10315000C0E90541FEF7EAFE08B1FDF756FD4FF460
:1031600080500F900FA92248FEF7A2FF08B1FDF78B
:103170004CFD1F48FFF737FA08B1FDF746FD1394E1
:1031800013A91B481494FEF789FE08B1FDF73DFD15
:103190006020CDE900040294039404940594002275
:1031A000694613480694FFF7B8F908B1FDF72DFDFD
:1031B0000C2269460E48FFF7B0F908B1FDF725FD6E
:1031C0000794089409944FF400500A94CDE90B40F9
:1031D00007A907480E94FEF737FE08B1FDF715FD65
:1031E0000348FFF755F916B010BD0000000001407C
:1031F000C001002010B58CB024216846FDF78CF882
:1032000000241648099414490A94C0E900144FF6A2
:10321000FF71C0E90241046184610320CDE900042B
:103220000120CDE902040494CDE9054007946946E4
:103230000A480894FEF7AAFF08B1FDF7E6FC0994D6
:1032400009A906480A94FEF729FE002801D0FDF7D7
:10325000DCFC0CB010BD000000080040080200209B
:1032600010B58CB024216846FDF756F800241648A6
:10327000099414490A94C0E900144FF6FF71C0E99B
:103280000241046184610320CDE900040120CDE9FD
:1032900002040494CDE90540079469460A4808945D
:1032A000FEF774FF08B1FDF7B0FC099409A90648C0
:1032B0000A94FEF7F3FD002801D0FDF7A6FC0CB040
:1032C00010BD0000000C0040500200201CB500247E
:1032D0000F4800940D490194016042F2CF01C0E90A
:1032E00001146321C16080218161FEF71FFE08B1D6
:1032F000FDF78BFC0094694605480194FEF7CEFD6E
:10330000002801D0FDF781FC1CBD0000001000402A
:10331000980200201CB500240F4800940D49019428
:10332000016042F2CF01C0E9011440F2CF71C160E7
:1033300080218161FEF7FAFD08B1FDF766FC00947B
:10334000694605480194FEF7A9FD002801D0FDF764
:103350005CFC1CBD00140040E002002010B596B0DB
:1033600000240F9410941194129413941C21684615
:103370001494FCF7D1FF202107A8FCF7CDFF3448B7
:10338000324901600421C0E9011442F2CF01C0E9D1
:10339000031444618461FEF7C9FD08B1FDF735FCF3
:1033A0004FF480500F900FA92948FEF781FE08B115
:1033B000FDF72BFC2648FFF716F908B1FDF725FCB1
:1033C000139413A922481494FEF768FD08B1FDF781
:1033D0001CFC6020CDE9000402940394049405943D
:1033E000002269461A480694FFF797F808B1FDF7DE
:1033F0000CFC042269461648FFF78FF808B1FDF768
:1034000004FC082269461248FFF787F808B1FDF767
:10341000FCFB0C2269460E48FFF77FF808B1FDF768
:10342000F4FB0794089409944FF400500A94CDE9F2
:103430000B4007A906480E94FEF706FD08B1FDF7FC
:10344000E4FB0348FFF724F816B010BD0004014068
:10345000280300200C4810B50A4901604FF4E131FF
:103460004160002181600C22C160C0E904128161C9
:10347000C161FFF747FB002803D0BDE81040FDF70E
:10348000C4BB10BD00100140700300200C4810B5F3
:103490000A4901604FF4E1314160002181600C2252
:1034A000C160C0E904128161C161FFF72BFB0028F4
:1034B00003D0BDE81040FDF7A8BB10BD004400409C
:1034C000B80300200C4810B50A4901604FF4E131FF
:1034D0004160002181600C22C160C0E90412816159
:1034E000C161FFF70FFB002803D0BDE81040FDF7D6
:1034F0008CBB10BD0048004000040020FEE7000027
:1035000070B5134A9FED131A144D108120EE010A75
:103510001148518100F1240480ED000A20EE810A57
:1035200084ED000AB5F90000D4ED000A00EE100A9F
:10353000B8EEC00A30EE600ABDEEC00A10EE100A06
:1035400001F048FC0F28EDD2BDE8704001F026BB29
:10355000500000200000C3449805002046000020D1
:103560002DE9F0476B4E6C4F2DED028B308839887A
:10357000084400B200EE100A30806848B8EEC00A75
:1035800000F08EF9BDEEC00A654C10EE100A00B2D4
:10359000A080B4F9081000F043FE00B200EE100A5B
:1035A000DFF87881A080B8EEC00AA8F1480888ED5D
:1035B000000AB7F9000000EE100A4046B8EEC00A53
:1035C00001F0C1FABDEEC00A10EE100A00B2A080F0
:1035D00000F020F9B6F90000504D00EE100AD5EDCC
:1035E000000AB8EEC00A30EE600ABDEEC00A10EE66
:1035F000100A01F0EFFB4FF000099FED4A8A0A28FC
:103600001CD288ED008AB7F9000000EE100A40468F
:10361000B8EEC00A01F097FABDEEC00A10EE100A2B
:1036200000B2A08000F0F6F8A6F8009085ED008AC0
:1036300085ED018A85ED078A85ED028A3A4DDFF82E
:10364000EC802888B8F800104646084400B200EE26
:10365000100A28803148B8EEC00A243000F020F962
:10366000BDEEC00A10EE100A00B2E080B4F90A10F4
:1036700000F0D6FD00B200EE100A284FE080B8EE50
:10368000C00A243F87ED000AB6F9000000EE100AD8
:103690003846B8EEC00A01F056FABDEEC00A10EE88
:1036A000100A00B2E08000F0D7F8B5F9000007F189
:1036B000480600EE100AD6ED000AB8EEC00A30EE59
:1036C000600ABDEEC00A10EE100A01F083FB0F285D
:1036D0001CD287ED008AB8F9000000EE100A3846C7
:1036E000B8EEC00A01F02FFABDEEC00A10EE100AC3
:1036F00000B2E08000F0B0F8A5F8009086ED008AF6
:1037000086ED018A86ED078A86ED028ABDEC028B82
:10371000BDE8F0874400002040000020980500200C
:103720005000002000000000460000204200002061
:10373000FEE7000031489FED300AB1EE041A80ED3B
:10374000000A80ED080A80ED010A80ED020A80ED92
:10375000070ADFED2B0A80ED041AC0ED050A80EDA3
:10376000060A2430DFED291A80ED000A80ED080AF0
:1037700080ED010A80ED020A80ED070A80ED041A4F
:10378000C0ED050A80ED060A24309FED1E1A80ED7B
:10379000000A80ED080A80ED010A80ED020A80ED42
:1037A000070A80ED041A9FED181A80ED051AC0ED86
:1037B000061A243080ED000A80ED080A80ED010A27
:1037C00080ED020A80ED070A1030C0EC030A1430C5
:1037D0009FED0F1A80ED000A80ED080A80ED010AC6
:1037E00080ED020A80ED070A80ED041A80ED050ADB
:1037F000C0ED060A704700000000000050050020E0
:103800009A99193F9A99993E17B7D138EC51383E99
:10381000CDCC8C3F70B5014601F0DCFA0C4D84B282
:10382000002906DB002220212846FDF778FE012230
:1038300005E0012220212846FDF771FE00224021EB
:103840002846FDF76CFE542044430248046070BDD6
:10385000001802403C04014070B5014601F0BAFA7C
:103860000D4D84B2AE15002906DB012280212846C9
:10387000FDF755FE002205E0002280212846FDF7D5
:103880004EFE012231462846FDF749FE54204443AE
:103890000248046070BD000000180240400401406E
:1038A000D0ED000A70EEC00AC0ED010A90ED070AE3
:1038B00030EE201A80ED071A90ED040AD0ED051ABB
:1038C00020EE200A01EE810A90ED021AD0ED061AD0
:1038D00030EEC11A01EE810A80ED080AC0ED020A3D
:1038E00070470000054A13680B8000211160044AEC
:1038F00013685B420380116070470000240C004095
:10390000240800400020054A04E0137843F0040333
:103910001370401C8842F8D370470000F00000206C
:1039200010B50E48FDF7D0FA0A210C48FDF776FADB
:103930000B4C207048B19FED0B0A00BF84ED010ACB
:10394000BCEEC00A10EE100A10BD0448FDF708FADC
:1039500000EE100AB8EE400AF0E700002401002053
:10396000040000200000000010B5012001F036FA2C
:10397000FBE710B54FF0E020006902F0B3FD01282D
:1039800003D0BDE8104002F0E1BA10BD30B593B0ED
:1039900030216846FCF7C0FC14210CA8FCF7BCFCE5
:1039A0001D480025016841F080510160006800F069
:1039B000805011901948016841F48041016000680D
:1039C000022400F480401190012003901020049004
:1039D000009406940820CDE90750A820CDE90904F9
:1039E00004200B906846FEF777F808B172B6FEE740
:1039F0000CA90F2081E831004FF4A0500F904FF434
:103A00008050109005210CA8FDF75AFF002801D026
:103A100072B6FEE713B030BD40380240007000407F
:103A20000248016841F470010160704788ED00E0D0
:103A300010B50448FEF794FCBDE810400248FEF7BC
:103A40008FBC0000C0010020080500200148FEF7DF
:103A500087BC0000980200200148FEF781BC0000EE
:103A6000E0020020F0B50268294C2A4D2A4E2B4F67
:103A70002B4B4FF0804CA04209D0604507D0A842A4
:103A800005D0B04203D0B84201D0984204D122F010
:103A9000700E4A6842EA0E02A0421BD0604519D05F
:103AA000A84217D0B04215D0B84213D0984211D0D6
:103AB0001C4DA8420ED01C4DA8420BD01B4DA84255
:103AC00008D01B4DA84205D01A4DA84202D01A4D6D
:103AD000A84203D122F44075CA682A434D6922F0F6
:103AE00080022A4302608A68C2620A688262A04237
:103AF00001D0984201D10969016301214161016945
:103B0000C90703D0016921F001010161F0BD000086
:103B1000000001400004004000080040000C00408C
:103B200000040140004001400044014000480140C1
:103B300000180040001C00400020004010B501F0BB
:103B40001F030121046A99408C430462016A9A4070
:103B50001143016210BD10B5846842EA032224F4C7
:103B60007F440A432243826010BD826822F07002C3
:103B70000A4342F00701816070470000F0B5036A14
:103B8000026A22F00102026242688469124E24F045
:103B900073050C682C4323F002058B682B430D4DF5
:103BA000A84201D0B04205D123F00807CB683B43BF
:103BB00023F00403A84201D0B04205D14D6922F49C
:103BC000407215438A692A434260846149684163AF
:103BD0000362F0BD0000014000040140F0B5026A3C
:103BE000036A23F010030362436884690D6824F4B8
:103BF000E64444EA05248D6822F0200242EA0512D8
:103C00000F4D104EA84201D0B04206D1CF6822F02D
:103C1000800242EA071222F04002A84201D0B042DC
:103C200007D14D6923F4406343EA85038D6943EA74
:103C3000850343608461496881630262F0BD0000CE
:103C40000000014000040140F0B5026A036A23F459
:103C5000807303624368C46922F4007224F0730520
:103C60000C68124E2C438D6842EA05220E4DA84284
:103C700001D0B04206D1CF6822F4006242EA0722A6
:103C800022F48062A84201D0B04207D14D6923F4EA
:103C9000405343EA05138D6943EA05134360C46149
:103CA0004968C1630262F0BD0000014000040140A8
:103CB00030B5046A026A22F4805202624268C36923
:103CC0000D6823F4E64343EA05238D6824F4005489
:103CD00044EA0534084DA84202D0084DA84204D158
:103CE0004D6922F4804242EA85124260C36149680C
:103CF0000164046230BD0000000001400004014086
:103D000010B5036A046A24F001040462846924F093
:103D1000F00444EA021423F00A020A4384610262B6
:103D200010BD10B5036A046A24F0100404628469AB
:103D300023F0A00324F4704444EA023243EA011160
:103D40008261016210BD10B5806B0021C185C18404
:103D5000FEF79EFD10BD01680C3151E8002F22F4E2
:103D6000907241E80023002BF5D10168143151E82D
:103D7000002F22F0010241E80023002BF5D1016B56
:103D8000012909D101680C3151E8002F22F01002FD
:103D900041E80023002BF5D1202180F842100021BA
:103DA0000163704708B590F84210222901D0022023
:103DB00008BD82684FF480539A4201D1016921B154
:103DC000816A9A421BD04AB10AE00268816A52684D
:103DD000C2F308020A80816A891C08E0026972B194
:103DE0000268526802F07F020A70816A491C81628F
:103DF000C18D491E0904090CC18503D01BE002686E
:103E00005268F1E70168CA6822F02002CA600168BE
:103E1000CA6822F48072CA6001684A6922F001020D
:103E20004A61202180F8421000214163026B012A7F
:103E300003D0FEF76BFF002008BD016301680C3161
:103E400051E8002F22F0100241E80023002BF5D1A9
:103E500001680A68D20602D50A6849680091818D16
:103E6000FEF715FDE7E7000070B50446006801693C
:103E7000E26821F44051114301612169A068E269BF
:103E800008436169114308432168CA6849F20C6319
:103E90009A430243CA6020684169A26921F44071D3
:103EA0001143416131492068884202D0304988423B
:103EB00002D1FDF7CFFD01E0FDF7BCFDE269002373
:103EC000192164253226B2F5004F626828D0A0FB84
:103ED0000101930F9200FCF7D5F90146B0FBF5F014
:103EE0006FF01802504301EB800006EB0010B0FBAE
:103EF000F5F000F0F002B1FBF5F002EB0012B1FBBF
:103F0000F5F06FF01803584301EB800006EB00104A
:103F1000B0FBF5F000F00F0021681044886070BD20
:103F2000A0FB010192185B41FCF7ACF90146B0FB24
:103F3000F5F00201B1FBF5F06FF01803584301EB07
:103F4000800006EBC000B0FBF5F000F0F80002EBDB
:103F50004002B1FBF5F0584301EB800006EBC000D6
:103F6000B0FBF5F000F00700D6E7000000100140BC
:103F70000014014081628285C285002141642221B2
:103F800080F84210016921B10168CA6842F4807268
:103F9000CA6001684A6942F001024A610068C1686A
:103FA00041F02001C1600020704700000148FEF789
:103FB00071BC0000700300200148FEF76BBC0000DC
:103FC000B80300200148FEF765BC00000004002093
:103FD000FEE700002DE9FC5F0D46064628446FF021
:103FE0000507902879D2474C380C224600EA45094B
:103FF0001078D4F820C052686FF0040A4FF0FF0B1D
:104000004FF0AA0EF3B2C6F30721BCF1070F77D227
:10401000DFE80CF00415364B76153600042D6FD80A
:10402000F2B38DF800B027208DF801E08DF8020082
:104030008DF804108DF80330052168465CE07AB3F2
:1040400009F10502B2F5807F35D88DF80000032014
:104050008DF80100280A8DF802108DF804008DF803
:1040600003308DF805500621684600F0F1F8010A8A
:104070008DF806108DF807000821684662683BE05D
:10408000032D3DD825695DB18DF800B08DF801E0B4
:1040900027228DF802208DF803308DF8041000E0FF
:1040A0001CE005226946A84727E0E768B7B14B4600
:1040B000B9F5807F03D96FF00300BDE8FC9F40068F
:1040C000F1B2000E104AB847012816D162692AB130
:1040D0000D4B002003F580710AE011E05046ECE73B
:1040E00033F8107000EB060C401C21F81C7080B2F5
:1040F000A842F5D329463046904700206662DCE7A7
:104100003846DAE7F8000020184F002018B10349BC
:104110004861002070476FF005007047F8000020EC
:104120002DE9FC413B4C6169002955D03A49E269CF
:1041300000268854521CE261206A072865D2DFE815
:1041400000F0042F6767042F67000878552804D013
:10415000521E3148491CE2613CE00B2A55D30A2526
:104160002D4F00204FEA000317F803C05B1C60448A
:10417000C0B2AB42F8D38B7A8342E9D14888ADF81C
:1041800000008888ADF80200C888ADF804000889EE
:10419000ADF80600487804226946FCF791FC37E048
:1041A000022A32D948780328D2D18878401D90421B
:1041B00012D888180D4630F8020C921E47BA91B2F8
:1041C000154800F045F8874208D0E269691C521E84
:1041D0001148E261FCF787F8BDE8FC81A8780F4B35
:1041E00042080021606A0AE005EB410701EB000C80
:1041F000B7F80370491C7FBA23F81C7089B291424A
:10420000F2D311466269904702E0B2F5807FE3D1B4
:10421000E661E1E7F8000020184F00201850002068
:104220004A42904200DA1046884200DD0846704754
:104230000FB4054B10B503A9044A029800F000F929
:1042400010BC5DF814FB0000E54B000820010020C5
:10425000F0B5FF23084E1C46002206F5807705E0E6
:10426000855C5D40735D63407C5D521C8A42F7DB78
:1042700044EA0320F0BD0000946800080907090E15
:10428000002804DB00F1E02080F80014704700F003
:104290000F0000F1E02080F8141D704702E008C80C
:1042A000121F08C1002AFAD170477047002001E0B0
:1042B00001C1121F002AFBD1704700002DE9FF5FEA
:1042C00082B00021DDE90430020DDDF840B0034387
:1042D00018D044F61050A2F2FF3242431514119840
:1042E00001281FD0A5EB0B00401C5FEA000A4FF02D
:1042F00000064E4FDFF83891B046504615D5CAF14A
:10430000000413E0119801244AA3012801D16FEAA7
:104310000B010298119AC0E90031C0E9024206B0CF
:10432000BDE8F09FCBF10000DFE704460021404AE2
:10433000491842EB0450CDE9001012E0E00707D025
:1043400032463B4640464946FBF7F1FF80468946E8
:1043500032463B4610461946FBF7E9FF06460F4634
:104360006410002CEAD1DDE90401DDE90023BAF193
:10437000000F06DAFBF7DBFF42464B46FBF7D7FFA1
:1043800005E0FCF7F2F942464B46FCF7EEF904462D
:104390000E460022284BFCF76FFA03D84FF0FF308F
:1043A000014607E00022254B20463146FCF736F94E
:1043B000FCF74AFA102409E0002C0ADB0A22002349
:1043C000FBF760FF039B30321A55641E50EA01026E
:1043D000F2D1641C039AC4F111031444119A012A06
:1043E00003D0012208430DD10AE0084304D0002085
:1043F0004FF0110B119072E7A3EB0B056D1E0DE052
:104400005B4504DD4FF0000205F1010504E003DA2D
:104410004FF00002A5F10105002AECD00298119995
:10442000C0E90231C0E9004579E70000000014400E
:104430000000F03F300000000000F0430000E03FCB
:104440002DE9FF4F95B09A46884606460025EEE1D5
:10445000252877D100242746F94A0121039400E05A
:10446000044316F8013F203B01FA03F01042F7D154
:1044700030782A2811D06FF02F033078A0F1300265
:10448000092A16D8039A44F0020402EB820203EBD5
:1044900042021044761C0390EFE758F8042B039275
:1044A000002A03DA504244F40054039044F002041A
:1044B000761C30782E2816D116F8010F44F004042B
:1044C0002A280DD06FF02F023078A0F13003092B8D
:1044D00009D807EB870302EB4303C718761CF3E701
:1044E00058F8047B761C30786C280FD006DC4C28FA
:1044F00017D068280DD06A2814D104E0742810D091
:104500007A280FD10DE044F400140AE044F480143A
:1045100001E044F440147278824202D104F5801420
:10452000761C761C307866280BD013DC582877D0A0
:1045300009DC002875D04528F6D04628F4D0472855
:104540001AD193E118E0632835D0642879D0652822
:1045500012D18BE1702873D008DC6728F1D069286C
:104560006FD06E280DD06F2806D1ACE073282CD008
:10457000752874D0782853D05246179990476D1CEF
:1045800054E1C4F30250022809D003280DD0D8F812
:10459000001004280DD00D6008F1040846E1D8F899
:1045A0000010EA17C1E90052F6E7D8F800100D80B4
:1045B000F2E70D70F0E718F8041B8DF800100020EA
:1045C0008DF80100EB46012003E058F804BB4FF0E2
:1045D000FF3061074FF0000102D40DE009F1010145
:1045E0008946B9420FDA8145F8DB1BF8091000292A
:1045F000F4D108E009F1010189468142FADB1BF898
:1046000009100029F6D103985346A0EB090721466B
:104610003846179A00F080FA284400EB090507E0B5
:1046200044E008E10DE01BF8010B52461799904752
:10463000B9F10109F7D2534621463846179AF2E0FC
:1046400039E00A21C4F302524FF0000B0091022A14
:1046500006D058F8040BC117032A09D00AE023E05A
:1046600008F1070020F00702F2E80201904605E099
:1046700000B2C117042A01D140B2C117002906DADD
:104680000A460021404261EB02012D2202E0220590
:1046900004D52B228DF80420012203E0E20701D08B
:1046A0002022F7E7914657E00A2100E010214FF061
:1046B000000B00910BE010214FF0000B44F00404BC
:1046C0000827009103E008204FF0000B0090C4F38E
:1046D0000252022A05D058F8040B0021032A08D000
:1046E00008E008F1070020F00702F2E80201904616
:1046F00003E080B2042A00D1C0B24FF000092207C3
:104700002AD53278702A07D0DDF800C08CF0100C62
:104710005CEA0B0C05D00EE040228DF8042001224B
:1047200008E050EA010306D030238DF804308DF8FC
:10473000052002229146009B83F0080353EA0B03F5
:104740000AD150EA010201D1620705D530228DF865
:1047500004204FF001097F1E3278582A04D039A274
:104760000C920CAA02920BE03BA2F9E75B46009A7E
:10477000FBF788FD0C9B9B5C029A521E0292137001
:1047800050EA0102F2D1029804A9081A00F1200BA4
:10479000600702D524F4803400E001275F4502DD84
:1047A000A7EB0B0000E0002000EB0B01009003984A
:1047B0004944401A0390E00306D453462146179A11
:1047C000039800F0A9F90544002706E001A8524625
:1047D000C05D179990476D1C7F1C4F45F6DBE003C9
:1047E0000CD553462146179A039800F095F90544D5
:1047F00004E030205246179990476D1C0099481EDE
:1048000000900029F5DC08E00298029952460078F1
:10481000491C0291179990476D1CBBF10001ABF147
:10482000010BF1DC5BE100F065F90544761C3078A2
:1048300000287FF40DAE19B02846BDE8F08F0000C7
:104840000928010030313233343536373839616266
:10485000636465660000000030313233343536372A
:10486000383941424344454600000000600700D407
:10487000062708F1070020F00700F0E80223804631
:1048800003F0004C5FEA0C0001D097A009E020057E
:1048900001D596A005E0E00701D095A001E0AFF2B8
:1048A0004C001390307823F0004365280CD006DCD0
:1048B000452809D046281DD047287FD13BE06628EF
:1048C00018D067287AD136E00021112F01DB1120A2
:1048D00000E0781CCDE9000104A90CA8FFF7EEFC6C
:1048E000DDE90D010C9A4FF0000B07F10109109260
:1048F00000914EE04FF000400097CDE9011004A96F
:104900000CA8FFF7DBFCDDE90D020C9B0F994FF0C3
:10491000000B91461093009211B9791C00EB01092C
:10492000B7EB090003D4C0F1FF3B07F10109A9EB84
:104930000700019042E0012F00DA01270021112F2A
:1049400001DD112000E03846CDE9000104A90CA8E2
:10495000FFF7B4FCDDE90D010C9A00914FF0000B5C
:10496000B946109221070FD4009A4A4503DA9146BE
:1049700001E0A9F10109B9F1010F05DD109AA9F1D2
:104980000101515C3029F4D0B84202DA10F1040F71
:1049900003DA0121CDE9011010E0002803DC834493
:1049A000A9EB000102E0411C494500DD8946A0EB6E
:1049B0000B00401C01904FF000400290200705D4EE
:1049C0000198484502DB4FF0FF30019000208DF840
:1049D0004B0002980DF14B07B0F1004F25D002209B
:1049E0000C902B200D90029800280CDA4042029087
:1049F0002D200D9007E00A210298FBF746FD30318B
:104A0000029007F8011D0C99481E0C900029F2DC59
:104A100002980028EFD1791E0D980870307800F0C8
:104A2000200040F0450007F8020D11A8C01BC01D72
:104A300002901398007800B1012000EB0901019861
:104A400001EBE071029801440398401A401E039064
:104A5000E00306D453462146179A039800F05CF809
:104A600005441398007818B15246179990476D1C69
:104A7000E00323D553462146179A039800F04CF8DB
:104A800005441BE0BBF1000F07DB0098584504DD2F
:104A90001098179910F80B0001E017993020524632
:104AA000904701980BF1010B401E05F101050190A3
:104AB00004D12E205246179990476D1CB9F1000180
:104AC000A9F10109DEDC05E017F8010B5246179940
:104AD00090476D1C0299481E02900029F4DC534651
:104AE0002146179A03989EE62D0000002B00000037
:104AF000200000002DE9F041044600251E4617461F
:104B0000880404D405E039462020B0476D1C641E9B
:104B1000F9D52846BDE8F0812DE9F041044600258D
:104B20001E469046C80301D5302700E020278804A0
:104B300004D505E041463846B0476D1C641EF9D5E2
:104B40002846BDE8F081D0ED000AB0EE002A70EEF4
:104B5000C00AC0ED010A90ED021AD0ED041A30EE41
:104B6000C10A20EE210AD0ED051A01EEA00AF0EEEE
:104B7000601A41EE421A90ED032A71EE821A90ED0E
:104B8000062A02EE210AD0ED081A30EE210A80ED45
:104B9000080A80ED031AC0ED020A70470D48002193
:104BA0009FED0D0A01800D4880ED000A80ED010A9D
:104BB00080ED020A80ED070A094801800748243089
:104BC00080ED000A80ED010A80ED020A80ED070AFF
:104BD00070470000440000200000000098050020FD
:104BE0004600002004490A685206FCD5024AC1B2B8
:104BF000121D116070470000004400401CB50749B9
:104C00000120CDE900010023802205A1074801F021
:104C100011FCBDE81C4001F0A1B800005C000020C0
:104C200073746172745F7461736B0000AD57000838
:104C30002DE9F0470025254E254C01274FF400783B
:104C40004FF4807908B1377001E0307870B1414697
:104C50002046FCF757FC80B180212046FCF752FC2F
:104C600058B149462046FCF74DFC30B1414620463C
:104C7000FCF748FC012818D024E00A20FCF738FB98
:104C80000020307041462046FCF73CFC00B901256D
:104C900080212046FCF736FC00B902254946204613
:104CA000FCF730FC70B903250CE080212046FCF7AE
:104CB00029FC012806D149462046FCF723FC01289F
:104CC00000D137702846BDE8F0870000340000208E
:104CD00000100240FCF738FDFEF758FEFEF77EF9A3
:104CE000FEF74EF9FEF7F2FAFEF714FBFEF736FB7D
:104CF000FEF7B0FBFEF7CAFBFEF7E4FBFEF77AFA1D
:104D0000FEF70CF9FEF7ACFAFEF7E6F9FEF704FA47
:104D1000FBF77DFF2248FDF78BF92248FDF788F964
:104D200000212148FDF78EFC04211F48FDF78AFC75
:104D300008211D48FDF786FC0C211B48FDF782FC6D
:104D400000211A48FDF77EFC0C211848FDF77AFC7B
:104D5000062217491748FDF7CBFF062216491748C8
:104D6000FDF7C6FF062216491648FDF7C1FF3C2194
:104D70001548FDF7ADFA3C211448FDF7A9FA14488F
:104D8000FCF7A2F8FEF7D6FCFEF75CF800F034F86A
:104D9000FEF714F9FFF732FFFEF760F8FCE70000BA
:104DA00098020020E002002028030020C00100201B
:104DB000110000207003002017000020B80300201D
:104DC0001D000020000400205002002008020020E6
:104DD00024010020002800DA4042704710B5EFF3AC
:104DE000058111B16FF0050403E0002408B100F063
:104DF00005FF204610BD0000EFF3058010B16FF0F5
:104E0000050070470448016811B14FF0FF3070474A
:104E10000121016000207047C00000202DE9FF4102
:104E20004FEA01034FF00005EFF30581039549BBFD
:104E300040B38027182100244AB3166806B13446CF
:104E400096691EB13146761E382E02D21679F607C3
:104E500003D0002004B0BDE8F081566906B1B70860
:104E6000D2F808C0BCF1000F0DD0D5685C2D18D366
:104E700012693AB136B18DE806103A46214601F082
:104E800006FB03900DE0D6685EB912694AB903AA21
:104E9000CDE90012BAB2214601F0CCFA012800D0C7
:104EA00003950398D6E700002DE9F041134C0F4617
:104EB0000546E6682068001D00F06CFD681C07D1FF
:104EC00037B12168BDE8F0410D48091D00F0B2BDC1
:104ED00020683544B5424560216805D2A06BBDE825
:104EE000F041091D00F08EBD606B091D00F08AFDC8
:104EF000A06A854200D2A562BDE8F0817000002062
:104F0000F40A00202DE9F041054600F09FFD2D4CEC
:104F1000A068401CA06020682B4F10B1606930B3BE
:104F20002BE02560A068012827D1002606EB86002B
:104F300007EB800000F058FD761C382EF6D323488E
:104F400000F052FD2148143000F04EFD1F4828307B
:104F500000F04AFD1D483C3000F046FD1B48503033
:104F600000F042FD194860631430A06305E020683A
:104F7000E96AC06A884200D82560606A401C6062A5
:104F80006864E86A2169884200D9206100EB8000EA
:104F900007EB8000291D00F04DFD00F077FD6069F2
:104FA00000280CD02068E96AC06A884207D2084904
:104FB0004FF080500860BFF34F8FBFF36F8FBDE895
:104FC000F08100007000002044060020A40A0020A8
:104FD00004ED00E038B500F039FD104C2068C8B988
:104FE0000F4800F001FD0E48143000F0FDFC0C48A5
:104FF000E060143020610A4B0020F03B009003F188
:10500000500210210A2000F0B7FF206010B105A166
:1050100000F0BEFDBDE8384000F038BDAC00002017
:10502000F80B0020546D72510000000030B4026C87
:105030000B46002A0BD0C1681144C1608468A142AC
:1050400001D30168C16030BC1846FBF74CB930BCD5
:1050500070472DE9F041856B174604460026026C27
:1050600082B1C7B1E068FBF73EF9E168206C091A2C
:10507000E1602268914202D2A168081AE060022F22
:1050800016D017E02068A8B9A06801F0A3FA064678
:105090000020A0600EE06068FBF725F9216C6068D5
:1050A00008446060A168884204D32068606001E021
:1050B00005B16D1E6D1CA5633046BDE8F08110B5CD
:1050C000044690F8590058B101280CD002280FD09E
:1050D000502080F31188BFF34F8FBFF36F8FFEE72F
:1050E000206B00F0E7FC2046BDE8104000F0E2BC79
:1050F00010BD000010484FF47051420706D0C01D8B
:105100000D4920F00700411AC1F570510B4A0023E8
:105110000144C2E900030839183A21F0070111607F
:105120004B600B600B1AC0E9001393604FF0004016
:105130005360506170470000D8120020DC0000204E
:10514000144E154CA6F29C474FF08058DFF84C9057
:1051500012E000BF00F07AFCF068C568281D00F07E
:1051600019FCA068401EA0606068401E606000F0EE
:105170008DFC2846FFF7A3FF60680028EAD1386855
:105180000128F9D9C9F80080BFF34F8FBFF36F8FA3
:10519000F2E70000E00A00207000002004ED00E0CB
:1051A00070B51D46049C51B1C4F80020C4E90F013C
:1051B0000121204600F014FF84F84C5070BD24609B
:1051C000F4E700002DE9F05F8846DDE90B94154611
:1051D000834691009A460A9EA522206BFBF795F81C
:1051E0006FF00301206B01EB8501084420F00707F5
:1051F000780707D0502080F31188BFF34F8FBFF39B
:105200006F8FFEE70025B8F1000F0FD05FF00000B0
:10521000221818F8001082F8341018F8001011B194
:10522000401C1028F4D384F8435001E084F8345033
:10523000382E00D33726E662C4E91365201D00F03E
:10524000DEFB04F1180000F0DAFB2461C6F138003F
:105250006462A061656584F85850524659463846E4
:1052600000F05AFA2060B9F1000F01D0C9F80040EF
:10527000BDE8F09F30B5114900E011460A6882424E
:10528000FBD34B685C18844203D1406818444860E3
:10529000084643681C18944209D1084C183C2468FD
:1052A000A24209D052681A4442600A681268026039
:1052B000814200D0086030BD0460F9E7DC000020C6
:1052C00070B5002441600B4D0061914206D8D11A9F
:1052D0008269914206D2011D286907E09A4203D2F1
:1052E000994201D3012403E0011DE86800F08AFB24
:1052F000204670BDAC00002010B5044600F0A6FBAF
:10530000A06B28B15FF0000400F0C0FB204610BD88
:105310000124F9E730B589B03C4D6EE004980028CF
:1053200006DADDE90601059A90470498002864DB57
:10533000069C606910B1201D00F02CFB03A800F052
:10534000D7F8024604980A2857D2DFE800F005058E
:10535000052D334A05052D3394F8280040F001004F
:1053600084F828000599A069059B01442046FFF7B1
:10537000A7FF68B3216A2046884794F828004007B1
:105380003BD5002000900598A169002342181946DA
:10539000204601F029FAD8B9502080F31188BFF3D4
:1053A0004F8FBFF36F8FFEE714F8280F20F0010036
:1053B000207022E094F8280040F0010084F82800D2
:1053C0000598A06128B1811813462046FFF778FFA1
:1053D00013E0502080F31188BFF34F8FBFF36F8F1E
:1053E000FEE794F82800810703D4204600F062FB12
:1053F00003E020F0010084F82800002204A92868B6
:1054000000F042FF002889D109B030BDAC00002077
:105410002DE9FC410F46054600F0E4FC01A800F030
:1054200067F80446019818B101F04CF9BDE8FC8119
:10543000254EAFB130690068D0B30027291B3A462A
:10544000306800F0B9FB01F03DF90028EED11F49AA
:105450004FF080500860BFF34F8FBFF36F8FE5E7C9
:10546000A542EBD801F02EF9F0682746C068C46861
:10547000201D00F08FFA94F82800410719D5A06983
:105480002B4641193A462046FFF71AFFA8B10020E3
:105490000346014600902A46204601F0A5F960B96E
:1054A000502080F31188BFF34F8FBFF36F8FFEE75B
:1054B00007E020F0010084F82800216A2046884790
:1054C000B4E70127BAE70000AC00002004ED00E0DB
:1054D0000648416B096829B1416BC968C9684968C8
:1054E000816270474FF0FF31FAE700007000002042
:1054F00070B5054601F004F8064E0446B0688442D3
:1055000003D200F009F8012000E0002028602046C6
:10551000B46070BDAC000020F8B5194D20E0C06843
:10552000C4680668201D00F035FA216A20468847C5
:1055300094F82800400713D5A0693044B04206D93A
:1055400024616060211DE86800F05CFA08E000203A
:105550000346014600903246204601F045F938B135
:10556000E86801680029DAD12969C5E90310F8BDA6
:10557000502080F31188BFF34F8FBFF36F8FFEE78A
:10558000AC00002008484068401C4FF0500080F3F9
:10559000118804D0BFF34F8FBFF36F8FFEE7BFF3C7
:1055A0004F8FBFF36F8FFEE7E4000020074CE068E9
:1055B000016841B1C0680021D0F80000FFF728FF62
:1055C000FFF7A8FEF3E701210020F7E7AC00002079
:1055D0002DE9F041044600F039FA94F9455004F100
:1055E000240609E0606A48B1304601F033F808B19A
:1055F00000F07AFB6D1E6DB2002DF3DC4FF0FF362C
:1056000084F8456000F042FA00F020FA94F9445022
:1056100004F1100709E0206948B1384601F01AF892
:1056200008B100F061FB6D1E6DB2002DF3DC84F853
:105630004460BDE8F04100F029BA00002DE9F041D6
:105640000546002700F0CEFB324E306808B9FFF760
:1056500051FD706905424ED1C5B3083568070ED0BB
:1056600005F00700C0F108000544680707D0502086
:1056700080F31188BFF34F8FBFF36F8FFEE72DB319
:105680007068854237D82348183001460C6801E01D
:1056900020460C466168A94202D221680029F7D150
:1056A00031688C4227D0076821680160606808373C
:1056B000411B10290FD96019420708D0502080F3F0
:1056C0001188BFF34F8FBFF36F8FFEE713E0416088
:1056D0006560FFF7CFFD61687068401A7060B2685E
:1056E000904200D2B060706901430020C4E900011B
:1056F000F068401CF06000F0E5FF780707D050200C
:1057000080F31188BFF34F8FBFF36F8FFEE73846EA
:10571000BDE8F081C400002010B5031F4FF0807475
:105720001C601B1F21F001011960191F044B0B6045
:1057300014390A60091F6FF0020244380A6010BD74
:1057400085550008154810B5B0F9000000EE100AA4
:105750001348B8EEC00AFFF7F6F9BDEEC00A114CC7
:1057600010EE100A20801048B0F9000000EE100A78
:105770000B48B8EEC00A2430FFF7E5F9BDEEC00AC9
:1057800010EE100A6080B4F90000FEF743F8B4F997
:105790000200BDE81040FEF75FB8000040000020A6
:1057A0005005002050000020420000201CB500F0F1
:1057B0004DF919490220CDE900010023802217A1EB
:1057C000184800F037FE14490320091DCDE90001F7
:1057D0000023802214A1164800F02CFE0E4904205C
:1057E0000831CDE900010023802212A1134800F006
:1057F00021FE094905200C31CDE90001002380225A
:105800000FA1114800F016FE002000F01DFABDE8BF
:105810001C4000F03BB90000600000207461736B15
:10582000310000004D5800087461736B32000000B5
:10583000815800087461736B33000000B55800088C
:105840007461736B34000000E9580008064C4FF493
:10585000FA7510212046FBF75AFE04A0FEF7E8FC7B
:10586000284600F0CBF9F4E7000002407461736B46
:10587000313A457865637574696E670D0A000000FA
:10588000064C4FF47A7540212046FBF740FE04A0F9
:10589000FEF7CEFC284600F0B1F9F4E70010024014
:1058A0007461736B323A457865637574696E670D20
:1058B0000A000000064C40F2DC5510212046FBF7A0
:1058C00026FE04A0FEF7B4FC284600F097F9F4E7A2
:1058D000001002407461736B333A457865637574E8
:1058E000696E670D0A00000013A0FEF7A1FC164CBC
:1058F00000250020FFF79CF9012819D1606830B11C
:1059000000F0A2F911A0FEF793FC656010E0A0681A
:1059100030B100F099F913A0FEF78AFCA56007E00A
:10592000E06828B100F090F914A0FEF781FCE56072
:105930000A2000F063F9DCE75461736B3420537480
:105940006172740D0A0000005C0000205461736BEA
:1059500031203D3D3E2044656C65746564200D0A30
:10596000000000005461736B32203D3D3E204465D1
:105970006C65746564200D0A000000005461736B4F
:1059800033203D3D3E2044656C65746564200D0AFE
:1059900000000000D0E9013201699A60D0E90123DA
:1059A0005A604A68824201D182684A6000220261DC
:1059B0000868401E0860086870470000034B0360D9
:1059C00003F15C000860802010607047200C00200C
:1059D000044B036003F15C0008604FF480701060BA
:1059E000704700007C0E002000F108014FF0FF32EC
:1059F000C0E90112C160016100210160704700210E
:105A00000161704730B50B685A1C02D000F10802E2
:105A100002E0026904E02246546825689D42FAD9F2
:105A200053684B6099608A60516008610168491C45
:105A3000016030BD42684A6093688B60936859602A
:105A4000916008610168491C01607047502080F333
:105A50001188BFF34F8FBFF36F8F0A494868401C0E
:105A6000486001280CD10848006810F0FF0F07D0EB
:105A7000502080F31188BFF34F8FBFF36F8FFEE785
:105A800070470000E400002004ED00E00849486889
:105A900028B1401E486001D180F311887047502022
:105AA00080F31188BFF34F8FBFF36F8FFEE70000C5
:105AB000E400002070B500282AD0164DA0F108049B
:105AC00060686969084207D1502080F31188BFF3EC
:105AD0004F8FBFF36F8FFEE722683AB1502080F3FB
