:020000040800F2
:10000000E8090020A101000887480008B53200086F
:1000100085480008190B00088951000800000000FD
:10002000000000000000000000000000B9490008C6
:10003000010C00080000000069490008514B00084D
:10004000BB010008BB010008BB010008BB010008A0
:10005000BB010008BB010008BB010008BB01000890
:10006000BB010008BB010008BB010008BB01000880
:10007000BB010008BB010008BB010008BB01000870
:10008000BB010008BB010008BB010008BB01000860
:10009000BB010008BB010008BB010008BB01000850
:1000A000BB010008BB010008BB010008BB01000840
:1000B000BB010008BB010008BB010008BB01000830
:1000C000BB010008BB010008BB010008BB01000820
:1000D000BB01000865510008715100087D510008FE
:1000E000BB010008BB010008BB010008BB01000800
:1000F000114C0008BB010008BB010008BB0100084F
:10010000BB010008BB010008BB010008BB010008DF
:10011000BB010008BB010008F94B0008054C0008B2
:10012000BB010008BB0100081D0B0008BB01000853
:10013000BB010008BB010008BB010008BB010008AF
:10014000BB010008BB010008BB010008BB0100089F
:10015000BB010008BB010008290B0008BB01000817
:10016000BB010008BB010008BB010008BB0100087F
:10017000BB010008BB010008BB0100080000000033
:10018000BB010008BB010008DFF810D000F0CCFB79
:1001900000480047D9740008AFF30080E809002048
:1001A0000648804706480047FEE7FEE7FEE7FEE711
:1001B000FEE7FEE7FEE7FEE7FEE7FEE7E94B0008A5
:1001C000890100082DE9F05F0546002092469B4614
:1001D00088460646814640241BE02846414647465D
:1001E000224600F0A2FA53465A46C01A914110D353
:1001F00011461846224600F089FA2D1A67EB0108CD
:100200004F4622460120002100F080FA17EB00093A
:100210004E41201EA4F10104DFDC484631462A4647
:100220004346BDE8F09F2DE9F0410024061B25461A
:1002300071F1000605DA01240027D0EB070067EB17
:100240000101161E73F1000605DA0027D2EB070242
:10025000012567EB0303FFF7B5FF86460E461746F9
:100260009C46AC4204D00025D0EB050E65EB0106A0
:1002700024B10020D2EB000760EB030C704631463E
:100280003A466346BDE8F081D2B201E000F8012BA6
:10029000491EFBD270470022F6E710B513460A4606
:1002A00004461946FFF7F0FF204610BD30B504465E
:1002B0000020034600E05B1C934203D2E05CCD5C6F
:1002C000401BF8D030BD2DE9FE4F804681EA030087
:1002D000C00F0C46009021F0004123F00045B8EB20
:1002E0000200A94105D24046214690461C460B46D5
:1002F000024623F00040104347D0270DC7F30A0001
:10030000C3F30A510290401A019040286BDAC3F3FC
:10031000130040F4801B0098924620B10023D2EBDA
:10032000030A63EB0B0B01985946C0F1400250469B
:1003300000F0ECF906460D4650465946019A00F089
:1003400004FA10EB08006141002487EA115284EAA4
:10035000E7731A4340D0009A62B3019A012A4FEA28
:10036000075215DC001B61EB02014FF0004202EA6C
:100370000752CDE90042001C41F5801132462B4660
:1003800000F03BFA03B0BDE8F08F40462146F9E7A4
:10039000001B61EB0201001C41F5801300185B415A
:1003A0002018A2F5001747EB030140EAD570B619F3
:1003B0006D4111E06D084FEA360645EAC0754FEA17
:1003C0000752001B61EB0201001C41F58011490836
:1003D0004FEA30000019514132462B4603B0BDE8C8
:1003E000F04F00F0FBB90098012240000023D0EB51
:1003F000020263EBE073009821464FEAE074B8EB29
:10040000000061EB0401E9E783F000435BE781F062
:10041000004158E72DE9FE4F81EA030404F000444F
:1004200021F0004100944FF0000B23F0004350EA0C
:1004300001045ED052EA03045BD0C3F30A54C1F353
:100440000A552C44A4F2F3340194A0FB0254C1F3E6
:10045000130141F48011C3F3130343F4801301FB30
:10046000024400FB034E840A970A44EA815447EA97
:100470008357A4FB076802958D0A05FB07854FEAA1
:10048000932C04FB0C542705029D4FEA065847EABB
:100490001637B5EB08056EEB070C870E920E47EA90
:1004A000811742EA8312A7FB0201B6EB0B0164EB52
:1004B00000042B0D43EA0C335E1844EB1C50DA4663
:1004C0005146E7FB0201C5F313044FEA0B3343EA3D
:1004D00014534FEA0432019C43EA0603A4F10C04CE
:1004E0000294009CCDE900B400F087F903B0BDE8A8
:1004F000F08F00200146F9E72DE9F04D81EA030471
:1005000004F0004B21F0004514464FF0000A23F0A0
:10051000004150EA050220D054EA01021DD0C5F383
:100520000A570246C5F31303C1F31300C1F30A5679
:1005300040F4801543F48013A7EB0608101BD64641
:1005400008F2FD3873EB050002D308F1010801E061
:1005500092185B41B8F1000F03DA00200146BDE8B4
:10056000F08D00204FF48011064684460EE0171BE4
:1005700073EB050705D3121B63EB050306434CEA37
:10058000010C49084FEA300092185B4150EA01071C
:10059000EDD152EA030012D082EA040083EA050199
:1005A000084305D0101BAB4106D20122002306E010
:1005B00000224FF0004302E06FF0010253101AEBEB
:1005C00006004CEB085110EB0A0041EB0B01BDE8B3
:1005D000F04D00F003B90EB5C10F80EAE070084499
:1005E000CA07002140F233438DE80E000A460B464D
:1005F00000F003F903B000BD0EB540F233410291A3
:100600000021CDE900110A460B4600F0F6F803B0D0
:1006100000BD70B5C1F30A5201F000450024C1F3DA
:10062000130140F2FF3341F480119A4201DA0020B5
:1006300070BD40F233439A42A2F2334203DC52428D
:1006400000F073F800E090402C43F1D0404270BDC0
:10065000C1F30A5210B5C1F3130140F2FF3341F464
:1006600080119A4201DA002010BD40F233439A42D1
:10067000A2F2334203DC524200F057F810BD904022
:1006800010BD00F0004230F000400AD0C10D01F56D
:100690006071C0F3160042EA0151C20840071143DD
:1006A000704700200146704701F0004330B421F04C
:1006B000004150EA010206D00A0DA2F56072C1F3B2
:1006C0001301002A02DC30BC00207047440F44EACA
:1006D000C104C100E01830BC00EBC25000F047B8C4
:1006E00030B50B46014600202022012409E021FA02
:1006F00002F59D4205D303FA02F5491B04FA02F5FF
:100700002844151EA2F10102F1DC30BD202A04DBD1
:10071000203A00FA02F1002070479140C2F1200314
:1007200020FA03F3194390407047202A04DB203A53
:1007300021FA02F00021704721FA02F3D040C2F101
:1007400020029140084319467047202A06DBCB1748
:10075000203A41FA02F043EAE07306E041FA02F37C
:10076000D040C2F120029140084319467047002949
:10077000A8BF7047401C490008BF20F00100704727
:1007800010B4B0FA80FC00FA0CF050EA010404BF87
:1007900010BC704749B1CCF1200421FA04F411FADD
:1007A0000CF118BF012121430843A3EB0C01CB1D21
:1007B0004FEA00614FEA102042BF002010BC704792
:1007C00000EBC35010440029A4BF10BC7047401C6C
:1007D000490008BF20F0010010BC704710B5141E7E
:1007E00073F1000408DA401C41F1000192185B41EA
:1007F0001A4301D120F0010010BD2DE9F04D9246C1
:100800009B4611B1B1FA81F202E0B0FA80F22032D7
:100810009046FFF77BFF04460F4640EA0A0041EA94
:100820000B0153465A46084313D0114653EA0100C0
:1008300019D0C8F140025046FFF777FF05460E4633
:10084000504659464246FFF761FF084305D0012054
:1008500004E020463946BDE8F08D0020054346EA15
:10086000E0762C4337430A986305E40AA0EB0800BE
:100870000022FD0A44EA47540A3002D5002001460E
:10088000E9E7010510196941DDE9084500196941E9
:10089000BDE8F04DA2E7C1F30A52C1F3130140F2E3
:1008A000FF3341F480119A4202DA0020014670477A
:1008B00040F233439A42A2F2334202DC5242FFF743
:1008C00034BFFFF723BF000030B5041E71F10004F0
:1008D00004DB4FF00044404264EB0101141E73F14D
:1008E000000405DB1C464FF00043524263EB040357
:1008F0008B4208BF824230BD30B5041E71F1000446
:1009000004DB4FF00044404264EB0101141E73F11C
:10091000000405DB1C464FF00043524263EB040326
:10092000994208BF904230BD064C074D06E0E06892
:1009300040F0010394E8070098471034AC42F6D326
:10094000FFF726FCD0B80008F0B800082DE9F04DFC
:1009500000231A461B1A8A4103DB00200146BDE82A
:10096000F08DC1F30A52C1F3130141F480154FF029
:10097000000BD10702D100186D41521E002704461A
:1009800040F2FF11384601EB620A3E4680460246BD
:1009900000204FF48011FFF7C8FEC2197141BB1847
:1009A00046EB0100B4EB030C75EB000C04D3E41A26
:1009B00065EB000517460E46241908F101006D414C
:1009C00080463428E3DDF91946EB0600091BA841EF
:1009D00003D24FF0FF32134601E0002213461BEB17
:1009E000070046EB0A51BDE8F04DFFF7F7BE0000E7
:1009F000464910B54A6822F440324A604A68436862
:100A00001A434A6001684A6822F480724A600168A9
:100A10004A68036942EA03224A6001684A6822F090
:100A200040724A6001684A6883681A434A600168F4
:100A30008A6822F400628A6001688A68C3681A437F
:100A40008A60816A6FF07062D14201688A6822F020
:100A500070628A6001688A680CD0836A1A438A606F
:100A600001688A6822F040528A6001688A68C36A15
:100A70001A4301E022F040528A6001688A6822F03D
:100A800002028A6001688A68037E42EA43028A6041
:100A900090F82010002901684A680FD042F40062E3
:100AA0004A6001684A6822F460424A6001684A6804
:100AB000174C436A04EB43331A4301E022F400620B
:100AC0004A600168CA6A22F47002CA620168CA6A8E
:100AD000838B104C04EB03531A43CA6201688A6883
:100AE00022F400728A6001688A6890F8303042EA25
:100AF00043228A6001688A6822F480628A60016801
:100B00008A68406942EA8020886010BD0023014065
:100B100000E0FFFF0000F0FFFEE70000014800F0EA
:100B2000D3BA0000CC030020014800F0CDBA000089
:100B30002C04002001681823CAB2103AB2FBF3F269
:100B4000054B6FF30901032A9B5CC36500D9091D9E
:100B50008165084670470000F887000810B5014617
:100B600000208B698A6A4FF0C07453B1B3F5005FFF
:100B700015D072B1012A0CD0022A0AD0032A09D159
:100B800004E01AB1012A06D0022A03D1C96AC901B8
:100B900000D5012010BDC96AA142FAD010BD002ABB
:100BA000F7D0012AF2D0022AF3D0032AF3D010BDE5
:100BB0003EB540F6FF74CDE900320A460146029484
:100BC0000123044800F0A0FD012000F0B7FB002045
:100BD0003EBD0000F00000203EB540F6FF74CDE9B8
:100BE00000320A46014602940123044800F08EFEBA
:100BF000012000F0A3FB00203EBD0000F00000201B
:100C0000704772B6FEE703F0B9BA000070B515463A
:100C100001F1270293B200F1270292B202F0E0FF45
:100C200000244FF4C86600BF05EB440115F814001A
:100C3000497840EA012003F0B9FA641CB442F3DBBE
:100C4000064841880088491E401EBDE870408BB2AE
:100C500082B20021084602F0C3BF00005005002008
:100C600078B50024009490F83C20012A19D0012284
:100C700080F83C200A6807230568092A13D9EE6822
:100C80000A3A02EB420293409E43EE600B788A6878
:100C90000A3B03EB43039A400368DD682A43DA60AA
:100CA00010E0022078BD2E6902EB420293409E4381
:100CB0002E610B788A6803EB43039A4003681D6931
:100CC0002A431A614A681F23072A13D205686E6BEC
:100CD000521E02EB820293409E436E630B790A8898
:100CE0005B1E92B203EB83039A4003685D6B2A4359
:100CF0005A6327E005680D2A12D22E6BD21F02EB31
:100D0000820293409E432E630B790A88DB1F92B2C6
:100D100003EB83039A4003681D6B2A431A6311E0B7
:100D2000EE6A0D3A02EB820293409E43EE620B792B
:100D30000A880D3B92B203EB83039A400368DD6A95
:100D40002A43DA62164B0568144A9D4206D10D68A3
:100D5000122D03D1556845F48005556005689D4204
:100D600018D10B68102B01D0112B13D1536843F409
:100D700000035360096810290CD10A490A4A09681E
:100D8000B1FBF2F101EB8101490000E0491E009145
:100D90000029FBD180F83C40002078BD00230140B1
:100DA000002001403800002040420F000068C06C65
:100DB000704770B504004FF0000503D0206C00268A
:100DC00010B107E0012070BD204600F01DF86664F8
:100DD00084F83C60206CC00610D4206C20F488504D
:100DE00040F0020020642046FFF702FE6664206C9B
:100DF00020F0020040F00100206400E0012584F8AA
:100E00003C60284670BD000010B586B00446142131
:100E10006846FFF740FA1149206888421CD1104803
:100E20000021026842F480720260006800F4807061
:100E300005900B481438026842F004020260006812
:100E400000F004000590102000900320CDE901017E
:100E50006946044800F084FA06B010BD0020014045
:100E600044380240000802402DE9F0410446006881
:100E70000D4681684FF0000749050BD58068C00515
:100E800008D5206C40F02000206484F83C700120DC
:100E9000BDE8F08100F06EFB064613E0681C11D03F
:100EA00025B100F067FB801BA8420BD920680068C1
:100EB000800707D4206C40F00400206484F83C7064
:100EC0000320E5E7206800688007E7D521686FF018
:100ED00012000860206C40F4007020642068816873
:100EE00011F0405F13D1217E89B9C16A11F4700FEE
:100EF00002D0806840050AD4206C20F48070206401
:100F0000206CC00403D4206C40F001002064002059
:100F1000BEE7000018B50021009190F83C20012A9E
:100F200007D0012280F83C2002689368DB0702D0DA
:100F300011E0022018BD936843F0010393602E4A2C
:100F40002E4B1268B2FBF3F202EB420200E0521E9B
:100F50000092002AFBD102689368DB0742D0036C41
:100F600040F20164A34343F48073036453685B0558
:100F700005D5036C23F4005343F480530364036CDE
:100F8000DB0404D5436C23F00603436400E04164B2
:100F900080F83C101A496FF022031360496800681A
:100FA000CA06184906D0884224D1816811F0405FF2
:100FB00013D01FE08842F8D0134A904203D1D1F8F1
:100FC0000423D206F1D0114A904213D1D1F8041370
:100FD00001F01F011029E8D30CE0816841F0804145
:100FE000816007E0016C41F010010164416C41F047
:100FF00001014164002018BD3800002040420F006C
:101000000023014000200140002101400022014056
:101010002DE9F0410446876D00F0ACFA064694F8DD
:1010200035000025022806D08020606584F8345001
:101030000120BDE8F0812068016821F016010160FF
:101040002068416921F080014161206C08B9A06CE1
:1010500020B12068016821F0080101602068016862
:1010600021F0010101600CE000F084FA801B0528EA
:1010700007D920206065032084F8350084F83450B7
:10108000D7E720680068C007EED194F85C103F20D5
:101090008840B860012084F8350084F8345000207E
:1010A000C7E790F83510022903D08021416501205F
:1010B0007047052180F835100068016821F00101B2
:1010C00001600020704700002DE9F84304464FF00E
:1010D0000009CDF8009063484FF41651A56D0068E3
:1010E000B0FBF1F72E6894F85C10082000FA01F1CB
:1010F00031420FD021680A6852070BD50A6822F0E6
:1011000004020A6094F85C108840A860606D40F0AA
:101110000100606594F85C104FF0010808FA01F0D6
:10112000304208D021684969090604D5A860606D7D
:1011300040F00200606594F85C1004208840304262
:1011400008D021680968890704D5A860606D40F05F
:101150000400606594F85C1010208840304218D07C
:1011600021680968090714D5A86020680168490347
:1011700004D50068000308D5A16C07E00168C90523
:1011800003D4016821F008010160216C09B12046F7
:10119000884794F85C1020208840304231D0216884
:1011A0000968C9062DD5A86094F83500052820687F
:1011B000016806D0490347D5006800031DD4616C5F
:1011C0001CE021F0160101602068416921F08001D6
:1011D0004161206C08B9A06C20B12068016821F041
:1011E0000801016094F85C103F208840A86084F8F2
:1011F000358084F83490216D1FE0E16B09B1204601
:101200008847606D00282BD0606DC00714D0052082
:1012100084F835002068016821F001010160009820
:10122000401C0090B84203D820680068C007F6D17F
:1012300084F8358084F83490E16C002910D001B036
:101240002046BDE8F04308470168C905D5D40168C8
:1012500021F01001016084F8358084F83490CCE7E7
:10126000BDE8F883380000202DE9F041044600F085
:1012700081F906465CB1022084F83500002584F827
:1012800034502068016821F0010101600DE0012067
:10129000BDE8F08100F06EF9801B052805D92020FB
:1012A0006065032084F83500F2E720680068C00715
:1012B000F0D12268116820480140D4E901031843A5
:1012C000D4E903363343184363691843A3691843C9
:1012D000E3691843236A18430843616A042903D168
:1012E000D4E90B1319430843106020684069666A0B
:1012F00020F0070130460E43012704280CD1A06AD4
:101300000643E06A40B12046FFF728FC20B14020A8
:10131000606584F83570BAE7206846612046FFF7BB
:1013200009FC94F85C203F2191408160656584F858
:1013300035700020ACE700003F8010F070B5044627
:1013400000F018F90546601C02D0044800780444F7
:1013500000F010F9401BA042FAD370BD2C00002011
:101360002DE9F84FDFF8BCA10022012503264FF03C
:101370000F090AF1040BAAF1040E00BF0B6805FA6D
:1013800002F42340A34270D10F7907F00307012F25
:1013900001D0022F16D187684FEA420806FA08FCEE
:1013A00027EA0C07D1F80CC00CFA08FC4CEA070C31
:1013B000C0F808C04768A7430C79C4F300149440F0
:1013C0003C4344600C79E443A4070AD0C4684FEA64
:1013D000420C06FA0CF7BC438F6807FA0CF7274358
:1013E000C7600C7904F00304022C12D1D40800EB7E
:1013F000840CDCF820405707FF0E09FA07F824EAAE
:101400000804D1F8108008FA07F848EA0408CCF874
:10141000208004684FEA420C06FA0CF7BC430F79AF
:1014200007F0030707FA0CF7274307604C6814F42A
:10143000403F70D03C4C276847F4804727602468C1
:1014400022F0030704F480440094384C07EB040CAA
:10145000DCF8084897074FEA177809FA08F7BC4301
:10146000334FB84202D1002724E054E0314FB84254
:1014700001D101271EE0304FB84201D1022719E007
:101480002E4FB84201D1032714E02D4FB84201D1AD
:1014900004270FE02B4FB84201D105270AE02A4F5D
:1014A000B84201D1062705E0284FB84201D10727ED
:1014B00000E0082707FA08F72743CCF80878DAF89D
:1014C00000405746D1F804C09C435FEACC2C00D5BD
:1014D0001C433C60DBF800405F46D1F804C09C43ED
:1014E0005FEA8C2C00D51C433C60DEF80040774658
:1014F000D1F804C09C435FEA8C3C00D51C433C609F
:10150000084F083F3C68D1F804C09C435FEACC3CDC
:1015100000D51C433C60521C102AFFF42FAFBDE8DD
:10152000F88F0000083C0140443802400030014080
:10153000000002400004024000080240000C02408B
:10154000001002400014024000180240001C02403B
:101550000069084000D001207047426921EA020377
:101560000A4043EA0241816170470AB181617047D4
:101570000904FBE701488068704700002C00002048
:1015800070B5040025D094F83D00002520B984F8FA
:101590003C50204600F052FA242084F83D00206898
:1015A000016821F0010101602068016841F40041F7
:1015B00001602068016821F40041016000F0B0FB87
:1015C0004D4A6168914201D84C4900E04C4988423B
:1015D00001D2012070BD4B492368B0FBF1F15E6878
:1015E00026F03F060E435E606368934206D94FF4CF
:1015F000967359434FF47A73B1FBF3F12368491C96
:101600001E6A26F03F06314319626168914210D884
:101610004900401EB0FBF1F2521CC2F30B02042A37
:1016200001D2042022E0B0FBF1F0401CC0F30B001B
:101630001CE0A268F2B301EBC10303EB0116431EE9
:10164000B3FBF6F35B1C43F480431B0549D092B314
:1016500001EBC10202EB0111401EB0FBF1F0401C96
:10166000C0F30B0040F4804040F400402168CA6998
:101670004CF6FF739A431043C861D4E90710014345
:101680002068026822F0C00211430160D4E903011E
:1016900001432068826848F2FF339A431143816016
:1016A000D4E9050108432168CA6822F0FF0210430B
:1016B000C86001E00EE016E02068016841F0010119
:1016C00001602564202084F83D00256384F83E50A5
:1016D000002070BD01EB4106431EB3FBF6F35B1C1B
:1016E000B3E70120C2E701EB4101401EB0FBF1F07E
:1016F000401CC0F30B00B7E7A086010080841E00E9
:1017000000093D0040420F002DE9FF4F83B09A468B
:10171000DDE9118793460446DDF84090FFF72AFF84
:10172000054694F83D00202870D119230122744900
:101730002046009501F0D4FE0028F5D194F83C0035
:10174000012863D0012084F83C0020680168C907A3
:1017500003D1016841F0010101602068016821F4B2
:1017600000610160222084F83D00402084F83E00A2
:1017700000262664C4F82490A4F82A80608D208571
:101780006048E062CDE9007553465A462046049908
:1017900001F0A8FD002879D1208DD0B1012821D0F9
:1017A0000228206824D0416980690090208D032898
:1017B00066D801282BD0544902283B464FF000023E
:1017C000009557D08846204601F08AFE00285DD15A
:1017D0003AE02068416981690091016841F4007133
:1017E00001607DE02068016821F480610160F0E71C
:1017F000016821F4806101602068016841F40061A2
:101800000160206841698069009069E075E02A46BE
:101810003946204601F00AFF88BB54E02068016881
:1018200041F40071016020680069616A0870606AB3
:10183000401C6062218D491E2185618D491E618594
:1018400021680969017042E02068016821F4806123
:10185000016020680069616A0870606A401C60620B
:10186000208D401E2085608D401E60853B460022F5
:1018700041460095204601F033FE00B9CEE705E071
:101880002A463946204601F0D1FE18B1012007B0A2
:10189000BDE8F08F20680069616A0870606A401CCA
:1018A0006062208D401E81B22185608D401E608562
:1018B00020684269D243520712D4032903D1016838
:1018C00021F48061016020680069616A0870606AC3
:1018D000401C6062208D401E2085608D401E60850A
:1018E000208D00287FF462AF202084F83D0084F82A
:1018F0003E6084F83C600020C9E70220C7E7000092
:10190000020010000000FFFF040001002DE9FF4F5E
:1019100083B09A46DDE9119793460446DDF840808E
:10192000FFF728FE054694F83D0020287FD11923B3
:10193000012240492046009501F0D2FD002876D1D1
:1019400094F83C00012872D0012084F83C00206803
:101950000168C90703D1016841F0010101602068F5
:10196000016821F400610160212084F83D004020DD
:1019700084F83E0000262664C4F82480A4F82A9047
:10198000608D20852C48E062CDE9007553465A46AB
:101990002046049901F024FD70B930E02A4639460A
:1019A000204601F07BFE58B1206C042804D1206849
:1019B000016841F400710160012007B0BDE8F08FBB
:1019C000606A216800780861606A401C6062218D4D
:1019D000491E89B22185628D521E62852268536933
:1019E000DB435B070BD469B100781061606A401C6F
:1019F0006062208D401E2085608D401E6085208D98
:101A00000028CBD12A463946204601F03DFD00286A
:101A1000CAD154F83D0B016841F4007101602020E7
:101A200004F81E09E67766770020C6E7FFE7022084
:101A3000C3E70000020010000000FFFF10B586B0F1
:101A4000044614216846FEF726FC1849206888429F
:101A500029D1174C0021206840F400102060206834
:101A600000F40010059012481038026842F002029B
:101A70000260006800F0020005904FF44070009092
:101A80001220CDE90101032003900420049069464F
:101A90000848FFF765FC206840F4001020602068CB
:101AA00000F40010059006B010BD00000054004086
:101AB0004038024000040240024881680278114424
:101AC000816070472C0000200B4810B5016841F47C
:101AD00000710160016841F480610160016841F4B6
:101AE00080710160032000F06FF80F2000F006F80D
:101AF00000F024F8002010BD003C024070B50D4DF0
:101B000004464FF47A712878B1FBF0F00A4909686D
:101B1000B1FBF0F000F00CFB48B9102C07D200220A
:101B20002146501E00F030F800206C6070BD01208E
:101B300070BD00002C000020380000200A4808B5C5
:101B4000016841F480410160006800F48040009029
:101B50000548001F016841F080510160006800F0F5
:101B60008050009008BD000044380240002809DB86
:101B700000F01F02012191404009800000F1E020A7
:101B8000C0F8001170470000F0B40E4B1B680C4603
:101B9000C3F30223C3F10705042D00D90425191D41
:101BA000072901D2002300E0DB1E012606FA05F119
:101BB000491E214099409E40761E16403143F0BC9C
:101BC00003F00CBB0CED00E0064900F007020868CA
:101BD0004FF6FF03184040EA0220034A1043086012
:101BE000704700000CED00E00000FA052DE9F04719
:101BF0000E46050065D0DFF81481D8F80000F7B272
:101C000000F00700B04207D288F80070D8F8000052
:101C100000F00700B04254D128683D4C810712D52E
:101C2000400703D5206840F4E05020602878000782
:101C300003D5206840F4604020602068A96820F047
:101C4000F000084320602878C0072DD0304968682C
:101C50000839012812D0022813D0032811D00968AE
:101C6000890700292DDA216821F003010143216051
:101C7000FFF780FC814641F2883A0EE0096889034B
:101C8000EFE709688901ECE7FFF774FCA0EB0901B5
:101C9000514502D90320BDE8F0872068696800F04B
:101CA0000C00B0EB810FEFD1D8F80010404601F0E6
:101CB0000701B14207D90770006800F00700B04281
:101CC00001D00120E7E72878400705D52068E968BA
:101CD00020F4E050084320602878000706D52068EB
:101CE000296920F4604040EAC100206000F038F823
:101CF0002168084AC1F30311515CC84006490860D5
:101D000006480068FFF7FAFE0020C4E7003C0240E6
:101D10000838024000880008380000203000002009
:101D20000448054900680968044AC1F38221515CEE
:101D3000C84070473800002008380240108800086A
:101D40000448054900680968044AC1F34231515CFE
:101D5000C84070473800002008380240108800084A
:101D6000154810B5006810F00C02144813D014493F
:101D7000042A0FD0082A0ED10F4C241F2268236892
:101D800002F03F025B0207D52068C0F38810A0FB79
:101D9000010106E0084610BD2168C1F38811A1FBCE
:101DA00000010023FEF70EFA2168C1F30141491C2E
:101DB0004900B0FBF1F010BD083802400024F400E7
:101DC00040787D012DE9F84F04006ED02078DFF8CF
:101DD0004C93C007A9F104054AD009F10400016839
:101DE000C1F38101012908D00068C0F381000228F5
:101DF0000AD1D9F80000400206D52868800337D5FB
:101E000060680028E1D033E06068B0F5803F10D012
:101E1000B0F5A02F286810D020F480302860286802
:101E200020F4802028606068A8B1FFF7A3FB064675
:101E30000DE0286840F48030F4E740F4802028600A
:101E4000F7E700BFFFF796FB801B642873D828686C
:101E50008003F7D50CE0FFF78DFB064605E000BFD9
:101E6000FFF788FB801B6428F0D828688003F7D42C
:101E70002078DFF8AC8280074FF0000A3ED5A748F3
:101E8000001D016811F00C0F08D00068C0F381003C
:101E900002280BD1D9F80000400207D42868800737
:101EA00016D5E068012800D112E033E1E068B8B14E
:101EB0000120C8F80000FFF75DFB064605E000BF03
:101EC000FFF758FB801B0228C0D828688007F7D589
:101ED0002868216920F0F80040EAC10028600DE080
:101EE000C8F800A0FFF746FB064604E0FFF742FBF8
:101EF000801B02281FD828688007F7D420780007A5
:101F000022D5864F87486169703771B10121016020
:101F1000FFF730FB064604E0FFF72CFB801B02288E
:101F200009D838688007F7D50EE0C0F800A0FFF7A1
:101F300021FB064605E082E0FFF71CFB801B022820
:101F40007DD838688007F7D42078400768D5DFF857
:101F5000CCB100270BF13C0BDBF80000C0000BD428
:101F6000DBF8001041F08051CBF80010DBF80000E6
:101F7000012700F0805000906B4E3068C00510D4EF
:101F8000306840F480703060FFF7F4FA009005E0AC
:101F9000FFF7F0FA0099401A022850D83068C005BF
:101FA000F6D55E4EA0686C3601280FD00528306843
:101FB00010D020F001003060306820F00400306064
:101FC000A068B8B1FFF7D6FA00900FE0306840F093
:101FD0000100F4E740F004003060F7E7FFF7CAFAC9
:101FE0000099411A41F28830814266D830688007F2
:101FF000F4D50EE0FFF7BEFA009007E0FFF7BAFA5B
:102000000099411A41F28830814256D830688007E1
:10201000F4D42FB1DBF8001021F08051CBF8001080
:10202000A069C8B33D49091D0968C1F381010229AE
:102030004AD00228504607D0C8F8600000E03CE0D3
:10204000FFF798FA04463BE04746C8F86000FFF700
:1020500091FA064605E000BFFFF78CFA801B0228C4
:102060002BD828688001F7D4D4E907010843A16A76
:102070002E4A490802EB0141626A41EA8211084393
:1020800094F82C1040EA0161C9F80010012038666C
:10209000FFF770FA044606E03EE000BFFFF76AFA79
:1020A000001B022809D828688001F7D534E000BF5A
:1020B000FFF760FA001B022802D90320BDE8F88F61
:1020C00028688001F4D427E00128F7D0D9F800006F
:1020D000E26900F4800191421CD1226A00F03F01C4
:1020E000914217D147F6C071626A0140B1EB821F7D
:1020F00010D1A26A4FF0FF3300F4403103EB5202DB
:10210000B1EB024F06D194F82C1000F07060B0EBE8
:10211000016F01D00120D1E70020CFE70438024051
:1021200000004742800E4742007000400000FFFF61
:1021300010B5401EB0F1807F01D3012010BD4FF0DB
:10214000E02460610F21601703F048F80020A061CF
:1021500007202061002010BD7047704710B590F82F
:102160003C20012A22D0012280F83C20CA688C68D9
:1021700022F4407222434C6822F4806222430C68AD
:1021800022F4006222430C6922F4805222434C69FB
:1021900022F400522243C969002322F480420A43F8
:1021A00001684A6480F83C30002010BD022010BD58
:1021B00070B590F83C20012A32D0012480F83C40D0
:1021C000022280F83D2003685A689D6822F070065C
:1021D0000A6832435A60134B02689A4214D0B2F133
:1021E000804F11D0104B9A420ED0104B9A420BD018
:1021F0000F4B9A4208D00F4B9A4205D00E4B9A4291
:1022000002D00E4B9A4204D1496825F0800319434D
:10221000916080F83D40002180F83C10084670BD78
:10222000022070BD00000140000400400008004092
:10223000000C004000040140004001400018004034
:1022400010B5040003D094F83D0010B107E0012060
:1022500010BD002084F83C00204600F01FF802204A
:1022600084F83D00211D206802F0D8FC012084F88C
:10227000460084F83E0084F83F0084F8400084F86B
:10228000410084F8420084F8430084F8440084F854
:10229000450084F83D00002010BD000008B521492C
:1022A000026821488A4207D1016841F001010160BA
:1022B000006800F0010032E01B491C4B091F9A42E4
:1022C0000ED1086840F0100008600868002200F095
:1022D0001000009011463620FFF756FC362010E023
:1022E000134B9A4211D1086840F02000086008683A
:1022F000002200F02000009001213720FFF744FC6D
:102300003720BDE80840FFF731BC0A498A4207D1AF
:10231000016841F002010160006800F002000090D5
:1023200008BD000000000140443802400010004099
:10233000001400400004014090F83D10012901D034
:1023400001207047022180F83D100168CA6842F000
:102350000102CA6000681149884214D0B0F1804F70
:1023600011D00F4988420ED00E4988420BD00E4939
:10237000884208D00D49884205D00D49884202D0D4
:102380000C49884204D1816801F00701062903D075
:10239000016841F001010160002070470000014028
:1023A0000004004000080040000C00400004014010
:1023B00000400140001800400168CA6822F0010294
:1023C000CA6001680A6A41F211131A4207D10A6A07
:1023D0009B101A4203D10A6822F001020A6001210F
:1023E00080F83D100020704770B5044690F83C001E
:1023F0000025012817D0012684F83C60022084F8CB
:102400003D002068826822F0770222F47F428260D9
:102410000868502838D00DDC20284FD005DC90B358
:10242000102811D14AE0022070BD302846D0402843
:102430000AD13BE060282FD070280DD0B0F5805F26
:1024400003D0B0F5005F12D0012584F83D60002074
:1024500084F83C00284670BDCB68D1E90121206892
:1024600002F055FC2068816841F0770109E0CB68F3
:10247000D1E90121206802F04AFC2068816841F41A
:1024800080418160E1E719E0CA684968206802F08C
:1024900013FD5021206806E0CA684968206802F0F0
:1024A0001CFD6021206802F03CFCCEE7CA68496848
:1024B000206802F001FD40212068F4E7226801460F
:1024C0001046F0E72DE9F0410D46040003D094F8E2
:1024D0003D0018B108E00120BDE8F081002084F83B
:1024E0003C00204600F040F8022084F83D002068BF
:1024F000816844F2070291438160211D206802F047
:102500008DFB226890689169166A2B68AF69034356
:1025100040F20330814341EA0721A868EF6908438C
:102520004FF6FC418843E96840EA072001432869E7
:102530002F6A000140EA0730084369686D6926F098
:10254000AA0646EA0515294393602268906154F86B
:10255000460B0162012004F81F09E0752076E07641
:102560002077A0750020B7E730B587B00446142166
:102570006846FDF790FE204824681E4D00221E4943
:1025800010380223AC4216D10C6844F004040C60ED
:10259000096801F004010591016841F00201016040
:1025A0000068694600F002000590C0200090CDE967
:1025B0000132124818E0124DAC4219D10C6844F0B7
:1025C00008040C60096801F008010591016841F0F8
:1025D000010101600068694600F0010005900320D8
:1025E0000090CDE901320748CDE90323FEF7B8FE9C
:1025F00007B030BD000800404038024000040240EF
:10260000000C00400000024070B590F83E600446A7
:1026100090F83F5090F8423090F84320022021B1CA
:1026200004290ED0012E1BD114E0012E18D1012B4C
:1026300016D184F83E0084F842000122002120686F
:1026400020E0012D0CD1012A0AD184F83F0084F842
:10265000430014E0012D03D1012B01D1012A01D047
:10266000012070BD84F83E0084F83F0084F84200E9
:1026700084F8430001220021206802F03BFB012284
:102680000421206802F036FB2068016841F0010156
:102690000160002070BD70472DE9F04104460068DC
:1026A000C66805694FF00007A90713D5B10711D512
:1026B000F91E01610120207720688069800720468B
:1026C00002D0FFF7E8FF04E000F0A8F8204600F091
:1026D0009BF92777680716D5700714D521686FF026
:1026E00004000861022020772068806910F4407F90
:1026F000204602D0FFF7CFFF04E000F08FF820461D
:1027000000F082F92777280715D5300713D52168FF
:102710006FF008000861042020772068C0698007F6
:10272000204602D0FFF7B7FF04E000F077F820461C
:1027300000F06AF92777E80616D5F00614D5216867
:102740006FF010000861082020772068C06910F43D
:10275000407F204602D0FFF79EFF04E000F05EF8C5
:10276000204600F051F92777E80708D0F00706D097
:1027700021686FF001000861204600F0E9F92806A1
:1027800008D5300606D521686FF080000861204624
:10279000FFF7E2FC680608D5700606D521686FF0E1
:1027A00040000861204600F0D9FAA8060AD5B00614
:1027B00008D521686FF0200008612046BDE8F0418F
:1027C000FFF7CBBCBDE8F08110B586B004461421FC
:1027D0006846FDF760FD0E492068884216D10D4815
:1027E0000021026842F001020260006800F001006E
:1027F00005904FF4106000900220CDE90101012006
:10280000CDE9031069460448FEF7AAFD06B010BDE5
:10281000000001403038024000000240704770B5AF
:10282000044690F83C0000260D4601280FD00120F8
:1028300084F83C006AB1042A1DD0082A2FD00C2A43
:102840003FD00126002084F83C00304670BD0220B5
:1028500070BD206802F06EFA2068816941F00801BD
:1028600081612068816921F00401816120688169AA
:102870002A69114311E0206802F08CFA206881690E
:1028800041F4006181612068816921F48061816186
:10289000206881692A6941EA02218161D2E72068C2
:1028A00002F0AEFA2068C16941F00801C1612068F8
:1028B000C16921F00401C1612068C1692A6911431D
:1028C00011E0206802F0D0FA2068C16941F400618B
:1028D000C1612068C16921F48061C1612068C1695A
:1028E0002A6941EA0221C161ACE710B5040003D0B6
:1028F00094F83D0010B107E0012010BD002084F8DD
:102900003C00204600F01EF8022084F83D00211D06
:10291000206802F083F9012084F8460084F83E0024
:1029200084F83F0084F8400084F8410084F84200B5
:1029300084F8430084F8440084F8450084F83D009E
:10294000002010BD10B500682C4986B0884252D1D5
:102950002B48016841F002010160006800F00200AC
:10296000059027481438016841F0040101600168AE
:1029700001F004010591016841F004010160016862
:1029800001F004010591016841F004010160016852
:1029900001F004010591016841F004010160006843
:1029A000012100F004000590402000900220CDE9B4
:1029B000010103900320134C049069462046FEF762
:1029C000CFFC8020009069462046FEF7C9FCA01588
:1029D000009069462046FEF7C3FC601500906946EA
:1029E0002046FEF7BDFC002211462C20FFF7CCF854
:1029F0002C20FFF7BBF806B010BD0000000401401A
:102A000044380240000802407047000010B50446F8
:102A1000022249B104290ED0082913D094F84100AC
:102A2000012816D0012010BD94F83E000128F9D1EC
:102A300084F83E200FE094F83F000128F2D184F89A
:102A40003F2008E094F840000128EBD184F84020B2
:102A500001E084F841200122206802F04BF9164978
:102A60002068164A884201D0904203D1436C43F457
:102A7000004343642068884213D0B0F1804F10D0E7
:102A80000F4988420DD00F4988420AD00E4988422A
:102A900007D0904205D00D49884202D00C498842A7
:102AA00004D1816801F00701062903D0016841F0D3
:102AB00001010160002010BD000001400004014040
:102AC0000004004000080040000C004000400140AD
:102AD0000018004030B504460D460068002202F0A0
:102AE00009F9194B41F2111120688A10984202D05D
:102AF000164B984209D1036A0B4206D1036A13426E
:102B000003D1436C23F4004343642068036A0B42FF
:102B100006D1016A114203D1016821F0010101606F
:102B200001203DB1042D08D0082D09D084F84100C2
:102B3000002030BD84F83E00FAE784F83F00F7E754
:102B400084F84000F4E70000000001400004014068
:102B500070B52DED028B064600686749674D8842C7
:102B600002D12868401C28606549306800248842EA
:102B70003DD16868401C686001F076FFFDF73CFDC0
:102B80009FED601B53EC112BFDF744FC9FED5F1B89
:102B900053EC112BFDF73EFC9FED5E1B53EC112B0C
:102BA000FDF738FCFDF780FD00EE100A5B4880ED74
:102BB000000ADFED5B0A5B48642120EE200A80ED0D
:102BC000000ABDEEC00A10EE100A90FBF1F201FB04
:102BD000120000EE100A5448B8EEC00A80ED000A58
:102BE0006868052803D1A868401CC5E901404F4921
:102BF0003068884258D14E4D012028704D480168F8
:102C00004D48012906D0022908D003290AD00429F9
:102C10000CD00EE00268521C02600AE04268521CAE
:102C2000426006E08268521C826002E0C268521C68
:102C3000C26042488268521E82600279012AC268DC
:102C400006D0521EC26082689FED3D8B12B103E038
:102C5000521CF7E7012902D082687AB110E0C068FF
:102C6000FDF7B9FC53EC182BFDF7D4FBFDF7D1FCB5
:102C7000014635A002F08AFA012012E0022902D0B2
:102C80008268A2B115E0C068FDF7A5FC53EC182BD3
:102C9000FDF7C0FBFDF7BDFC01462BA002F076FA64
:102CA000022005F08DFD2C70BDEC028B70BD032958
:102CB00013D08268002AF7D10429F5D1C068FDF746
:102CC0008AFC53EC182BFDF7A5FBFDF7A2FC01468F
:102CD0001DA002F05BFA0420E3E7C068FDF77BFC6F
:102CE00053EC182BFDF796FBFDF793FC014616A05D
:102CF00002F04CFA0320D4E700100040400000200E
:102D0000001400406666666666660A4000000000C1
:102D100000002640000000000000303F0C000020B2
:102D20000000C842100000201400002000040140F0
:102D30009C00002098000020700500206005002005
:102D4000CDCCCCCCCCCCAC3FC0DBBCC6D0FDD7AA64
:102D5000B5C4BDC7B6C83A25640D0A0070477047B0
:102D600070470000F8B5016804460868CA684B69F6
:102D700010F00F0F4FF0000559D003F0010602F4D8
:102D80009077374365D0C10705D0D10503D5616C75
:102D900041F001016164410705D5D90703D0616C99
:102DA00041F002016164810705D5D90703D0616C48
:102DB00041F004016164010707D502F020013143AD
:102DC00003D0616C41F008016164616C00293AD064
:102DD000800604D5900602D5204602F0BFF8206890
:102DE0004069616CC0F38010090700D460B32046CD
:102DF00002F08DF820684069400621D52068143023
:102E000050E8001F21F0400140E80012002AF5D1EF
:102E1000E06BA8B16E490165E06BFEF742F900284E
:102E200011D0E06B016D01B0BDE8F04008478306AA
:102E30000FD593060DD52046BDE8F84002F08EB8B8
:102E40002046FFF78DFFF8BD2046FFF789FF656438
:102E5000F8BD266B2023012E7DD1C6067BD5D60674
:102E600079D508684868009048694FF00206400626
:102E700041D5E16B086840680004000CE8D0A28DE1
:102E80008242E5D9E085C869B0F5807F2DD0206801
:102E90000C3050E8001F21F4807140E80012002A35
:102EA000F5D12068143050E8001F21F0010140E8FE
:102EB0000012002AF5D12068143050E8001F21F0DC
:102EC000400140E80012002AF5D184F84230256321
:102ED00020680C3050E8001F21F0100140E800127B
:102EE000002AF5D1E06BFEF793F86663A08DE18DC3
:102EF000401A81B22AE0A08DE18D401A81B2E08DA6
:102F00000028A5D00029A3D022680C3252E8000F77
:102F100020F4907042E80007002FF5D120681430AB
:102F200050E8002F22F0010240E80027002FF5D1E1
:102F300084F84230256320680C3050E8002F22F0DE
:102F4000100240E80023002BF5D166632046FFF70E
:102F500006FFF8BDFFE705062BD5150629D594F821
:102F600041002128F5D1A068B0F5805F01D120692A
:102F7000B0B1206A411C2162216800784860E08C71
:102F8000401E0004000CE084E3D12068C16821F0F9
:102F90008001C1602068C16841F04001C160D8E78C
:102FA000206A0088C0F308004860206A801C206204
:102FB000E5E74006CDD55006CBD5CA68204622F0BD
:102FC0004002CA6084F8413000F073F9C1E70000A4
:102FD000FF4E000870B5040004D094F841000025AD
:102FE00010B106E0012070BD84F84050204600F08A
:102FF00023F8242084F841002068C16821F400519E
:10300000C160204602F00CF82068016921F490416B
:1030100001612068416921F02A0141612068C1688D
:1030200041F40051C1606564202084F8410084F8B7
:1030300042006563002070BD2DE9F04186B0064670
:1030400014216846FDF727F95549D6F800C05548C0
:10305000022203230727544D00248C4553D15149A4
:103060001431D1F800C04CF0100CC1F800C0096850
:1030700001F010010591016841F001010160006853
:10308000694600F00100059058028DE81500CDE971
:1030900003372846FEF764F9454D44484FF0006772
:1030A0002860C5E901744FF48068C5E903486C6184
:1030B000AC61EC612C6228466C62FEF7D5F808B171
:1030C000FDF79FFDF563AE63394D384860357830C4
:1030D000E5E802074020A5E81101354845F8144904
:1030E0006030AC61EC612C626C62FEF7BDF808B137
:1030F000FDF787FDB563002211462520AE63FEF77C
:1031000043FD252023E027492A4E1031B44523D121
:103110000E6846F400360E60096801F4003105912E
:10312000016841F0010101600068694600F001009A
:1031300005900C208DE81500CDE903372846FEF7F1
:103140000FF9002211462620FEF71EFD2620FEF76D
:103150000DFD06B0BDE8F081174DAC45F9D10D6805
:1031600045F480250D60096801F48021059101680E
:1031700041F0020101600068694600F0020005901C
:103180004FF440608DE81500CDE903370B48FEF79A
:10319000E7F8002211462720FEF7F6FC2720D6E7A5
:1031A00000100140303802400000024040640240FC
:1031B000CC030020004400400048004000040240CE
:1031C00090F84230202B01D00220704721B11AB173
:1031D0000023036301F0AABF0120704770B50446C5
:1031E0000068204988420DD110211F48FEF7B5F92B
:1031F00006221E491E4800F043F806221B491C48BF
:10320000FFF7DEFF1B4920681B4D884211D140218A
:103210002846FEF7A2F9154915480622891D4830AF
:1032200000F02EF8114912480622891D4830FFF798
:10323000C7FF12492068884213D110212846FEF7A3
:103240008CF90A490A4806220C31903000F018F82F
:103250000649BDE87040064806220C319030FFF761
:10326000AFBF70BD001001400000024018000020F8
:10327000F4020020004400400010024000480040DA
:1032800090F84130202B01D00220704779B172B103
:1032900001628284C28400214164212180F84110AE
:1032A0000068C16841F08001C160002070470120C2
:1032B00070477047FEE701684A69D24352050FD450
:1032C0006FF480624A61002140F8301F202242736F
:1032D0008173026942F004020261017301207047A8
:1032E000002070472DE9F84F0446006889460B9D81
:1032F00001689846174641F48061016020680168C2
:1033000041F48071016000954FF0011B0022594685
:1033100020460A9B00F0E4F84FF4007A40B12068A0
:103320000068C00501D5C4F840A00320BDE8F88FAF
:10333000216809F0FE0008612B46284920460A9AB8
:1033400000F016F9F0BB20684169806900902A46B8
:1033500020460A9900F0A2F940B1206C04283AD125
:103360002068016841F40071016034E0FEB2B8F1F8
:10337000010F09D02168380A08612A4620460A99B7
:1033800000F08CF90028E8D1206806612A46204622
:103390000A9900F083F90028DFD12068016841F420
:1033A0008071016000950022594620460A9B00F07A
:1033B00097F80028B3D1216809F0FF0040F0010020
:1033C000086100E007E02B46044920460A9A00F015
:1033D000CFF80028AAD00120A8E7000002000100D1
:1033E0002DE9F843044600680D46DDE908970168B9
:1033F0009846164641F4807101604B4600224FF01A
:1034000001112046009700F06BF848B12068006871
:10341000C00502D54FF4007020640320BDE8F88396
:10342000216805F0FE0008613B464A4615492046E2
:1034300000F09EF888B920684169806900903A469A
:103440004946204600F02AF948B1206C042804D1EE
:103450002068016841F4007101600120DEE7F5B2E7
:10346000B8F1010F09D02168300A08613A4649468F
:10347000204600F013F90028E7D1206805610020FC
:10348000CCE700000200010070B516460D46044668
:103490001EE02046FFF70FFF08B1012070BD681C39
:1034A00016D0FEF767F8801BA84200D885B92068BF
:1034B0004069C04340070BD5002044F8300F20215D
:1034C0006173A073216941F0200121612073E4E759
:1034D00020684069C0434007DBD4002070BD000075
:1034E0002DE9F047984617460D460446C1F30746B6
:1034F000DDF820902AE000BFB8F1FF3F26D0FEF7AC
:1035000039F8A0EB0901414502D8B8F1000F1DD1EF
:103510002068012E16D0806925EA00000004000C06
:1035200012D00020B84211D1002044F8300F2021E1
:103530006173A073216941F0200121612073012092
:10354000BDE8F0874069E7E70120EBE72068012E3E
:103550000AD0806925EA00000004000C06D0002093
:10356000B842C9D00020EBE74069F3E70120F7E754
:103570002DE9F047984616460D4604464FF00009DF
:103580004FF0200AC1F3074723E020684069C04399
:10359000400515D42068016841F40071016021687C
:1035A0006FF480604861C4F8309084F83DA084F8DE
:1035B0003E90216C41F00401216484F83C9021E0AC
:1035C000701C06D0FDF7D6FFA0EB0800B04203D870
:1035D00016B1012F1FD021E02068012F15D080697E
:1035E00025EA00000004000C18D000BF44F8309F0A
:1035F00084F80DA084F80E90216941F0200121612A
:1036000084F80C900120BDE8F087406925EA0000AD
:103610000004000CEAD12068406901E0206880695C
:1036200025EA00000004000CAFD1ECE72DE9F041E1
:10363000002590460E460446202728E04069C043F6
:10364000C0060CD454F8301B6FF01000486144F8E9
:1036500010596777A577206A2062257714E0FDF777
:1036600089FFA0EB0800B04200D886B92068406905
:10367000C04340060BD544F8305F6773A5732069DB
:1036800040F02000206125730120BDE8F081206812
:103690004169C9434906D1D40020F6E770B5164602
:1036A0000D4604461EE02046FFF705FE08B1012046
:1036B00070BD681C16D0FDF75DFF801BA84200D8C6
:1036C00085B920684069C04300060BD5002044F846
:1036D000300F20216173A073216941F02001216125
:1036E0002073E4E720684069C0430006DBD4002073
:1036F00070BD000070B5002003F09CFE284C012531
:10370000284B2949607001281FD0284A284E0228DA
:1037100024D0032842D1A070307800283ED1087808
:103720000021012828D002282CD0032830D00428DA
:1037300034D119601088117980B2042201F0CEF9D9
:10374000BDE870401BA001F021BD0878401CC0B24C
:103750000870042800D90D70196808E00220A070D4
:10376000307800281AD12D21196011601571BDE83B
:10377000704014A001F00ABD19601088117980B260
:103780000122DBE719601088117980B20222D5E7A7
:1037900019601088117980B20322CFE770BD000054
:1037A0003C00002094000020000000206005002064
:1037B0009C000020E5BC80E590AFE6978BE8BDACAF
:1037C0005C720A00E6978BE8BDACE79A84E8A792A2
:1037D000E5BAA6E4B8BAEFBC9A25640D0A00000069
:1037E0002DE9F041104C074600216088401E83B24D
:1037F0002088401E82B2084600F0F2F90122D1036F
:103800000A48FDF7B2FE002609E0002503E038462D
:1038100000F0CCFC6D1C2088A842F8D8761C60888B
:10382000B042F2D8BDE8F0815005002000180240F7
:103830002DE9FE4F161ACDE900104FF000085D1A71
:1038400047464FF0FF30002E02DD4FF0010102E04D
:1038500003D14FF000018B4602E08346C6F100061B
:10386000002D02DD4FF0010002E003D14FF0000017
:10387000824602E08246C5F10005AE4201DD3446D3
:1038800000E02C46601C4FF00009029018E0009800
:1038900081B2019880B200F019F8B0442F44A045DD
:1038A00004DD0198A8EB040858440190A74203DD09
:1038B00000983F1B5044009009F101001FFA80F965
:1038C00002998945E3DDBDE8FE8F000010B500F0E8
:1038D00083F903480088BDE8104000F067BC000091
:1038E00090000020F8B53C4810240094026803239F
:1038F00000217D2000F068FA38480094022390ED02
:10390000000A1A4619217D2000F01CFA3448009460
:10391000012390ED000A03222D217D2000F012FAF0
:1039200030480094012390ED000A032241217D20BC
:1039300000F008FA2C480094012390ED000A0322BD
:1039400055217D2000F0FEF92848009403230278D9
:1039500069217D2000F038FA25480078022802D03D
:1039600003280BD018E07D21032301220846009490
:1039700000F02AFA03230022009409E07D210323AA
:1039800000220846009400F01FFA0323012200944D
:103990008F217D2000F018FA164D00944FF4B9766F
:1039A0000523002130462A6800F00EFA0094052312
:1039B000192130466A6800F007FA009405232D218A
:1039C0003046AA6800F000FA0094052341213046F1
:1039D000EA6800F0F9F9F8BD480000200C0000206A
:1039E0008C000020840000208800002000000020BF
:1039F0003E0000207005002010B500F0D5F8F7203B
:103A000000F074FBA92000F063FB512000F060FB84
:103A10002C2000F05DFB822000F05AFBC02000F05B
:103A200065FB112000F054FB092000F051FBC12080
:103A300000F05CFB412000F04BFBC52000F056FB82
:103A4000002000F045FB0A2000F042FB802000F03F
:103A50003FFBB12000F04AFBB02000F039FB112001
:103A600000F036FBB42000F041FB022000F030FBF8
:103A7000B62000F03BFB022000F02AFB422000F0C1
:103A800027FBB72000F032FBC62000F021FBBE2050
:103A900000F02CFB002000F01BFB042000F018FBC2
:103AA000E92000F023FB002000F012FB362000F09C
:103AB0001DFB682000F00CFB3A2000F017FB66208D
:103AC00000F006FBE02000F011FB002000F000FBFE
:103AD000072000F0FDFA102000F0FAFA092000F0AB
:103AE000F7FA172000F0F4FA0B2000F0F1FA412069
:103AF00000F0EEFA892000F0EBFA4B2000F0E8FA33
:103B00000A2000F0E5FA0C2000F0E2FA0E2000F0A6
:103B1000DFFA182000F0DCFA1B2000F0D9FA0F20A1
:103B200000F0D6FAE12000F0E1FA002000F0D0FA2F
:103B3000172000F0CDFA1A2000F0CAFA042000F095
:103B4000C7FA0E2000F0C4FA062000F0C1FA2F20B8
:103B500000F0BEFA452000F0BBFA432000F0B8FAAE
:103B6000022000F0B5FA0A2000F0B2FA092000F0B5
:103B7000AFFA322000F0ACFA362000F0A9FA0F209C
:103B800000F0A6FA112000F0B1FA7820FDF7D6FB7C
:103B9000292000F0ABFA032000F0C8FABDE810407D
:103BA0004FF6FF70FFF71CBE70B50A4D4FF480440E
:103BB000002221462846FDF7D8FC6420FDF7BEFB15
:103BC000012221462846FDF7D0FCBDE87040322096
:103BD000FDF7B4BB001802400B460246AFF300806D
:103BE0002DE9F041DFF8508007461C4615460E4689
:103BF00098F80A0000F07AFA380A00F069FAF8B288
:103C000000F066FA280A00F063FAE8B200F060FA01
:103C100098F80C0000F06AFA300A00F059FAF0B295
:103C200000F056FA200A00F053FAE0B200F050FA21
:103C3000BDE8F04100F06ABA500500202DE9FF4FC1
:103C400081B08A460EA9DFF8EC9091E83100203867
:103C500000F0FF080AEB0400401E83B20198B9F897
:103C600000B000EB5400401E82B251460198FFF7AD
:103C7000B7FF002D4FF0000549D12F4808EB480150
:103C800000EB810A00F2744000EB081817E00C2CDE
:103C900003D018F8057000260CE01AF80570FAE752
:103CA000F80701D0039800E0049800F07FFA7F083D
:103CB000761CF6B2B6EB540FF2D36D1CEDB2A542F2
:103CC000E5D326E00C2C08D01C4901EB0810002697
:103CD000475D0AEB0500009014E0174808EB480127
:103CE00000EB8100F3E70398A9F80000F80706D07D
:103CF000009881B20198304480B2FFF7E7FD7F0859
:103D0000761CF6B2B6EB540FEDD36D1CEDB2A542A6
:103D1000D8D30B48A9F800B04188008805B0491EE7
:103D2000BDE8F04F401E8BB282B200210846FFF77B
:103D300057BF0000900000205E940008D298000851
:103D4000500500202DE9F043FDEEC00A14462DED8C
:103D5000028B10EE902A81B0984600EE902A0A9DC0
:103D60008946F8EEE00A06462346009530EE608A62
:103D700000F02AF801206F08009007FB046080B271
:103D800010A31022494600F061F841460A2004F0D1
:103D9000DFFB00EE100A641C07FB0460B8EE400A6B
:103DA00080B24346494620EE080A0095BDEEC00A9F
:103DB00010EE102A00F008F801B0BDEC028BBDE84F
:103DC000F08300002E0000002DE9FF4F83B0002695
:103DD000DDF840801D463446B2464FEA5807DFF80A
:103DE0006490DFF864B028E0281B401EC1B20A20AE
:103DF00004F0AEFB0599B1FBF0F00A21B0FBF1F243
:103E000001FB120026B9691E8C4201DA28B1012695
:103E10003030C0B28DE8010502E020228DE80405B3
:103E20000398B9F8003007FB040080B2BBF800200B
:103E30000499FFF703FF641CE4B2AC42D4D307B08B
:103E4000BDE8F08F92000020900000202DE9FE4F89
:103E50001C4691468A460546114E124FDFF84880AF
:103E6000DDF830B014E03188491EA94215DB7188B5
:103E7000491E514511DB8DE8010A3B88B8F8002046
:103E800051462846FFF7DAFE05EB590085B2641C5F
:103E90002078A0F120015E29E5D9BDE8FE8F000061
:103EA00050050020920000209000002038B5012429
:103EB000002157A3102208460094FFF7C7FF57A31D
:103EC0001022192100200094FFF7C0FF57A31022F1
:103ED0002D2100200094FFF7B9FF58A310224121A3
:103EE00000200094FFF7B2FF58A3102255210020B4
:103EF0000094FFF7ABFF59A3102269210020009422
:103F0000FFF7A4FF59A310227D2100200094FFF7A2
:103F10009DFF5AA31022912100200094FFF796FFE5
:103F200010257D210323002208460095FFF74CFF52
:103F3000032300228F217D200095FFF745FF53A327
:103F400010220021F5200094FFF780FF53A31022D8
:103F50001921F5200094FFF779FF54A310222D2199
:103F6000F5200094FFF772FF54A310224121F520A1
:103F70000094FFF76BFFF0224FF4A073002110466E
:103F8000FFF756FCA0234FF4F07422461946002098
:103F9000FFF74EFC4FF4B470A02302460021FFF758
:103FA00047FC7822A02300211046FFF741FC16238E
:103FB000224619460020FFF73BFC2A2322461946D9
:103FC0000020FFF735FC3E23224619460020FFF76C
:103FD0002FFC5223224619460020FFF729FC6623B6
:103FE000224619460020FFF723FC7A232246194671
:103FF0000020FFF71DFC8E23224619460020FFF704
:1040000017FCBDE83840F021304A1920FCF7FEBD0E
:1040100054696D653A20287329000000566F6C744E
:104020006167653A20285629000000007961773AD7
:1040300020286465677265652900000070697463F3
:10404000683A20286465677265652900726F6C6C38
:104050003A202864656772656529000053746570AD
:104060004D6F746F725F49443A000000537465707D
:104070004D6F746F725F43573A2000005374657040
:104080004D6F746F725F4343573A200053746570ED
:104090004D6F746F725F313A200000005374657089
:1040A0004D6F746F725F323A200000005374657078
:1040B0004D6F746F725F333A200000005374657067
:1040C0004D6F746F725F343A200000000CAB000833
:1040D00010B504460122D1030348FDF746FA2046F5
:1040E000BDE8104000F042BC0018024010B5044684
:1040F00000224FF400410448FDF737FA2046BDE89E
:10410000104000F033BC0000001802400148007A63
:10411000FFF7ECBF5005002010B50C46FFF7E6FF97
:10412000E0B2BDE81040FFF7D3BF000012492A22D9
:104130004FF4F0734A812B228A812C220A814FF49A
:10414000A07258B101280DD002280FD0032811D138
:104150000B804A80A8213620FFF7DEBF0A804B8003
:104160000821F8E70B804A806821F4E70A804B8039
:10417000C821F0E7704700005005002010B501226B
:1041800010210848FDF7F1F9074C01224021204693
:10419000FDF7EBF920460122BDE810401021FDF7A4
:1041A000E4B90000000002400010024010B50446CF
:1041B000F82000EA1420FFF78BFFFC2000EAD4006F
:1041C000FFF786FFE006BDE81040000EFFF780BF56
:1041D00010B580216B2000F089F86420FDF7AEF85F
:1041E00000216B2000F082F8032000F04AF8002044
:1041F00000F042F8322000F061F80021382000F091
:1042000075F800216A2000F071F80021232000F0E9
:104210006DF88021372000F069F8752000F012F861
:10422000682801D0012010BD01216B2000F05EF84C
:1042300000216C2000F05AF8322000F03FF80020F6
:1042400010BD00001FB500218DF80C1040F6FF7363
:10425000012203A98DE80E0013460246D12105482C
:10426000FDF752FA0120FDF769F89DF80C0004B043
:1042700010BD0000F0000020C006010E1C2000F060
:1042800035B8C006010E1B2000F030B8BC2801D3A1
:10429000012110E0622801D302210CE02A2801D379
:1042A000032108E0142801D3042104E00A2801D3E3
:1042B000052100E006211A2000F018B810B50446C8
:1042C0004FF47A70844201D9044602E0042C00D2F3
:1042D0000424B0FBF4F0401EC1B2192000F006F82F
:1042E0006008BDE81040FFF7D1BF00001FB540F6E1
:1042F000FF738DF80C10012203A98DE80E00134600
:104300000246D0210448FDF701FB0120FDF716F815
:1043100004B0002010BD0000F00000207FB5002494
:1043200015480094019402941249039401604FF4DB
:104330008031C0E901140461047680F820400F49FF
:10434000C0E90A140125C561C46080F830404561A8
:10435000FCF72FFD08B1FCF754FC0E20CDE9000559
:10436000694602940448FCF77BFC002801D0FCF766
:1043700048FC7FBD00200140A80000200100000F84
:104380000D4808B5016841F4800101600068002211
:1043900000F48000009011463A20FDF7F5FB3A202A
:1043A000FDF7E4FB002211464620FDF7EDFBBDE8DA
:1043B00008404620FDF7DABB303802402DE9F04FC7
:1043C00087B014216846FBF766FF44480024016863
:1043D00041F010010160016801F0100105910168D0
:1043E00041F004010160016801F0040105910168D8
:1043F00041F080010160016801F0800105910168D0
:1044000041F001010160016801F0010105910168BD
:1044100041F020010160016801F02001059101686F
:1044200041F040010160016801F04001059101681F
:1044300041F0020101600068DFF8A4B000F0020062
:104440000590002250215846FDF78FF8DFF8948040
:10445000002210214046FDF788F8DFF88C904FF4D9
:104460007046002231464846FDF77FF8DFF87CA011
:104470004FF23F17002239465046FDF776F850209C
:1044800000900125CDE90154694658460394FCF794
:1044900067FF10200090CDE901546946404603941F
:1044A000FCF75EFF0096CDE9015469464846039447
:1044B000FCF756FF0097CDE9015469465046039436
:1044C000FCF74EFF4FF46070CDE900046946584692
:1044D0000294FCF745FF07B0BDE8F08F303802408A
:1044E0000010024000000240001402400018024088
:1044F0000D4810B50B4901600C49416000214FF493
:1045000080428160C0E9031241618161C161016241
:10451000FDF736F8002803D0BDE81040FCF771BB6A
:1045200010BD000000540040F0000020801A06007A
:1045300010B596B000240F94109411941294139413
:104540001C2168461494FBF7A6FE202107A8FBF760
:10455000A2FE2D482B4901605321C0E9011444F605
:104560001F61C0E903148021C0E90541FDF768FE21
:1045700008B1FCF746FB4FF480500F900FA922487A
:10458000FDF732FF08B1FCF73CFB1F48FEF7ADF921
:1045900008B1FCF736FB139413A91B481494FDF7DC
:1045A00007FE08B1FCF72DFB6020CDE90004029462
:1045B0000394049405940022694613480694FEF778
:1045C0002EF908B1FCF71DFB0C2269460E48FEF7D8
:1045D00026F908B1FCF715FB0794089409944FF4E9
:1045E00000500A94CDE90B4007A907480E94FDF747
:1045F000B5FD08B1FCF705FB0348FEF7E5F816B07A
:1046000010BD0000000001404401002010B58CB036
:1046100024216846FBF73FFE0024164809941449FC
:104620000A94C0E900144FF6FF71C0E90241046129
:1046300084610320CDE900040120CDE90204049443
:10464000CDE90540079469460A480894FDF73AFF0A
:1046500008B1FCF7D6FA099409A906480A94FDF7AF
:10466000A7FD002801D0FCF7CCFA0CB010BD00006B
:10467000000800408C01002010B58CB02421684651
:10468000FBF709FE00241648099414490A94C0E96E
:1046900000144FF6FF71C0E90241046184610320F8
:1046A000CDE900040120CDE902040494CDE90540E0
:1046B000079469460A480894FDF704FF08B1FCF71F
:1046C000A0FA099409A906480A94FDF771FD00288B
:1046D00001D0FCF796FA0CB010BD0000000C0040B1
:1046E000D40100201CB500240F4800940D4901940A
:1046F000016042F2CF01C0E901146321C160802151
:104700008161FDF79DFD08B1FCF77BFA00946946D5
:1047100005480194FDF74CFD002801D0FCF771FA23
:104720001CBD0000001000401C0200201CB500242D
:104730000F4800940D490194016042F2CF01C0E995
:10474000011440F2CF718461C160FDF779FD08B1B9
:10475000FCF757FA0094694605480194FDF728FDD7
:10476000002801D0FCF74DFA1CBD000000140040E9
:104770006402002010B586B000241748009401940C
:104780000294039404941349059401600421C0E940
:10479000011442F2CF01C0E9031444618461FDF7C2
:1047A0004FFD08B1FCF72DFA4FF480500090694698
:1047B0000948FDF719FE08B1FCF723FA049404A98F
:1047C00005480594FDF7F4FC002801D0FCF719FA20
:1047D00006B010BD00040140AC0200200C4810B52A
:1047E0000A4901604FF4E1314160002181600C22EF
:1047F000C160C0E904128161C161FEF7EBFB0028D2
:1048000003D0BDE81040FCF7FCB910BD001001401A
:10481000F40200200C4810B50A4901604FF4E13160
:104820004160002181600C22C160C0E904128161F5
:10483000C161FEF7CFFB002803D0BDE81040FCF7B4
:10484000E0B910BD004400403C0300200C4810B506
:104850000A4901604FF4E1314160002181600C227E
:10486000C160C0E904128161C161FEF7B3FB002899
:1048700003D0BDE81040FCF7C4B910BD00480040AB
:1048800084030020FEE7FEE731489FED300AB1EED9
:10489000041A80ED000A80ED080A80ED010A80ED1F
:1048A000020A80ED070ADFED2B0A80ED041AC0ED45
:1048B000050A80ED060A2430DFED291A80ED000A92
:1048C00080ED080A80ED010A80ED020A80ED070AFA
:1048D00080ED041AC0ED050A80ED060A24309FED34
:1048E0001E1A80ED000A80ED080A80ED010A80EDB5
:1048F000020A80ED070A80ED041A9FED181A80ED78
:10490000051AC0ED061A243080ED000A80ED080A71
:1049100080ED010A80ED020A80ED070A1030C0EC3C
:10492000030A14309FED0F1A80ED000A80ED080A8B
:1049300080ED010A80ED020A80ED070A80ED041A7D
:1049400080ED050AC0ED060A704700000000000077
:104950008C0400209A99193F9A99993E17B7D1383B
:10496000EC51383ECDCC8C3F704700002DE9F04132
:104970000824104F05464FF400586601280601D55B
:10498000012200E0002241463846FCF7EEFD0022FD
:1049900031463846FCF7E9FD012231463846FCF73E
:1049A000E4FD6806050E641E14F0FF04E6D1BDE8C0
:1049B000F081000000180240704700002DE9F0412E
:1049C00053EC102B9FED230B2DED028B51EC100BB4
:1049D000FBF792FD41EC180BFBF73AFE1F4C074624
:1049E0002168C8629FED1E0BE06053EC102B51EC68
:1049F000180BFBF70FFD0E4646EC100B054651EC6D
:104A0000100BFBF725FE216848632168CF6246EC56
:104A1000105BE76051EC100BFBF71AFE216888630E
:104A20002168CF6246EC105BE76051EC100BFBF79E
:104A30000FFE2168C8632168CF6246EC105BE76017
:104A400051EC100BFBF704FE21680864BDEC028BEF
:104A5000BDE8F08100000000008063408005002078
:104A6000000000000000E03F10B50E48FCF752FACD
:104A70000A210C48FCF7F8F90B4C207048B19FED67
:104A80000B0A00BF84ED010ABCEEC00A10EE100A4A
:104A900010BD0448FCF78AF900EE100AB8EE400A8F
:104AA000F0E70000A8000020040000200000000043
:104AB00010B500210848FEF70DF804210648FEF75E
:104AC00009F808210448FEF705F8BDE810400C215C
:104AD0000148FDF7FFBF00008005002070B50D46BE
:104AE000014617481446012A1DD0022C1DD0032C64
:104AF0001DD0042C1DD0002202600846FBF77CFD6F
:104B00009FED101B53EC112BFBF7F6FCFBF7A0FD00
:104B100001460E488160806868B129462046BDE89C
:104B2000704003F011BE0122E6E70222E4E703220F
:104B3000E2E70422E0E72046BDE8704003F040BE13
:104B400098000020CDCCCCCCCCCCAC3F6005002074
:104B5000FCF7B2BF30B593B030216846FBF79BFB42
:104B600014210CA8FBF797FB1D480025016841F0B4
:104B700080510160006800F0805011901948016870
:104B800041F4804101600068022400F480401190EB
:104B90000120039010200490009406940820CDE991
:104BA0000750A820CDE9090404200B906846FDF7C2
:104BB00009F908B172B6FEE70CA90F2081E83100AF
:104BC0004FF4A0500F904FF48050109005210CA886
:104BD000FDF70CF8002801D072B6FEE713B030BD27
:104BE00040380240007000400248016841F4700102
:104BF0000160704788ED00E00148FDF74DBD000001
:104C00001C0200200148FDF747BD0000640200209F
:104C10000148FDF741BD000080050020F0B50268A5
:104C2000294C2A4D2A4E2B4F2B4B4FF0804CA04243
:104C300009D0604507D0A84205D0B04203D0B842A1
:104C400001D0984204D122F0700E4A6842EA0E0266
:104C5000A0421BD0604519D0A84217D0B04215D051
:104C6000B84213D0984211D01C4DA8420ED01C4D12
:104C7000A8420BD01B4DA84208D01B4DA84205D01E
:104C80001A4DA84202D01A4DA84203D122F4407511
:104C9000CA682A434D6922F080022A4302608A686A
:104CA000C2620A688262A04201D0984201D10969B9
:104CB0000163012141610169C90703D0016921F044
:104CC00001010161F0BD000000000140000400404E
:104CD00000080040000C004000040140004001407A
:104CE000004401400048014000180040001C004002
:104CF0000020004010B501F01F030121046A994013
:104D00008C430462016A9A401143016210BD10B5E0
:104D1000846842EA032224F47F440A4322438260E7
:104D200010BD826822F070020A4342F007018160E0
:104D300070470000F0B5036A026A22F001020262C5
:104D400042688469124E24F073050C682C4323F0EA
:104D500002058B682B430D4DA84201D0B04205D10E
:104D600023F00807CB683B4323F00403A84201D09B
:104D7000B04205D14D6922F4407215438A692A4335
:104D800042608461496841630362F0BD00000140F4
:104D900000040140F0B5026A036A23F010030362C5
:104DA000436884690D6824F4E64444EA05248D6868
:104DB00022F0200242EA05120F4D104EA84201D007
:104DC000B04206D1CF6822F0800242EA071222F0F8
:104DD0004002A84201D0B04207D14D6923F440639C
:104DE00043EA85038D6943EA85034360846149682A
:104DF00081630262F0BD0000000001400004014038
:104E0000F0B5026A036A23F4807303624368C469DD
:104E100022F4007224F073050C68124E2C438D6846
:104E200042EA05220E4DA84201D0B04206D1CF6819
:104E300022F4006242EA072222F48062A84201D0F2
:104E4000B04207D14D6923F4405343EA05138D69FD
:104E500043EA05134360C4614968C1630262F0BD5F
:104E6000000001400004014030B5046A026A22F4E7
:104E7000805202624268C3690D6823F4E64343EA44
:104E800005238D6824F4005444EA0534084DA842F3
:104E900002D0084DA84204D14D6922F4804242EA72
:104EA00085124260C36149680164046230BD00003C
:104EB000000001400004014010B5036A046A24F0B8
:104EC00001040462846924F0F00444EA021423F02B
:104ED0000A020A438461026210BD10B5036A046AC3
:104EE00024F010040462846923F0A00324F47044C5
:104EF00044EA023243EA01118261016210BD10B539
:104F0000806B0021C185C184FDF72AFF10BD0168B7
:104F10000C3151E8002F22F4907241E80023002B5D
:104F2000F5D10168143151E8002F22F0010241E867
:104F30000023002BF5D1016B012909D101680C3147
:104F400051E8002F22F0100241E80023002BF5D198
:104F5000202180F8421000210163704708B590F8C5
:104F60004210222901D0022008BD82684FF48053EC
:104F70009A4201D1016921B1816A9A421BD04AB19A
:104F80000AE00268816A5268C2F308020A80816AF4
:104F9000891C08E0026972B10268526802F07F025F
:104FA0000A70816A491C8162C18D491E0904090C7D
:104FB000C18503D01BE002685268F1E70168CA6846
:104FC00022F02002CA600168CA6822F48072CA60B6
:104FD00001684A6922F001024A61202180F84210EA
:104FE00000214163026B012A03D0FEF7F7F800208D
:104FF00008BD016301680C3151E8002F22F0100256
:1050000041E80023002BF5D101680A68D20602D5D9
:105010000A6849680091818DFDF7A1FEE7E700006D
:1050200070B5044600680169E26821F440511143FB
:1050300001612169A068E26908436169114308437D
:105040002168CA6849F20C639A430243CA60206827
:105050004169A26921F440711143416131492068DD
:10506000884202D03049884202D1FCF769FE01E053
:10507000FCF756FEE2690023192164253226B2F5B9
:10508000004F626828D0A0FB0101930F9200FBF74C
:1050900099F80146B0FBF5F06FF01802504301EBB0
:1050A000800006EB0010B0FBF5F000F0F002B1FB61
:1050B000F5F002EB0012B1FBF5F06FF01803584366
:1050C00001EB800006EB0010B0FBF5F000F00F00E4
:1050D00021681044886070BDA0FB010192185B41FB
:1050E000FBF770F80146B0FBF5F00201B1FBF5F0FB
:1050F0006FF01803584301EB800006EBC000B0FBD3
:10510000F5F000F0F80002EB4002B1FBF5F0584377
:1051100001EB800006EBC000B0FBF5F000F00700EB
:10512000D6E7000000100140001401408162828532
:10513000C28500214164222180F84210016921B119
:105140000168CA6842F48072CA6001684A6942F024
:1051500001024A610068C16841F02001C16000207D
:10516000704700000148FDF7FDBD0000F40200207B
:105170000148FDF7F7BD00003C0300200148FDF7A2
:10518000F1BD000084030020FEE700000FB4054BD2
:1051900010B503A9044A029800F0D6FD10BC5DF8D2
:1051A00014FB0000196F0008A000002003B4019850
:1051B0004100009850EAC12018BF04204A0D18BFD2
:1051C00040F0010040F2FF72B2EB515F08BF40F0C7
:1051D0000200012808BF052002B070470907090E28
:1051E000002804DB00F1E02080F80014704700F094
:1051F0000F0000F1E02080F8141D7047000000004F
:1052000070B5C1482DED020B2DED0E8B82B0119DB6
:1052100025F000449FEDBEDB9FEDBFEB84423EDBFB
:10522000A4F140511098A1F17F6108430FD0BC4810
:10523000844202DC28D1109830B39DED100B02B0EF
:10524000BDEC0E8B02B0BDE8704000F071BC9DED6E
:10525000100B53EC1D2B51EC100BFBF7DBF89DED05
:10526000100B41EC180B53EC1E2B51EC100BFBF701
:10527000D1F853EC182BFBF726F841EC100B02B0D9
:10528000BDEC0E8B02B070BD012000F095FC02B0A9
:10529000BDEC0E8B02B0BDE8704000F05DBCA148D3
:1052A0009FEDA18B844256DA9DED100BB4F1795F2E
:1052B0000ADA51EC100BFFF779FF042808BF00F061
:1052C0005BFC9DED100BDAE753EC102B51EC100B4F
:1052D000FBF7A0F841EC190B95480621B0EE490AFE
:1052E000F0EE690A784400F0A7FB53EC192B51EC5F
:1052F000100BFBF78FF841EC1A0B8E48B0EE490A01
:10530000F0EE690A0421784400F096FB53EC192B67
:1053100051EC100BFBF77EF853EC182BFAF7D3FF88
:1053200041EC100B51EC1A0B53EC102BFBF7E4F88B
:10533000CDE900019DED000B53EC102B9DED100B02
:1053400051EC100BFBF766F89DED101B53EC112B85
:10535000FAF7B9FFD2E09DED100B51EC100B01F004
:10536000CFFD53EC182BFBF752F89FED730BCDE9F3
:10537000000153EC102B9DED000B51EC100BFBF7D3
:1053800049F841EC190B6E480621B0EE490AF0EEDF
:10539000690A784400F050FB53EC192B51EC100BC8
:1053A000FBF738F841EC1B0B6648B0EE490AF0EE0B
:1053B000690A0421784400F03FFB53EC192B51ECAF
:1053C000100BFBF727F853EC182BFAF77CFF41EC96
:1053D0001C0B51EC190B03F033F941EC180B5A4834
:1053E0009FED5BABA04222DC53EC1C2B51EC1B0B62
:1053F000FBF782F8CDE900019DED000B51EC180B95
:1054000053EC102BFBF706F853EC182BFAF75BFF65
:1054100053EC1A2BFAF7FEFF53EC1D2BFAF7F4FFAF
:1054200053EC1E2BFAF7F3FF41EC100B5FE08DED10
:10543000008B002000909DED000B51EC180B53ECFD
:10544000102BFAF740FF9DED000B41EC1E0B53ECC7
:10545000102B51EC100BFAF7DDFF53EC192BFAF778
:10546000D6FF53EC1E2BFBF747F841EC190B53EC1E
:105470001C2B51EC1B0BFBF73FF841EC1B0B53ECC7
:105480001A2B51EC190BFAF7C5FF53EC1D2BFAF749
:10549000BEFF41EC190B53EC1A2B51EC180BFAF729
:1054A000B9FF53EC1B2BFAF7B5FF53EC192BFAF7A6
:1054B000ABFF9DED000B41EC180B53EC1A2B51EC9C
:1054C000100BFAF7A7FF9FED249B53EC192BFAF76B
:1054D0009EFF41EC100B51EC180B53EC102BFAF71C
:1054E00093FF53EC192BFAF792FF41EC100B002DB0
:1054F0003FF7C5AE51EC100B81F0004141EC100BB1
:10550000BDE60000000000000000F03F00000000C9
:10551000075C143326A6913C182D4454FB21F93F17
:105520000000F07F0000E03F000000000000F03FBE
:10553000A8640000B6640000000000000000E03F26
:10554000FA630000086400003333EF3F00000000FE
:105550000000000000000040182D4454FB21E93FEA
:1055600070B59B482DED020B2DED068B079D25F0A8
:105570000044A04218DC9748844202DC0AD1069815
:1055800040B19DED060BBDEC068B02B0BDE870404E
:1055900000F0CEBA002DCCBF9FED8F0B9FED900B8E
:1055A000BDEC068B02B070BD8F48A04215DD8F4860
:1055B000A042D8BF4FF0FF3458DD9DED060B51ECF3
:1055C000100BFFF7F3FD042808BF00F0D5FA9DED9E
:1055D000060BBDEC068B02B070BD9DED060B51ECC9
:1055E000100B01F08DFCCDE9060181489FED828B07
:1055F000A0423CDD8248A0421FDD00249FED82AB2B
:105600009DED060B53EC1A2B51EC100BFAF75BFED9
:105610009DED060B41EC190B53EC1A2B51EC100BC2
:10562000FAF7F8FE53EC182BFAF7EEFE53EC192BB1
:10563000FAF762FFCDE9060149E09DED060B012472
:1056400053EC182B51EC100BFAF73DFE9DED060BB9
:1056500041EC190B53EC182B51EC100BFAF7D4FE5C
:1056600053EC192BFAF748FFCDE906012FE0684803
:10567000A0421FDD02249FED689B9DED060B53ECBD
:10568000192B51EC100BFAF7C5FE53EC182BFAF757
:105690001AFE9DED060B41EC180B53EC192B51EC47
:1056A000100BFAF7B1FE53EC182BFAF725FFCDE9F2
:1056B00006010CE09DED060B032453EC102B9FED2F
:1056C000580B51EC100BFAF717FFCDE906019DEDD1
:1056D000060B53EC102B51EC100BFAF79BFE41EC30
:1056E000180B53EC182BFAF795FE41EC190B4E48AA
:1056F0000621B0EE490AF0EE690A784400F09CF900
:1057000053EC182B51EC100BFAF784FE41EC180BFC
:105710004648B0EE490AF0EE690A0521784400F0E7
:105720008BF953EC192B51EC100BFAF773FE41EC8B
:10573000100B51EC180B53EC102B002C0EDAFAF76F
:10574000C2FD9DED061B53EC112BFAF763FE9DED98
:10575000061B53EC112BFAF75AFE35E0FAF7B3FDAE
:105760009DED061B53EC112BFAF754FE41EC100B88
:105770002F48784400EBC40090ED001B51EC100B57
:1057800053EC112BFAF740FE9DED061B53EC112B49
:10579000FAF73AFE41EC100B2648784400EBC400BF
:1057A00090ED001B51EC100B53EC112BFAF72FFE70
:1057B00041EC100B002DA2BFBDEC068B02B070BDFA
:1057C00051EC100B81F0004141EC100B01E700009F
:1057D000000010440000F07F182D4454FB21F93FD5
:1057E000182D4454FB21F9BF0000DC3F0000203E8F
:1057F0000000F33F00000000000000000000F03F48
:105800000000E63F00000000000000000000004033
:105810000080034000000000000000000000F83F8E
:10582000000000000000F0BF4A61000000610000BD
:105830008A6000004260000070B56F4E2DED040BD1
:105840002DED048B82B0DDF824C0DDE907235C4236
:105850002CF000411C4341EAD474069D22F0004024
:10586000B44205D86C422C4340EAD474B4420BD9FC
:105870009DED081B9DED060B02B0BDEC048B04B042
:10588000BDE8704000F05EB9ACF14054A4F17F6413
:105890001C430BD0022404EAAC7444EAD2740543DE
:1058A0009FED578B9FED582B07D015E09DED060B14
:1058B00051EC100B00F014FE42E0002C11BF012C43
:1058C0009DED060B02B0BDEC048B04BF04B070BDAF
:1058D000022C38D0032C3BD00B439FED4D1B9FED8A
:1058E0004E0B0AD0B14218D1B04209D121F080410B
:1058F00020F08040099107900FE0002A15DA10E0AF
:10590000474B7B44002C08BF93ED000B0DD0012CBE
:1059100010D0022C17D0032C1AD0B0421DD1002A6F
:1059200003DAB0EE410AF0EE610A02B0BDEC048B7E
:1059300004B070BD93ED000B51EC100B81F00041F1
:1059400041EC100BF1E7B0EE480AF0EE680AECE724
:10595000B0EE420AF0EE620AE7E7401A00159FED4A
:10596000329B3C28C8BF8DED000B17DCBCF1000F4B
:10597000BCBF10F13C0F8DED009B0FDB9DED080BC4
:1059800053EC102B9DED060B51EC100BFAF7B4FD08
:1059900001F0B6FA00F0A4FDCDE90001B4B1012C8C
:1059A00010D0022C9FED220B53EC102B9DED000B21
:1059B00051EC100B19D0FAF727FD53EC182BFAF71E
:1059C00023FDBDE7019880F0004001909DED000BA4
:1059D00053EC192B51EC100BFAF776FF04BF0220A1
:1059E00000F0EAF89DED000B9FE7FAF70DFD53EC90
:1059F000182BFAF70CFDA3E70000F07F0000000071
:105A0000182D4454FB210940182D4454FB2109C092
:105A1000182D4454FB21F9BF182D4454FB21F93FA4
:105A2000725F0000000000000000000000000000A5
:105A3000075C143326A6A13C70B504462DED028BFD
:105A40004D1E00EBC500B0EE408AF0EE608A90ED8E
:105A5000000B35F0060017D053EC182B51EC100B4F
:105A6000FAF7D8FC41EC100B6D1E04EBC50090ED6D
:105A7000001B51EC100B53EC112BFAF724FC41ECFA
:105A8000100B35F00600E7D1022D36D0042D1CD0C6
:105A9000062D1CBFBDEC028B70BD53EC182B51ECD6
:105AA000100BFAF7B7FC94ED0A1B53EC112BFAF725
:105AB0000AFC53EC182BFAF7ADFC94ED081B53ECE1
:105AC000112BFAF700FC41EC100B53EC182B51ECA6
:105AD000100BFAF79FFC94ED061B53EC112BFAF711
