:020000040800F2
:10000000F0550020610200084D3F0008252E000831
:10001000793D000835090008754A00080000000015
:10002000000000000000000000000000A101000826
:10003000810A000800000000FD01000809440008D2
:100040007B0200087B0200087B0200087B0200089C
:100050007B0200087B0200087B0200087B0200088C
:100060007B0200087B0200087B0200087B0200087C
:100070007B0200087B0200087B0200087B0200086C
:100080007B0200087B0200087B0200087B0200085C
:100090007B0200087B0200087B0200087B0200084C
:1000A0007B020008C94400087B0200087B020008AC
:1000B0007B0200087B0200087B0200087B0200082C
:1000C0007B0200087B0200087B0200087B0200081C
:1000D0007B020008514A00085D4A0008694A00088E
:1000E0007B0200087B0200087B0200087B020008FC
:1000F000FD4400087B0200087B0200087B02000828
:100100007B0200087B0200087B0200087B020008DB
:100110007B0200087B020008E5440008F144000867
:100120007B0200087B020008ED0900087B02000842
:100130007B0200087B0200087B0200087B020008AB
:100140007B0200087B0200087B0200087B0200089B
:100150007B0200087B020008F90900087B02000806
:100160007B0200087B0200087B0200087B0200087B
:100170007B0200087B0200087B02000800000000F0
:100180007B0200087B020008DFF810D000F0BCFA08
:10019000004800477D500008AFF30080F055002074
:1001A0002C4B19680868B0E8F04F80F30988BFF35A
:1001B0006F8F4FF0000080F311887047000000003F
:1001C00008480068006880F308884FF0000080F35A
:1001D000148862B661B6BFF34F8FBFF36F8F00DF35
:1001E00000BF00BF08ED00E0DFF80C00016841F43B
:1001F00070010160704700BF88ED00E0EFF30980F7
:10020000BFF36F8F134B1A681EF0100F08BF20ED5D
:10021000108A20E9F04F106009B44FF0500080F3CD
:100220001188BFF34F8FBFF36F8F06F0C7F84FF001
:10023000000080F3118809BC19680868B0E8F04F25
:100240001EF0100F08BFB0EC108A80F30988BFF3CE
:100250006F8F704790000020EFF30580704700001B
:100260000648804706480047FEE7FEE7FEE7FEE750
:10027000FEE7FEE7FEE7FEE7FEE7FEE7B94400081B
:10028000890100082DE9F05F0546002092469B4653
:1002900088460646814640241BE02846414647469C
:1002A000224600F08CF953465A46C01A914110D3A9
:1002B00011461846224600F073F92D1A67EB010823
:1002C0004F4622460120002100F06AF917EB000991
:1002D0004E41201EA4F10104DFDC484631462A4687
:1002E0004346BDE8F09F40EA01039B0703D009E0C5
:1002F00008C9121F08C0042AFAD203E011F8013B12
:1003000000F8013B521EF9D27047D2B201E000F86A
:10031000012B491EFBD270470022F6E710B51346A9
:100320000A4604461946FFF7F0FF204610BD2DE9A6
:10033000FE4F81EA030404F0004421F000410094E0
:100340004FF0000B23F0004350EA01045ED052EA64
:1003500003045BD0C3F30A54C1F30A552C44A4F23E
:10036000F3340194A0FB0254C1F3130141F4801152
:10037000C3F3130343F4801301FB024400FB034E59
:10038000840A970A44EA815447EA8357A4FB076822
:1003900002958D0A05FB07854FEA932C04FB0C544C
:1003A0002705029D4FEA065847EA1637B5EB0805C0
:1003B0006EEB070C870E920E47EA811742EA831212
:1003C000A7FB0201B6EB0B0164EB00042B0D43EA23
:1003D0000C335E1844EB1C50DA465146E7FB020131
:1003E000C5F313044FEA0B3343EA14534FEA0432C4
:1003F000019C43EA0603A4F10C040294009CCDE99D
:1004000000B400F032F903B0BDE8F08F00200146DF
:10041000F9E72DE9F04D81EA030404F0004B21F0E7
:10042000004514464FF0000A23F0004150EA05024F
:1004300020D054EA01021DD0C5F30A570246C5F385
:100440001303C1F31300C1F30A5640F4801543F4BB
:100450008013A7EB0608101BD64608F2FD3873EB95
:10046000050002D308F1010801E092185B41B8F1E0
:10047000000F03DA00200146BDE8F08D00204FF4A4
:100480008011064684460EE0171B73EB050705D363
:10049000121B63EB050306434CEA010C49084FEAC3
:1004A000300092185B4150EA0107EDD152EA030097
:1004B00012D082EA040083EA0501084305D0101B2C
:1004C000AB4106D20122002306E000224FF0004398
:1004D00002E06FF0010253101AEB06004CEB0851DA
:1004E00010EB0A0041EB0B01BDE8F04D00F0AEB897
:1004F0000EB540F2334102910021CDE900110A46C8
:100500000B4600F0B2F803B000BDC1F30A5210B5BB
:10051000C1F3130140F2FF3341F480119A4201DA32
:10052000002010BD40F233439A42A2F2334203DC72
:10053000524200F044F810BD904010BD01F000435D
:1005400030B421F0004150EA010206D00A0DA2F5B4
:100550006072C1F31301002A02DC30BC0020704736
:10056000440F44EAC104C100E01830BC00EBC250A3
:1005700000F035B830B50B4601460020202201249A
:1005800009E021FA02F59D4205D303FA02F5491B61
:1005900004FA02F52844151EA2F10102F1DC30BD77
:1005A000202A04DB203A00FA02F100207047914033
:1005B000C2F1200320FA03F3194390407047202A28
:1005C00004DB203A21FA02F00021704721FA02F3FD
:1005D000D040C2F1200291400843194670470029DB
:1005E000A8BF7047401C490008BF20F001007047B9
:1005F00010B4B0FA80FC00FA0CF050EA010404BF19
:1006000010BC704749B1CCF1200421FA04F411FA6E
:100610000CF118BF012121430843A3EB0C01CB1DB2
:100620004FEA00614FEA102042BF002010BC704723
:1006300000EBC35010440029A4BF10BC7047401CFD
:10064000490008BF20F0010010BC704710B5141E0F
:1006500073F1000408DA401C41F1000192185B417B
:100660001A4301D120F0010010BD2DE9F04D924652
:100670009B4611B1B1FA81F202E0B0FA80F2203269
:100680009046FFF78DFF04460F4640EA0A0041EA14
:100690000B0153465A46084313D0114653EA010052
:1006A00019D0C8F140025046FFF789FF05460E46B3
:1006B000504659464246FFF773FF084305D00120D4
:1006C00004E020463946BDE8F08D0020054346EAA7
:1006D000E0762C4337430A986305E40AA0EB080050
:1006E0000022FD0A44EA47540A3002D500200146A0
:1006F000E9E7010510196941DDE90845001969417B
:10070000BDE8F04DA2E70000064C074D06E0E068AA
:1007100040F0010394E8070098471034AC42F6D348
:10072000FFF736FD4C8700086C87000830B58C1841
:1007300010F8012B12F00F0301D110F8013B120940
:1007400006D110F8012B03E010F8015B01F8015B02
:100750005B1EF9D101E001F8013B521EFBD1A14221
:10076000E6D3002030BD0000464910B54A6822F4A7
:1007700040324A604A6843681A434A6001684A68DE
:1007800022F480724A6001684A68036942EA0322DF
:100790004A6001684A6822F040724A6001684A680B
:1007A00083681A434A6001688A6822F400628A609A
:1007B00001688A68C3681A438A60816A6FF0706250
:1007C000D14201688A6822F070628A6001688A6892
:1007D0000CD0836A1A438A6001688A6822F040520A
:1007E0008A6001688A68C36A1A4301E022F04052B5
:1007F0008A6001688A6822F002028A6001688A6859
:10080000037E42EA43028A6090F8201000290168C2
:100810004A680FD042F400624A6001684A6822F4D4
:1008200060424A6001684A68174C436A04EB4333EC
:100830001A4301E022F400624A600168CA6A22F4A5
:100840007002CA620168CA6A838B104C04EB0353BE
:100850001A43CA6201688A6822F400728A600168D9
:100860008A6890F8303042EA43228A6001688A68D8
:1008700022F480628A6001688A68406942EA8020C6
:10088000886010BD0023014000E0FFFF0000F0FF82
:100890002DE9F0410126124D002700BF03F034FA84
:1008A00002242F700321342004F0E6F8642000F0C5
:1008B00085FC287830B1BDE8F0414FF4E13109A062
:1008C00004F008BA641EECD1761C0A2EE6DB0BA0FD
:1008D00004F000FABDE8F0410EA004F0FBB90000FE
:1008E00010010020256420626175642066696E64D1
:1008F0002073656E736F720D0A0D0A0063616E20BE
:100900006E6F742066696E642073656E736F720D0E
:100910000A000000706C6561736520636865636B35
:1009200020796F757220636F6E6E656374696F6E88
:100930000D0A0000FEE700002DE9F047002704251E
:10094000DFF8A080DFF8A09050383E4601F1060A9B
:10095000102845D2DFE800F01108130C1517191BF9
:100960001D1F21444444442334240325402702E02E
:100970003D2403252E27012613E0302411E03724DF
:100980002BE03A2429E041240BE0452409E04924E6
:1009900007E04D2405E0512403E0552401E0D8F898
:1009A0002440032A19D04DB16A0009EB4400FFF737
:1009B0009AFCD8F81420294620469047002E0FD0E4
:1009C000720009EB47005146FFF78DFC314638466F
:1009D000D8F81420BDE8F047104703250026E3E7C8
:1009E000BDE8F087180100204C500020014800F0BD
:1009F000ABBA00007C040020014800F0A5BA00005A
:100A0000DC04002001681823CAB2103AB2FBF3F2EA
:100A1000054B6FF30901032A9B5CC36500D9091DCF
:100A200081650846704700003C6E000810B501461D
:100A300000208B698A6A4FF0C07453B1B3F5005F30
:100A400015D072B1012A0CD0022A0AD0032A09D18A
:100A500004E01AB1012A06D0022A03D1C96AC901E9
:100A600000D5012010BDC96AA142FAD010BD002AEC
:100A7000F7D0012AF2D0022AF3D0032AF3D010BD16
:100A8000704772B6FEE702F05DBE000070B5154615
:100A900001F1270293B200F1270292B202F01AFC90
:100AA00000244FF4C86600BF05EB440115F814009C
:100AB000497840EA012002F05DFE641CB442F3DB99
:100AC000064841880088491E401EBDE870408BB230
:100AD00082B20021084602F0FDBB00006C510020EC
:100AE00078B50024009490F83C20012A19D0012206
:100AF00080F83C200A6807230568092A13D9EE68A4
:100B00000A3A02EB420293409E43EE600B788A68F9
:100B10000A3B03EB43039A400368DD682A43DA602B
:100B200010E0022078BD2E6902EB420293409E4302
:100B30002E610B788A6803EB43039A4003681D69B2
:100B40002A431A614A681F23072A13D205686E6B6D
:100B5000521E02EB820293409E436E630B790A8819
:100B60005B1E92B203EB83039A4003685D6B2A43DA
:100B70005A6327E005680D2A12D22E6BD21F02EBB2
:100B8000820293409E432E630B790A88DB1F92B248
:100B900003EB83039A4003681D6B2A431A6311E039
:100BA000EE6A0D3A02EB820293409E43EE620B79AD
:100BB0000A880D3B92B203EB83039A400368DD6A17
:100BC0002A43DA62164B0568144A9D4206D10D6825
:100BD000122D03D1556845F48005556005689D4286
:100BE00018D10B68102B01D0112B13D1536843F48B
:100BF00000035360096810290CD10A490A4A0968A0
:100C0000B1FBF2F101EB8101490000E0491E0091C6
:100C10000029FBD180F83C40002078BD0023014032
:100C2000002001403000002040420F000068C06CEE
:100C3000704770B504004FF0000503D0206C00260B
:100C400010B107E0012070BD204600F01DF8666479
:100C500084F83C60206CC00610D4206C20F48850CE
:100C600040F0020020642046FFF77EFD6664206CA1
:100C700020F0020040F00100206400E0012584F82B
:100C80003C60284670BD000010B586B004461421B3
:100C90006846FFF741FB1149206888421CD1104883
:100CA0000021026842F480720260006800F48070E3
:100CB00005900B481438026842F004020260006894
:100CC00000F004000590102000900320CDE9010100
:100CD0006946044800F084FA06B010BD00200140C7
:100CE00044380240000802402DE9F0410446006803
:100CF0000D4681684FF0000749050BD58068C00597
:100D000008D5206C40F02000206484F83C7001205D
:100D1000BDE8F08100F06EFB064613E0681C11D0C0
:100D200025B100F067FB801BA8420BD92068006842
:100D3000800707D4206C40F00400206484F83C70E5
:100D40000320E5E7206800688007E7D521686FF099
:100D500012000860206C40F40070206420688168F4
:100D600011F0405F13D1217E89B9C16A11F4700F6F
:100D700002D0806840050AD4206C20F48070206482
:100D8000206CC00403D4206C40F0010020640020DB
:100D9000BEE7000018B50021009190F83C20012A20
:100DA00007D0012280F83C2002689368DB0702D05C
:100DB00011E0022018BD936843F0010393602E4AAE
:100DC0002E4B1268B2FBF3F202EB420200E0521E1D
:100DD0000092002AFBD102689368DB0742D0036CC3
:100DE00040F20164A34343F48073036453685B05DA
:100DF00005D5036C23F4005343F480530364036C60
:100E0000DB0404D5436C23F00603436400E0416433
:100E100080F83C101A496FF022031360496800689B
:100E2000CA06184906D0884224D1816811F0405F73
:100E300013D01FE08842F8D0134A904203D1D1F872
:100E40000423D206F1D0114A904213D1D1F80413F1
:100E500001F01F011029E8D30CE0816841F08041C6
:100E6000816007E0016C41F010010164416C41F0C8
:100E700001014164002018BD3000002040420F00F5
:100E800000230140002001400021014000220140D8
:100E90002DE9F0410446876D00F0ACFA064694F85F
:100EA00035000025022806D08020606584F8345083
:100EB0000120BDE8F0812068016821F01601016081
:100EC0002068416921F080014161206C08B9A06C63
:100ED00020B12068016821F00801016020680168E4
:100EE00021F0010101600CE000F084FA801B05286C
:100EF00007D920206065032084F8350084F8345039
:100F0000D7E720680068C007EED194F85C103F2056
:100F10008840B860012084F8350084F834500020FF
:100F2000C7E790F83510022903D0802141650120E0
:100F30007047052180F835100068016821F0010133
:100F400001600020704700002DE9F84304464FF08F
:100F50000009CDF8009063484FF41651A56D006864
:100F6000B0FBF1F72E6894F85C10082000FA01F14C
:100F700031420FD021680A6852070BD50A6822F067
:100F800004020A6094F85C108840A860606D40F02C
:100F90000100606594F85C104FF0010808FA01F058
:100FA000304208D021684969090604D5A860606DFF
:100FB00040F00200606594F85C10042088403042E4
:100FC00008D021680968890704D5A860606D40F0E1
:100FD0000400606594F85C1010208840304218D0FE
:100FE00021680968090714D5A860206801684903C9
:100FF00004D50068000308D5A16C07E00168C905A5
:1010000003D4016821F008010160216C09B1204678
:10101000884794F85C1020208840304231D0216805
:101020000968C9062DD5A86094F835000528206800
:10103000016806D0490347D5006800031DD4616CE0
:101040001CE021F0160101602068416921F0800157
:101050004161206C08B9A06C20B12068016821F0C2
:101060000801016094F85C103F208840A86084F873
:10107000358084F83490216D1FE0E16B09B1204682
:101080008847606D00282BD0606DC00714D0052004
:1010900084F835002068016821F0010101600098A2
:1010A000401C0090B84203D820680068C007F6D101
:1010B00084F8358084F83490E16C002910D001B0B8
:1010C0002046BDE8F04308470168C905D5D401684A
:1010D00021F01001016084F8358084F83490CCE769
:1010E000BDE8F883300000202DE9F041044600F00F
:1010F00081F906465CB1022084F83500002584F8A9
:1011000034502068016821F0010101600DE00120E8
:10111000BDE8F08100F06EF9801B052805D920207C
:101120006065032084F83500F2E720680068C00796
:10113000F0D12268116820480140D4E90103184326
:10114000D4E903363343184363691843A36918434A
:10115000E3691843236A18430843616A042903D1E9
:10116000D4E90B1319430843106020684069666A8C
:1011700020F0070130460E43012704280CD1A06A55
:101180000643E06A40B12046FFF750FC20B1402002
:10119000606584F83570BAE7206846612046FFF73D
:1011A00031FC94F85C203F2191408160656584F8B2
:1011B00035700020ACE700003F8010F070B50446A9
:1011C00000F018F90546601C02D004480078044479
:1011D00000F010F9401BA042FAD370BD240000209B
:1011E0002DE9F84FDFF8BCA10022012503264FF0BE
:1011F0000F090AF1040BAAF1040E00BF0B6805FAEF
:1012000002F42340A34270D10F7907F00307012FA6
:1012100001D0022F16D187684FEA420806FA08FC6F
:1012200027EA0C07D1F80CC00CFA08FC4CEA070CB2
:10123000C0F808C04768A7430C79C4F30014944071
:101240003C4344600C79E443A4070AD0C4684FEAE5
:10125000420C06FA0CF7BC438F6807FA0CF72743D9
:10126000C7600C7904F00304022C12D1D40800EBFF
:10127000840CDCF820405707FF0E09FA07F824EA2F
:101280000804D1F8108008FA07F848EA0408CCF8F6
:10129000208004684FEA420C06FA0CF7BC430F7931
:1012A00007F0030707FA0CF7274307604C6814F4AC
:1012B000403F70D03C4C276847F480472760246843
:1012C00022F0030704F480440094384C07EB040C2C
:1012D000DCF8084897074FEA177809FA08F7BC4383
:1012E000334FB84202D1002724E054E0314FB842D6
:1012F00001D101271EE0304FB84201D1022719E089
:101300002E4FB84201D1032714E02D4FB84201D12E
:1013100004270FE02B4FB84201D105270AE02A4FDE
:10132000B84201D1062705E0284FB84201D107276E
:1013300000E0082707FA08F72743CCF80878DAF81E
:1013400000405746D1F804C09C435FEACC2C00D53E
:101350001C433C60DBF800405F46D1F804C09C436E
:101360005FEA8C2C00D51C433C60DEF800407746D9
:10137000D1F804C09C435FEA8C3C00D51C433C6020
:10138000084F083F3C68D1F804C09C435FEACC3C5E
:1013900000D51C433C60521C102AFFF42FAFBDE85F
:1013A000F88F0000083C0140443802400030014002
:1013B000000002400004024000080240000C02400D
:1013C000001002400014024000180240001C0240BD
:1013D0000069084000D001207047426921EA0203F9
:1013E0000A4043EA0241816170470AB18161704756
:1013F0000904FBE7014880687047000024000020D2
:1014000070B5040025D094F83D00002520B984F87B
:101410003C50204600F0B8F8242084F83D002068B5
:10142000016821F0010101602068016841F4004178
:1014300001602068016821F40041016000F060FA59
:101440004D4A6168914201D84C4900E04C498842BC
:1014500001D2012070BD4B492368B0FBF1F15E68F9
:1014600026F03F060E435E606368934206D94FF450
:10147000967359434FF47A73B1FBF3F12368491C17
:101480001E6A26F03F06314319626168914210D806
:101490004900401EB0FBF1F2521CC2F30B02042AB9
:1014A00001D2042022E0B0FBF1F0401CC0F30B009D
:1014B0001CE0A268F2B301EBC10303EB0116431E6B
:1014C000B3FBF6F35B1C43F480431B0549D092B396
:1014D00001EBC10202EB0111401EB0FBF1F0401C18
:1014E000C0F30B0040F4804040F400402168CA691A
:1014F0004CF6FF739A431043C861D4E907100143C7
:101500002068026822F0C00211430160D4E903019F
:1015100001432068826848F2FF339A431143816097
:10152000D4E9050108432168CA6822F0FF0210438C
:10153000C86001E00EE016E02068016841F001019A
:1015400001602564202084F83D00256384F83E5026
:10155000002070BD01EB4106431EB3FBF6F35B1C9C
:10156000B3E70120C2E701EB4101401EB0FBF1F0FF
:10157000401CC0F30B00B7E7A086010080841E006A
:1015800000093D0040420F0010B586B0044614210A
:101590006846FEF7C1FE18492068884229D1174CD9
:1015A0000021206840F400102060206800F4001042
:1015B000059012481038026842F00202026000688A
:1015C00000F0020005904FF4407000901220CDE929
:1015D0000101032003900420049069460848FFF7A6
:1015E000FFFD206840F400102060206800F4001027
:1015F000059006B010BD0000005400404038024085
:1016000000040240024881680278114481607047FA
:10161000240000200B4810B5016841F400710160FE
:10162000016841F480610160016841F480710160EA
:10163000032000F099F80F2000F006F800F04AF8B7
:10164000002010BD003C024030B505461C4887B064
:101650000024016841F400310160006806A900F42B
:101660000030009001A800F02BF900F059F915495D
:101670004000B0FBF1F11548134A491E026040F2E8
:10168000E732C0E90324C0E90114846100F0B4FB2F
:10169000040012D10D4800F031FC04000DD11920D6
:1016A00000F034F8102D07D200222946192000F04E
:1016B0003BF80748056000E0012407B0204630BD34
:1016C0004438024040420F00004401403C050020E5
:1016D000280000200C4882B0016841F4804101607C
:1016E000006800F4804000900748001F016841F046
:1016F000805101600068002200F0805000900F21AE
:10170000901E02B000F010B844380240002809DBF7
:1017100000F01F02012191404009800000F1E0200B
:10172000C0F8001170470000F0B40E4B1B680C4667
:10173000C3F30223C3F10705042D00D90425191DA5
:10174000072901D2002300E0DB1E012606FA05F17D
:10175000491E214099409E40761E16403143F0BC00
:1017600003F0DEBA0CED00E0064900F0070208685D
:101770004FF6FF03184040EA0220034A1043086076
:10178000704700000CED00E00000FA052DE9F0477D
:101790000E46050065D0DFF81481D8F80000F7B2D6
:1017A00000F00700B04207D288F80070D8F80000B7
:1017B00000F00700B04254D128683D4C810712D593
:1017C000400703D5206840F4E050206028780007E7
:1017D00003D5206840F4604020602068A96820F0AC
:1017E000F000084320602878C0072DD03049686891
:1017F0000839012812D0022813D0032811D0096813
:10180000890700292DDA216821F0030101432160B5
:10181000FFF7F0FD814641F2883A0EE0096889033E
:10182000EFE709688901ECE7FFF7E4FDA0EB0901A8
:10183000514502D90320BDE8F0872068696800F0AF
:101840000C00B0EB810FEFD1D8F80010404601F04A
:101850000701B14207D90770006800F00700B042E5
:1018600001D00120E7E72878400705D52068E9681E
:1018700020F4E050084320602878000706D520684F
:10188000296920F4604040EAC100206000F058F867
:101890002168084AC1F30311515CC8400649086039
:1018A00006480068FFF7D0FE0020C4E7003C024075
:1018B00008380240446E0008300000202800002054
:1018C0000F2202600C4A136803F00303436013689D
:1018D00003F0F0038360136803F4E053C3601268FD
:1018E0004FF4E05303EAD20202610448006800F0BA
:1018F000070008607047000008380240003C0240C2
:101900000448054900680968044AC1F38221515C12
:10191000C84070473000002008380240546E00086C
:101920000448054900680968044AC1F34231515C22
:10193000C84070473000002008380240546E00084C
:10194000154810B5006810F00C02144813D0144963
:10195000042A0FD0082A0ED10F4C241F22682368B6
:1019600002F03F025B0207D52068C0F38810A0FB9D
:10197000010106E0084610BD2168C1F38811A1FBF2
:1019800000010023FEF77EFC2168C1F30141491CE0
:101990004900B0FBF1F010BD083802400024F4000B
:1019A00040787D012DE9F84F04006ED02078DFF8F3
:1019B0004C93C007A9F104054AD009F1040001685D
:1019C000C1F38101012908D00068C0F38100022819
:1019D0000AD1D9F80000400206D52868800337D51F
:1019E00060680028E1D033E06068B0F5803F10D037
:1019F000B0F5A02F286810D020F480302860286827
:101A000020F4802028606068A8B1FFF7F3FC064648
:101A10000DE0286840F48030F4E740F4802028602E
:101A2000F7E700BFFFF7E6FC801B642873D828683F
:101A30008003F7D50CE0FFF7DDFC064605E000BFAC
:101A4000FFF7D8FC801B6428F0D828688003F7D4FF
:101A50002078DFF8AC8280074FF0000A3ED5A74817
:101A6000001D016811F00C0F08D00068C0F3810060
:101A700002280BD1D9F80000400207D4286880075B
:101A800016D5E068012800D112E033E1E068B8B172
:101A90000120C8F80000FFF7ADFC064605E000BFD6
:101AA000FFF7A8FC801B0228C0D828688007F7D55C
:101AB0002868216920F0F80040EAC10028600DE0A4
:101AC000C8F800A0FFF796FC064604E0FFF792FC7A
:101AD000801B02281FD828688007F7D420780007C9
:101AE00022D5864F87486169703771B10121016045
:101AF000FFF780FC064604E0FFF77CFC801B022811
:101B000009D838688007F7D50EE0C0F800A0FFF7C5
:101B100071FC064605E082E0FFF76CFC801B0228A2
:101B20007DD838688007F7D42078400768D5DFF87B
:101B3000CCB100270BF13C0BDBF80000C0000BD44C
:101B4000DBF8001041F08051CBF80010DBF800000A
:101B5000012700F0805000906B4E3068C00510D413
:101B6000306840F480703060FFF744FC009005E07E
:101B7000FFF740FC0099401A022850D83068C00591
:101B8000F6D55E4EA0686C3601280FD00528306867
:101B900010D020F001003060306820F00400306088
:101BA000A068B8B1FFF726FC00900FE0306840F065
:101BB0000100F4E740F004003060F7E7FFF71AFC9B
:101BC0000099411A41F28830814266D83068800716
:101BD000F4D50EE0FFF70EFC009007E0FFF70AFCDB
:101BE0000099411A41F28830814256D83068800706
:101BF000F4D42FB1DBF8001021F08051CBF80010A5
:101C0000A069C8B33D49091D0968C1F381010229D2
:101C10004AD00228504607D0C8F8600000E03CE0F7
:101C2000FFF7E8FB04463BE04746C8F86000FFF7D3
:101C3000E1FB064605E000BFFFF7DCFB801B022846
:101C40002BD828688001F7D4D4E907010843A16A9A
:101C50002E4A490802EB0141626A41EA82110843B7
:101C600094F82C1040EA0161C9F800100120386690
:101C7000FFF7C0FB044606E03EE000BFFFF7BAFBFB
:101C8000001B022809D828688001F7D534E000BF7E
:101C9000FFF7B0FB001B022802D90320BDE8F88F34
:101CA00028688001F4D427E00128F7D0D9F8000093
:101CB000E26900F4800191421CD1226A00F03F01E8
:101CC000914217D147F6C071626A0140B1EB821FA1
:101CD00010D1A26A4FF0FF3300F4403103EB5202FF
:101CE000B1EB024F06D194F82C1000F07060B0EB0D
:101CF000016F01D00120D1E70020CFE70438024076
:101D000000004742800E4742007000400000FFFF85
:101D10007047704710B590F83C20012A22D001226C
:101D200080F83C20CA688C6822F4407222434C68D8
:101D300022F4806222430C6822F4006222430C6980
:101D400022F4805222434C6922F400522243C96992
:101D5000002322F480420A4301684A6480F83C3040
:101D6000002010BD022010BD70B590F83C20012A63
:101D700032D0012480F83C40022280F83D200368E4
:101D80005A689D6822F070060A6832435A60134B05
:101D900002689A4214D0B2F1804F11D0104B9A428F
:101DA0000ED0104B9A420BD00F4B9A4208D00F4BDB
:101DB0009A4205D00E4B9A4202D00E4B9A4204D161
:101DC000496825F080031943916080F83D40002167
:101DD00080F83C10084670BD022070BD0000014034
:101DE0000004004000080040000C004000040140D6
:101DF000004001400018004010B5040003D094F8E2
:101E00003D0010B107E0012010BD002084F83C0027
:101E1000204600F01FF8022084F83D00211D2068B4
:101E200002F072FB012084F8460084F83E0084F83A
:101E30003F0084F8400084F8410084F8420084F8B0
:101E4000430084F8440084F8450084F83D000020F5
:101E500010BD000008B52449026824488A420ED10A
:101E6000016841F0010101600068002200F00100FA
:101E700000900F211920FFF757FC192024E01B497F
:101E80001B4B091F9A420ED1086840F010000860F1
:101E90000868002200F01000009005213620FFF7AE
:101EA00043FC362010E0134B9A4211D1086840F0F1
:101EB000200008600868002200F020000090052142
:101EC0003720FFF731FC3720BDE80840FFF71EBC84
:101ED00009498A4207D1016841F0020101600068A6
:101EE00000F00200009008BD0000014044380240AC
:101EF00000100040001400400004014090F83D1024
:101F0000012901D001207047022180F83D100168AD
:101F1000CA6842F00102CA6000681149884214D0C0
:101F2000B0F1804F11D00F4988420ED00E4988423F
:101F30000BD00E49884208D00D49884205D00D4982
:101F4000884202D00C49884204D1816801F007011F
:101F5000062903D0016841F00101016000207047AB
:101F6000000001400004004000080040000C004058
:101F70000004014000400140001800400168CA68A8
:101F800022F00102CA6001680A6A41F211131A4282
:101F900007D10A6A9B101A4203D10A6822F0010293
:101FA0000A60012180F83D100020704770B504469A
:101FB00090F83C000025012817D0012684F83C60E9
:101FC000022084F83D002068826822F0770222F423
:101FD0007F4282600868502838D00DDC20284FD01E
:101FE00005DC90B3102811D14AE0022070BD3028E2
:101FF00046D040280AD13BE060282FD070280DD071
:10200000B0F5805F03D0B0F5005F12D0012584F8F1
:102010003D60002084F83C00284670BDCB68D1E9C3
:102020000121206802F0E9FA2068816841F0770117
:1020300009E0CB68D1E90121206802F0DEFA2068CE
:10204000816841F480418160E1E719E0CA6849682C
:10205000206802F0A7FB5021206806E0CA684968A2
:10206000206802F0B0FB6021206802F0D0FACEE7D1
:10207000CA684968206802F095FB40212068F4E7AF
:10208000226801461046F0E72DE9F0410D460400B4
:1020900003D094F83D0018B108E00120BDE8F081BC
:1020A000002084F83C00204600F040F8022084F82C
:1020B0003D002068816844F2070291438160211D40
:1020C000206802F021FA226890689169166A2B68EC
:1020D000AF69034340F20330814341EA0721A86816
:1020E000EF6908434FF6FC418843E96840EA07205E
:1020F000014328692F6A000140EA073008436968F4
:102100006D6926F0AA0646EA051529439360226800
:10211000906154F8460B0162012004F81F09E07534
:102120002076E0762077A0750020B7E730B587B03D
:10213000044614216846FEF7EFF8204824681E4D37
:1021400000221E4910380223AC4216D10C6844F01C
:1021500004040C60096801F004010591016841F074
:10216000020101600068694600F002000590C0208D
:102170000090CDE90132124818E0124DAC4219D15D
:102180000C6844F008040C60096801F0080105912E
:10219000016841F0010101600068694600F001003A
:1021A000059003200090CDE901320748CDE90323D3
:1021B000FFF716F807B030BD000800404038024075
:1021C00000040240000C00400000024070B590F88E
:1021D0003E60044690F83F5090F8423090F843201B
:1021E000022021B104290ED0012E1BD114E0012EB2
:1021F00018D1012B16D184F83E0084F84200012248
:102200000021206820E0012D0CD1012A0AD184F898
:102210003F0084F8430014E0012D03D1012B01D1CC
:10222000012A01D0012070BD84F83E0084F83F00EF
:1022300084F8420084F8430001220021206802F063
:10224000CFF901220421206802F0CAF92068016850
:1022500041F001010160002070BD70472DE9F0419F
:1022600004460068C66805694FF00007A90713D542
:10227000B10711D5F91E016101202077206880691E
:102280008007204602D0FFF7E8FF04E000F0C2F824
:10229000204600F0B5F92777680716D5700714D5E2
:1022A00021686FF0040008610220207720688069AF
:1022B00010F4407F204602D0FFF7CFFF04E000F08B
:1022C000A9F8204600F09CF92777280715D5300794
:1022D00013D521686FF0080008610420207720687A
:1022E000C0698007204602D0FFF7B7FF04E000F086
:1022F00091F8204600F084F92777E80616D5F00615
:1023000014D521686FF0100008610820207720683C
:10231000C06910F4407F204602D0FFF79EFF04E022
:1023200000F078F8204600F06BF92777E80708D02E
:10233000F00706D021686FF001000861204600F028
:1023400003FA280608D5300606D521686FF080000C
:1023500008612046FFF7DCFC680608D5700606D544
:1023600021686FF040000861204600F075FAA80669
:102370000AD5B00608D521686FF020000861204614
:10238000BDE8F041FFF7C5BCBDE8F08110B586B0EF
:10239000044614216846FDF7BFFF2368184C00214E
:1023A00018480222A34212D1036843F001030360DC
:1023B000006800F0010005904FF410600090CDE936
:1023C00001210120CDE9031069460F4814E00F4CAC
:1023D000A34213D1036843F004030360006800F0D4
:1023E000040005904FF470700090CDE901210320A6
:1023F000CDE9031069460648FEF7F2FE06B010BDAF
:10240000000001403038024000000240000401405A
:1024100000080240704770B5044690F83C00002662
:102420000D4601280FD0012084F83C006AB1042A2F
:102430001DD0082A2FD00C2A3FD00126002084F876
:102440003C00304670BD022070BD206802F0E8F804
:102450002068816941F0080181612068816921F06B
:1024600004018161206881692A69114311E02068B3
:1024700002F006F92068816941F4006181612068F9
:10248000816921F480618161206881692A6941EA5A
:1024900002218161D2E7206802F028F92068C16931
:1024A00041F00801C1612068C16921F00401C161E6
:1024B0002068C1692A69114311E0206802F04AF9D5
:1024C0002068C16941F40061C1612068C16921F4DB
:1024D0008061C1612068C1692A6941EA0221C16144
:1024E000ACE710B5040003D094F83D0010B107E04C
:1024F000012010BD002084F83C00204600F01EF8AA
:10250000022084F83D00211D206801F0FDFF01201C
:1025100084F8460084F83E0084F83F0084F84000C8
:1025200084F8410084F8420084F8430084F84400B1
:1025300084F8450084F83D00002010BD10B5006807
:102540002C4986B0884252D12B48016841F00201E3
:102550000160006800F00200059027481438016807
:1025600041F004010160016801F004010591016876
:1025700041F004010160016801F004010591016866
:1025800041F004010160016801F004010591016856
:1025900041F0040101600068012100F00400059091
:1025A000402000900220CDE9010103900320134C4C
:1025B000049069462046FEF713FE8020009069468D
:1025C0002046FEF70DFEA015009069462046FEF756
:1025D00007FE6015009069462046FEF701FE0022C6
:1025E00011462C20FFF7A0F82C20FFF78FF806B03B
:1025F00010BD0000000401404438024000080240C1
:102600007047000010B50446022249B104290ED0DB
:10261000082913D094F84100012816D0012010BDDC
:1026200094F83E000128F9D184F83E200FE094F898
:102630003F000128F2D184F83F2008E094F84000E0
:102640000128EBD184F8402001E084F841200122E8
:10265000206801F0C5FF16492068164A884201D05B
:10266000904203D1436C43F40043436420688842A2
:1026700013D0B0F1804F10D00F4988420DD00F49D0
:1026800088420AD00E49884207D0904205D00D49B1
:10269000884202D00C49884204D1816801F00701C8
:1026A000062903D0016841F001010160002010BD3E
:1026B0000000014000040140000400400008004008
:1026C000000C0040004001400018004030B50446B6
:1026D0000D460068002201F083FF194B41F21111F1
:1026E00020688A10984202D0164B984209D1036A9A
:1026F0000B4206D1036A134203D1436C23F4004317
:1027000043642068036A0B4206D1016A114203D177
:10271000016821F00101016001203DB1042D08D0C4
:10272000082D09D084F84100002030BD84F83E0017
:10273000FAE784F83F00F7E784F84000F4E7000088
:10274000000001400004014070B5054600683449AE
:10275000344C884230D12069A31D401C9A1E911E22
:102760002061881E01F0D0FC208921882E4E08446B
:1027700020816089618808446081A089A18808441B
:10278000A081E089E1880844E0813068012809D10E
:1027900003F0CCF92548B2EE040A80ED000A244883
:1027A00080ED000A3068022801D101F053FD306845
:1027B000032801D101F0E2FA1E492868884226D197
:1027C0006069401C606101F0A5FDFDF791FE9FED81
:1027D0001A1B53EC112BFDF7AAFD9FED191B53ECAF
:1027E000112BFDF7A4FD9FED181B53EC112BFDF7EA
:1027F0009EFDFDF7A3FE1649086000F0D3FA60695C
:10280000052804D1A069401CA06100206061114925
:102810002868884203D1BDE87040FEF7F3BE70BD62
:1028200000100040400000203C00002084050020F3
:10283000A8050020001400406666666666660A40C9
:102840000000000000002640000000000000303FB3
:102850000C000020004401407047704770470000A2
:10286000F8B5016804460868CA684B6910F00F0F94
:102870004FF0000559D003F0010602F4907737437A
:1028800065D0C10705D0D10503D5616C41F00101C8
:102890006164410705D5D90703D0616C41F002019D
:1028A0006164810705D5D90703D0616C41F004014B
:1028B0006164010707D502F02001314303D0616C48
:1028C00041F008016164616C00293AD0800604D5AA
:1028D000900602D5204601F0B7FF20684069616C80
:1028E000C0F38010090700D460B3204601F085FFD3
:1028F00020684069400621D52068143050E8001F48
:1029000021F0400140E80012002AF5D1E06BA8B1A7
:102910006E490165E06BFEF704FB002811D0E06B07
:10292000016D01B0BDE8F040084783060FD593065E
:102930000DD52046BDE8F84001F086BF2046FFF7E0
:102940008DFFF8BD2046FFF789FF6564F8BD266B53
:102950002023012E7DD1C6067BD5D60679D5086801
:102960004868009048694FF00206400641D5E16B87
:10297000086840680004000CE8D0A28D8242E5D9C6
:10298000E085C869B0F5807F2DD020680C3050E814
:10299000001F21F4807140E80012002AF5D1206860
:1029A000143050E8001F21F0010140E80012002A15
:1029B000F5D12068143050E8001F21F0400140E8B4
:1029C0000012002AF5D184F84230256320680C30CB
:1029D00050E8001F21F0100140E80012002AF5D154
:1029E000E06BFEF755FA6663A08DE18D401A81B267
:1029F0002AE0A08DE18D401A81B2E08D0028A5D09B
:102A00000029A3D022680C3252E8000F20F4907005
:102A100042E80007002FF5D12068143050E8002F5D
:102A200022F0010240E80027002FF5D184F842305F
:102A3000256320680C3050E8002F22F0100240E897
:102A40000023002BF5D166632046FFF706FFF8BD93
:102A5000FFE705062BD5150629D594F84100212856
:102A6000F5D1A068B0F5805F01D12069B0B1206ACE
:102A7000411C2162216800784860E08C401E0004FF
:102A8000000CE084E3D12068C16821F08001C160BE
:102A90002068C16841F04001C160D8E7206A008821
:102AA000C0F308004860206A801C2062E5E7400609
:102AB000CDD55006CBD5CA68204622F04002CA6068
:102AC00084F8413000F06DF9C1E70000EB470008E1
:102AD00070B5040004D094F84100002510B106E060
:102AE000012070BD84F84050204600F023F82420D7
:102AF00084F841002068C16821F40051C16020467B
:102B000001F004FF2068016921F49041016120680F
:102B1000416921F02A0141612068C16841F40051F6
:102B2000C1606564202084F8410084F84200656338
:102B3000002070BD2DE9F04186B00646142168469C
:102B4000FDF7EAFB5549D6F800C055480222032399
:102B50000727544D00248C4553D151491431D1F8E5
:102B600000C04CF0100CC1F800C0096801F0100161
:102B70000591016841F0010101600068694600F0BB
:102B80000100059058028DE81500CDE9033728466D
:102B9000FEF726FB454D44484FF000672860C5E925
:102BA00001744FF48068C5E903486C61AC61EC6165
:102BB0002C6228466C62FEF797FA08B1FDF761FFB8
:102BC000F563AE63394D384860357830E5E8020783
:102BD0004020A5E81101354845F814496030AC6142
:102BE000EC612C626C62FEF77FFA08B1FDF749FFD9
:102BF000B563002205212520AE63FEF795FD252053
:102C000023E027492A4E1031B44523D10E6846F4FB
:102C100000360E60096801F400310591016841F049
:102C2000010101600068694600F0010005900C2078
:102C30008DE81500CDE903372846FEF7D1FA0022CA
:102C400005212620FEF770FD2620FEF75FFD06B069
:102C5000BDE8F081174DAC45F9D10D6845F48025EC
:102C60000D60096801F480210591016841F00201BD
:102C700001600068694600F0020005904FF4406072
:102C80008DE81500CDE903370B48FEF7A9FA0022BD
:102C900005212720FEF748FD2720D6E70010014038
:102CA0003038024000000240406402407C040020B2
:102CB00000440040004800400004024090F84230C8
:102CC000202B01D00220704721B11AB100230363E9
:102CD00001F0A2BE0120704710B5044600681D49EE
:102CE000884208D101221C491C48FFF7E7FF1A4817
:102CF000007801F067FF1A492068884211D140210D
:102D00001848FEF76AFB144914480622C91D4830CA
:102D100000F02EF8104911480622C91D4830FFF76F
:102D2000CDFF11492068884213D110210F48FEF7CA
:102D300054FB094909480622491C903000F018F854
:102D4000054906480622491CBDE810409030FFF7AF
:102D5000B5BF10BD0010014010000020A4030020EA
:102D600000440040001002400048004000000240C3
:102D700090F84130202B01D00220704779B172B118
:102D800001628284C28400214164212180F84110C3
:102D90000068C16841F08001C160002070470120D7
:102DA00070477047154910B50878002824D0144B97
:102DB0009FED140ADFED140A144A002003EB4004CF
:102DC000B4F97A4001EE104A02EB8004401CB8EEE0
:102DD000C11A032821EE001A21EE201A84ED001AF0
:102DE000ECDB0878400707D592ED020A81ED010A75
:102DF000087820F00400087010BD000010010020C9
:102E00004C5000200000003800003443404F0020A8
:102E100010B5034801F0CCFEBDE81040FDF738BD09
:102E20008D410008FEE7000070B5002002F0D4F8E4
:102E3000284C012528496060012820D0274B284ACA
:102E4000284E022824D0032842D1A06030780028E0
:102E50003ED108680021012828D002282CD0032860
:102E600030D0042834D119601088117980B204223E
:102E700001F090FABDE870401BA001F02BBF08687C
:102E8000401C0860042800DD0D6009681AA009E0F4
:102E90000220A060307800281AD12D21196011601D
:102EA00015711BA0BDE8704001F014BF19601088B7
:102EB000117980B20122DBE719601088117980B2A4
:102EC0000222D5E719601088117980B20322CFE77A
:102ED00070BD0000340000204401002048010020A3
:102EE0007C51002050010020E5BC80E590AFE697C2
:102EF0008BE8BDAC5C720A00E6ADA5E8BF9BE79429
:102F0000B5E69CBA4944EFBC9A25640D0A0000005E
:102F1000E6978BE8BDACE79A84E8A792E5BAA6E409
:102F2000B8BAEFBC9A25640D0A0000002DE9F04103
:102F3000104C074600216088401E83B22088401E46
:102F400082B2084600F0C6F90122D1030A48FEF712
:102F50004CFA002609E0002503E0384600F00AFCA0
:102F60006D1C2088A842F8D8761C6088B042F2D840
:102F7000BDE8F0816C510020001802402DE9FE4FA1
:102F8000161ACDE900104FF000085D1A47464FF0C1
:102F9000FF30002E02DD4FF0010102E003D14FF0BF
:102FA00000018B4602E08346C6F10006002D02DDDB
:102FB0004FF0010002E003D14FF00000824602E032
:102FC0008246C5F10005AE4201DD344600E02C46E4
:102FD000601C4FF00009029018E0009881B201983F
:102FE00080B200F019F8B0442F44A04504DD0198E8
:102FF000A8EB040858440190A74203DD00983F1B4A
:103000005044009009F101001FFA80F902998945A6
:10301000E3DDBDE8FE8F000010B500F057F903486E
:103020000088BDE8104000F0A5BB00004001002072
:1030300038B50F48102400940268032300217D2036
:1030400000F03CFA0B480094022390ED000A1A4667
:1030500019217D2000F0F0F907480094022390ED3B
:10306000000A03222D217D2000F0E6F938BD000082
:10307000580000200C00002014010020F0B587B09B
:1030800014216846FDF748F915480024016841F00D
:10309000400101600068134E00F040004FF470459D
:1030A0000590224629463046FEF79FF90E4F002232
:1030B0004FF230113846FEF798F900950125CDE919
:1030C0000154694630460394FEF78AF8CDE901546D
:1030D000694638460394FEF783F807B0F0BD000058
:1030E00030380240001402400018024010B500F0D1
:1030F000D5F8F72000F0DEFAA92000F0CDFA512033
:1031000000F0CAFA2C2000F0C7FA822000F0C4FABE
:10311000C02000F0CFFA112000F0BEFA092000F024
:10312000BBFAC12000F0C6FA412000F0B5FAC52074
:1031300000F0C0FA002000F0AFFA0A2000F0ACFA6C
:10314000802000F0A9FAB12000F0B4FAB02000F01D
:10315000A3FA112000F0A0FAB42000F0ABFA02208C
:1031600000F09AFAB62000F0A5FA022000F094FAD6
:10317000422000F091FAB72000F09CFAC62000F03F
:103180008BFABE2000F096FA002000F085FA0420A9
:1031900000F082FAE92000F08DFA002000F07CFABD
:1031A000362000F087FA682000F076FA3A2000F026
:1031B00081FA662000F070FAE02000F07BFA00202F
:1031C00000F06AFA072000F067FA102000F064FAB5
:1031D000092000F061FA172000F05EFA0B2000F0E1
:1031E0005BFA412000F058FA892000F055FA4B2094
:1031F00000F052FA0A2000F04FFA0C2000F04CFACE
:103200000E2000F049FA182000F046FA1B2000F0CA
:1032100043FA0F2000F040FAE12000F04BFA0020C2
:1032200000F03AFA172000F037FA1A2000F034FACA
:10323000042000F031FA0E2000F02EFA062000F0F3
:103240002BFA2F2000F028FA452000F025FA432021
:1032500000F022FA022000F01FFA0A2000F01CFA07
:10326000092000F019FA322000F016FA362000F09A
:1032700013FA0F2000F010FA112000F01BFA78204A
:10328000FDF79CFF292000F015FA032000F032FA28
:10329000BDE810404FF6FF70FFF748BE70B50A4D0D
:1032A0004FF48044002221462846FEF79EF8642011
:1032B000FDF784FF012221462846FEF796F8BDE877
:1032C00070403220FDF77ABF001802400B460246DC
:1032D000AFF300802DE9F041DFF8508007461C462F
:1032E00015460E4698F80A0000F0E4F9380A00F096
:1032F000D3F9F8B200F0D0F9280A00F0CDF9E8B21D
:1033000000F0CAF998F80C0000F0D4F9300A00F087
:10331000C3F9F0B200F0C0F9200A00F0BDF9E0B244
:1033200000F0BAF9BDE8F04100F0D4B96C510020CA
:103330002DE9FF4F81B08A460EA9DFF8EC9091E8A5
:103340003100203800F0FF080AEB0400401E83B271
:103350000198B9F800B000EB5400401E82B251460B
:103360000198FFF7B7FF002D4FF0000549D12F4816
:1033700008EB480100EB810A00F2744000EB0818EA
:1033800017E00C2C03D018F8057000260CE01AF892
:103390000570FAE7F80701D0039800E0049800F000
:1033A000E9F97F08761CF6B2B6EB540FF2D36D1C28
:1033B000EDB2A542E5D326E00C2C08D01C4901EB68
:1033C00008100026475D0AEB0500009014E017483E
:1033D00008EB480100EB8100F3E70398A9F800002F
:1033E000F80706D0009881B20198304480B2FFF708
:1033F00013FE7F08761CF6B2B6EB540FEDD36D1CAE
:10340000EDB2A542D8D30B48A9F800B04188008896
:1034100005B0491EBDE8F04F401E8BB282B20021BC
:103420000846FFF757BF0000400100205C7000080D
:10343000D07400086C5100202DE9F043FDEEC00A65
:1034400014462DED028B10EE902A81B0984600EEC6
:10345000902A0A9D8946F8EEE00A06462346009522
:1034600030EE608A00F02AF801206F08009007FB18
:10347000046080B210A31022494600F061F8414672
:103480000A2001F097FE00EE100A641C07FB04609E
:10349000B8EE400A80B24346494620EE080A00953D
:1034A000BDEEC00A10EE102A00F008F801B0BDEC25
:1034B000028BBDE8F08300002E0000002DE9FF4FD5
:1034C00083B00026DDF840801D463446B2464FEA00
:1034D0005807DFF86490DFF864B028E0281B401E2E
:1034E000C1B20A2001F066FE0599B1FBF0F00A2195
:1034F000B0FBF1F201FB120026B9691E8C4201DA21
:1035000028B101263030C0B28DE8010502E020224A
:103510008DE804050398B9F8003007FB040080B279
:10352000BBF800200499FFF703FF641CE4B2AC422F
:10353000D4D307B0BDE8F08F420100204001002045
:103540002DE9FE4F1C4691468A460546114E124F04
:10355000DFF84880DDF830B014E03188491EA94218
:1035600015DB7188491E514511DB8DE8010A3B8846
:10357000B8F8002051462846FFF7DAFE05EB59005F
:1035800085B2641C2078A0F120015E29E5D9BDE850
:10359000FE8F00006C5100204201002040010020FD
:1035A00038B50124002130A3102208460094FFF70B
:1035B000C7FF30A31022192100200094FFF7C0FF9D
:1035C00030A310222D2100200094FFF7B9FFF02234
:1035D0004FF4A07300211046FFF7D0FCA0234FF456
:1035E000F074224619460020FFF7C8FC4FF4B4706F
:1035F000A02302460021FFF7C1FC7822A02300216E
:103600001046FFF7BBFC1623224619460020FFF7A1
:10361000B5FC2A23224619460020FFF7AFFC3E23C3
:10362000224619460020FFF7A9FC522322461946DC
:103630000020FFF7A3FC6623224619460020FFF76F
:103640009DFC7A23224619460020FFF797FC8E2323
:10365000224619460020FFF791FCBDE83840F021D2
:103660000C4A1920FDF712BA54696D653A20287387
:1036700029000000566F6C746167653A202856294E
:10368000000000007961773A2028646567726565FB
:1036900029000000C07A000810B504460122D103B9
:1036A0000348FDF7A2FE2046BDE8104000F048BDEB
:1036B0000018024010B5044600224FF400410448AF
:1036C000FDF793FE2046BDE8104000F039BD000034
:1036D000001802400148007AFFF7ECBF6C5100204F
:1036E00010B50C46FFF7E6FFE0B2BDE81040FFF76B
:1036F000D3BF000012492A224FF4F0734A812B22D3
:103700008A812C220A814FF4A07258B101280DD071
:1037100002280FD0032811D10B804A80A82136201F
:10372000FFF7DEBF0A804B800821F8E70B804A8054
:103730006821F4E70A804B80C821F0E77047000059
:103740006C51002010B5012210210848FDF74DFEF4
:10375000074C012240212046FDF747FE204601226A
:10376000BDE810401021FDF740BE000000000240FF
:103770000010024010B50446F82000EA1420FFF7BC
:103780008BFFFC2000EAD400FFF786FFE006BDE8CF
:103790001040000EFFF780BF7FB50024154800944D
:1037A000019402941249039401604FF48031C0E9FE
:1037B00001140461047680F820400F49C0E90A141E
:1037C0000125C561C46080F830404561FDF731FADC
:1037D00008B1FDF756F90E20CDE9000569460294BF
:1037E0000448FDF77DF9002801D0FDF74AF97FBDB7
:1037F00000200140580100200100000F0D4808B5CD
:10380000016841F4800101600068002200F480003A
:10381000009005213A20FDF787FF3A20FDF776FF5B
:10382000002205214620FDF77FFFBDE80840462025
:10383000FDF76CBF3038024010B5044A002104483F
:1038400001F0E0FC0349086010BD0000186E00089C
:103850005D430008000000202DE9F04387B01421EB
:103860006846FCF759FD37480024016841F0100113
:103870000160016801F010010591016841F0040147
:103880000160016801F004010591016841F08001C7
:103890000160016801F080010591016841F00101BA
:1038A0000160016801F001010591016841F04001EA
:1038B0000160016801F040010591016841F00201D9
:1038C00001600068DFF8809000F00200059000229F
:1038D00050214846FDF789FD1C4F00221021384633
:1038E000FDF783FDDFF8688040F2EF1600223146D5
:1038F0004046FDF77AFD502000900125CDE90154A6
:10390000694648460394FDF76BFC10200090CDE912
:103910000154694638460394FDF762FC0096CDE9F0
:103920000154694640460394FDF75AFC4FF4607019
:10393000CDE90004694648460294FDF751FC07B002
:10394000BDE8F08330380240001002400000024021
:10395000001802400D4810B50B4901600C49416048
:1039600000214FF480428160C0E90312416181610E
:10397000C1610162FDF744FD002803D0BDE810409D
:10398000FDF77FB810BD000000540040A0010020EA
:10399000801A060010B596B000240F94109411946C
:1039A000129413941C2168461494FCF7B5FC202152
:1039B00007A8FCF7B1FC2D482B4901605321C0E951
:1039C000011444F61F61C0E903148021C0E90541D8
:1039D000FEF712FA08B1FDF754F84FF480500F903B
:1039E0000FA92248FEF7E2FA08B1FDF74AF81F488E
:1039F000FEF777FD08B1FDF744F8139413A91B48AF
:103A00001494FEF7B1F908B1FDF73BF86020CDE959
:103A10000004029403940494059400226946134818
:103A20000694FEF7F8FC08B1FDF72BF80C22694666
:103A30000E48FEF7F0FC08B1FDF723F80794089450
:103A400009944FF400500A94CDE90B4007A90748A8
:103A50000E94FEF75FF908B1FDF713F80348FEF77F
:103A600095FC16B010BD000000000140F4010020DC
:103A700010B58CB024216846FCF74EFC0024164893
:103A8000099414490A94C0E900144FF6FF71C0E983
:103A90000241046184610320CDE900040120CDE9E5
:103AA00002040494CDE90540079469460A48089445
:103AB000FEF7EAFA08B1FCF7E4FF099409A9064801
:103AC0000A94FEF751F9002801D0FCF7DAFF0CB098
:103AD00010BD0000000800403C02002010B58CB072
:103AE00024216846FCF718FC002416480994144960
:103AF0000A94C0E900144FF6FF71C0E90241046165
:103B000084610320CDE900040120CDE9020404947E
:103B1000CDE90540079469460A480894FEF7B4FACF
:103B200008B1FCF7AEFF099409A906480A94FEF70C
:103B30001BF9002801D0FCF7A4FF0CB010BD000059
:103B4000000C0040840200201CB500240F480094A3
:103B50000D490194016042F2CF01C0E901146321D3
:103B6000C16080218161FEF747F908B1FCF789FF48
:103B70000094694605480194FEF7F6F8002801D044
:103B8000FCF77FFF1CBD000000100040CC020020AD
:103B90001CB500240F4800940D490194016042F2C5
:103BA000CF01C0E9011440F2CF71C1608021816171
:103BB000FEF722F908B1FCF764FF00946946054856
:103BC0000194FEF7D1F8002801D0FCF75AFF1CBD84
:103BD000001400401403002010B596B000240F9488
:103BE00010941194129413941C2168461494FCF7B9
:103BF00093FB202107A8FCF78FFB34483249016072
:103C00000421C0E9011442F2CF01C0E90314446168
:103C10008461FEF7F1F808B1FCF733FF4FF48050F0
:103C20000F900FA92948FEF7C1F908B1FCF729FF49
:103C30002648FEF756FC08B1FCF723FF139413A99E
:103C400022481494FEF790F808B1FCF71AFF6020A0
:103C5000CDE900040294039404940594002269467B
:103C60001A480694FEF7D7FB08B1FCF70AFF0422B6
:103C700069461648FEF7CFFB08B1FCF702FF0822A1
:103C800069461248FEF7C7FB08B1FCF7FAFE0C22A2
:103C900069460E48FEF7BFFB08B1FCF7F2FE079439
:103CA000089409944FF400500A94CDE90B4007A9F9
:103CB00006480E94FEF72EF808B1FCF7E2FE034822
:103CC000FEF764FB16B010BD000401405C03002049
:103CD0000C4810B50A4901604FF4E1314160002100
:103CE00081600C22C160C0E904128161C161FEF7EC
:103CF000EFFE002803D0BDE81040FCF7C2BE10BDA7
:103D000000100140A40300200C4810B50A490160CE
:103D10004FF4E1314160002181600C22C160C0E9B3
:103D200004128161C161FEF7D3FE002803D0BDE813
:103D30001040FCF7A6BE10BD00440040EC0300207C
:103D40000C4810B50A4901604FF4E131416000218F
:103D500081600C22C160C0E904128161C161FEF77B
:103D6000B7FE002803D0BDE81040FCF78ABE10BDA6
:103D70000048004034040020FEE700002DE9F04731
:103D80006B4E6C4F2DED028B30883988084400B2A1
:103D900000EE100A30806848B8EEC00A00F092F9D0
:103DA000BDEEC00A654C10EE100A00B2A080B4F956
:103DB000081000F087FF00B200EE100ADFF87881EB
:103DC000A080B8EEC00AA8F1480888ED000AB7F94B
:103DD000000000EE100A4046B8EEC00A01F06AF892
:103DE000BDEEC00A10EE100A00B2A08000F024F967
:103DF000B6F90000504D00EE100AD5ED000AB8EEFD
:103E0000C00A30EE600ABDEEC00A10EE100A01F0E2
:103E1000CDF94FF000099FED4A8A0A281CD288ED9F
:103E2000008AB7F9000000EE100A4046B8EEC00A5A
:103E300001F040F8BDEEC00A10EE100A00B2A080FA
:103E400000F0FAF8A6F8009085ED008A85ED018A69
:103E500085ED078A85ED028A3A4DDFF8EC802888E7
:103E6000B8F800104646084400B200EE100A288058
:103E70003148B8EEC00A243000F024F9BDEEC00A83
:103E800010EE100A00B2E080B4F90A1000F01AFF38
:103E900000B200EE100A284FE080B8EEC00A243FBE
:103EA00087ED000AB6F9000000EE100A3846B8EEB9
:103EB000C00A00F0FFFFBDEEC00A10EE100A00B20B
:103EC000E08000F0DBF8B5F9000007F1480600EEED
:103ED000100AD6ED000AB8EEC00A30EE600ABDEE58
:103EE000C00A10EE100A01F061F90F281CD287ED0C
:103EF000008AB8F9000000EE100A3846B8EEC00A91
:103F000000F0D8FFBDEEC00A10EE100A00B2E0804B
:103F100000F0B4F8A5F8009086ED008A86ED018ADD
:103F200086ED078A86ED028ABDEC028BBDE8F0873C
:103F30004C00002044000020CC0500205C00002044
:103F4000000000004E00002046000020FEE70000B8
:103F500032489FED310AF1EE040A80ED000A80ED4F
:103F6000080A80ED010A80ED020A80ED070A9FED44
:103F70002C1AC0ED040A80ED051A80ED060A2430E3
:103F80009FED291A80ED000A80ED080A80ED010AF4
:103F900080ED020A80ED070AC0ED040ADFED210A78
:103FA000DFED231AC0ED050A80ED060A243080ED0E
:103FB000000A80ED080A80ED010A80ED020A80ED1A
:103FC000070A80ED041A9FED191A80ED051AC0ED5D
:103FD000061A243080ED000A80ED080A80ED010AFF
:103FE00080ED020A80ED070A1030C0EC030A14309D
:103FF0009FED101A80ED000A80ED080A80ED010A9D
:1040000080ED020A80ED070A80ED041A80ED050AB2
:10401000C0ED060A70470000000000008405002083
:10402000CDCC4C3F9A99193F9A99993E17B7D13800
:10403000EC51383ECDCC8C3F70B5014601F0B6F85E
:104040000C4D84B2002906DB002220212846FDF712
:10405000CCF9012205E0012220212846FDF7C5F90F
:10406000002240212846FDF7C0F95420444302486D
:10407000046070BD001802403C04014070B5014668
:1040800001F094F80D4D84B2AE15002906DB012233
:1040900080212846FDF7A9F9002205E000228021B1
:1040A0002846FDF7A2F9012231462846FDF79DF981
:1040B000542044430248046070BD000000180240D0
:1040C00040040140D0ED000A70EEC00AC0ED010AC4
:1040D00090ED070A30EE201A80ED071A90ED040AE1
:1040E000D0ED051A20EE200A01EE810A90ED021AA9
:1040F000D0ED061A30EEC11A01EE810A80ED080AF1
:10410000C0ED020A7047000030B54FF08044656A88
:104110006D42058000206062064C25680D8020609D
:1041200005490C6864421480086004490A681A80D2
:10413000086030BD2404004024080040240C0040E6
:104140002DE9F0410824104F05464FF40058660150
:10415000280601D5012200E0002241463846FDF73D
:1041600044F9002231463846FDF73FF90122314635
:104170003846FDF73AF96806050E641E14F0FF0490
:10418000E6D1BDE8F0810000001802400020054A99
:1041900004E0137843F004031370401C8842F8D302
:1041A00070470000100100202DE9F04153EC102B66
:1041B0009FED230B2DED028B51EC100BFCF729F931
:1041C00041EC180BFCF7A1F91F4C07462168C862A7
:1041D0009FED1E0BE06053EC102B51EC180BFCF71D
:1041E000A6F80E4646EC100B054651EC100BFCF7FA
:1041F0008CF9216848632168CF6246EC105BE76068
:1042000051EC100BFCF781F9216888632168CF62BB
:1042100046EC105BE76051EC100BFCF776F9216877
:10422000C8632168CF6246EC105BE76051EC100B6D
:10423000FCF76BF921680864BDEC028BBDE8F081E6
:1042400000000000008063408C510020000000004E
:104250000000E03F2A4810B590ED000A2948FFF71A
:1042600031FFBDEEC00A284C10EE100AE060E16993
:1042700000F028FDE060A169002903DDE2699142B8
:1042800005DD05E004DAE2695242914200DDA261F7
:10429000A1690A1A00EE102A1A4A0844B8EEC00AA8
:1042A000903A82ED000A00EE100A02F12400B8EE06
:1042B000C00A80ED000A1548B0F9000000EE100AAF
:1042C0001046B8EEC00A00F0F5FDBDEEC00A104879
:1042D00084ED040AB0F9000000EE100A0948B8EEB7
:1042E000C00A6C3800F0E6FDBDEEC00A84ED050A98
:1042F0002069FFF7A1FE6069BDE81040FFF7BEBE70
:1043000014010020140600205C000020440000205E
:104310004600002010B50E48FCF73CFD0A210C4871
:10432000FCF7E2FC0B4C207048B19FED0B0A00BF7C
:1043300084ED010ABCEEC00A10EE100A10BD04485C
:10434000FCF774FC00EE100AB8EE400AF0E700003B
:1043500058010020040000200000000010B50120DA
:1043600000F030FFFBE7000010B500210848FEF721
:10437000ADF904210648FEF7A9F908210448FEF723
:10438000A5F9BDE810400C210148FEF79FB90000D7
:104390008C51002070B50D46014617481446012A7D
:1043A0001DD0022C1DD0032C1DD0042C1DD00022AA
:1043B00002600846FCF79CF89FED101B53EC112B94
:1043C000FCF727F8FCF7A1F801460E4881608068E9
:1043D00068B129462046BDE8704001F077BC012253
:1043E000E6E70222E4E70322E2E70422E0E72046D0
:1043F000BDE8704001F0A6BC4C010020CDCCCCCC77
:10440000CCCCAC3F7C51002010B54FF0E0200069CF
:1044100002F04CFB012803D0BDE8104002F07AB84E
:1044200010BD000030B593B030216846FBF774FF33
:1044300014210CA8FBF770FF1D480025016841F00E
:1044400080510160006800F08050119019480168A7
:1044500041F4804101600068022400F48040119022
:104460000120039010200490009406940820CDE9C8
:104470000750A820CDE9090404200B906846FDF7F9
:1044800091FA08B172B6FEE70CA90F2081E831005D
:104490004FF4A0500F904FF48050109005210CA8BD
:1044A000FDF774F9002801D072B6FEE713B030BDF5
:1044B00040380240007000400248016841F4700139
:1044C0000160704788ED00E010B50448FDF7C6FEB6
:1044D000BDE810400248FDF7C1BE0000F401002015
:1044E0003C0500200148FDF7B9BE0000CC020020C9
:1044F0000148FDF7B3BE0000140300200148FDF79A
:10450000ADBE00008C510020F0B50268294C2A4D48
:104510002A4E2B4F2B4B4FF0804CA04209D06045C8
:1045200007D0A84205D0B04203D0B84201D098428B
:1045300004D122F0700E4A6842EA0E02A0421BD05B
:10454000604519D0A84217D0B04215D0B84213D058
:10455000984211D01C4DA8420ED01C4DA8420BD041
:104560001B4DA84208D01B4DA84205D01A4DA842A9
:1045700002D01A4DA84203D122F44075CA682A43DA
:104580004D6922F080022A4302608A68C2620A688A
:104590008262A04201D0984201D1096901630121E0
:1045A00041610169C90703D0016921F0010101617D
:1045B000F0BD000000000140000400400008004081
:1045C000000C004000040140004001400044014054
:1045D0000048014000180040001C0040002000403E
:1045E00010B501F01F030121046A99408C43046255
:1045F000016A9A401143016210BD10B5846842EA15
:10460000032224F47F440A432243826010BD82685F
:1046100022F070020A4342F00701816070470000F7
:10462000F0B5036A026A22F00102026242688469FC
:10463000124E24F073050C682C4323F002058B689E
:104640002B430D4DA84201D0B04205D123F00807FD
:10465000CB683B4323F00403A84201D0B04205D10C
:104660004D6922F4407215438A692A43426084618D
:10467000496841630362F0BD00000140000401404D
:10468000F0B5026A036A23F0100303624368846989
:104690000D6824F4E64444EA05248D6822F02002E3
:1046A00042EA05120F4D104EA84201D0B04206D189
:1046B000CF6822F0800242EA071222F04002A842AC
:1046C00001D0B04207D14D6923F4406343EA85032A
:1046D0008D6943EA850343608461496881630262AE
:1046E000F0BD00000000014000040140F0B5026A86
:1046F000036A23F4807303624368C46922F400727E
:1047000024F073050C68124E2C438D6842EA052292
:104710000E4DA84201D0B04206D1CF6822F400620B
:1047200042EA072222F48062A84201D0B04207D1B7
:104730004D6923F4405343EA05138D6943EA051399
:104740004360C4614968C1630262F0BD000001407A
:104750000004014030B5046A026A22F48052026209
:104760004268C3690D6823F4E64343EA05238D6874
:1047700024F4005444EA0534084DA84202D0084D00
:10478000A84204D14D6922F4804242EA8512426077
:10479000C36149680164046230BD0000000001404B
:1047A0000004014010B5036A046A24F001040462A5
:1047B000846924F0F00444EA021423F00A020A4354
:1047C0008461026210BD10B5036A046A24F010040B
:1047D0000462846923F0A00324F4704444EA0232A2
:1047E00043EA01118261016210BD10B5806B0021A6
:1047F000C185C184FEF732F810BD01680C3151E863
:10480000002F22F4907241E80023002BF5D10168BB
:10481000143151E8002F22F0010241E80023002B5F
:10482000F5D1016B012909D101680C3151E8002F44
:1048300022F0100241E80023002BF5D1202180F85E
:10484000421000210163704708B590F842102229F8
:1048500001D0022008BD82684FF480539A4201D1F2
:10486000016921B1816A9A421BD04AB10AE002680B
:10487000816A5268C2F308020A80816A891C08E0D2
:10488000026972B10268526802F07F020A70816A9E
:10489000491C8162C18D491E0904090CC18503D0E0
:1048A0001BE002685268F1E70168CA6822F0200242
:1048B000CA600168CA6822F48072CA6001684A69E5
:1048C00022F001024A61202180F842100021416358
:1048D000026B012A03D0FEF7FFF9002008BD016337
:1048E00001680C3151E8002F22F0100241E800234A
:1048F000002BF5D101680A68D20602D50A6849681A
:104900000091818DFDF7A9FFE7E7000070B504462F
:1049100000680169E26821F4405111430161216995
:10492000A068E26908436169114308432168CA68C5
:1049300049F20C639A430243CA6020684169A26944
:1049400021F440711143416131492068884202D00D
:104950003049884202D1FCF7E3FF01E0FCF7D0FFC9
:10496000E2690023192164253226B2F5004F6268FE
:1049700028D0A0FB0101930F9200FBF783FC0146B6
:10498000B0FBF5F06FF01802504301EB800006EB2E
:104990000010B0FBF5F000F0F002B1FBF5F002EB17
:1049A0000012B1FBF5F06FF01803584301EB8000E3
:1049B00006EB0010B0FBF5F000F00F00216810448A
:1049C000886070BDA0FB010192185B41FBF75AFCA7
:1049D0000146B0FBF5F00201B1FBF5F06FF01803F2
:1049E000584301EB800006EBC000B0FBF5F000F08F
:1049F000F80002EB4002B1FBF5F0584301EB8000F8
:104A000006EBC000B0FBF5F000F00700D6E70000B1
:104A1000001001400014014081628285C28500219E
:104A20004164222180F84210016921B10168CA68FD
:104A300042F48072CA6001684A6942F001024A6128
:104A40000068C16841F02001C1600020704700008B
:104A50000148FDF705BF0000A40300200148FDF751
:104A6000FFBE0000EC0300200148FDF7F9BE000086
:104A700034040020FEE700002DE9FC5F0D460646E9
:104A800028446FF00507902879D2474C380C22460D
:104A900000EA45091078D4F820C052686FF0040A83
:104AA0004FF0FF0B4FF0AA0EF3B2C6F30721BCF193
:104AB000070F77D2DFE80CF00415364B7615360079
:104AC000042D6FD8F2B38DF800B027208DF801E0E7
:104AD0008DF802008DF804108DF80330052168462A
:104AE0005CE07AB309F10502B2F5807F35D88DF824
:104AF000000003208DF80100280A8DF802108DF8BF
:104B000004008DF803308DF805500621684600F04A
:104B1000F1F8010A8DF806108DF8070008216846A3
:104B200062683BE0032D3DD825695DB18DF800B08A
:104B30008DF801E027228DF802208DF803308DF8E2
:104B4000041000E01CE005226946A84727E0E7685A
:104B5000B7B14B46B9F5807F03D96FF00300BDE8CC
:104B6000FC9F4006F1B2000E104AB847012816D14A
:104B700062692AB10D4B002003F580710AE011E053
:104B80005046ECE733F8107000EB060C401C21F89F
:104B90001C7080B2A842F5D32946304690470020C9
:104BA0006662DCE73846DAE7180100204C4F002047
:104BB00018B103494861002070476FF00500704745
:104BC000180100202DE9FC413B4C6169002955D0BA
:104BD0003A49E26900268854521CE261206A07289B
:104BE00065D2DFE800F0042F6767042F67000878BC
:104BF000552804D0521E3148491CE2613CE00B2A82
:104C000055D30A252D4F00204FEA000317F803C0A3
:104C10005B1C6044C0B2AB42F8D38B7A8342E9D1CB
:104C20004888ADF800008888ADF80200C888ADF863
:104C300004000889ADF80600487804226946FBF7AD
:104C40007BFE37E0022A32D948780328D2D188780F
:104C5000401D904212D888180D4630F8020C921E62
:104C600047BA91B2154800F045F8874208D0E2698A
:104C7000691C521E1148E261FBF735FBBDE8FC815F
:104C8000A8780F4B42080021606A0AE005EB410753
:104C900001EB000CB7F80370491C7FBA23F81C70B5
:104CA00089B29142F2D311466269904702E0B2F5AF
:104CB000807FE3D1E661E1E7180100204C4F00203E
:104CC0004C5000204A42904200DA1046884200DDF3
:104CD000084670470FB4054B10B503A9044A029863
:104CE00000F03EF810BC5DF814FB00008D4F00088A
:104CF00054010020F0B5FF23084E1C46002206F5A3
:104D0000807705E0855C5D40735D63407C5D521C8F
:104D10008A42F7DB44EA0320F0BD00005C6E000825
:104D20000907090E002804DB00F1E02080F80014D8
:104D3000704700F00F0000F1E02080F8141D70476C
:104D400002E008C8121F08C1002AFAD17047704754
:104D5000002001E001C1121F002AFBD170470000B2
:104D60002DE9FF4F89B09B460446002506E0252823
:104D70000BD05A460B999047641C6D1C2078002874
:104D8000F5D10DB02846BDE8F08F0027B8460122C6
:104D9000474900E0074314F8013F203B02FA03F0C3
:104DA0000842F7D120782E2819D114F8010F47F0C6
:104DB00004072A280ED06FF02F022078A0F13001CE
:104DC00009290CD808EB880102EB410100EB01082E
:104DD000641CF2E70A98641C50F8048B0A9020784F
:104DE0000028CED0642808D0692806D075281ED0A7
:104DF0005A460B9990476D1C58E00A994FF00A09E2
:104E000001C90A91002802DA40422D2102E0390549
:104E100004D52B218DF82010012103E0F90704D0DF
:104E20002021F7E78A4608AE0DE00021FAE70A994B
:104E30004FF00A0901C90A91F7E74946FBF79AFBC7
:104E4000303106F8011D0028F7D1ADEB060000F166
:104E50002009780701D44FF00108C84502DDA8EB0E
:104E6000090000E000208046002706E008A85A4616
:104E7000C05D0B9990476D1C7F1C5745F6DB04E025
:104E800030205A460B9990476D1CB8F10001A8F1EB
:104E90000108F5DC05E016F8010B5A460B9990471E
:104EA0006D1CB9F10001A9F10109F4DC641C65E78E
:104EB00009280100D0ED000AB0EE002A70EEC00A09
:104EC000C0ED010A90ED021AD0ED041A30EEC10ACD
:104ED00020EE210AD0ED051A01EEA00AF0EE601ACC
:104EE00041EE421A90ED032A71EE821A90ED062AE5
:104EF00002EE210AD0ED081A30EE210A80ED080AF0
:104F000080ED031AC0ED020A7047000038B505466F
:104F10001B480024026842F00202026000681A4A3C
:104F200000F002000090174882E8330080201461EE
:104F3000C2E905401046FDF7D4FA13496020483114
:104F4000002208606808C1E90104CC600C614C6172
:104F50008C610D48FDF75FFA0B49042248310A487D
:104F6000FDF759FA0849082248310748FDF753FA76
:104F7000BDE8384004490C2248310348FDF74BBADC
:104F800044380240000401408C51002004490A6862
:104F90005206FCD5024AC1B2121D116070470000D2
:104FA000004400401CB507490120CDE90001002361
:104FB000802205A1074801F021FDBDE81C4001F059
:104FC000B1B900007C00002073746172745F746179
:104FD000736B0000955B00082DE9F0470025254E16
:104FE000254C01274FF480784FF4007908B13770D1
:104FF00001E0307870B180212046FCF7E9F980B1FA
:1050000041462046FCF7E4F958B149462046FCF7F2
:10501000DFF930B180212046FCF7DAF9012818D0F9
:1050200024E00A20FCF7CAF80020307080212046D6
:10503000FCF7CEF900B9012541462046FCF7C8F936
:1050400000B9022549462046FCF7C2F970B903258C
:105050000CE041462046FCF7BBF9012806D1494641
:105060002046FCF7B5F9012800D137702846BDE885
:10507000F08700003400002000100240FCF7CAFA5C
:10508000FFF7D0F9FEF7E8FBFEF7B8FBFEF75CFD93
:10509000FEF77EFDFEF7A0FDFEF71AFEFEF734FEDA
:1050A000FEF74EFEFEF7E4FCFEF776FBFEF716FD7C
:1050B000FEF750FCFEF76EFCFBF7E5FC2C48FCF716
:1050C0001DFF2C48FCF71AFF00212B48FDF79AFA28
:1050D00004212948FDF796FA08212748FDF792FA9E
:1050E0000C212548FDF78EFA00212448FDF78AFAA5
:1050F0000C212248FDF786FA062221492148FDF7B6
:10510000DDFD062220492148FDF7D8FD0622204971
:105110002048FDF7D3FD3C211F48FDF757F83C21FF
:105120001E48FDF753F81E48FBF734FEFEF710FF4C
:10513000FDF76EFEFDF7A2FFFDF7D8FFFEF730FA90
:10514000A72140F2E73000F075FDFFF70DF99FED64
:10515000150BFFF729F800F043F8FEF76DFBFFF79A
:1051600021FF00BFFDF764FFFDF75EFEFAE70000D8
:10517000CC020020140300205C030020F401002076
:1051800011000020A403002017000020EC030020E1
:105190001D00002034040020840200203C02002076
:1051A00058010020000000000000E03F002800DA65
:1051B000404270470246012000E05043491EC9B2F8
:1051C000FBD2704710B5EFF3058111B16FF0050404
:1051D00003E0002408B100F0F5FF204610BD0000F8
:1051E000EFF3058010B16FF00500704704480168C7
:1051F00011B14FF0FF30704701210160002070476E
:10520000E00000202DE9FF414FEA01034FF00005C7
:10521000EFF30581039549BB40B380271821002493
:105220004AB3166806B1344696691EB13146761EF9
:10523000382E02D21679F60703D0002004B0BDE85C
:10524000F081566906B1B708D2F808C0BCF1000F6A
:105250000DD0D5685C2D18D312693AB136B18DE8FE
:1052600006103A46214601F0F6FB03900DE0D668A1
:105270005EB912694AB903AACDE90012BAB2214651
:1052800001F0BCFB012800D003950398D6E700008D
:105290002DE9F041134C0F460546E6682068001DD5
:1052A00000F05CFE681C07D137B12168BDE8F04111
:1052B0000D48091D00F0A2BE20683544B542456086
:1052C000216805D2A06BBDE8F041091D00F07EBE4B
:1052D000606B091D00F07AFEA06A854200D2A562CB
:1052E000BDE8F08190000020280B00202DE9F0415E
:1052F000054600F08FFE2D4CA068401CA060206881
:105300002B4F10B1606930B32BE02560A0680128F5
:1053100027D1002606EB860007EB800000F048FE50
:10532000761C382EF6D3234800F042FE2148143074
:1053300000F03EFE1F48283000F03AFE1D483C3089
:1053400000F036FE1B48503000F032FE1948606312
:105350001430A06305E02068E96AC06A884200D87A
:105360002560606A401C60626864E86A216988425E
:1053700000D9206100EB800007EB8000291D00F0C0
:105380003DFE00F067FE606900280CD02068E96AE5
:10539000C06A884207D208494FF080500860BFF3C6
:1053A0004F8FBFF36F8FBDE8F081000090000020A9
:1053B00078060020D80A002004ED00E038B500F09F
:1053C00029FE104C2068C8B90F4800F0F1FD0E48C6
:1053D000143000F0EDFD0C48E060143020610A4B01
:1053E0000020F03B009003F1500210210A2001F050
:1053F000A7F8206010B105A100F0AEFEBDE838406E
:1054000000F028BECC0000202C0C0020546D7251FE
:105410000000000030B4026C0B46002A0BD0C168BB
:105420001144C1608468A14201D30168C16030BCED
:105430001846FAF758BF30BC70472DE9F041856B2C
:10544000174604460026026C82B1C7B1E068FAF73D
:105450004AFFE168206C091AE1602268914202D299
:10546000A168081AE060022F16D017E02068A8B9DA
:10547000A06801F093FB06460020A0600EE0606883
:10548000FAF731FF216C606808446060A1688842C7
:1054900004D32068606001E005B16D1E6D1CA5633A
:1054A0003046BDE8F08110B5044690F8590058B177
:1054B00001280CD002280FD0502080F31188BFF3B0
:1054C0004F8FBFF36F8FFEE7206B00F0D7FD2046B4
:1054D000BDE8104000F0D2BD10BD000010484FF4F0
:1054E0007051420706D0C01D0D4920F00700411A37
:1054F000C1F570510B4A00230144C2E90003083989
:10550000183A21F0070111604B600B600B1AC0E9DB
:10551000001393604FF000405360506170470000EB
:105520000C130020FC000020144E154CA6F29C47E2
:105530004FF08058DFF84C9012E000BF00F06AFD99
:10554000F068C568281D00F009FDA068401EA06035
:105550006068401E606000F07DFD2846FFF7A3FFF5
:1055600060680028EAD138680128F9D9C9F80080B4
:10557000BFF34F8FBFF36F8FF2E70000140B0020D3
:105580009000002004ED00E070B51D46049C51B170
:10559000C4F80020C4E90F010121204601F004F8FD
:1055A00084F84C5070BD2460F4E700002DE9F05FF2
:1055B0008846DDE90B941546834691009A460A9E7B
:1055C000A522206BFAF7A1FE6FF00301206B01EB1F
:1055D0008501084420F00707780707D0502080F3A2
:1055E0001188BFF34F8FBFF36F8FFEE70025B8F12F
:1055F000000F0FD05FF00000221818F8001082F89A
:10560000341018F8001011B1401C1028F4D384F89D
:10561000435001E084F83450382E00D33726E66238
:10562000C4E91365201D00F0CEFC04F1180000F061
:10563000CAFC2461C6F138006462A061656584F823
:10564000585052465946384600F05AFA2060B9F18F
:10565000000F01D0C9F80040BDE8F09F30B51149F6
:1056600000E011460A688242FBD34B685C18844212
:1056700003D1406818444860084643681C189442A7
:1056800009D1084C183C2468A24209D052681A4437
:1056900042600A6812680260814200D0086030BD32
:1056A0000460F9E7FC00002070B5002441600B4D58
:1056B0000061914206D8D11A8269914206D2011D39
:1056C000286907E09A4203D2994201D3012403E0FA
:1056D000011DE86800F07AFC204670BDCC00002077
:1056E00010B5044600F096FCA06B28B15FF00004F2
:1056F00000F0B0FC204610BD0124F9E730B589B0B8
:105700003C4D6EE00498002806DADDE90601059AB2
:1057100090470498002864DB069C606910B1201D46
:1057200000F01CFC03A800F0D7F8024604980A28F1
:1057300057D2DFE800F00505052D334A05052D3366
:1057400094F8280040F0010084F828000599A06929
:10575000059B01442046FFF7A7FF68B3216A204656
:10576000884794F8280040073BD500200090059812
:10577000A169002342181946204601F019FBD8B947
:10578000502080F31188BFF34F8FBFF36F8FFEE778
:1057900014F8280F20F00100207022E094F828006F
:1057A00040F0010084F828000598A06128B1811814
:1057B00013462046FFF778FF13E0502080F311884E
:1057C000BFF34F8FBFF36F8FFEE794F82800810778
:1057D00003D4204600F052FC03E020F0010084F8DE
:1057E0002800002204A9286801F032F8002889D195
:1057F00009B030BDCC0000202DE9FC410F46054624
:1058000000F0D4FD01A800F067F80446019818B133
:1058100001F03CFABDE8FC81254EAFB1306900686B
:10582000D0B30027291B3A46306800F0A9FC01F0EC
:105830002DFA0028EED11F494FF080500860BFF3C9
:105840004F8FBFF36F8FE5E7A542EBD801F01EFA4B
:10585000F0682746C068C468201D00F07FFB94F8FC
:105860002800410719D5A0692B4641193A46204620
:10587000FFF71AFFA8B100200346014600902A4610
:10588000204601F095FA60B9502080F31188BFF3EB
:105890004F8FBFF36F8FFEE707E020F0010084F821
:1058A0002800216A20468847B4E70127BAE70000AC
:1058B000CC00002004ED00E00648416B096829B1E6
:1058C000416BC968C9684968816270474FF0FF3110
:1058D000FAE700009000002070B5054601F0F4F8EA
:1058E000064E0446B068844203D200F009F8012055
:1058F00000E0002028602046B46070BDCC0000208D
:10590000F8B5194D20E0C068C4680668201D00F095
:1059100025FB216A2046884794F82800400713D5C4
:10592000A0693044B04206D924616060211DE86856
:1059300000F04CFB08E00020034601460090324690
:10594000204601F035FA38B1E86801680029DAD15B
:105950002969C5E90310F8BD502080F31188BFF311
:105960004F8FBFF36F8FFEE7CC00002008484068E0
:10597000401C4FF0500080F3118804D0BFF34F8FCC
:10598000BFF36F8FFEE7BFF34F8FBFF36F8FFEE75D
:1059900004010020074CE068016841B1C0680021A3
:1059A000D0F80000FFF728FFFFF7A8FEF3E701217A
:1059B0000020F7E7CC0000202DE9F041044600F07C
:1059C00029FB94F9455004F1240609E0606A48B1C6
:1059D000304601F023F908B100F06AFC6D1E6DB28B
:1059E000002DF3DC4FF0FF3684F8456000F032FB09
:1059F00000F010FB94F9445004F1100709E020690D
:105A000048B1384601F00AF908B100F051FC6D1EAA
:105A10006DB2002DF3DC84F84460BDE8F04100F085
:105A200019BB00002DE9F0410546002700F0BEFC3F
:105A3000324E306808B9FFF751FD706905424ED10A
:105A4000C5B3083568070ED005F00700C0F108009F
:105A50000544680707D0502080F31188BFF34F8FAB
:105A6000BFF36F8FFEE72DB37068854237D82348A8
:105A7000183001460C6801E020460C466168A942D6
:105A800002D221680029F7D131688C4227D00768FB
:105A90002168016060680837411B10290FD960191F
:105AA000420708D0502080F31188BFF34F8FBFF317
:105AB0006F8FFEE713E041606560FFF7CFFD61681F
:105AC0007068401A7060B268904200D2B06070692D
:105AD00001430020C4E90001F068401CF06001F0BF
