:020000040800F2
:1000000090BD012039030008BD38000811330008F5
:1000100011350008ED0B00085D4E000800000000DF
:10002000000000000000000000000000790200084D
:10003000E10C000800000000D50200089546000809
:100040005D0300085D0300085D0300085D03000810
:100050005D0300085D0300085D0300085D03000800
:100060005D0300085D0300085D0300085D030008F0
:100070005D0300085D0300085D0300085D030008E0
:100080005D0300085D0300085D0300085D030008D0
:100090005D0300085D0300085D0300085D030008C0
:1000A0005D0300085D0300085D0300085D030008B0
:1000B0005D0300085D0300085D0300085D030008A0
:1000C0005D0300085D0300085D0300085D03000890
:1000D0005D030008BD4D00080D4E00085D030008DB
:1000E0005D0300085D0300085D0300085D03000870
:1000F0005D0300085D0300085D0300085D03000860
:100100005D0300085D0300085D0300085D0300084F
:100110005D0300085D030008BD460008CD460008E9
:100120005D0300085D0300085D0300085D0300082F
:100130005D0300085D0300085D0300085D0300081F
:100140005D0300085D0300085D0300085D0300080F
:100150005D0300085D0300085D0300085D030008FF
:100160005D0300085D0300085D0300085D030008EF
:100170005D0300085D0300085D0300080000000047
:100180005D0300085D03000800F002F800F064F869
:100190000AA090E8000C82448344AAF10107DA45E2
:1001A00001D100F059F8AFF2090EBAE80F0013F0D0
:1001B000010F18BFFB1A43F001031847C4AA00003F
:1001C000E4AA00000A444FF0000C10F8013B13F0C1
:1001D000070408BF10F8014B1D1108BF10F8015BA0
:1001E000641E05D010F8016B641E01F8016BF9D193
:1001F00013F0080F1EBF10F8014BAD1C0C1B09D1EA
:100200006D1E58BF01F801CBFAD505E014F8016B5B
:1002100001F8016B6D1EF9D59142D6D370470000ED
:100220000023002400250026103A28BF78C1FBD8FF
:10023000520728BF30C148BF0B607047642900F0E7
:100240004F81732900F02A83002070471FB509F001
:100250006DFD1FBD10B510BD00F096FB1146FFF7F8
:10026000F5FF06F0ADFA00F0B4FB03B4FFF7F2FFC0
:1002700003BC05F064FB00002C4B19680868B0E86B
:10028000F04F80F30988BFF36F8F4FF0000080F3C9
:10029000118870470000000008480068006880F37B
:1002A00008884FF0000080F3148862B661B6BFF38F
:1002B0004F8FBFF36F8F00DF00BF00BF08ED00E07E
:1002C000DFF80C00016841F470010160704700BF65
:1002D00088ED00E0EFF30980BFF36F8F134B1A68CE
:1002E0001EF0100F08BF20ED108A20E9F04F1060BB
:1002F00009B44FF0500080F31188BFF34F8FBFF364
:100300006F8F08F01FF94FF0000080F3118809BCCF
:1003100019680868B0E8F04F1EF0100F08BFB0EC85
:10032000108A80F30988BFF36F8F70470C0200209A
:10033000EFF30580704700000C48016841F470013C
:1003400001600B4880470B480047FEE7FEE7FEE7E9
:10035000FEE7FEE7FEE7FEE7FEE7FEE7FEE700005A
:1003600005480649044A064B7047000088ED00E046
:10037000A94600088901000890B9012090BD01201C
:1003800090B90120704753EA020C00F069802DE912
:10039000F04B4FF00006002B1FBFB3FA83F503FAB2
:1003A00005F424FA05F65E4012BF1643B2FA82F550
:1003B00002FA05F4C5F120051EBF22FA05FC44EA45
:1003C0000C04203556EA044C4FEA144418BF641C50
:1003D0004FF000084FF00009904271EB030C39D345
:1003E000002919BFB1FA81F701FA07F6B0FA80F7D0
:1003F00000FA07F6C7F120071EBF20FA07FC46EAFD
:100400000C062037B6FBF4FCA7EB0507103F07F0FE
:100410001F0BCBF120060CFA0BFB2CFA06F644BF9F
:10042000B3460026202FA4BF5E464FF0000B5BEAC8
:10043000060C08BF4FF0010B19EB0B09ABFB027C5C
:1004400048EB0608C01B06FB02CC0BFB03CC71EB90
:100450000C01C1E70B46024641464846BDE8F08B19
:1004600013B54FF000004FF00001AFF30080BDE87E
:100470001C4070470FB4044910B503AA029800F05D
:1004800011FA10BC5DF814FB2C00002070B50C466E
:100490000546012A05D02878800600D5EA690023A0
:1004A00002E0012305E05B1C934202D2E05C0028DD
:1004B000F9D1A869E618C01AA861286A1844286208
:1004C0002846AFF3008004E0D5E9012114F8010BC0
:1004D0009047B442F8D32846AFF3008070BD0000C7
:1004E0002DE9F0410646002410687529314616A50D
:1004F00010D0AFF30080002802DA404213A507E0D5
:1005000031688A0701D512A502E0490704D511A573
:10051000012401E0AFF3008000210A2206F1240744
:1005200009E0B0FBF2FCB0FBF2F302FB1C00303040
:1005300078541846491C0028F3D123462A463046F1
:10054000BDE8F04100F027B9000000002D000000D8
:100550002B000000200000002DE9F05F89460446D2
:100560004FF0000ADFF824B1FB44C0F820A0204679
:10057000E168884700287DD0252806D0D4E90121EC
:100580009047206A401C2062F1E700255F46204624
:10059000E16888472028064607DB312E05D2B819C6
:1005A00010F8200C08B10543F1E7A80701D525F0A4
:1005B0000405C4F81CA00027C4F818A02A2E09D0EE
:1005C000304605F0B5F938B304EB8708303EC8F87B
:1005D000186019E059F8041B204604EB870291616A
:1005E000E1688847012F064618D1E069002820DA23
:1005F00025F020051DE0D8F8180000EB800006EB80
:1006000040003038C8F818002046E16888470646A0
:1006100005F08EF90028EED1012F0AD02E2E08D138
:100620002046E16888477F1C0646022F45F02005DA
:10063000C4DBA069002803DA404245F00105A0614F
:10064000E80701D025F01005A6B1A6F14100192850
:1006500002D8203645F400654A46314620462560DA
:100660004D46FFF7EBFD60B1012807D0ED1D25F0E9
:10067000070000E007E000F1080978E705F1040948
:1006800075E730467AE7206ABDE8F09FC0A6000013
:10069000032A40F2308010F0030C00F0158011F8AE
:1006A000013BBCF1020F624498BF11F801CB00F886
:1006B000013B38BF11F8013BA2F1040298BF00F8DA
:1006C00001CB38BF00F8013B11F0030300F0FC80C0
:1006D000083AC0F0088051F8043B083A51F804CBBE
:1006E000A0E80810F5E7121D5CBF51F8043B40F884
:1006F000043BAFF30080D20724BF11F8013B11F88F
:1007000001CB48BF11F8012B24BF00F8013B00F8D2
:1007100001CB48BF00F8012B704702F0FF0343EA0A
:10072000032242EA024200F003B94FF0000200B592
:10073000134694469646203922BFA0E80C50A0E804
:100740000C50B1F12001BFF4F7AF090728BFA0E8B2
:100750000C5048BF0CC05DF804EB890028BF40F87E
:10076000042B08BF704748BF20F8022B11F0804FC0
:1007700018BF00F8012B70477047704770477047EB
:1007800010B500F0F5F8006810BD10B5044600F093
:10079000EFF8046010BD2DE9F0470D4699469246EA
:1007A000044600F124080168880604D5E06921F0B8
:1007B0001001216000E00120A84201DD471B00E09C
:1007C0000027A1697A1902EB0900081AA0612078B4
:1007D000C00602D42046AFF30080002608E0D4E92A
:1007E00001211AF806009047206A401C761C2062FE
:1007F0004E45F4DB2078C0060AD52046AFF30080D2
:1008000006E0D4E9012130209047206A401C206294
:10081000381EA7F10107F4DC07E0D4E9012118F83C
:1008200005009047206A401C2062281EA5F10105A2
:10083000F3DC2046AFF300802078000602D50220CA
:10084000BDE8F0870120FBE701694A1C02610878D6
:10085000704700B58FB0CDE9013100210591054900
:100860007944CDE9031011466846FFF775FE0FB0D5
:1008700000BD0000E5FFFFFF10B5436913B1AFF302
:10088000008001E0FFF702FE012010BD127800F1A8
:1008900024010A7000224A700122EDE711684FF02E
:1008A000FF32E9E7074B70B50D467B44FFF7D1FFF8
:1008B0000446284600F060F810B14FF0FF3070BDDC
:1008C000204670BD7753000010B5203AC0F00B8071
:1008D000B1E81850203AA0E81850B1E81850A0E844
:1008E0001850BFF4F5AF5FEA027C24BFB1E818509E
:1008F000A0E8185044BF18C918C0BDE810405FEA0E
:10090000827C24BF51F8043B40F8043B08BF704789
:10091000D20728BF31F8023B48BF11F8012B28BF8E
:1009200020F8023B48BF00F8012B70474FF000024F
:100930000429C0F0128010F0030C3FF4F8AECCF1A3
:10094000040CBCF1020F18BF00F8012BA8BF20F85F
:10095000022BA1EB0C01FFF7EABE5FEAC17C24BFCA
:1009600000F8012B00F8012B48BF00F8012B70475D
:10097000004870472CB90120007B00F080007047D0
:10098000004870472CB901207546FFF7F9FFAE46C5
:1009900005006946534620F00700854618B020B58B
:1009A000FFF7DEFCBDE820404FF000064FF00007E7
:1009B0004FF000084FF0000B21F00701AC46ACE807
:1009C000C009ACE8C009ACE8C009ACE8C0098D4674
:1009D000704710B50446AFF300802046BDE81040D4
:1009E000FFF743BC55494A6822F440324A604A68DE
:1009F00043681A434A600268526822F480720368AE
:100A00005A6002685368026943EA022203685A6026
:100A10000268526822F0407203685A6002685268A5
:100A200083681A4303685A600268926822F400627D
:100A300003689A6002689268C3681A4303689A6000
:100A40003F4B826A9A4218D00268926822F0706224
:100A500003689A6002689268836A1A4303689A601E
:100A60000268926822F0405203689A6002689268B5
:100A7000C36A1A4303689A600BE00268926822F026
:100A8000706203689A600268926822F040520368BC
:100A90009A600268926822F0020203689A60026813
:100AA0009368027E43EA420203689A602022125C45
:100AB000A2B10268526842F4006203685A60026898
:100AC000526822F4604203685A6002685368426ABE
:100AD000521E43EA423203685A6005E002685268D7
:100AE00022F4006203685A600268D26A22F470023B
:100AF0000368DA620268D36A828B521E43EA0252AA
:100B00000368DA620268926822F4007203689A60ED
:100B10000268936890F8302043EA422203689A60A2
:100B20000268926822F4806203689A60026893689F
:100B3000426943EA822203689A60704700230140B9
:100B40000100000F70B501241CE04FF4E13007F004
:100B500037F9022500BF00200F4908700321342017
:100B600004F07EF9642000F0FDFC0B48007828B109
:100B70004FF4E13109A0FFF77DFC70BD6D1E002D23
:100B8000E9D1641C0A2CE0DB0AA0FFF773FC0FA07C
:100B9000FFF770FC00BFF0E78C02002025642062A4
:100BA0006175642066696E642073656E736F720D83
:100BB0000A0D0A0063616E206E6F742066696E64B0
:100BC0002073656E736F720D0A000000706C6561B2
:100BD000736520636865636B20796F757220636F3E
:100BE0006E6E656374696F6E0D0A000000BFFEE7EC
:100BF0002DE9F84F07460C4690464FF00009CA46CB
:100C000000250026A346A01D00900425A7F1500052
:100C100010283AD2DFE800F01608190F1E23262903
:100C20002C2F3239393939354FF0340903254FF03B
:100C3000400A01262BE04FF03D0903254FF02E0A14
:100C4000012624E04FF0300921E04FF037094FF042
:100C500003081CE04FF03A094FF0030817E04FF08B
:100C6000410914E04FF0450911E04FF049090EE049
:100C70004FF04D090BE04FF0510908E04FF05509D6
:100C800005E01448D0F8009001E0BDE8F88F00BFFF
:100C9000B8F1030F01D1032500265DB16A000E49AA
:100CA00001EB49005946FFF7F3FC294648460B4A39
:100CB000126890475EB17200074901EB4A00009943
:100CC000FFF7E6FC31465046044A1268904700BFE1
:100CD000DBE70000BC0200200AB80120A8020020C7
:100CE000704772B600BFFEE70EB5B0EE406AF0EE98
:100CF000606A9FED2A0AF0EE405A9FED280AB0EE96
:100D0000407A002000900190029036EEC60AF0EE84
:100D1000405A234890ED000AB8EEC00A35EEC00AEA
:100D2000B0EE407A1F4890ED000AB8EEC00A30EEEF
:100D3000250ABDEEC00A80ED000ABDEEE50A18489E
:100D400080ED000AF0EE470AB0EE650A04F090FF6D
:100D50008DED000ACDED010A8DED021A124890EDDD
:100D6000040ADDED000A30EE200A20EE250AD0ED5F
:100D7000060A9DED021A70EE810A00EE870AD0ED98
:100D8000050A9DED011A30EE811A0648D0ED000AE1
:100D9000F8EEE00A01EE200A0EBD0000000000009F
:100DA000BC000020AC000020580100200EB5B0EEC1
:100DB000406AF0EE606A9FED2A0AF0EE405A9FED1D
:100DC000280AB0EE407A002000900190029036EEA2
:100DD000C60AF0EE405A234890ED000AB8EEC00A69
:100DE00035EEC00AB0EE407A1F4890ED000AB8EE2A
:100DF000C00A30EE250ABDEEC00A80ED000ABDEE45
:100E0000E50A184880ED000AF0EE470AB0EE650AE0
:100E100004F02EFF8DED000ACDED010A8DED021AD2
:100E2000124890ED040ADDED000A30EE200A20EEB3
:100E3000250AD0ED060A9DED021A70EE810A00EE39
:100E4000870AD0ED050A9DED011A30EE811A064899
:100E5000D0ED000AF8EEE00A01EE200A0EBD000017
:100E600000000000C0000020B00000207C01002035
:100E70000EB5B0EE406AF0EE606A9FED2A0AF0EE21
:100E8000405A9FED280AB0EE407A00200090019071
:100E9000029036EEC60AF0EE405A234890ED000A62
:100EA000B8EEC00A35EEC00AB0EE407A1F4890EDA9
:100EB000000AB8EEC00A30EE250ABDEEC00A80ED89
:100EC000000ABDEEE50A184880ED000AF0EE470A78
:100ED000B0EE650A04F0CCFE8DED000ACDED010AFE
:100EE0008DED021A124890ED040ADDED000A30EE95
:100EF000200A20EE250AD0ED060A9DED021A70EEBA
:100F0000810A00EE870AD0ED050A9DED011A30EE48
:100F1000811A0648D0ED000AF8EEE00A01EE200A38
:100F20000EBD000000000000C4000020B40000203E
:100F3000A00100200EB5B0EE406AF0EE606A9FEDB1
:100F40002A0AF0EE405A9FED280AB0EE407A0020BF
:100F500000900190029036EEC60AF0EE405A234807
:100F600090ED000AB8EEC00A35EEC00AB0EE407A45
:100F70001F4890ED000AB8EEC00A30EE250ABDEE1B
:100F8000C00A80ED000ABDEEE50A184880ED000AAF
:100F9000F0EE470AB0EE650A04F06AFE8DED000A35
:100FA000CDED010A8DED021A124890ED040ADDED37
:100FB000000A30EE200A20EE250AD0ED060A9DED4B
:100FC000021A70EE810A00EE870AD0ED050A9DED47
:100FD000011A30EE811A0648D0ED000AF8EEE00A58
:100FE00001EE200A0EBD000000000000C800002035
:100FF000B8000020C401002038B50246002000904F
:1010000000BF92F83C00012801D1022038BD012028
:1010100082F83C0000BF0868092816D91068C0682B
:101020000C780A3C04EB44050724AC40A043146848
:10103000E0600C780A3C04EB44048868A040146823
:10104000E46820431468E06013E0106800690C78DD
:1010500004EB44050724AC40A043146820610C78DD
:1010600004EB44048868A040146824692043146891
:1010700020614868072817D21068406B0C79641EFD
:1010800004EB84051F24AC40A04314686063088807
:1010900080B20C79641E04EB8404A0401468646B75
:1010A00020431468606331E048680D2817D2106847
:1010B000006B0C79E41F04EB84051F24AC40A043B3
:1010C00014682063088880B20C79E41F04EB840460
:1010D000A0401468246B20431468206316E0106855
:1010E000C06A0C790D3C04EB84051F24AC40A0437E
:1010F0001468E062088880B20C790D3C04EB84042B
:10110000A0401468E46A20431468E062194B1A4C4A
:101110001068A04206D10868122803D1586840F42C
:1011200080005860144C1068A0421CD10868102838
:1011300002D00868112816D1586840F400005860A1
:10114000086810280FD10D4800680D4CB0FBF4F072
:1011500000EB80004000009002E00098401E0090EC
:1011600000980028F9D100BF002082F83C0000BFA1
:1011700000BF4BE700230140002001400800002091
:1011800040420F0001460868C06C704770B50446C5
:1011900000250CB9012070BD1549A06A884200D015
:1011A00000BF206C30B9204600F024F800206064B5
:1011B00084F83C00206C00F0100088B9206C20F40A
:1011C000885040F0020020642046FFF70BFC00200E
:1011D0006064206C20F0020040F00100206400E018
:1011E000012500BF002084F83C0000BF2846D2E75C
:1011F0000100000F10B586B004461B4920688842E4
:1012000030D100BF00BF002000901848006840F4B3
:101210008070164908600846006800F480700090ED
:1012200000BF00BF00BF00BF00BF002000900F48FC
:101230001438006840F001000C4914390860084671
:10124000006800F00100009000BF00BF00BF102048
:101250000190032002900020039001A9044800F0AF
:1012600095F900BF06B010BD00200140443802408F
:101270000008024070B504460D46002620688068CC
:1012800000F48060B0F5806F11D12068806800F4B0
:101290008070B0F5807F0AD1206C40F0200020647F
:1012A00000BF002084F83C0000BF012070BD00F0AA
:1012B00083FA064618E0681CB0B125B100F07CFA4C
:1012C000801BA84210D92068006800F002000228A4
:1012D0000AD0206C40F00400206400BF002084F895
:1012E0003C0000BF0320E1E72068006800F0020036
:1012F0000228E0D16FF0120021680860206C40F4F1
:10130000007020642068806800F04050B8B9207EEA
:10131000A8B92068C06A00F4700020B12068806815
:1013200000F4806058B9206C20F480702064206C38
:1013300000F4805018B9206C40F0010020640020B7
:10134000B4E7000008B501460020009000BF91F806
:101350003C00012801D1022008BD012081F83C0099
:1013600000BF0868806800F00100A0B908688068C4
:1013700040F001000B6898603F4800683F4BB0FBAD
:10138000F3F000EB4000009002E00098401E009057
:1013900000980028F9D10868806800F00100002852
:1013A00060D0086C40F20163984340F48070086498
:1013B0000868406800F4806028B1086C20F4005090
:1013C00040F480500864086C00F48050B0F5805FF1
:1013D00004D1486C20F00600486401E00020486415
:1013E00000BF002081F83C0000BF254A6FF02200BA
:1013F0000B681860506800F01F0018BB214B08688C
:10140000984213D0204B0868984204D1101D006800
:1014100000F01F0050B11D4B086898422AD11848AF
:10142000001D006800F01F00102823D208688068A3
:1014300000F04050F0B90868806840F080400B68C8
:10144000986017E00F4B0868984213D108688068CD
:1014500000F0405070B90868806840F080400B6828
:10146000986007E0086C40F010000864486C40F099
:101470000100486400206FE70800002040420F0090
:1014800000230140002001400021014000220140D2
:1014900070B50446A56D00F08FF9064694F8350046
:1014A000022808D08020606500BF002084F8340046
:1014B00000BF012070BD2068006820F01600216880
:1014C00008602068406920F0800021684861206C35
:1014D00008B9A06C28B12068006820F008002168D5
:1014E00008602068006820F00100216808600FE0B3
:1014F00000F062F9801B05280AD92020606500BF32
:10150000002084F8340000BF032084F83500D1E7C0
:101510002068006800F001000028E9D194F85C1010
:101520003F208840A86000BF002084F8340000BF3E
:10153000012084F835000020BCE7014691F8350011
:10154000022803D08020486501207047052081F8DB
:1015500035000868006820F001000A68106000206B
:10156000F3E7000070B5044600F026F9064625466C
:10157000681C10B104480078054400BF00F01CF955
:10158000801BA842FAD370BD4C000020F8B502467B
:101590000B460025002400200021DEE0012606FA8B
:1015A00001F51E6806EA0504AC4275D11E7906F005
:1015B0000306012E04D01E7906F00306022E13D175
:1015C00090684F000326BE40B0434F00DE68BE4027
:1015D00030439060506801268E40B0431E79C6F3B8
:1015E00000168E40304350601E7906F00306032E2D
:1015F00009D0D0684F000326BE40B0434F009E681C
:10160000BE403043D0601E7906F00306022E13D18F
:10161000CF0802F1200656F827004E07F70E0F26D6
:10162000BE40B0434F07FF0E1E69BE403043CF0897
:1016300002F1200646F8270010684F000326BE403E
:10164000B0431E7906F003064F00BE4030431060E1
:101650005E6806F08056B6F1805F7DD100BF00263F
:101660000096404E366846F480463E4F3E603E4609
:10167000366806F48046009600BF00BF3A4E8F08D9
:1016800056F827008E07370F0F26BE40B043374E5F
:10169000B24202D1002624E05EE0354EB24201D1D2
:1016A00001261EE0334EB24201D1022619E0324E2D
:1016B000B24201D1032614E0304EB24201D10426D9
:1016C0000FE02F4EB24201D105260AE02D4EB24264
:1016D00001D1062605E02C4EB24201D1072600E0DA
:1016E00008268F073F0FBE4030431F4E8F0846F835
:1016F0002700264E3068A0435E6806F48036B6F5B3
:10170000803F00D12043214E3060361D3068A04319
:101710005E6806F40036B6F5003F00D120431B4E4C
:10172000361D3060361D3068A0435E6806F48016B2
:10173000B6F5801F00D12043144E08363060361DA8
:101740003068A0435E6806F40016B6F5001F00D1AD
:1017500020430E4E0C363060491C1029FFF41EAF9A
:10176000F8BD000044380240083801400000024043
:101770000004024000080240000C02400010024039
:101780000014024000180240001C0240003C0140CE
:10179000024613690B400BB1012000E000207047A6
:1017A0000AB1816101E00B04836170470148006860
:1017B000000C7047002004E00148006870470000FA
:1017C000440000200348006803490978084401499F
:1017D00008607047440000204C00002010B50A4803
:1017E000006840F40070084908600846006840F44A
:1017F00080600860032000F07FF80F2000F006F8FA
:1018000000F02AF8002010BD003C024070B50446EC
:101810000E4800784FF47A71B1FBF0F00C4909687A
:10182000B1FBF0F5284600F01DFC08B1012070BDA9
:10183000102C07D200222146501E00F01EF8054849
:10184000046001E00120F2E70020F0E74C000020F6
:101850000800002048000020704701460846002884
:1018600009DB00F01F0301229A4043099B0003F1AA
:10187000E023C3F8002100BF70472DE9F05F8046E8
:101880000D461646002703F00BFD074639462A464B
:10189000334601F00700C0F1070ABAF1040F02D97C
:1018A0004FF0040A01E0C0F1070AD14600F1040A32
:1018B000BAF1070F02D24FF0000A01E0A0F1030ACB
:1018C000D4464FF0010A0AFA09FAAAF1010A0AEA13
:1018D000020A0AFA0CFA4FF0010B0BFA0CFBABF1FF
:1018E000010B0BEA030B4AEA0B042146404603F0C6
:1018F000DFFCBDE8F09F000000BF00F00702064BD0
:1019000019684FF6FF031940044B0B4343EA0221C9
:10191000014B196000BF70470CED00E00000FA05B4
:1019200070B504460D460CB9012070BD58480068DA
:1019300000F00700A84209D255490D70084600681A
:1019400000F00700A84201D00120EEE7207800F067
:10195000020002281DD1207800F00400042805D1DF
:101960004C48006840F4E0504A490860207800F094
:101970000800082805D14748006840F46040454900
:1019800008604448006820F0F000A168084341491D
:101990000860207800F00100A8B36068012807D132
:1019A0003C4808380068C0F34040B8B90120BCE7A3
:1019B0006068022802D06068032807D135480838DB
:1019C0000068C0F3406048B90120AEE731480838EC
:1019D0000068C0F3400008B90120A6E72D48006860
:1019E00020F00300616808432A490860FFF7E4FE1D
:1019F000064609E0FFF7E0FE801B41F2883188428D
:101A000002D9032091E707E02248006800F00C00AB
:101A10006168B0EB810FEDD11D48006800F0070050
:101A2000A84209D91A490D700846006800F007005D
:101A3000A84201D0012078E7207800F004000428B3
:101A400007D11448006820F4E050E16808431149C8
:101A50000860207800F00800082808D10D480068C8
:101A600020F46040216940EAC1000A49086000F0A2
:101A70003FF808490968C1F30311074A515CC8409F
:101A80000649086006480068FFF7C0FE00204CE7E2
:101A9000003C024008380240409D00080800002039
:101AA000480000200148006870470000080000203E
:101AB00000B5FFF7F7FF04490968C1F38221034A23
:101AC000515CC84000BD000008380240509D00082D
:101AD00000B5FFF7E7FF04490968C1F34231034A43
:101AE000515CC84000BD000008380240509D00080D
:101AF0002DE9F047002400250026A146254800686E
:101B000000F00C0020B1042805D008283AD105E0E7
:101B1000DFF8849039E0DFF8849036E01D48001F3C
:101B2000006800F03F041B48001F006800F48000BC
:101B300078B11A481749091F0968C1F38811A0FB39
:101B400001700146224600233846FEF71CFC05467C
:101B50000EE011480F49091F0968C1F38811A0FB65
:101B600001700146224600233846FEF70CFC05466C
:101B70000848001F0068C0F30140401C4600B5FB48
:101B8000F6F902E0DFF8109000BF00BF4846BDE85C
:101B9000F0870000083802400024F40000127A00A8
:101BA000F8B504460CB90120F8BD207800F001001A
:101BB000002874D0F948006800F00C0004280DD00B
:101BC000F648006800F00C00082813D1F348001F05
:101BD000006800F48000B0F5800F0BD1EF480838A2
:101BE0000068C0F34040002859D06068002856D1F2
:101BF0000120D9E700BF6068B0F5803F08D1E74811
:101C00000838006840F48030E449083908601EE074
:101C10006068B0F5A02F0DD1E0480838006840F4A6
:101C20008020DE49083908600846006840F48030AA
:101C300008600CE0D9480838006820F48030D749A3
:101C4000083908600846006820F48020086000BF5A
:101C5000606890B1FFF7B0FD054606E0FFF7ACFD08
:101C6000401B642801D903209EE7CC48083800684F
:101C7000C0F340400028F1D011E0FFF79DFD05467C
:101C800006E0FFF799FD401B642801D903208BE78C
:101C9000C24808380068C0F340400028F1D12078DD
:101CA00000F0020002285FD1BC48006800F00C0080
:101CB00058B1BA48006800F00C0008281CD1B74899
:101CC000001F006800F48000B0B9B448083800680C
:101CD000C0F3400020B1E068012801D0012063E793
:101CE000AE480838006820F0F800216940EAC100D9
:101CF000AA490839086037E0E06800B30120A84924
:101D00000860FFF759FD054606E0FFF755FD401B4B
:101D1000022801D9032047E7A04808380068C0F32B
:101D200040000028F1D09D480838006820F0F800F5
:101D3000216940EAC10099490839086014E000208F
:101D400097490860FFF738FD054606E0FFF734FDC8
:101D5000401B022801D9032026E790480838006874
:101D6000C0F340000028F1D1207800F008000828D6
:101D70002CD16069A8B101208A490860FFF71CFDD9
:101D8000054606E0FFF718FD401B022801D9032095
:101D90000AE782486C300068C0F340000028F1D0A8
:101DA00014E000207F490860FFF706FD054606E0C5
:101DB000FFF702FD401B022801D90320F4E6774813
:101DC0006C300068C0F340000028F1D1207800F0AA
:101DD0000400042870D1002770483830006800F0F3
:101DE000805090B900BF002000906C4838300068E7
:101DF00040F080506949383108600846006800F0BA
:101E00008050009000BF00BF01276748006800F4C1
:101E10008070B0B96448006840F48070624908601E
:101E2000FFF7CAFC054606E0FFF7C6FC401B022888
:101E300001D90320B8E65C48006800F480700028EF
:101E4000F2D000BFA068012808D15448683000686B
:101E500040F001005149683108601DE0A068052884
:101E60000DD14E486830006840F004004B4968319D
:101E700008600846006840F0010008600CE0474830
:101E80006830006820F00100444968310860084665
:101E9000006820F00400086000BFA068A8B1FFF748
:101EA0008BFC054609E0FFF787FC401B41F28831B7
:101EB000884202D9032077E626E038486830006877
:101EC000C0F340000028EED013E0FFF775FC054694
:101ED00008E0FFF771FC401B41F28831884201D9CC
:101EE000032061E62D4868300068C0F340000028F8
:101EF000EFD1012F07D129483830006820F08050F9
:101F000026493831086000BFA069002845D0234821
:101F1000006800F00C0008285DD0A069022845D1B7
:101F200000201F490866FFF747FC054606E0FFF75B
:101F300043FC401B022801D9032035E61748083826
:101F40000068C0F340600028F1D1D4E907010843DC
:101F5000616A40EA81110122A06AC2EB500041EAA5
:101F600000412C20005D41EA00600C49091F086017
:101F700001200B490866FFF71FFC054606E0FFF746
:101F80001BFC401B022801D903200DE6034808383A
:101F90000068C0F340600028F1D049E008380240F2
:101FA00000004742800E4742007000400020214957
:101FB0000866FFF701FC054606E0FFF7FDFB401B46
:101FC000022801D90320EFE51B480068C0F34060F8
:101FD0000028F2D12CE0A069012800D1E4E51648E0
:101FE000001D0668A069012820D006F48001E06980
:101FF00081421BD106F03F01206A814216D147F68B
:10200000C0703040616AB0EB811F0FD106F44031DF
:102010000122A06AC2EB5000B1EB004F06D106F0DE
:1020200070612C20005DB1EB006F01D00120BBE599
:102030000020B9E50000474200380240042808D1DA
:102040004FF0E021096941F004014FF0E0221161F5
:1020500007E04FF0E021096921F004014FF0E02290
:102060001161704770B504462546681EB0F1807F47
:1020700001D301200FE0681E4FF0E02148610F21DD
:102080004FF0FF3003F014F900204FF0E021886199
:1020900007200861002070BD7047704730B50246C8
:1020A0000B4600BF92F83C00012801D1022030BD50
:1020B000012082F83C0000BF022082F83D00106839
:1020C00044681068816824F070041868044310683C
:1020D0004460184D1068A8421BD01068B0F1804FC2
:1020E00017D0154D1068A84213D0144D1068A8429F
:1020F0000FD0134D1068A8420BD0124D1068A842A3
:1021000007D0114D1068A84203D0104D1068A842A6
:1021100005D121F0800158680143106881600120D9
:1021200082F83D0000BF002082F83C0000BF00BFE5
:10213000BDE700000000014000040040000800402E
:10214000000C004000040140004001400018004025
:1021500010B504460CB9012010BD94F83D0028B913
:10216000002084F83C00204600F026F8022084F885
:102170003D00211D206802F0B1FA012084F84600DC
:1021800000BF84F83E0001213F2001554020015549
:102190004120015500BF00BF012084F842004320C8
:1021A0000155442001554520015500BF012084F808
:1021B0003D000020D0E7000038B504461E492068E5
:1021C00088421AD100BF00BF002000901B48006861
:1021D00040F02000194908600846006800F020001F
:1021E000009000BF00BF00BF002201213720FFF791
:1021F00044FB3720FFF731FB1DE01149206888427E
:1022000019D100BF00BF002000900C48006840F0CA
:1022100010000A4908600846006800F010000090AD
:1022200000BF00BF00BF002202213620FFF725FBC0
:102230003620FFF712FB38BD001400404038024042
:1022400000100040014691F83D00012801D0012016
:102250007047022081F83D000868C06840F0010026
:102260000B68D8601A4B086898421BD00868B0F118
:10227000804F17D0174B0868984213D0164B086848
:1022800098420FD0154B086898420BD0144B086841
:10229000984207D0134B0868984203D0124B086845
:1022A00098420CD10868806800F00702062A0CD01A
:1022B0000868006840F001000B68186005E00868D5
:1022C000006840F001000B6818600020C0E70000C3
:1022D000000001400004004000080040000C0040E5
:1022E0000004014000400140001800402DE9F04189
:1022F00004460D4614B90120BDE8F08194F83D0074
:1023000028B9002084F83C00204600F053F8022051
:1023100084F83D002068806844F207018843216802
:102320008860211D206802F0D9F92068D0F8088063
:10233000206886692068076A286840EA080840F231
:1023400003308643A969A86840EA0120064340F6A5
:102350000C4086434FF2F0008643E969E86840EAA2
:102360000120064328690001296A40EA013006433A
:1023700027F0220727F088076969686840EA01109A
:1023800007432068C0F808802068866120680762DB
:10239000012084F8460084F83E0001213F200155C9
:1023A000012084F8420043200155012084F83D00BB
:1023B0000020A1E710B586B00446142101A8FEF75D
:1023C000B4F92068B0F1804F55D100BF00200090D3
:1023D0008548006840F001008349086008460068AD
:1023E00000F00100009000BF00BF00BF002000907F
:1023F0007D481038006840F001007B4910390860C2
:102400000846006800F00100009000BF00BF00BF58
:10241000002000900846006840F00200086008466E
:10242000006800F00200009000BF00BF2020019073
:1024300002200290012003900020049001200590CA
:1024400001A96A48FFF7A2F8082001900220029033
:1024500001200390002004900120059001A9644808
:10246000FFF794F8002211461C20FFF706FA1C2003
:10247000FFF7F3F9B5E05F492068884238D100BF23
:10248000002000905848006840F00200564908605B
:102490000846006800F00200009000BF00BF00BFC7
:1024A0000020009050481038006840F001004E496C
:1024B000103908600846006800F00100009000BF75
:1024C00000BFC02001900220029001200390002054
:1024D00004900220059001A94448FFF757F8002214
:1024E00011461D20FFF7C9F91D20FFF7B6F978E066
:1024F00041492068884238D100BF002000903A4806
:10250000006840F00400384908600846006800F0A0
:102510000400009000BF00BF00BF002000903248C0
:102520001038006840F002002F4910390860084652
:10253000006800F00200009000BF00BFC0200190C2
:1025400002200290012003900020049002200590B8
:1025500001A92748FFF71AF8002211461E20FFF7AD
:102560008CF91E20FFF779F93BE024492068884266
:1025700037D100BF002000901B48006840F00800E1
:10258000194908600846006800F00800009000BF84
:1025900000BF00BF0020009013481038006840F0D2
:1025A00001001149103908600846006800F0010078
:1025B000009000BF00BF0320019002200290012084
:1025C0000390002004900220059001A90748FEF71F
:1025D000DDFF002211463220FFF74FF93220FFF7CE
:1025E0003CF906B010BD0000403802400000024037
:1025F000000402400004004000080040000C0040BD
:102600002DE9F04304460D4694F83E603F20075DF7
:1026100094F84280432010F804906DB9012E02D145
:10262000B8F1010F02D00120BDE8F083022084F848
:102630003E0084F8420025E0042D0CD1012F02D188
:10264000B9F1010F01D00120EEE702213F20015531
:102650004320015516E0012E07D1012F05D1B8F115
:10266000010F02D1B9F1010F01D00120DCE70220F6
:1026700084F83E0002213F200155022084F84200E8
:102680004320015515B1042D0CD105E00122002194
:10269000206802F08FF810E001220421206802F087
:1026A00089F80AE001220021206802F083F8012263
:1026B0000421206802F07EF800BF00BF2068006897
:1026C00040F00100216808600020ADE7704710B5B8
:1026D000044620680069C0F34000D8B12068C06893
:1026E000C0F34000B0B16FF0020021680861012022
:1026F00020772068806900F0030018B12046FFF7BA
:10270000E5FF05E0204600F0ADF8204600F0E8F9CE
:102710000020207720680069C0F38000D8B12068CD
:10272000C068C0F38000B0B16FF004002168086198
:10273000022020772068806900F4407018B120469C
:10274000FFF7C4FF05E0204600F08CF8204600F0BB
:10275000C7F90020207720680069C0F3C000D8B115
:102760002068C068C0F3C000B0B16FF008002168F5
:102770000861042020772068C06900F0030018B1C8
:102780002046FFF7A3FF05E0204600F06BF8204647
:1027900000F0A6F90020207720680069C0F300103F
:1027A000D8B12068C068C0F30010B0B16FF010005D
:1027B00021680861082020772068C06900F4407013
:1027C00018B12046FFF782FF05E0204600F04AF8E6
:1027D000204600F085F9002020772068006900F08D
:1027E000010058B12068C06800F0010030B16FF0FE
:1027F000010021680861204600F0FAF920680069AC
:10280000C0F3C01058B12068C068C0F3C01030B128
:102810006FF08000216808612046FFF73DFC2068CA
:102820000069C0F3801058B12068C068C0F3801000
:1028300030B16FF0400021680861204600F072FA64
:1028400020680069C0F3401058B12068C068C0F328
:10285000401030B16FF02000216808612046FFF77A
:102860001CFC10BD704770B504460D46164600BFEF
:1028700094F83C00012801D1022070BD012084F8A9
:102880003C0000BF36B1042E1BD0082E31D00C2ED8
:102890005ED145E02946206801F09EFF20688069EE
:1028A00040F00800216888612068806920F00400F9
:1028B00021688861206880692969084321688861E6
:1028C00047E02946206801F0BFFF2068806940F496
:1028D0000060216888612068806920F48060216838
:1028E000886120688069296940EA0120216888613F
:1028F0002FE02946206801F0E5FF2068C06940F01C
:1029000008002168C8612068C06920F004002168BF
:10291000C8612068C069296908432168C86118E056
:102920002946206802F00AF82068C06940F4006077
:102930002168C8612068C06920F480602168C8618E
:102940002068C069296940EA01202168C86100E067
:1029500000BF00BF00BF002084F83C0000BF00BFE4
:102960008BE710B504460CB9012010BD94F83D006A
:1029700028B9002084F83C00204600F025F8022009
:1029800084F83D00211D206801F0A8FE012084F894
:10299000460000BF84F83E0001213F200155402041
:1029A00001554120015500BF00BF012084F84200BD
:1029B00043200155442001554520015500BF012009
:1029C00084F83D000020D0E710B586B0044600BF73
:1029D000002000903F48006840F002003D49086038
:1029E0000846006800F00200009000BF00BF00BF72
:1029F0000020009037481438006840F00400354942
:102A0000143908600846006800F00400009000BF18
:102A100000BF4FF4707001900220029001200390DB
:102A200003200490059001A92B48FEF7AFFD00BFDD
:102A3000002000902748001F006840F080002549D2
:102A4000091F08600846006800F08000009000BF81
:102A500000BF00BF002000900846006840F480706E
:102A600008600846006800F48070009000BF00BF56
:102A700000BF0020009017481438006840F0200084
:102A80001449143908600846006800F020000090DE
:102A900000BF00BF48150190022002900120039062
:102AA000032004900920059001A90C48FEF76EFD53
:102AB0004FF48070019002200290012003900320C7
:102AC00004900920059001A90448FEF75FFD06B0B7
:102AD00010BD0000443802400008024000140240CB
:102AE0007047000070B504460D4615B994F83E00D5
:102AF0000BE0042D02D13F20005D06E0082D02D13D
:102B00004020005D01E04120005D012801D001204E
:102B100070BD1DB9022084F83E000EE0042D03D1E3
:102B200002213F20015508E0082D03D10221402059
:102B3000015502E002214120015501222946206869
:102B400001F038FE23492068884203D022492068DA
:102B5000884201D1012000E0002028B12068406CAB
:102B600040F40040216848641A49206888421BD01C
:102B70002068B0F1804F17D018492068884213D0E0
:102B80001749206888420FD01649206888420BD028
:102B900011492068884207D013492068884203D031
:102BA0001249206888420CD12068806800F007062E
:102BB000062E0CD02068006840F0010021680860F3
:102BC00005E02068006840F00100216808600020EE
:102BD0009EE70000000001400004014000040040A6
:102BE00000080040000C0040004001400018004078
:102BF0002DE9F0412DED028B0446434884427DD1FE
:102C00004249434801F00EFD4249434801F01EFD90
:102C100000F038FB41480078032802D106F06EFB33
:102C20006DE03E480078012802D104F067FF66E0BD
:102C30003A480078022802D100F020FD5FE03748D2
:102C4000007804285BD136480068012836D103F0AB
:102C500019FBB0EE408A06F025FB38EE000ABDEE07
:102C6000C00A10EE105A03F0A9FAB0EE408A06F03E
:102C700019FB38EE400ABDEEC00A10EE106A03F0F0
:102C800039FAB0EE408A06F00DFB38EE000ABDEED0
:102C9000C00A10EE107A03F0C9F9B0EE408A06F0CF
:102CA00001FB38EE400ABDEEC00A10EE108A2B463A
:102CB00032463946404602F0C5FE20E003F0E2FA13
:102CC000BDEEC00A10EE105A03F078FABDEEC00A4D
:102CD00010EE106A03F00EFABDEEC00A10EE107A84
:102CE00003F0A4F9BDEEC00A10EE108A2B4632465E
:102CF0003946404602F0A6FE01E0FFE700BFBDEC0A
:102D0000028BBDE8F0810000D80400200200002002
:102D10000000002006000020040000207C000020AD
:102D20009C00002070477047704701460022002336
:102D300091F83D2091F83E3042EA030070470000D0
:102D40002DE9F84F0446206805682068C6682068A9
:102D500047694FF00009CA4605F00F09B9F1000FA5
:102D60000AD105F0200038B106F0200020B120463D
:102D700001F05BFEBDE8F88FB9F1000F72D007F0EB
:102D8000010018B906F4907000286BD005F001001E
:102D900030B106F4807018B1206C40F0010020645E
:102DA00005F0040030B107F0010018B1206C40F0CC
:102DB0000200206405F0020030B107F0010018B1F4
:102DC000206C40F00400206405F0080048B106F0D3
:102DD000200010B907F0010018B1206C40F0080085
:102DE0002064206C70B305F0200028B106F02000AC
:102DF00010B1204601F019FE20684069C0F3801A26
:102E0000206C00F0080010B9BAF1000F23D0204662
:102E100001F0E0FD2068406900F04000402816D134
:102E20002068406920F0400021684861A06B50B1E3
:102E30005648A16B0865A06BFEF77FFB10B1A06B35
:102E4000016D88470CE02046FFF76EFF08E0204642
:102E5000FFF76AFF04E02046FFF766FF00202064CA
:102E600088E7FFE7206B012879D105F010000028E2
:102E700075D006F01000002871D000BF002000902F
:102E800020680068009020684068009000BF00BF84
:102E90002068406900F04000402839D1A06B0068EC
:102EA00040681FFA80F8B8F1000F30D0A08D40457F
:102EB0002DDDA4F82E80A06BC069B0F5807F1FD0F7
:102EC0002068C06820F480702168C860206840696C
:102ED00020F00100216848612068406920F040002E
:102EE00021684861202084F83E000020206320688B
:102EF000C06820F010002168C860A06BFEF7C8FA17
:102F0000A08DE28D801A81B22046FFF70CFF31E7D9
:102F1000A08DE18D401A1FFA80F8E08DE8B1B8F17C
:102F2000000F1AD02068C06820F490702168C86033
:102F30002068406920F0010021684861202084F861
:102F40003E00002020632068C06820F01000216847
:102F5000C86041462046FFF7E6FE0BE7FFE705F0B5
:102F6000800030B106F0800018B1204601F0F5FE77
:102F700000E705F0400030B106F0400018B12046EF
:102F800001F043FDF6E600BFF4E60000C149000889
:102F900010B504460CB9012010BDA06900B100E0D5
:102FA00000BF94F83D0028B9002084F83C0020467A
:102FB00000F028F8242084F83D002068C06820F440
:102FC00000502168C860204601F08EFD206800692D
:102FD00020F49040216808612068406920F02A00B0
:102FE000216848612068C06840F400502168C860CA
:102FF00000202064202084F83D0084F83E0000205A
:10300000CAE7000010B586B004465B4920688842D4
:1030100055D100BF00BF002000905848006840F024
:103020001000564908600846006800F01000009043
:1030300000BF00BF00BF00BF00BF002000904F488E
:103040001438006840F001004C4914390860084603
:10305000006800F00100009000BF00BF00BF00BF8B
:1030600000BF002000900846006840F001000860A2
:103070000846006800F00100009000BF00BF00BFDC
:103080004815019002200290012003900220049034
:103090000720059001A93A48FEF778FA4FF48060BE
:1030A00001900720059001A93548FEF76FFA252009
:1030B000FEF7D3FB032211462520FEF7DEFB314944
:1030C0002068884256D100BF00BF002000902B48E6
:1030D000001F006840F400302849091F08600846B6
:1030E000006800F40030009000BF00BF00BF00BFC8
:1030F00000BF0020009021481438006840F0010013
:103100001E49143908600846006800F0010000906C
:1031100000BF00BF00BF00BF00BF002000900846F6
:10312000006840F0010008600846006800F00100F7
:10313000009000BF00BF00BF042001900220029059
:1031400001200390022004900720059001A90C485B
:10315000FEF71CFA082001900720059001A90848F5
:10316000FEF714FA2620FEF778FB032211462620EC
:10317000FEF783FB06B010BD00100140443802404A
:10318000000002400044004070B504460D4616465B
:1031900094F83E00202816D105B10EB9012070BD6B
:1031A00000BF94F83C00012801D10220F7E701207C
:1031B00084F83C0000BF00202063324629462046A8
:1031C00001F0A8FDEBE70220E9E7000010B5044696
:1031D00025492068884203D12448007801F038FF4F
:1031E0002349206888423DD12248008800F40040ED
:1031F00020BB2048008800F48040A8B11E48007819
:103200000A2803D000201B4908802BE019480088B9
:1032100040F4004017490880C8211848FDF785FA96
:103220000020144908801DE0134800780D2806D1BD
:103230001048008840F480400E49088012E00E4893
:1032400000780C490988C1F30D010C4A5054094813
:103250000088401C0749088008460088C72801DD0F
:103260000020088010BD0000001001403C0000203C
:10327000004400404000002042000020CC03002019
:10328000704700001748007858B3002016E000F19E
:103290003D01154A32F9111000EE101AB8EEC00ABD
:1032A000DFED120A80EE201A9FED110A21EE000ACE
:1032B000104901EB800181ED000A401C0328E6DB88
:1032C0000848007800F0040058B10A4890ED020A5E
:1032D000094880ED000A0348007820F00400014905
:1032E000087070478C0200200AB8012000000047D7
:1032F00000003443CCB601209002002010B50348F2
:1033000001F09AFEFDF71EFC10BD00007546000896
:1033100000BFFEE702E00A2004F04CFFFBE70000DC
:1033200000B58BB0242102A8FDF7FFF90020009022
:1033300001904FF08040184908600020486000214B
:10334000154881604FF6FF71C16000210161816104
:10335000032002900020039001200490002005909B
:1033600006900220079001200890002009900A9002
:1033700002A90948FEF7BAFF08B1FDF7B2FC002028
:103380000090019069460448FEF788FE08B1FDF7F9
:10339000A8FC0BB000BD00006805002000B58BB094
:1033A000242102A8FDF7C1F90020009001901848DF
:1033B00018490860002048600021164881604FF6D7
:1033C000FF71C16000210161816103200290002032
:1033D00003900120049000200590069007900120A2
:1033E0000890002009900A9002A90A48FEF77EFF83
:1033F00008B1FDF776FC0020009001906946054871
:10340000FEF74CFE08B1FDF76CFC0BB000BD0000F0
:1034100000040040B005002000B58BB0242102A8B4
:10342000FDF783F9002000900190184818490860C2
:10343000002048600021164881604FF6FF71C1608E
:10344000002101618161032002900020039001208E
:10345000049000200590069002200790012008901B
:10346000002009900A9002A90948FEF73FFF08B121
:10347000FDF737FC00200090019069460448FEF7F4
:103480000DFE08B1FDF72DFC0BB000BD000800409B
:10349000F805002000B58BB0242102A8FDF745F9FE
:1034A00000200090019018481849086000204860EA
:1034B0000021164881604FF6FF71C1600021016153
:1034C00081610320029000200390012004900020DD
:1034D00005900690079001200890002009900A901E
:1034E00002A90A48FEF702FF08B1FDF7FAFB002027
:1034F0000090019069460548FEF7D0FD08B1FDF740
:10350000F0FB0BB000BD0000000C004040060020A6
:1035100000BFFEE770B504460E46154636B1012ED3
:1035200028D0022E4ED0032E72D172E001204D49D8
:1035300008604D48056000EE104AB8EEC00A4B48DE
:1035400080ED000A00EE104AB8EEC00A484880ED4F
:10355000000A00EE104AB8EEC00A464880ED000AA4
:1035600000EE104AB8EEC00A434880ED000A03F0AE
:10357000EFFA75E001203B4908603B480560604276
:1035800000EE100AB8EEC00A384880ED000A60422A
:1035900000EE100AB8EEC00A354880ED000A60421D
:1035A00000EE100AB8EEC00A324880ED000A604210
:1035B00000EE100AB8EEC00A2F4880ED000A03F0B2
:1035C000C7FA4DE00120274908602748056060429E
:1035D00000EE100AB8EEC00A244880ED000A00EEA2
:1035E000104AB8EEC00A224880ED000A00EE104AE8
:1035F000B8EEC00A1F4880ED000A604200EE100AD3
:10360000B8EEC00A1C4880ED000A03F0A1FA27E0DA
:1036100025E00120134908601348056000EE104AB8
:10362000B8EEC00A114880ED000A604200EE100AB0
:10363000B8EEC00A0E4880ED000A604200EE100AA3
:10364000B8EEC00A0B4880ED000A00EE104AB8EE52
:10365000C00A094880ED000A03F07AFA00E000BFD2
:1036600000BF70BD9C000020A0000020F4000020DE
:10367000F8000020FC0000200001002010B5824866
:1036800000688249B1F9001008447F490860084683
:1036900090ED000AB8EEC00A7D4800F093FFBDEE41
:1036A000C00A10EE100A00B27A4908807A48016810
:1036B0007848B0F9000001F0C1FD00B275490880FA
:1036C0000846B0F9000000EE100AB8EEC00A7348D0
:1036D00080ED000A6D48B0F9000000EE100AB8EE67
:1036E000C00A6E4802F074F9BDEEC00A10EE100A6E
:1036F00000B2684908800846B0F9000000F05EFE9C
:103700006349D1ED000A604991ED000AB8EEC00AA4
:1037100030EE600ABDEEC00A10EE100A03F04AFB5C
:1037200014282EDA9FED5E0A5C4880ED000A5748A7
:10373000B0F9000000EE100AB8EEC00A574802F0D7
:1037400047F9BDEEC00A10EE100A00B251490880D8
:103750000846B0F9000000F031FE00204A49086038
:103760009FED4F0A4A4880ED000A9FED4D0A80ED1B
:10377000010A9FED4B0A80ED020A9FED490A80ED98
:10378000070A484800684849B1F90010084445490B
:103790000860084690ED000AB8EEC00A434800F001
:1037A00011FFBDEEC00A10EE100A00B240490880B9
:1037B000404801683E48B0F9000001F03FFD00B20A
:1037C0003B4908800846B0F9000000EE100AB8EE48
:1037D000C00A394880ED000A3348B0F9000000EE15
:1037E000100AB8EEC00A344802F0F2F8BDEEC00A82
:1037F00010EE100A00B22E4908800846B0F9000009
:1038000000F00CFE2949D1ED000A264991ED000A8D
:10381000B8EEC00A30EE600ABDEEC00A10EE100A23
:1038200003F0C8FA14282EDA9FED1D0A224880ED15
:10383000000A1D48B0F9000000EE100AB8EEC00AF8
:103840001D4802F0C5F8BDEEC00A10EE100A00B225
:10385000174908800846B0F9000000F0DFFD00209D
:10386000104908609FED0E0A104880ED000A9FED98
:103870000C0A80ED010A9FED0A0A80ED020A9FED15
:10388000080A80ED070A10BD540000200000002047
:10389000440C0020500000205C000020B40B0020ED
:1038A000000000005800002002000020680C0020EA
:1038B0005200002060000020D80B0020704700005C
:1038C00070B500240CE0002506E00020074901EB5C
:1038D000C5010855681CC5B2802DF6DB601CC4B25A
:1038E000082CF0DB00F006F970BD0000880600200F
:1038F000F0B5144600267F2801DC3F2900DDF0BD2D
:103900000B46CF1701EB5777FF10C7F10707FAB245
:10391000CF1701EB5777FF10A1EBC707FDB2C5F139
:1039200007070123BB40DEB24CB10A4B03EBC003D7
:103930009B5C3343074F07EBC007BB5408E0054BC4
:1039400003EBC0039B5CB343024F07EBC007BB54C0
:1039500000BFD4E78806002000B587B000BF00BFD5
:10396000002001906148006840F040005F49086015
:103970000846006800F04000019000BF00BF00BF93
:1039800000BF00BF002001900846006840F04000E2
:1039900008600846006800F04000019000BF00BFCA
:1039A00000BF00BF00BF002001900846006840F043
:1039B000400008600846006800F04000019000BF29
:1039C00000BF00BF00BF00BF002001900846006894
:1039D00040F0400008600846006800F04000019098
:1039E00000BF00BF00BF4FF4704002900120039061
:1039F00004900220059002A93D48FDF7C7FD002272
:103A00004FF480413A48FDF7CBFE6420FDF7AAFD54
:103A1000012291033648FDF7C3FE0021AE2000F0DD
:103A20007FFA0021D52000F07BFA0021502000F021
:103A300077FA0021A82000F073FA00213F2000F05F
:103A40006FFA0021D32000F06BFA0021084600F045
:103A500067FA0021402000F063FA00218D2000F079
:103A60005FFA0021142000F05BFA0021202000F012
:103A700057FA0021022000F053FA0021A12000F0A3
:103A80004FFA0021C02000F04BFA0021DA2000F0AC
:103A900047FA0021122000F043FA0021812000F0B3
:103AA0003FFA0021EF2000F03BFA0021D92000F07E
:103AB00037FA0021F12000F033FA0021DB2000F07A
:103AC0002FFA0021302000F02BFA0021A42000F072
:103AD00027FA0021A62000F023FA0021AF2000F0F1
:103AE0001FFAFFF7EDFE07B000BD000030380240BE
:103AF0000018024070B500241CE004F1B001C8B207
:103B0000002100F00DFA0021084600F009FA00211A
:103B1000102000F005FA002508E0084901EBC50176
:103B2000085D012100F0FCF9681CC5B2802DF4DBB2
:103B3000601CC4B2082CE0DB70BD000088060020C9
:103B400038B583A20021142000F0C8F900BF0E2070
:103B500001F006FF4FF4A571484300EB400101EB73
:103B6000C00040F6FF71B0FBF1F084B2642094FB1A
:103B7000F0F50C2002232A4600210090462000F098
:103B800063F9642094FBF0F100FB11450C20022343
:103B90002A4600210090582000F056F96EA200211C
:103BA000642000F09BF96DA21E21142000F096F90C
:103BB0006CA22821142000F091F96CA20A21142093
:103BC00000F08CF96BA21421084600F087F96B48CD
:103BD000006800280EDB6AA20A21412000F07EF96D
:103BE0000C200523009065480A210268462000F059
:103BF0002BF90EE063A20A21412000F06FF90C209E
:103C0000052300905D48006842420A21462000F0EA
:103C10001BF95D48006800280EDB59A214214120E1
:103C200000F05CF90C20052300905748142102682D
:103C3000462000F009F90EE052A21421412000F0C4
:103C40004DF90C20052300904F4800684242142192
:103C5000462000F0F9F84D48006800280EDB48A225
:103C60001E21412000F03AF90C200523009047481E
:103C70001E210268462000F0E7F80EE041A21E2156
:103C8000412000F02BF90C20052300903F480068EC
:103C900042421E21462000F0D7F83D480068002827
:103CA0000EDB37A22821412000F018F90C20052353
:103CB0000090374828210268462000F0C5F80EE041
:103CC00030A22821412000F009F90C2005230090A2
:103CD0002F48006842422821462000F0B5F82DA266
:103CE0003221142000F0FAF82C4890ED000AB5EECD
:103CF000C00AF1EE10FA13DB21A23221412000F0BC
:103D0000EDF80C2005230090244890ED000ABCEE4D
:103D1000C00A10EE102A3221462000F095F814E077
:103D200018A23221412000F0D9F80C200523009080
:103D30001A4890ED000AB1EE400ABCEEC00A10EE3F
:103D4000102A3221462000F07FF8FFF7D3FE38BD5D
:103D5000504F573A00000000560000004C2D626F93
:103D6000733A0000522D626F733A00004C5F706F1F
:103D7000733A0000522D706F733A0000CC0000209F
:103D80002B0000002D000000D0000020D4000020F7
:103D9000D80000207961773A0000000090020020EE
:103DA0002DE9F04F80460C4615461E46A346A5F168
:103DB0002000C5B200273EE00C2E07D105EB4500E0
:103DC0001F4901EB800010F8079004E01D4800EB4C
:103DD000051010F807904FF0000A26E009F0800067
:103DE00028B121464046099AFFF782FD09E009986B
:103DF00008B9012000E00020024621464046FFF7B6
:103E000077FD4FEA49604FEA1069601CC4B2A4EB29
:103E10000B00B04205D15C4608F1010000F0FF083C
:103E200006E00AF1010000F0FF0ABAF1080FD5DB45
:103E300000BF781CC7B2B742BEDBBDE8F08F000000
:103E4000589D0008CCA100082DE9FF4F81B007461E
:103E500091461E460E9D4FF0000A002439E0301BAB
:103E6000401EC1B20A2002F0B7FFB9FBF0F00A21F0
:103E7000B0FBF1F201FB1208BAF1000F16D1701E6F
:103E8000A04213DDB8F1000F0ED10120AB4605EBC7
:103E9000DB71491001FB04710090C8B22B4620224F
:103EA0000299FFF77DFF12E04FF0010A0120AB46B7
:103EB00005EBDB71491001FB04710090C8B208F1F9
:103EC0003001CAB22B460299FFF76AFF00BF601C9F
:103ED000C4B2B442C3DB05B0BDE8F08FF8B5054607
:103EE0000E46144618E07A2D03DD002506F1100079
:103EF000C6B23A2E04DD002005460646FFF7E0FC78
:103F00000120009022780C2331462846FFF748FF15
:103F100005F10800C5B2641C20780028E3D1F8BD83
:103F200070B504460E462EB10122D1031848FDF7A4
:103F300037FC05E000224FF400411548FDF730FC46
:103F400000251DE000224FF480511148FDF728FCA8
:103F500004F0800028B1012251030D48FDF720FC38
:103F600005E000224FF400510948FDF719FC012239
:103F700011030748FDF714FC6006040E681CC5B267
:103F8000082DDFDB0122D1030148FDF709FC70BDDC
:103F90000018024010B52DED0A8B9FEDE00AE048B5
:103FA00080ED000A9FEDDD0A80ED080A9FEDDB0A37
:103FB00080ED010A9FEDD90A80ED020A9FEDD70A34
:103FC00080ED070A9FEDD70A80ED040A9FEDD60A1F
:103FD00080ED050A9FEDD50A80ED060A9FEDCF0A18
:103FE000D34880ED000A9FEDCD0A80ED080A9FEDD1
:103FF000CB0A80ED010A9FEDC90A80ED020A9FED10
:10400000C70A80ED070A9FEDCB0A80ED040A9FEDF9
:10401000CA0A80ED050A9FEDC50A80ED060A9FEDEC
:10402000BF0AC64880ED000A9FEDBC0A80ED080A71
:104030009FEDBA0A80ED010A9FEDB80A80ED020AF1
:104040009FEDB60A80ED070A90ED010ABDEEC00AA9
:1040500010EE104A002C01DB214600E061420846C8
:1040600005F058FC41EC1C0B9FEDB50B53EC102BED
:1040700005F068FC41EC1B0B9FEDB30B53EC102BD0
:1040800005F000FA41EC1A0BB0EE4A0AF0EE6A0AAB
:1040900001F006FBB0EE409AF0EE609A9FEDAC0B9B
:1040A00053EC102B51EC190B05F04CFC41EC180BA8
:1040B00005F0B6F9A14908619FEDA70A084680ED11
:1040C000050A9FED960A80ED060A9FED940AA34823
:1040D00080ED000A9FED910A80ED080A9FED8F0A9E
:1040E00080ED010A9FED8D0A80ED020A9FED8B0A9B
:1040F00080ED070A084690ED010ABDEEC00A10EEF9
:10410000104A002C01DB214600E06142084605F020
:1041100001FC41EC1C0B9FED8A0B53EC102B05F0BE
:1041200011FC41EC1B0B9FED880B53EC102B05F0A1
:10413000A9F941EC1A0BB0EE4A0AF0EE6A0A01F056
:10414000AFFAB0EE409AF0EE609A9FED810B53EC1F
:10415000102B51EC190B05F0F5FB41EC180B05F099
:104160005FF97E4908619FED7C0A084680ED050AEB
:104170009FED6A0A80ED060A9FED680A784880ED97
:10418000000A9FED660A80ED080A9FED640A80ED43
:10419000010A9FED620A80ED020A9FED600A80ED40
:1041A000070A664890ED010ABDEEC00A10EE104AFB
:1041B000002C01DB214600E06142084605F0AAFB25
:1041C00041EC1C0B9FED5E0B53EC102B05F0BAFB82
:1041D00041EC1B0B9FED5C0B53EC102B05F052F9DF
:1041E00041EC1A0BB0EE4A0AF0EE6A0A01F058FAF6
:1041F000B0EE409AF0EE609A9FED550B53EC102B09
:1042000051EC190B05F09EFB41EC180B05F008F979
:10421000534908619FED500A084680ED050A9FED5D
:104220003F0A80ED060A9FED3D0A4E4880ED000AE8
:104230009FED3A0A80ED080A9FED380A80ED010AE9
:104240009FED360A80ED020A9FED340A80ED070AE1
:104250003A4890ED010ABDEEC00A10EE104A002C5B
:1042600001DB214600E06142084605F053FB41ECCA
:104270001C0B9FED330B53EC102B05F063FB41EC53
:10428000180B9FED310B53EC102B05F0FBF841ECB4
:10429000190BB0EE490AF0EE690A01F001FAB0EE2E
:1042A00040BAF0EE60BA9FED2A0B53EC102B51ECA4
:1042B0001B0B05F047FB41EC1A0B05F0B1F829493F
:1042C00008619FED250A084680ED050A9FED130A57
:1042D00080ED060A9FED110A234880ED000A9FED4C
:1042E0000F0A80ED080A9FED0D0A80ED010A9FED8F
:1042F0000B0A80ED020A9FED090A80ED070A9FED87
:104300001B0A80ED040A9FED050A80ED050A9FED6A
:10431000090A80ED060ABDEC0A8B10BD0000000002
:10432000440C00206666264052491D3AEC51383E46
:10433000680C00209A99193F17B7D138B40B0020A8
:104340003333333333331B4000000000000024407C
:104350009A9999999999F13F9A99993ED80B002089
:10436000FC0B0020200C00208C0C0020CDCC8C3FBE
:1043700070B505460C460E480E4908600846446074
:1043800000218160C5600161FEF7EBFA60200A49F7
:10439000086040F214504860002088600022054800
:1043A000FEF761FA00210348FEF79CFB70BD000098
:1043B00000200040EC0A0020340B002010B5044619
:1043C000002C13DD00BF002201211348FDF7E8F99E
:1043D00000BF00BF012202210F48FDF7E1F900BF35
:1043E000542104FB01F000F0D3FA13E000BF0122D6
:1043F00011460948FDF7D4F900BF00BF0022022191
:104400000548FDF7CDF900BF6142542201FB02F0DF
:1044100000F0BEFA10BD00000018024010B50446BE
:10442000002C13DD00BF012204211348FDF7B8F969
:1044300000BF00BF002208210F48FDF7B1F900BFFF
:10444000542104FB01F000F0A9FA13E000BF0022A0
:1044500004210948FDF7A4F900BF00BF012208218B
:104460000548FDF79DF900BF6142542201FB02F0AF
:1044700000F094FA10BD00000018024010B5044688
:10448000002C13DD00BF002220211348FDF788F91E
:1044900000BF00BF012240210F48FDF781F900BF96
:1044A000542104FB01F000F07FFA13E000BF012269
:1044B00020210948FDF774F900BF00BF0022402108
:1044C0000548FDF76DF900BF6142542201FB02F07F
:1044D00000F06AFA10BD00000018024010B5044652
:1044E000002C14DD00BF012280211348FDF758F98C
:1044F00000BF00BF00224FF480710F48FDF750F954
:1045000000BF542104FB01F000F054FA13E000BF97
:10451000002280210848FDF743F900BF00BF0122B7
:1045200011020548FDF73CF900BF6142542201FB2E
:1045300002F000F03FFA10BD0018024070B50446CA
:104540000D461D481D4908600846456000218160F0
:10455000C4600161FEF705FA602019490860204631
:1045600004EBD0714910164A516000201146886052
:1045700000221248FEF777F9042211490F48FEF78E
:1045800072F908220E490D48FEF76DF90C220C490C
:104590000A48FEF768F900210848FEF7A3FA04214B
:1045A0000648FEF79FFA08210448FEF79BFA0C2103
:1045B0000248FEF797FA70BD00040140880A002007
:1045C000D00A0020F0EE400A90ED000A30EE600ABA
:1045D00080ED010A90ED070A90ED011A30EE010A14
:1045E00080ED070A90ED040A90ED011A20EE010A11
:1045F00090ED051AD0ED071A01EE210A90ED011A8F
:10460000D0ED021A31EE611AD0ED061A01EE810AE0
:1046100080ED080A90ED010A80ED020A90ED080A8B
:10462000704700004FF08042526A12B202800022AE
:104630004FF080435A62044A126812B20A80002284
:10464000014B1A607047000024040040074A1268BA
:1046500012B202800022054B1A60054A126812B29B
:104660000A800022024B1A6070470000240C0040B0
:104670002408004010B5002207E0054B1B7843F0EA
:104680000403034C2370401C521C8A42F5D310BD16
:104690008C02002010B5FDF795F804F0BBFA012854
:1046A00001D004F081F810BD0348006840F47000A8
:1046B000014908607047000088ED00E010B502482D
:1046C000FEF705F810BD00002005002010B50248D7
:1046D000FDF7FDFF10BD0000D804002010B50268F2
:1046E000294B98420ED0B0F1804F0BD0274B984207
:1046F00008D0274B984205D0264B984202D0264B33
:10470000984203D122F070024B681A431E4B984224
:1047100020D0B0F1804F1DD01C4B98421AD01C4BBA
:10472000984217D01B4B984214D01B4B984211D083
:104730001A4B98420ED01A4B98420BD0194B984204
:1047400008D0194B984205D0184B984202D0184B0C
:10475000984203D122F44072CB681A4322F08003BE
:104760004C6943EA040202608B68C3620B6883628F
:10477000054B984202D0084B984201D10B69036364
:104780000123436110BD000000000140000400400F
:1047900000080040000C00400004014000400140BF
:1047A000004401400048014000180040001C004047
:1047B0000020004030B501F01F05012404FA05F384
:1047C000046A9C430462046A01F01F0502FA05F5BD
:1047D0002C43046230BD000030B5056A25F00105A8
:1047E0000562026A4368846924F0700424F00304BB
:1047F0000D682C4322F002028D682A43104DA84216
:1048000000D103E00F4DA84206D100BF22F00802FC
:10481000CD682A4322F00402094DA84202D0094D76
:10482000A84207D123F4807323F400734D692B430E
:104830008D692B43436084614D684563026230BDDE
:10484000000001400004014030B5056A25F0100564
:104850000562026A4368846924F4E04424F44074E5
:104860000D6844EA052422F020028D6842EA051210
:10487000124DA84200D103E0114DA84207D100BF5C
:1048800022F08002CD6842EA051222F040020B4D70
:10489000A84202D00A4DA84209D123F4806323F430
:1048A00000634D6943EA85038D6943EA85034360EC
:1048B00084614D688563026230BD000000000140E4
:1048C0000004014030B5056A25F480750562026A6E
:1048D0004368C46924F0700424F003040D682C4379
:1048E00022F400728D6842EA0522124DA84200D1DE
:1048F00003E0114DA84207D100BF22F40062CD6849
:1049000042EA052222F480620A4DA84202D00A4DF2
:10491000A84209D123F4805323F400534D6943EA9C
:1049200005138D6943EA05134360C4614D68C5638F
:10493000026230BD000001400004014030B5056A4C
:1049400025F480550562036A4468C26922F4E04296
:1049500022F440720D6842EA052223F400538D6868
:1049600043EA0533084DA84202D0084DA84204D1BD
:1049700024F480444D6944EA85144460C2614D6862
:104980000564036230BD00000000014000040140E6
:104990000149086070470000340401400149086083
:1049A000704700003804014001490860704700006A
:1049B0003C04014001490860704700004004014088
:1049C00070B50546AC6B0020E085E0842046FEF71C
:1049D000ABF970BD0168C96821F490710268D160BB
:1049E0000168496921F0010102685161016B0129E7
:1049F00005D10168C96821F010010268D160202149
:104A000080F83E1000210163704710B5044620680D
:104A1000C06820F040002168C860202084F83D0074
:104A20002046FEF72DFC002010BD70B5044694F81A
:104A30003E00222856D1A068B0F5805F0CD12069D5
:104A400050B90025A66A20684068C0F3080030808D
:104A5000A06A801CA06215E0A56A0026A068B0F5D7
:104A6000805F03D0A06828B9206918B92068406821
:104A7000287004E02068406800F07F002870A06A79
:104A8000401CA062E08D401E80B2E08540BB2068E3
:104A9000C06820F020002168C8602068C06820F449
:104AA00080702168C8602068406920F0010021689A
:104AB0004861202084F83E00206B01280AD120683C
:104AC000C06820F010002168C860A18D2046FEF764
:104AD0002AF902E02046FEF779FB0020206370BD32
:104AE0000020FCE70220FAE72DE9F84F0446206891
:104AF000006920F44050E168084321680861216999
:104B0000A068084361690843E16908430090206890
:104B1000C06849F20C618843009908432168C86065
:104B20002068406920F44070A16908432168486109
:104B300076492068884203D075492068884203D1AD
:104B4000FCF7C6FF814602E0FCF7B2FF8146E06950
:104B5000B0F5004F6CD102206168A0FB0150034604
:104B60001920A9FB007001462A463846FBF70BFCCA
:104B70006421B0FBF1F04FEA001A02206168A0FB4B
:104B800001510B461920A9FB00712A463846FBF754
:104B9000FAFB834602206168A0FB015003461920FE
:104BA000A9FB00712A463846FBF7EDFB6421B0FBF8
:104BB000F1F000EBC00101EB0010ABEB8000322103
:104BC00001EBC0006421B0FBF1F000F0F8000AEB4B
:104BD000400A02206168A0FB015003461920A9FB8E
:104BE000007001462A463846FBF7CDFB834602207B
:104BF0006168A0FB015003461920A9FB00712A46F9
:104C00003846FBF7C0FB6421B0FBF1F000EBC001BC
:104C100001EB0010ABEB8000322101EBC0006421FE
:104C2000B0FBF1F000F007005044216888606AE0B2
:104C300004206168A0FB015003461920A9FB007005
:104C400001462A463846FBF79EFB824604206168EF
:104C5000A0FB015003461920A9FB007001462A461B
:104C60003846FBF790FB6421B0FBF1F000EBC0018C
:104C700001EB0010AAEB8000322101EB001064214F
:104C8000B0FBF1F000F0F00A04206168A0FB0170B5
:104C900003461920A9FB00513A462846FBF773FB4F
:104CA0006421B0FBF1F00AEB001A04206168A0FB5C
:104CB00001510B461920A9FB00712A463846FBF723
:104CC00062FB834604206168A0FB01500346192063
:104CD000A9FB007001462A463846FBF754FB6421C5
:104CE000B0FBF1F000EBC00101EB0010ABEB80007A
:104CF000322101EB00106421B0FBF1F000F00F0055
:104D0000504421688860BDE8F88F00000010014021
:104D10000014014010B5034699629A85DA85002097
:104D20001864222083F83E0000BF002083F83C0076
:104D300000BF1868C06840F480701C68E0601868A4
:104D4000406940F001001C6860611868C06840F06C
:104D500020001C68E060002010BD014691F83D0075
:104D6000212828D18868B0F5805F0BD1086948B93F
:104D70000A6A1088C0F308000B685860086A801C33
:104D8000086205E00B6A581C086218780B685860C6
:104D9000C88C401E80B2C88458B90868C06820F02A
:104DA00080000B68D8600868C06840F040000B685D
:104DB000D860002070470220FCE7000070B5002496
:104DC0000F4D1048FDF7BCFF00BF03E0641CAC4270
:104DD00000D904E00B48FDF7A8FF2028F6D100BF5A
:104DE000002403E0641CAC4200D906E0012206491D
:104DF0000448FEF7C9F90028F4D100BF70BD0000D7
:104E0000FFFF0100880300203C00002070B5002453
:104E10000F4D1048FDF794FF00BF03E0641CAC4247
:104E200000D904E00B48FDF780FF2028F6D100BF31
:104E3000002403E0641CAC4200D906E001220649CC
:104E40000448FEF7A1F90028F4D100BF70BD0000AE
:104E5000FFFF0100940400204200002000BFFEE795
:104E60002DE9FC4104460D466019902803D36FF0EC
:104E70000500BDE8FC816748006807287ED2DFE8AE
:104E800000F007285E8204275D006FF00500F0E760
:104E9000042D02D96FF00500EBE75F48006810B9F8
:104EA0006FF00400E5E7FF208DF80000AA208DF8E0
:104EB000010027208DF80200E0B28DF80300200ADF
:104EC0008DF8040005216846534A126890479CE01B
:104ED00000BF5148006810B96FF00400C9E74FF6F1
:104EE000FF7000EA4506701DB0F5807F02DD6FF0AF
:104EF0000300BEE7494800788DF8000003208DF8D4
:104F00000100200A8DF80200E0B28DF80300280AA3
:104F10008DF80400E8B28DF805000621684600F01F
:104F200095F9064630128DF80600F0B28DF80700AC
:104F300008216846384A1268904766E000BF032D92
:104F400002D96FF0050094E73548006810B96FF09A
:104F500004008EE7FF208DF80000AA208DF80100E4
:104F600027208DF80200E0B28DF80300200A8DF8AA
:104F70000400052269462948007800E042E0284BF9
:104F80001B68984741E02748006810B96FF004009B
:104F90006FE74FF6FF7000EA4506B6F5807F02DD49
:104FA0006FF0030065E7E1B21C4A12785206100E5A
:104FB00033461D4ADFF86CC0DCF800C0E04701282A
:104FC0001FD11A48006810B96FF0040051E700279C
:104FD00010E0154810F81700012101EB4701124AB3
:104FE000515C40EA012000B23919114A22F811003F
:104FF000781C87B2AF42ECD3294620460B4A126890
:10500000904702E06FF0050033E700BF09480460F5
:1050100000202EE7B802002098020020B0020020F5
:10502000A4020020A00200200AB70120A80200204C
:105030000AB80120BC020020014611B96FF005003A
:105040007047024801600020FAE70000A802002033
:105050002DE9FC4180467348006808B9BDE8FC8131
:10506000714801680068401C6F4A10606F4800F882
:1050700001806F48006807285AD2DFE800F0055B1E
:10508000C2C3045AC10000BF6848007855280CD03C
:1050900065480068401E6449086008466349491C29
:1050A0000268481EFBF7F4FAD8E75F4800680B284F
:1050B0003ED30A215D4800F0E5F807465B48807A58
:1050C000B8420CD058480068401E5749086008464E
:1050D0005649491C0268481EFBF7DAFABEE75348F6
:1050E00080785249C97840EA0120ADF800004F4865
:1050F00000794E49497940EA0120ADF802004B4859
:1051000080794A49C97940EA0120ADF8040047484E
:10511000007A4649497A40EA0120ADF80600434941
:10512000487804226946FBF763FD00203E49086089
:105130006CE000BF3C480068022860D93B484078DA
:1051400003280CD038480068401E374908600846DC
:105150003649491C0268481EFBF79AFA7EE7334835
:105160008078401D30490968884200D976E72E488A
:105170000068401E2D49095C2B480068801E2B4AA0
:10518000105C41EA002528480088801E81B2104644
:1051900000F05CF80646B5420CD023480068401E7B
:1051A0002149086008462149491C0268481EFBF74E
:1051B0006FFA53E71D4880784510002414E004205E
:1051C00000EB44001949085C032101EB4401174A34
:1051D000515C40EA012000B2164909682144164A90
:1051E00022F81100601C84B2AC42E8DB2946114869
:1051F00000680C4A1268904700200B49086005E0DF
:1052000000BF00BF00200849086000BF00BF06487B
:105210000068B0F5807F02D100200349086000BF1C
:105220001CE70000A8020020B40200200AB70120F9
:10523000B8020020BC0200200AB801204A42904275
:1052400000DA4842884200DD0846704770B50346E0
:105250000C46FF25FF26002200BF00BF09E0985C36
:1052600080EA05010548405C80EA06050448465C82
:10527000521CA242F3DB46EA052070BD2CAA0008AE
:105280002CAB000810B502460B460020002103E0BD
:10529000545C0444E0B2491C9942F9D310BD0000AB
:1052A00002480068C0F30220704700000CED00E0E7
:1052B00010B5002804DB0A07130E054A135406E054
:1052C0000A07140E034A00F00F031B1FD45410BD2D
:1052D00000E400E018ED00E070B5D94B00242DED9E
:1052E000020B2DED108BDDE91010984205DA20F04D
:1052F00000429A4201D809D141B19DED100BBDEC9D
:10530000108B02B0BDE8704000F0F6BAB0F5801F17
:1053100026DA11430BD0002813DA0120FBF735FA07
:10532000BDEC108B02B0BDE8704000F0F1BA022075
:10533000FBF72BFA00F0C8FA51EC100B04F064F8FC
:105340009EE06FF035049FEDC00B53EC102B9DEDEC
:10535000100B51EC100B04F0F5FACDE910010846E2
:1053600004EB2051C0F31304B948A1F2FF312044EB
:1053700000F4801080F07F6282F04052224301EB03
:1053800020559FEDB50B119253EC102B9DED100B9A
:1053900051EC100B04F0E0FB41EC180BA01CC0F327
:1053A00013009FEDAFDB9FEDB0EBB14E7E440328C1
:1053B0006CD296ED000B51EC180B53EC102B04F053
:1053C0006DFA1DD1002D01BF96ED000BBDEC108BC9
:1053D00002B070BD284604F09DFA41EC180B53EC66
:1053E0001D2B04F0AFFA41EC190B53EC1E2B51ECC2
:1053F000180B04F0A7FA53EC192B04F043F83FE024
:105400009FED9D0B51EC180B53EC102B04F09AFA06
:105410009FED9B1B53EC112B04F092FB41EC190BFD
:1054200053EC182B51EC180B04F08CFA53EC192B9D
:1054300004F088FA41EC190B002D04BF53EC192B32
:1054400051EC180B1AD0284604F064FA41EC1A0B00
:1054500053EC1D2B04F076FA53EC192B04F070FB7F
:1054600053EC182B04F078FB41EC180B53EC1E2B7B
:1054700051EC1A0B04F066FA53EC182B04F06CFB99
:10548000BDEC108B02B041EC100B70BD9FED7E0B9C
:1054900051EC180B53EC102B03F0F4FF41EC100B04
:1054A00051EC180B53EC102B04F0A0F841EC190B45
:1054B000284604F02FFA41EC1B0B53EC192B51EC4E
:1054C000190B04F03FFA41EC1A0B714853EC1A2BFC
:1054D000261851EC1A0B04F035FA41EC1F0B6D48FD
:1054E000C4F1510404F5D724B0EE4F0AF0EE6F0A70
:1054F0000321784400F06CF953EC1F2B51EC100B96
:1055000004F020FA41EC1C0B6348B0EE4F0AF0EEB9
:105510006F0A0421784400F05BF953EC1A2B51EC2C
:10552000100B04F00FFA344353EC1C2B03F0AAFFCA
:1055300041EC1C0B002C4CDD9FED510B51EC180B7A
:1055400053EC102B04F0FEF953EC182B04F0FAF98D
:1055500041EC1A0B55B353EC1D2B51EC1B0B04F013
:10556000F1F941EC1D0B53EC1C2B51EC1A0B03F021
:1055700089FF53EC192B04F0E5F953EC1D2B03F0D4
:1055800081FF53EC1A2B04F0DBFA53EC182B04F0D8
:10559000E3FA41EC180B53EC1E2B51EC1B0B04F0FF
:1055A000D1F953EC182B04F0D7FA69E753EC1C2B14
:1055B00051EC1A0B03F066FF53EC192B04F0C2F9FF
:1055C00053EC1A2B04F0BCFA53EC182B04F0B8FA85
:1055D00056E735B353EC1D2B51EC1B0B04F0B2F91D
:1055E00041EC1A0B53EC1C2B51EC180B04F0B4FAE1
:1055F00053EC192B04F0A6F953EC1A2B04F0ACFA77
:1056000053EC182B04F0A8FA41EC180B53EC1E2BAA
:1056100051EC1B0B04F096F953EC182B04F09CFA98
:105620002EE753EC1C2B51EC180B04F095FA53ECBD
:10563000192B04F087F953EC182B04F081FA1FE7BB
:105640000000F07F00000000000000000000504358
:10565000645F090000000000000000000000F03F4F
:10566000763C7935EF39EA3D0000E0FE422EE63F18
:10567000C858000000000000555555555555D53FF8
:10568000000000000000E03F0000000000000040BB
:1056900086EBF9FF4A570000405700000000000069
:1056A00070B5414A00252DED020B2DED048BDDE98F
:1056B0000404944205DA24F00041914201D809D152
:1056C00040B19DED040BBDEC048B02B0BDE8704011
:1056D00000F012B9B4F5801F26DA08430BD0002C75
:1056E00013DA0120FBF751F8BDEC048B02B0BDE8E2
:1056F000704000F00DB90220FBF747F800F0E4F825
:1057000051EC100B03F080FE46E09FED290B6FF08B
:10571000350553EC102B9DED040B51EC100B04F0F0
:1057200011F9CDE904010C4605EB2450A0F2FF303D
:10573000C10F40F2FF32521A62F31F54084404F0C2
:10574000E9F805949DED040B41EC180B51EC100B9E
:1057500001F02EF89FED181B53EC112B04F0F2F81A
:105760009FED170B41EC190B53EC102B51EC180B60
:1057700004F0E8F853EC192B03F084FE9FED120BB4
:1057800041EC190B53EC102B51EC180B04F0DAF828
:1057900053EC192B03F076FEBDEC048B02B041EC08
:1057A000100B70BD000000000000F07F0000000042
:1057B00000000000000050430EE526157BCBDB3FC8
:1057C000362BF111F3FE593D00609F501344D33F37
:1057D00070B504462DED028B4D1E00EBC500B0EEFA
:1057E000408AF0EE608A90ED000B35F0060017D08D
:1057F00053EC182B51EC100B04F0A4F841EC100BF7
:105800006D1E04EBC50090ED001B51EC100B53EC2A
:10581000112B03F037FE41EC100B35F00600E7D1F9
:10582000022D36D0042D1CD0062D1CBFBDEC028BE2
:1058300070BD53EC182B51EC100B04F083F894ED71
:105840000A1B53EC112B03F01DFE53EC182B04F034
:1058500079F894ED081B53EC112B03F013FE41EC87
:10586000100B53EC182B51EC100B04F06BF894ED6B
:10587000061B53EC112B03F005FE53EC182B04F020
:1058800061F894ED040B53EC102B03F0FBFD41EC9D
:10589000100B53EC182B51EC100B04F053F894ED53
:1058A000021B53EC112B03F0EDFD53EC182B04F00D
:1058B00049F894ED001B53EC112B03F0E3FDBDEC14
:1058C000028B41EC100B70BD9FED070B10B553EC34
:1058D000102B9FED070B51EC100B03F087FE41ECF2
:1058E000100B10BD000000000000000000000000D0
:1058F000000000000000F03F10B553EC102B51ECFD
:10590000100B03F0BFFD41EC100B10BD00000000B8
:105910009FED050B10B553EC102B51EC100B03F061
:1059200065FE41EC100B10BD0000000000000000FF
:1059300030380A2801D2012070470020704700BF8C
:1059400070472DE9FF4107460C4615461E46009458
:105950000195029669463846FBF74EFBBDE8FF818C
:1059600010B504460723012221460748FFF7E9FF47
:105970000548FBF7E7FC0A210348FBF77BFC0248DC
:10598000FBF700FC80B210BDB00C002010B50D4834
:105990000D4908604FF48030486000210A4881605A
:1059A000C160016101760121C161002180F82010F0
:1059B0004162064981620021C16280F83010FBF724
:1059C000E5FB10BD00200140B00C00200100000FDD
:1059D000F0EE400A90ED000A30EE600A80ED010A18
:1059E00090ED010A90ED021A30EE410A90ED041A92
:1059F00020EE010A90ED051AD0ED011A01EE210A00
:105A000090ED011AD0ED021AB0EE002A02EE611AF2
:105A1000D0ED031A31EE211AD0ED061A01EE810AFB
:105A200090ED081A30EE010A80ED080A90ED020AA6
:105A300080ED030A90ED010A80ED020A90ED080A5C
:105A4000704700002DE9F04104460D4616461F46FA
:105A500000EE104AB8EEC00A2E4880ED000A00EEB3
:105A6000105AB8EEC00A2C4880ED000A00EE106A09
:105A7000B8EEC00A294880ED000A00EE107AB8EEB0
:105A8000C00A274880ED000A2648B0F9000000EE61
:105A9000100AB8EEC00A1F48FFF79AFFBDEEC00A11
:105AA00010EE108A4046FEF789FC1F48B0F900004E
:105AB00000EE100AB8EEC00A1748FFF789FFBDEEE6
:105AC000C00A10EE108A4046FEF7A8FC1748B0F94D
:105AD000000000EE100AB8EEC00A1048FFF778FF89
