:020000040800F2
:1000000008BE01204D030008E1540008413F0008EC
:1000100035510008C91A0008896600080000000070
:100020000000000000000000000000008D02000839
:10003000BD1B000800000000E9020008C15E0008C6
:1000400071030008710300087103000871030008C0
:1000500071030008710300087103000871030008B0
:1000600071030008710300087103000871030008A0
:100070007103000871030008710300087103000890
:100080007103000871030008710300087103000880
:100090007103000871030008710300087103000870
:1000A0007103000871030008710300087103000860
:1000B0007103000871030008710300087103000850
:1000C0007103000871030008710300087103000840
:1000D00071030008E965000839660008710300082B
:1000E0007103000871030008710300087103000820
:1000F0007103000871030008710300087103000810
:1001000071030008710300087103000871030008FF
:100110007103000871030008E95E0008F95E000839
:1001200071030008710300087103000871030008DF
:1001300071030008710300087103000871030008CF
:1001400071030008710300087103000871030008BF
:1001500071030008710300087103000871030008AF
:10016000710300087103000871030008710300089F
:10017000710300087103000871030008000000000B
:10018000710300087103000800F002F800F06FF836
:100190000AA090E8000C82448344AAF10107DA45E2
:1001A00001D100F064F8AFF2090EBAE80F0013F0C5
:1001B000010F18BFFB1A43F001031847800201002A
:1001C000A00201000A444FF0000C10F8013B13F0AC
:1001D000070408BF10F8014B1D1108BF10F8015BA0
:1001E000641E05D010F8016B641E01F8016BF9D193
:1001F00013F0080F1EBF10F8014BAD1C0C1B09D1EA
:100200006D1E58BF01F801CBFAD505E014F8016B5B
:1002100001F8016B6D1EF9D59142D6D370470000ED
:100220000023002400250026103A28BF78C1FBD8FF
:10023000520728BF30C148BF0B60704766290DF0D8
:10024000C082642900F07A81732900F09185002032
:1002500070471FB50DF0ABFA00F0F4FD040000206C
:1002600000210CF08BFDE0601FBD10B510BD00F04B
:10027000F1FE1146FFF7EDFF08F07AFF00F00FFFE7
:1002800003B4FFF7F2FF03BC06F089FF2C4B19689B
:100290000868B0E8F04F80F30988BFF36F8F4FF024
:1002A000000080F3118870470000000008480068D3
:1002B000006880F308884FF0000080F3148862B66D
:1002C00061B6BFF34F8FBFF36F8F00DF00BF00BF7A
:1002D00008ED00E0DFF80C00016841F470010160F6
:1002E000704700BF88ED00E0EFF30980BFF36F8F28
:1002F000134B1A681EF0100F08BF20ED108A20E97A
:10030000F04F106009B44FF0500080F31188BFF334
:100310004F8FBFF36F8F0BF0CFFD4FF0000080F3D6
:10032000118809BC19680868B0E8F04F1EF0100F7A
:1003300008BFB0EC108A80F30988BFF36F8F704755
:100340000C020020EFF30580704700000C480168A4
:1003500041F4700101600B4880470B480047FEE7FD
:10036000FEE7FEE7FEE7FEE7FEE7FEE7FEE7FEE765
:10037000FEE7000005480649044A064B70470000A6
:1003800088ED00E0D55E00088901000808BA012068
:1003900008BE012008BA0120704753EA020C00F0A1
:1003A00069802DE9F04B4FF00006002B1FBFB3FA18
:1003B00083F503FA05F424FA05F65E4012BF1643EE
:1003C000B2FA82F502FA05F4C5F120051EBF22FA41
:1003D00005FC44EA0C04203556EA044C4FEA144468
:1003E00018BF641C4FF000084FF00009904271EBF9
:1003F000030C39D3002919BFB1FA81F701FA07F6C6
:10040000B0FA80F700FA07F6C7F120071EBF20FAFE
:1004100007FC46EA0C062037B6FBF4FCA7EB050701
:10042000103F07F01F0BCBF120060CFA0BFB2CFA48
:1004300006F644BFB3460026202FA4BF5E464FF009
:10044000000B5BEA060C08BF4FF0010B19EB0B0920
:10045000ABFB027C48EB0608C01B06FB02CC0BFB87
:1004600003CC71EB0C01C1E70B46024641464846FE
:10047000BDE8F08B13B54FF000004FF00001AFF373
:100480000080BDE81C40704710B54C1084EA53044E
:1004900004D54042C1F1000138BF491E1B4204D5BA
:1004A0005242C3F1000338BF5B1EFFF776FF14F022
:1004B000804F04D04042C1F1000138BF491E14F002
:1004C000004F04D05242C3F1000338BF5B1E10BD81
:1004D0000FB4044910B503AA029800F04DFC10BCFB
:1004E0005DF814FB2C00002070B50C460546012A6F
:1004F00005D02878800600D5EA69002302E00123B0
:1005000005E05B1C934202D2E05C0028F9D1A869A7
:10051000E618C01AA861286A184428622846AFF372
:10052000008004E0D5E9012114F8010B9047B442A2
:10053000F8D32846AFF3008070BD00002DE9F041EC
:100540000646002410687529314616A510D0AFF371
:100550000080002802DA404213A507E031688A07CC
:1005600001D512A502E0490704D511A5012401E037
:10057000AFF3008000210A2206F1240709E0B0FB56
:10058000F2FCB0FBF2F302FB1C003030785418464A
:10059000491C0028F3D123462A463046BDE8F041E5
:1005A00000F053B9000000002D0000002B000000F7
:1005B000200000002DE9F05F894604464FF0000A54
:1005C000DFF824B1FB44C0F820A02046E16888474A
:1005D00000287DD0252806D0D4E901219047206A43
:1005E000401C2062F1E700255F462046E16888470D
:1005F0002028064607DB312E05D2B81910F8200C4A
:1006000008B10543F1E7A80701D525F00405C4F8B2
:100610001CA00027C4F818A02A2E09D0304606F0E6
:10062000B7FD38B304EB8708303EC8F8186019E00E
:1006300059F8041B204604EB87029161E168884762
:10064000012F064618D1E069002820DA25F02005A0
:100650001DE0D8F8180000EB800006EB40003038B1
:10066000C8F818002046E1688847064606F090FD65
:100670000028EED1012F0AD02E2E08D12046E168A5
:1006800088477F1C0646022F45F02005C4DBA06981
:10069000002803DA404245F00105A061E80701D0D7
:1006A00025F01005A6B1A6F14100192802D8203680
:1006B00045F400654A463146204625604D46FFF721
:1006C000BDFD60B1012807D0ED1D25F0070000E059
:1006D00007E000F1080978E705F1040975E73046FD
:1006E0007AE7206ABDE8F09F3AFD000040EA010386
:1006F00010B59B070FD1042A0DD310C808C9121FCB
:100700009C42F8D020BA19BA884201D9012010BD04
:100710004FF0FF3010BD1AB1D30703D0521C07E0D1
:10072000002010BD10F8013B11F8014B1B1B07D135
:1007300010F8013B11F8014B1B1B01D1921EF1D1A6
:10074000184610BD032A40F2308010F0030C00F070
:10075000158011F8013BBCF1020F624498BF11F8FB
:1007600001CB00F8013B38BF11F8013BA2F10402B4
:1007700098BF00F801CB38BF00F8013B11F003032C
:1007800000F00C83083AC0F0088051F8043B083AA6
:1007900051F804CBA0E80810F5E7121D5CBF51F832
:1007A000043B40F8043BAFF30080D20724BF11F8AC
:1007B000013B11F801CB48BF11F8012B24BF00F811
:1007C000013B00F801CB48BF00F8012B704702F055
:1007D000FF0343EA032242EA024200F013BB4FF058
:1007E000000200B5134694469646203922BFA0E881
:1007F0000C50A0E80C50B1F12001BFF4F7AF09078D
:1008000028BFA0E80C5048BF0CC05DF804EB89007D
:1008100028BF40F8042B08BF704748BF20F8022BC0
:1008200011F0804F18BF00F8012B704770477047D8
:100830007047704710B500F009FB006810BD10B597
:10084000044600F003FB046010BD2DE9F0470D469F
:1008500099469246044600F124080168880604D5AA
:10086000E06921F01001216000E00120A84201DDD3
:10087000471B00E00027A1697A1902EB0900081A5A
:10088000A0612078C00602D42046AFF30080002685
:1008900008E0D4E901211AF806009047206A401CBC
:1008A000761C20624E45F4DB2078C0060AD520462F
:1008B000AFF3008006E0D4E9012130209047206AA0
:1008C000401C2062381EA7F10107F4DC07E0D4E9E0
:1008D000012118F805009047206A401C2062281E5C
:1008E000A5F10105F3DC2046AFF300802078000677
:1008F00002D50220BDE8F0870120FBE770472DE913
:10090000FF4F0C461E464FF0FF378BB0D2E9000177
:10091000DDF860800A908A46C1F30A5505B93D4664
:10092000002108464FF00000BAF1000F00F440002B
:1009300005DA00EB80004FF4400101EA50004FEA75
:100940009059B9F1010F00DDB9460A9850EA4A0002
:100950000ED044F61050A5F2FF3545432F14B8F1E0
:10096000000F1ED07542291E1EDDC9F100021CE0D9
:10097000B8F1010F4FF0000001D0302103E0F24345
:1009800005E02154401CB042FBDB30460022002130
:1009900021540B99C1F80880C1E900200FB0BDE8CF
:1009A000F08FBD1B6D1CDEE74A4600DA694206A8DF
:1009B00000F0D6FA06AB93E8070003AB83E8070024
:1009C00050460A9900F0B4FB8DE80700A0F50050EE
:1009D0001F3800900398002D0ADD42F21F014A469D
:1009E0000844002303A90390684600F01DFE09E0B7
:1009F000A0F500504A461F38002303A9039068461B
:100A000000F027FE8DE807000004000C03D04FF033
:100A1000FF30410800E01046B8F1000F03D000227B
:100A2000009215461EE0751E05D400F013FA303210
:100A300062556D1EF9D5B3460122084302D000224B
:100A40007F1C04E02078302801D100227F1E002A7C
:100A5000099784D01DE0112D07DA00F0FBF9303240
:100A600062556D1C50EA0102F5D1084302D000988E
:100A7000C8B10EE00021681E05E0235C625C63548F
:100A80002254401E491C8142F7DBAB46A81B401E86
:100A90000990002004F80B000B98099AC0F8088010
:100AA000C0E9002B7AE711264FF0000857E72DE93F
:100AB000F04F88460446D21D22F0070191B0D1E9DB
:100AC0000001CDE90A0105F0D7FF02460B98C00FDF
:100AD00001D02D2007E02068810701D52B2002E0FE
:100AE000202101EAC000032A099001D0072A05DB72
:100AF00003464146204600F0F3F90BE120788006DA
:100B000001D5E06900E00620B8F1650F814606D006
:100B1000B8F1660F18D0B8F1670F70D131E000203E
:100B2000B9F1110F009001DB112301E009F101037C
:100B30000AAA01A90CA8FFF7E2FEDDE90C70002665
:100B400009F10105834647E001204B4600904FF034
:100B500000470AAA01A90CA8FFF7D1FEDDE90DB0F4
:100B60000C995D46002610B909F101000D18B9EB8A
:100B7000050003D4C0F1FF3609F10105A5EB09001A
:100B80002BE0B9F1010F01DA4FF001090020B9F1B2
:100B9000110F0090484601DD112300E003460AAA28
:100BA00001A90CA8FFF7ABFEDDE90C704D4600264D
:100BB0008346207800070AD4AB4500DA5D4601A8D9
:100BC000012D04DD411911F8011C302907D04F45D2
:100BD00002DA17F1040F04DA012082460FE06D1EDD
:100BE000EEE7002F02DCED1B3E4403E0781CA84238
:100BF00000DD7D1CB81B00F1010A4FF00047207892
:100C0000000703D4AA4501DB4FF0FF3A0021B7F1FA
:100C1000004F0DF143088DF8431024D002202B2300
:100C2000002F01DA7F422D230A21021EA0F10100CC
:100C300000DC5FB197FBF1FC97FBF1F201FB1C7C40
:100C400017460CF1300C08F801CDEEE7A8F10100D1
:100C500003702188090501D5452100E06521A0F137
:100C6000010800F8011C09980FA9A1EB0807FF1D56
:100C700000B10120411901EBEA70A1693844081A5A
:100C8000401EA0612078C00602D42046AFF3008049
:100C9000099828B1D4E901219047206A401C2062BC
:100CA0002078C00622D52046AFF300801EE0002E3B
:100CB00004DBB34502DD01A8805D00E03020D4E90B
:100CC00001219047206A401C2062761CAAF1010095
:100CD0005FEA000A0AD100F0B5F8C0680168405C1C
:100CE000D4E901219047206A401C2062281EA5F10A
:100CF0000105DCDC07E0D4E9012118F8010B90477D
:100D0000206A401C2062381EA7F10107F3DC204650
:100D1000AFF30080032011B041E6000001694A1CD6
:100D200002610878704700B58FB0CDE9013100212C
:100D3000059105497944CDE9031011466846FFF74E
:100D400039FC0FB000BD0000E5FFFFFF10B543699F
:100D500013B1AFF3008001E0FFF7C6FB012010BD27
:100D6000127800F124010A7000224A700122EDE796
:100D700011684FF0FF32E9E7074B70B50D467B4431
:100D8000FFF7D1FF0446284600F05CF910B14FF0A0
:100D9000FF3070BD204670BD8371000010B5203A51
:100DA000C0F00B80B1E81850203AA0E81850B1E824
:100DB0001850A0E81850BFF4F5AF5FEA027C24BFDA
:100DC000B1E81850A0E8185044BF18C918C0BDE8D1
:100DD00010405FEA827C24BF51F8043B40F8043B9A
:100DE00008BF7047D20728BF31F8023B48BF11F84F
:100DF000012B28BF20F8023B48BF00F8012B7047A9
:100E00004FF000020429C0F0128010F0030C3FF4F0
:100E1000E8ACCCF1040CBCF1020F18BF00F8012BB8
:100E2000A8BF20F8022BA1EB0C01FFF7DABC5FEAA8
:100E3000C17C24BF00F8012B00F8012B48BF00F84B
:100E4000012B704700487047C8B90120004870471F
:100E5000A8B9012030B5B0F10A024FEA900E71F145
:100E600000034EEA817EB0EB0E0061EB91014FEA88
:100E7000101E4EEA017E10EB0E0041EB11114FEAFD
:100E8000102E4EEA016E10EB0E0041EB11214FEADD
:100E9000104E4EEA014E10EB0E0041EB114140188E
:100EA00041F100014FEAD00040EA41704FEAD10120
:100EB00010EB80054FEA810444EA907444EB01048E
:100EC0006D1944EB0404521BA3414FF0000348BFCB
:100ED0000A3200D530BD401C41F1000130BD000098
:100EE0002DE9F0411F46044603260168072A01F454
:100EF000006004DB08B116A505E016A503E008B103
:100F000015A500E015A521F010002060A069C01E05
:100F1000A0610FB1401EA0612046AFF300804FB129
:100F2000D4E9012138469047206A401C2062C01C49
:100F3000206206E0206AFAE7D4E9012115F8010BE6
:100F40009047761EF8D22046AFF30080BDE8F081CE
:100F50004E414E006E616E00494E4600696E66005D
:100F60002DE9F047814616468AB0354878440DC8C9
:100F70008DE80D0032487844801C03AC0DC884E82D
:100F80000D0041F69B300844372190FBF1F290FBB5
:100F9000F1F5A5F1800501FB12041B3C02D564426A
:100FA000012000E00020DFF898A080460027FA44E6
:100FB000AAF1BE0A0EE0E0070AD03246684607EB07
:100FC000470101230AEB810100F043FB8DE8070094
:100FD00064107F1C002CEED1194F7F44AE3F19E006
:100FE000E80715D007EB04100DF1180A90E80E0081
:100FF0008AE80E00C068F04201D198190890324684
:10100000012306A903A800F024FB03AB83E8070033
:101010006D10641C002DE3D14FF001033246694688
:10102000B8F1000F03A802D000F0FEFA01E000F0D2
:1010300010FBC9E90001C9F808200AB0BDE8F08733
:1010400064F40000007B00F08000704700487047A7
:10105000A8B901207546FFF7F9FFAE4605006946BD
:10106000534620F00700854618B020B5FFF782F9F7
:10107000BDE820404FF000064FF000074FF0000899
:101080004FF0000B21F00701AC46ACE8C009ACE81A
:10109000C009ACE8C009ACE8C0098D46704710B57E
:1010A0000446AFF300802046BDE81040FFF7E8B8E3
:1010B0004FF0013C50F8042B51F8043B9A4221D1E7
:1010C000A2EB0C03934313EACC1317D150F8042B73
:1010D00051F8043B9A4215D1A2EB0C03934313EA57
:1010E000CC130BD150F8042B51F8043B9A4209D190
:1010F000A2EB0C03934313EACC13DBD04FF00000B8
:10110000704700BFD01A01BAB1FA81F101F018019D
:1011100022FA01F0CB40C1F12001DBB2C0B2C01A0B
:101120002CFA01F3D11A914311EAC311E6D17047A9
:101130005FEA400C08BF91F0000F4FEA8C234FEAA2
:10114000C12243EA51514FEA1C5018BF00F5F0404C
:101150004FEA300018BF41F000415FEA6C5C00F0DC
:101160002980BCF1FF3F08BF40F080407047130C5E
:1011700006BF12044FF0100C4FF0000C130E04BF0A
:1011800012020CF1080C130F04BF12010CF1040C35
:10119000930F04BF92000CF1020CD30F04BF520056
:1011A0000CF1010C11464FF00002A0F11F00A0EB62
:1011B0000C00704711F0004F08BF704731F000413C
:1011C0003FF4D5AF0B0C06BF09044FF0100C4FF0E5
:1011D000000C0B0E04BF09020CF1080C0B0F04BF2E
:1011E00009010CF1040C8B0F04BF89000CF1020CF7
:1011F000CB0F04BF49000CF1010CCCF12003A0EB94
:101200000C0022FA03F302FA0CF241EA030100F1A6
:101210000100704720F07F4C80EA030023F07F47F5
:10122000ACEB070303F57C5300F0004003F1FF0330
:101230002DE980494FEA154B09B44FEA144325EADA
:101240000B4E24EA03480FF2042606EB1327490845
:101250003E785FEA320203FB0667C7F5000707FB2B
:1012600006F64FEA54374FEAD64606F1020607FB68
:10127000066CCCF1005C4FEA1C472CEA074C07FBDC
:1012800006F40CFB06F504EB15464FEA961634BF40
:1012900000204FF000404FEAD13706FB07FC4FEA31
:1012A0001C4C0CFB0BF7D21B03FB0CF761EB07018B
:1012B0000CFB0EF7B0EB074072EB17420CFB08F784
:1012C00034BFA2EB0742B2EB074261EB17414FEA92
:1012D0000C444FEA910706FB07FC4FEA1C4C0CFB41
:1012E0000BF7B0EBC74072EB573203FB0CF734BF80
:1012F000A2EBC742B2EBC74261EB57310CFB0EF7D2
:10130000B0EBC70072EB57720CFB08F734BFA2EBCF
:10131000C702B2EBC70261EB5771039F4FEA8161CD
:1013200041EA921104EBCC044FEAD1374FEA8262D2
:1013300006FB07FC42EA90124FEA80604FEA1C4C21
:101340000CFB0BF7D21B03FB0CF761EB07010CFB4B
:101350000EF7B0EB074072EB17420CFB08F734BFF7
:10136000A2EB0742B2EB074261EB17414FEA8C5503
:101370004FEA910704EB9C2406FB07FC4FEA1C4C48
:101380000CFB0BF7B0EBC74072EB573203FB0CF7CB
:1013900034BFA2EBC742B2EBC74261EB57310CFB43
:1013A0000EF7B0EBC70072EB57720CFB08F734BFB7
:1013B000A2EBC702B2EBC70261EB577115EB4C25EC
:1013C0004FEA816141EA92114FEA82624FEAD137D6
:1013D00042EA901206FB07FC44F100044FEA8060E9
:1013E0004FEA1C4C0CFB0BF7D21B03FB0CF761EB19
:1013F00007010CFB0EF7B0EB074072EB17420CFB3A
:1014000008F734BFA2EB0742B2EB074261EB17418A
:1014100015EB1C154FEA813141EA92414FEA8232C5
:1014200042EA90424FEA80304FEA0C7644F10004E1
:1014300048EA03434EEA0B484FF0000EB2EB080CAB
:1014400071EB030724BF624639464EEB0E0E4FF098
:10145000000B0018524149414BEB0B0BB2EB080C4F
:1014600071EB03077BF1000B24BF624639464EEB5C
:101470000E0E4FF0000B0018524149414BEB0B0B85
:10148000B2EB080C71EB03077BF1000B24BF624643
:1014900039464EEB0E0E51EA020718BF46F0010620
:1014A00016EB0E7655F1000254F1000103D5BDE8AC
:1014B0008901BDE80088BDE88901BDE80048B6198A
:1014C000524141EB0101A3F10103704780807F7E0F
:1014D0007D7C7B7A797877767675747372717170AA
:1014E0006F6E6E6D6C6C6B6A6A696868676666655C
:1014F0006464636362616160605F5F5E5E5D5D5CEA
:101500005C5B5B5A5A59595858575756565555555A
:101510005454535352525251515050504F4F4F4EBA
:101520004E4D4D4D4C4C4C4B4B4B4A4A4A49494908
:10153000484848474747474646464545454444444A
:10154000444343434342424242414141002B9C4673
:1015500030D477002BD01CB54FEA370703B44FF0D7
:1015600010004FF01001BAF1000F06D0BCF1000FCF
:10157000DCBF40F0080040F008014FF000000FBC55
:10158000BDE810400BF1010BBBF1010F08BF5FEA92
:10159000170722BF12F1010211F101014FF00041C2
:1015A00043F1000300F0004043EA00007047F9D324
:1015B0005708D0E746EA064613F1400F4FEA1646B1
:1015C0001FDD13F1200FDFBF16430A460021203331
:1015D0005B42BED0C3F1200746EA064602FA07F78F
:1015E0004FEA164646EA0706C3F1200722FA03F23D
:1015F00001FA07F721FA03F14FF0000342EA07026C
:10160000A7E746EA020646EA06464FEA164646EAD3
:101610000106BCBF46EA0646360C4FF000034FF009
:1016200000024FF0000194E72DE9804C9A46934662
:1016300070B491E8380007C831EA400C48BF34EA7A
:10164000430C03D5FFF7E6FDFFF780FFF0BCBDE8D4
:10165000008C2DE9804C9A46934670B491E838008E
:1016600007C810F0804F08BF13F0804F03D100F07F
:1016700005F8FFF76BFFF0BCBDE8008C20F07F475A
:1016800080EA030023F07F4C07EB0C03A3F57C53A7
:1016900000F00040A3F1FE0392F0000F00F0B380D1
:1016A00095F0000F00F077802DE901494FEA1140D5
:1016B0004FEA144621EA004800FB06FC24EA0647EC
:1016C00008FB06F607FB08F800FB07F718EB0648CF
:1016D0004CEB164C4FEA124B18EB07484FEA1546F5
:1016E0004CEB174022EA0B4E0BFB06FC25EA0647A3
:1016F0000EFB06F607FB0EFE0BFB07F71EEB064E76
:101700004CEB164C4FF000061EEB074E4CEB174B04
:1017100018EB0B0840F1000018EB0E0B58EB00081B
:1017200040F100008F1A4FF000013CBFC943661B17
:1017300014BFB5EB040C00213CBFC943F61B4FEAB4
:1017400017444EEA8E0E27EA04454FEA1C4704FB75
:1017500007622CEA074C05FB07F70CFB05F604FBB8
:101760000CFC16EB074642EB174216EB0C4642EB1D
:101770001C421BEB060658EB0202414146EA9E065C
:1017800001D5BDE80189B619524141EB0101A3F130
:101790000103BDE801894FEA14454FEA114724EAE5
:1017A000054621EA074C05FB07F406FB07F70CFB8F
:1017B00006F105FB0CFC11EB074144EB17444FEA23
:1017C000124711EB0C4144EB1C4422EA074C05FB89
:1017D00007F206FB07F70CFB06F605FB0CFC16EB05
:1017E000074642EB174216EB0C4642EB1C456A18C3
:1017F00054F1000148BF7047B619524141EB010155
:10180000A3F10103704795F0000F37D04FEA114262
:101810004FEA144721EA024624EA074C02FB07F18B
:1018200006FB07F70CFB06F402FB0CFC14EB074469
:1018300041EB17414FEA154714EB0C4441EB1C41B7
:1018400025EA074C02FB07F506FB07F70CFB06F63B
:1018500002FB0CFC16EB074645EB174516EB0C4656
:1018600045EB1C42121951F1000148BF7047B619EF
:10187000524141EB0101A3F1010370474FEA1445C6
:101880004FEA114724EA054621EA074C05FB07F118
:1018900006FB07F70CFB06F24FF0000605FB0CFCFD
:1018A00012EB074241EB174112EB0C4251EB1C418A
:1018B00048BF7047921841EB0101A3F10103704743
:1018C00055494A6822F440324A604A6843681A43DC
:1018D0004A600268526822F4807203685A600268A3
:1018E0005368026943EA022203685A600268526838
:1018F00022F0407203685A600268526883681A4393
:1019000003685A600268926822F4006203689A6071
:1019100002689268C3681A4303689A603F4B826A00
:101920009A4218D00268926822F0706203689A6046
:1019300002689268836A1A4303689A600268926830
:1019400022F0405203689A6002689268C36A1A43A0
:1019500003689A600BE00268926822F07062036884
:101960009A600268926822F0405203689A600268A6
:10197000926822F0020203689A6002689368027E0D
:1019800043EA420203689A602022125CA2B1026814
:10199000526842F4006203685A600268526822F496
:1019A000604203685A6002685368426A521E43EA02
:1019B000423203685A6005E00268526822F400620D
:1019C00003685A600268D26A22F470020368DA621D
:1019D0000268D36A828B521E43EA02520368DA62BB
:1019E0000268926822F4007203689A600268936841
:1019F00090F8302043EA422203689A6002689268B5
:101A000022F4806203689A6002689368426943EA3C
:101A1000822203689A607047002301400100000F92
:101A200070B501241CE04FF4E13009F083FE02257B
:101A300000BF00200F4908700321342004F026FE67
:101A4000642000F0A9FB0B48007828B14FF4E13185
:101A500009A0FEF73DFD70BD6D1E002DE9D1641C8F
:101A60000A2CE0DB0AA0FEF733FD0FA0FEF730FDE5
:101A700000BFF0E78C0200202564206261756420BD
:101A800066696E642073656E736F720D0A0D0A00CD
:101A900063616E206E6F742066696E642073656E7C
:101AA000736F720D0A000000706C656173652063CE
:101AB0006865636B20796F757220636F6E6E656306
:101AC00074696F6E0D0A000000BFFEE72DE9F84F44
:101AD00007460C4690464FF00009CA4600250026EE
:101AE000A346A01D00900425A7F1500010283AD26B
:101AF000DFE800F01608190F1E2326292C2F323993
:101B0000393939354FF0340903254FF0400A0126A1
:101B10002BE04FF03D0903254FF02E0A012624E06B
:101B20004FF0300921E04FF037094FF003081CE077
:101B30004FF03A094FF0030817E04FF0410914E065
:101B40004FF0450911E04FF049090EE04FF04D0903
:101B50000BE04FF0510908E04FF0550905E014483B
:101B6000D0F8009001E0BDE8F88F00BFB8F1030F96
:101B700001D1032500265DB16A000E4901EB490041
:101B80005946FEF7DFFD294648460B4A1268904742
:101B90005EB17200074901EB4A000099FEF7D2FDE1
:101BA00031465046044A1268904700BFDBE7000008
:101BB000BC0200206AB80120A8020020704772B65B
:101BC00000BFFEE70EB5B0EE406AF0EE606A9FED32
:101BD0002A0AF0EE405A9FED280AB0EE407A002023
:101BE00000900190029036EEC60AF0EE405A23486B
:101BF00090ED000AB8EEC00A35EEC00AB0EE407AA9
:101C00001F4890ED000AB8EEC00A30EE250ABDEE7E
:101C1000C00A80ED000ABDEEE50A184880ED000A12
:101C2000F0EE470AB0EE650A06F092F98DED000A73
:101C3000CDED010A8DED021A124890ED040ADDED9A
:101C4000000A30EE200A20EE250AD0ED060A9DEDAE
:101C5000021A70EE810A00EE870AD0ED050A9DEDAA
:101C6000011A30EE811A0648D0ED000AF8EEE00ABB
:101C700001EE200A0EBD000000000000BC000020A4
:101C8000AC000020580100200EB5B0EE406AF0EE26
:101C9000606A9FED2A0AF0EE405A9FED280AB0EEE6
:101CA000407A002000900190029036EEC60AF0EED5
:101CB000405A234890ED000AB8EEC00A35EEC00A3B
:101CC000B0EE407A1F4890ED000AB8EEC00A30EE40
:101CD000250ABDEEC00A80ED000ABDEEE50A1848EF
:101CE00080ED000AF0EE470AB0EE650A06F030F922
:101CF0008DED000ACDED010A8DED021A124890ED2E
:101D0000040ADDED000A30EE200A20EE250AD0EDAF
:101D1000060A9DED021A70EE810A00EE870AD0EDE8
:101D2000050A9DED011A30EE811A0648D0ED000A31
:101D3000F8EEE00A01EE200A0EBD000000000000EF
:101D4000C0000020B00000207C0100200EB5B0EEE5
:101D5000406AF0EE606A9FED2A0AF0EE405A9FED6D
:101D6000280AB0EE407A002000900190029036EEF2
:101D7000C60AF0EE405A234890ED000AB8EEC00AB9
:101D800035EEC00AB0EE407A1F4890ED000AB8EE7A
:101D9000C00A30EE250ABDEEC00A80ED000ABDEE95
:101DA000E50A184880ED000AF0EE470AB0EE650A31
:101DB00006F0CEF88DED000ACDED010A8DED021A88
:101DC000124890ED040ADDED000A30EE200A20EE04
:101DD000250AD0ED060A9DED021A70EE810A00EE8A
:101DE000870AD0ED050A9DED011A30EE811A0648EA
:101DF000D0ED000AF8EEE00A01EE200A0EBD000068
:101E000000000000C4000020B4000020A001002059
:101E10000EB5B0EE406AF0EE606A9FED2A0AF0EE71
:101E2000405A9FED280AB0EE407A002000900190C1
:101E3000029036EEC60AF0EE405A234890ED000AB2
:101E4000B8EEC00A35EEC00AB0EE407A1F4890EDF9
:101E5000000AB8EEC00A30EE250ABDEEC00A80EDD9
:101E6000000ABDEEE50A184880ED000AF0EE470AC8
:101E7000B0EE650A06F06CF88DED000ACDED010AB2
:101E80008DED021A124890ED040ADDED000A30EEE5
:101E9000200A20EE250AD0ED060A9DED021A70EE0A
:101EA000810A00EE870AD0ED050A9DED011A30EE99
:101EB000811A0648D0ED000AF8EEE00A01EE200A89
:101EC0000EBD000000000000C8000020B800002087
:101ED000C40100202DE9FC5F0546884691469A46DC
:101EE000DDF830B000950420019000245EE004EBA2
:101EF0004420374911F810009BF80010884252D155
:101F000004EB4420324901EB400040789BF801107B
:101F1000884248D108F17F0083B205F17F0082B288
:101F20004146284602F02CFC002639E0002733E029
:101F30000D9890B904EB4420254901EB4000801C2A
:101F4000805D80213941084018B1484602F0B4FE56
:101F500021E0504602F0B0FE1DE01E48A0F80090BF
:101F600004EB44201A4901EB4000801C805D802175
:101F70003941084018B14146284602F029FA681C48
:101F800085B20098281A402805D1009D08F101006B
:101F90001FFA80F802E07F1C082FC9DB00BF761C07
:101FA000B6F5607FC2DB00BF601C84B2019884423A
:101FB0009DDB09484088401E83B207480088401EC8
:101FC00082B20021084602F0DBFBBDE8FC9F000066
:101FD000B4E60008C00200208AB9012070B50446AA
:101FE00000250CB9012070BD1549A06A884200D0B7
:101FF00000BF206C30B9204600F024F80020606457
:1020000084F83C00206C00F0100088B9206C20F4AB
:10201000885040F0020020642046FFF751FC002069
:102020006064206C20F0020040F00100206400E0B9
:10203000012500BF002084F83C0000BF2846D2E7FD
:102040000100000F10B586B004461B492068884285
:1020500030D100BF00BF002000901848006840F455
:102060008070164908600846006800F4807000908F
:1020700000BF00BF00BF00BF00BF002000900F489E
:102080001438006840F001000C4914390860084613
:10209000006800F00100009000BF00BF00BF1020EA
:1020A0000190032002900020039001A9044800F051
:1020B00087F800BF06B010BD002001404438024040
:1020C0000008024070B50446A56D00F08FF9064681
:1020D00094F83500022808D08020606500BF0020F9
:1020E00084F8340000BF012070BD2068006820F033
:1020F0001600216808602068406920F0800021688F
:102100004861206C08B9A06C28B12068006820F0F4
:102110000800216808602068006820F0010021683C
:1021200008600FE000F062F9801B05280AD9202022
:10213000606500BF002084F8340000BF032084F8ED
:102140003500D1E72068006800F001000028E9D1DF
:1021500094F85C103F208840A86000BF002084F8FD
:10216000340000BF012084F835000020BCE70146A0
:1021700091F83500022803D080204865012070477F
:10218000052081F835000868006820F001000A6821
:1021900010600020F3E7000070B5044600F026F957
:1021A00006462546681C10B104480078054400BF67
:1021B00000F01CF9801BA842FAD370BD4C0000202F
:1021C000F8B502460B460025002400200021DEE081
:1021D000012606FA01F51E6806EA0504AC4275D12F
:1021E0001E7906F00306012E04D01E7906F00306C0
:1021F000022E13D190684F000326BE40B0434F001B
:10220000DE68BE4030439060506801268E40B04387
:102210001E79C6F300168E40304350601E7906F0DA
:102220000306032E09D0D0684F000326BE40B043FA
:102230004F009E68BE403043D0601E7906F0030612
:10224000022E13D1CF0802F1200656F827004E07C0
:10225000F70E0F26BE40B0434F07FF0E1E69BE406B
:102260003043CF0802F1200646F8270010684F00DF
:102270000326BE40B0431E7906F003064F00BE4061
:10228000304310605E6806F08056B6F1805F7DD105
:1022900000BF00260096404E366846F480463E4F0A
:1022A0003E603E46366806F48046009600BF00BF9A
:1022B0003A4E8F0856F827008E07370F0F26BE407C
:1022C000B043374EB24202D1002624E05EE0354EE4
:1022D000B24201D101261EE0334EB24201D10226A4
:1022E00019E0324EB24201D1032614E0304EB24220
:1022F00001D104260FE02F4EB24201D105260AE09B
:102300002D4EB24201D1062605E02C4EB24201D13B
:10231000072600E008268F073F0FBE4030431F4EC0
:102320008F0846F82700264E3068A0435E6806F402
:102330008036B6F5803F00D12043214E3060361DF7
:102340003068A0435E6806F40036B6F5003F00D161
:1023500020431B4E361D3060361D3068A0435E683A
:1023600006F48016B6F5801F00D12043144E0836BF
:102370003060361D3068A0435E6806F40016B6F57E
:10238000001F00D120430E4E0C363060491C10292E
:10239000FFF41EAFF8BD0000443802400838014089
:1023A000000002400004024000080240000C02400D
:1023B000001002400014024000180240001C0240BD
:1023C000003C0140024613690B400BB1012000E0C4
:1023D000002070470AB1816101E00B0483617047FE
:1023E00001480068000C7047002004E001480068C4
:1023F0007047000044000020034800680349097842
:102400000844014908607047440000204C00002047
:1024100010B50A48006840F4007008490860084692
:10242000006840F480600860032000F07FF80F200F
:1024300000F006F800F02AF8002010BD003C024031
:1024400070B504460E4800784FF47A71B1FBF0F095
:102450000C490968B1FBF0F5284600F01DFC08B1F5
:10246000012070BD102C07D200222146501E00F022
:102470001EF80548046001E00120F2E70020F0E7C3
:102480004C00002008000020480000207047014652
:102490000846002809DB00F01F0301229A40430987
:1024A0009B0003F1E023C3F8002100BF70472DE932
:1024B000F05F80460D461646002704F01FFB0746D6
:1024C00039462A46334601F00700C0F1070ABAF13F
:1024D000040F02D94FF0040A01E0C0F1070AD14607
:1024E00000F1040ABAF1070F02D24FF0000A01E02E
:1024F000A0F1030AD4464FF0010A0AFA09FAAAF138
:10250000010A0AEA020A0AFA0CFA4FF0010B0BFA66
:102510000CFBABF1010B0BEA030B4AEA0B0421465F
:10252000404604F0F3FABDE8F09F000000BF00F061
:102530000702064B19684FF6FF031940044B0B4383
:1025400043EA0221014B196000BF70470CED00E027
:102550000000FA0570B504460D460CB9012070BDA7
:102560005848006800F00700A84209D255490D708C
:102570000846006800F00700A84201D00120EEE7FD
:10258000207800F0020002281DD1207800F004001D
:10259000042805D14C48006840F4E0504A490860DE
:1025A000207800F00800082805D14748006840F46A
:1025B0006040454908604448006820F0F000A16888
:1025C000084341490860207800F00100A8B3606822
:1025D000012807D13C4808380068C0F34040B8B92A
:1025E0000120BCE76068022802D06068032807D198
:1025F000354808380068C0F3406048B90120AEE7AC
:10260000314808380068C0F3400008B90120A6E747
:102610002D48006820F00300616808432A490860DB
:10262000FFF7E4FE064609E0FFF7E0FE801B41F2FB
:102630008831884202D9032091E707E022480068E8
:1026400000F00C006168B0EB810FEDD11D4800680F
:1026500000F00700A84209D91A490D700846006821
:1026600000F00700A84201D0012078E7207800F0B0
:102670000400042807D11448006820F4E050E16801
:10268000084311490860207800F00800082808D1A4
:102690000D48006820F46040216940EAC1000A4901
:1026A000086000F03FF808490968C1F30311074AC0
:1026B000515CC8400649086006480068FFF7C0FE44
:1026C00000204CE7003C024008380240C6D7000812
:1026D0000800002048000020014800687047000002
:1026E0000800002000B5FFF7F7FF04490968C1F3AF
:1026F0008221034A515CC84000BD000008380240F6
:10270000D6D7000800B5FFF7E7FF04490968C1F311
:102710004231034A515CC84000BD00000838024005
:10272000D6D700082DE9F047002400250026A14651
:102730002548006800F00C0020B1042805D00828C6
:102740003AD105E0DFF8849039E0DFF8849036E094
:102750001D48001F006800F03F041B48001F006870
:1027600000F4800078B11A481749091F0968C1F3BD
:102770008811A0FB01700146224600233846FDF770
:102780000CFE05460EE011480F49091F0968C1F308
:102790008811A0FB01700146224600233846FDF750
:1027A000FCFD05460848001F0068C0F30140401CBE
:1027B0004600B5FBF6F902E0DFF8109000BF00BF5D
:1027C0004846BDE8F0870000083802400024F400C5
:1027D00000127A00F8B504460CB90120F8BD207843
:1027E00000F00100002874D0F948006800F00C00E7
:1027F00004280DD0F648006800F00C00082813D11A
:10280000F348001F006800F48000B0F5800F0BD182
:10281000EF4808380068C0F34040002859D060688D
:10282000002856D10120D9E700BF6068B0F5803F8D
:1028300008D1E7480838006840F48030E449083996
:1028400008601EE06068B0F5A02F0DD1E0480838A0
:10285000006840F48020DE490839086008460068B6
:1028600040F4803008600CE0D9480838006820F453
:102870008030D749083908600846006820F4802075
:10288000086000BF606890B1FFF7B0FD054606E044
:10289000FFF7ACFD401B642801D903209EE7CC481C
:1028A00008380068C0F340400028F1D011E0FFF77D
:1028B0009DFD054606E0FFF799FD401B642801D900
:1028C00003208BE7C24808380068C0F34040002866
:1028D000F1D1207800F0020002285FD1BC480068E6
:1028E00000F00C0058B1BA48006800F00C0008284D
:1028F0001CD1B748001F006800F48000B0B9B4488C
:1029000008380068C0F3400020B1E068012801D019
:10291000012063E7AE480838006820F0F80021691C
:1029200040EAC100AA490839086037E0E06800B30E
:102930000120A8490860FFF759FD054606E0FFF7AA
:1029400055FD401B022801D9032047E7A04808385D
:102950000068C0F340000028F1D09D4808380068A6
:1029600020F0F800216940EAC1009949083908605F
:1029700014E0002097490860FFF738FD054606E09F
:10298000FFF734FD401B022801D9032026E79048B9
:1029900008380068C0F340000028F1D1207800F02A
:1029A000080008282CD16069A8B101208A49086074
:1029B000FFF71CFD054606E0FFF718FD401B022847
:1029C00001D903200AE782486C300068C0F3400058
:1029D0000028F1D014E000207F490860FFF706FDD1
:1029E000054606E0FFF702FD401B022801D903203F
:1029F000F4E677486C300068C0F340000028F1D15D
:102A0000207800F00400042870D100277048383086
:102A1000006800F0805090B900BF002000906C4822
:102A20003830006840F08050694938310860084605
:102A3000006800F08050009000BF00BF0127674889
:102A4000006800F48070B0B96448006840F4807099
:102A500062490860FFF7CAFC054606E0FFF7C6FCBE
:102A6000401B022801D90320B8E65C48006800F446
:102A700080700028F2D000BFA068012808D1544817
:102A80006830006840F001005149683108601DE07D
:102A9000A06805280DD14E486830006840F0040059
:102AA0004B49683108600846006840F00100086042
:102AB0000CE047486830006820F001004449683164
:102AC00008600846006820F00400086000BFA068A5
:102AD000A8B1FFF78BFC054609E0FFF787FC401B18
:102AE00041F28831884202D9032077E626E038484F
:102AF00068300068C0F340000028EED013E0FFF714
:102B000075FC054608E0FFF771FC401B41F2883177
:102B1000884201D9032061E62D4868300068C0F37F
:102B200040000028EFD1012F07D129483830006834
:102B300020F0805026493831086000BFA069002885
:102B400045D02348006800F00C0008285DD0A0693B
:102B5000022845D100201F490866FFF747FC0546BB
:102B600006E0FFF743FC401B022801D9032035E6AD
:102B7000174808380068C0F340600028F1D1D4E954
:102B800007010843616A40EA81110122A06AC2EB91
:102B9000500041EA00412C20005D41EA00600C49F0
:102BA000091F086001200B490866FFF71FFC054656
:102BB00006E0FFF71BFC401B022801D903200DE6AD
:102BC000034808380068C0F340600028F1D049E0AD
:102BD0000838024000004742800E47420070004023
:102BE000002021490866FFF701FC054606E0FFF7D3
:102BF000FDFB401B022801D90320EFE51B480068BC
:102C0000C0F340600028F2D12CE0A069012800D177
:102C1000E4E51648001D0668A069012820D006F4E6
:102C20008001E06981421BD106F03F01206A8142A8
:102C300016D147F6C0703040616AB0EB811F0FD1EA
:102C400006F440310122A06AC2EB5000B1EB004F04
:102C500006D106F070612C20005DB1EB006F01D051
:102C60000120BBE50020B9E50000474200380240E2
:102C7000042808D14FF0E021096941F004014FF028
:102C8000E022116107E04FF0E021096921F0040121
:102C90004FF0E0221161704770B504462546681E6A
:102CA000B0F1807F01D301200FE0681E4FF0E021DA
:102CB00048610F214FF0FF3003F028FF00204FF054
:102CC000E021886107200861002070BD70477047CF
:102CD00030B502460B4600BF92F83C00012801D1F6
:102CE000022030BD012082F83C0000BF022082F8A3
:102CF0003D00106844681068816824F0700418680A
:102D0000044310684460184D1068A8421BD0106836
:102D1000B0F1804F17D0154D1068A84213D0144D54
:102D20001068A8420FD0134D1068A8420BD0124D66
:102D30001068A84207D0114D1068A84203D0104D6A
:102D40001068A84205D121F080015868014310683D
:102D50008160012082F83D0000BF002082F83C0025
:102D600000BF00BFBDE700000000014000040040BC
:102D700000080040000C00400004014000400140F9
:102D80000018004010B504460CB9012010BD94F89D
:102D90003D0028B9002084F83C00204600F026F8C9
:102DA000022084F83D00211D206803F0ADF80120C9
:102DB00084F8460000BF84F83E0001213F20015501
:102DC000402001554120015500BF00BF012084F87B
:102DD000420043200155442001554520015500BFC4
:102DE000012084F83D000020D0E7000038B50446FB
:102DF0001E49206888421AD100BF00BF0020009001
:102E00001B48006840F02000194908600846006827
:102E100000F02000009000BF00BF00BF0022012191
:102E20003720FFF744FB3720FFF731FB1DE0114946
:102E30002068884219D100BF00BF002000900C48D4
:102E4000006840F010000A4908600846006800F079
:102E50001000009000BF00BF00BF002202213620FA
:102E6000FFF725FB3620FFF712FB38BD00140040AA
:102E70004038024000100040014691F83D00012812
:102E800001D001207047022081F83D000868C06829
:102E900040F001000B68D8601A4B086898421BD0BC
:102EA0000868B0F1804F17D0174B0868984213D0CC
:102EB000164B086898420FD0154B086898420BD003
:102EC000144B0868984207D0134B0868984203D007
:102ED000124B086898420CD10868806800F007021D
:102EE000062A0CD00868006840F001000B681860E2
:102EF00005E00868006840F001000B6818600020D9
:102F0000C0E700000000014000040040000800404D
:102F1000000C004000040140004001400018004047
:102F20002DE9F04104460D4614B90120BDE8F081B9
:102F300094F83D0028B9002084F83C00204600F0B9
:102F400053F8022084F83D002068806844F20701AD
:102F5000884321688860211D206802F0D5FF206821
:102F6000D0F80880206886692068076A286840EAE7
:102F7000080840F203308643A969A86840EA0120A6
:102F8000064340F60C4086434FF2F0008643E96961
:102F9000E86840EA0120064328690001296A40EAFE
:102FA0000130064327F0220727F08807696968681F
:102FB00040EA011007432068C0F808802068866155
:102FC00020680762012084F8460084F83E00012151
:102FD0003F200155012084F8420043200155012083
:102FE00084F83D000020A1E710B586B00446142106
:102FF00001A8FDF7F4FB2068B0F1804F55D100BF68
:10300000002000908548006840F001008349086076
:103010000846006800F00100009000BF00BF00BF3C
:10302000002000907D481038006840F001007B4986
:10303000103908600846006800F00100009000BFE9
:1030400000BF00BF002000900846006840F002006A
:1030500008600846006800F00200009000BF00BF52
:103060002020019002200290012003900020049073
:103070000120059001A96A48FFF7A2F808200190F5
:10308000022002900120039000200490012005906E
:1030900001A96448FFF794F8002211461C20FFF7AD
:1030A00006FA1C20FFF7F3F9B5E05F492068884273
:1030B00038D100BF002000905848006840F002005E
:1030C000564908600846006800F00200009000BF02
:1030D00000BF00BF0020009050481038006840F04A
:1030E00001004E49103908600846006800F00100F0
:1030F000009000BF00BFC02001900220029001207C
:103100000390002004900220059001A94448FFF795
:1031100057F8002211461D20FFF7C9F91D20FFF7BF
:10312000B6F978E041492068884238D100BF0020D4
:1031300000903A48006840F00400384908600846AA
:10314000006800F00400009000BF00BF00BF002036
:10315000009032481038006840F002002F491039C2
:1031600008600846006800F00200009000BF00BF41
:10317000C0200190022002900120039000200490C2
:103180000220059001A92748FFF71AF800221146EE
:103190001E20FFF78CF91E20FFF779F93BE0244948
:1031A0002068884237D100BF002000901B4800688B
:1031B00040F00800194908600846006800F008005F
:1031C000009000BF00BF00BF0020009013481038DF
:1031D000006840F001001149103908600846006895
:1031E00000F00100009000BF00BF0320019002200A
:1031F000029001200390002004900220059001A974
:103200000748FEF7DDFF002211463220FFF74FF995
:103210003220FFF73CF906B010BD000040380240F4
:10322000000002400004024000040040000800408A
:10323000000C00402DE9F04304460D4694F83E6032
:103240003F20075D94F84280432010F804906DB948
:10325000012E02D1B8F1010F02D00120BDE8F083A8
:10326000022084F83E0084F8420025E0042D0CD1B1
:10327000012F02D1B9F1010F01D00120EEE70221A7
:103280003F2001554320015516E0012E07D1012FA3
:1032900005D1B8F1010F02D1B9F1010F01D0012020
:1032A000DCE7022084F83E0002213F200155022085
:1032B00084F842004320015515B1042D0CD105E0DE
:1032C00001220021206802F08BFE10E0012204217F
:1032D000206802F085FE0AE001220021206802F049
:1032E0007FFE01220421206802F07AFE00BF00BFA9
:1032F0002068006840F00100216808600020ADE708
:10330000704710B5044620680069C0F34000D8B18A
:103310002068C068C0F34000B0B16FF002002168BF
:103320000861012020772068806900F0030018B14F
:103330002046FFF7E5FF05E0204600F0ADF8204607
:1033400000F0E8F90020207720680069C0F38000D1
:10335000D8B12068C068C0F38000B0B16FF004003D
:1033600021680861022020772068806900F440709D
:1033700018B12046FFF7C4FF05E0204600F08CF8A6
:10338000204600F0C7F90020207720680069C0F3CC
:10339000C000D8B12068C068C0F3C000B0B16FF001
:1033A000080021680861042020772068C06900F0C7
:1033B000030018B12046FFF7A3FF05E0204600F008
:1033C0006BF8204600F0A6F90020207720680069FD
:1033D000C0F30010D8B12068C068C0F30010B0B1CD
:1033E0006FF0100021680861082020772068C0690C
:1033F00000F4407018B12046FFF782FF05E0204638
:1034000000F04AF8204600F085F900202077206877
:10341000006900F0010058B12068C06800F00100A8
:1034200030B16FF0010021680861204600F0FAF920
:1034300020680069C0F3C01058B12068C068C0F3AC
:10344000C01030B16FF08000216808612046FFF79E
:103450003DFC20680069C0F3801058B12068C06846
:10346000C0F3801030B16FF0400021680861204641
:1034700000F070FA20680069C0F3401058B120686D
:10348000C068C0F3401030B16FF0200021680861BF
:103490002046FFF71CFC10BD704770B504460D4672
:1034A000164600BF94F83C00012801D1022070BDEF
:1034B000012084F83C0000BF36B1042E1BD0082E3A
:1034C00031D00C2E5ED145E02946206802F09AFDED
:1034D0002068806940F00800216888612068806960
:1034E00020F0040021688861206880692969084308
:1034F0002168886147E02946206802F0BBFD20680A
:10350000806940F40060216888612068806920F447
:1035100080602168886120688069296940EA01200B
:10352000216888612FE02946206802F0E1FD2068CB
:10353000C06940F008002168C8612068C06920F0B7
:1035400004002168C8612068C069296908432168AE
:10355000C86118E02946206802F006FE2068C069AC
:1035600040F400602168C8612068C06920F4806070
:103570002168C8612068C069296940EA0120216882
:10358000C86100E000BF00BF00BF002084F83C001D
:1035900000BF00BF8BE710B504460CB9012010BD79
:1035A00094F83D0028B9002084F83C00204600F043
:1035B00025F8022084F83D00211D206802F0A4FCBB
:1035C000012084F8460000BF84F83E0001213F201E
:1035D0000155402001554120015500BF00BF012089
:1035E00084F84200432001554420015545200155EF
:1035F00000BF012084F83D000020D0E710B586B060
:10360000044600BF002000903F48006840F00200E0
:103610003D4908600846006800F00200009000BFC5
:1036200000BF00BF0020009037481438006840F009
:1036300004003549143908600846006800F00400A9
:10364000009000BF00BF4FF4707001900220029004
:103650000120039003200490059001A92B48FEF758
:10366000AFFD00BF002000902748001F006840F019
:1036700080002549091F08600846006800F08000A6
:10368000009000BF00BF00BF002000900846006807
:1036900040F4807008600846006800F48070009074
:1036A00000BF00BF00BF002000901748143800681A
:1036B00040F020001449143908600846006800F002
:1036C0002000009000BF00BF48150190022002902A
:1036D00001200390032004900920059001A90C48C3
:1036E000FEF76EFD4FF480700190022002900120E1
:1036F0000390032004900920059001A90448FEF7D7
:103700005FFD06B010BD00004438024000080240D2
:10371000001402407047000070B504460D4615B90C
:1037200094F83E000BE0042D02D13F20005D06E03E
:10373000082D02D14020005D01E04120005D0128FC
:1037400001D0012070BD1DB9022084F83E000EE0BA
:10375000042D03D102213F20015508E0082D03D19B
:1037600002214020015502E00221412001550122A1
:103770002946206802F034FC23492068884203D09F
:1037800022492068884201D1012000E0002028B1B0
:103790002068406C40F40040216848641A49206861
:1037A00088421BD02068B0F1804F17D0184920689C
:1037B000884213D01749206888420FD016492068E4
:1037C00088420BD011492068884207D013492068ED
:1037D000884203D01249206888420CD12068806852
:1037E00000F00706062E0CD02068006840F00100AB
:1037F0002168086005E02068006840F00100216849
:10380000086000209EE70000000001400004014025
:103810000004004000080040000C0040004001404F
:10382000001800402DE9F0412DED028B044642487E
:1038300084427BD14149424802F0E2FA4149424880
:1038400002F0F2FA41480078032802D109F010FA98
:103850006DE03E480078012802D107F0FDFD66E0EA
:103860003A480078022802D101F01AFD5FE037489B
:10387000007804285BD136480068012836D104F06E
:1038800071FEB0EE408A09F0C7F938EE000ABDEECD
:10389000C00A10EE105A04F001FEB0EE408A09F0A2
:1038A000BBF938EE400ABDEEC00A10EE106A04F013
:1038B00091FDB0EE408A09F0AFF938EE000ABDEE96
:1038C000C00A10EE107A04F021FDB0EE408A09F033
:1038D000A3F938EE400ABDEEC00A10EE108A2B465E
:1038E00032463946404603F019FD20E004F03AFE26
:1038F000BDEEC00A10EE105A04F0D0FDBDEEC00AB5
:1039000010EE106A04F066FDBDEEC00A10EE107AEB
:1039100004F0FCFCBDEEC00A10EE108A2B463246C5
:103920003946404603F0FAFC01E0FFE700BFBDEC7A
:10393000028BBDE8F0810000280500200200002075
:103940000000002006000020040000207C00002071
:103950009C000020704770477047014600220023FA
:1039600091F83D2091F83E3042EA03007047000094
:103970002DE9F84F0446206805682068C66820686D
:1039800047694FF00009CA4605F00F09B9F1000F69
:103990000AD105F0200038B106F0200020B1204601
:1039A00002F059FCBDE8F88FB9F1000F72D007F0B2
:1039B000010018B906F4907000286BD005F00100E2
:1039C00030B106F4807018B1206C40F00100206422
:1039D00005F0040030B107F0010018B1206C40F090
:1039E0000200206405F0020030B107F0010018B1B8
:1039F000206C40F00400206405F0080048B106F097
:103A0000200010B907F0010018B1206C40F0080048
:103A10002064206C70B305F0200028B106F020006F
:103A200010B1204602F017FC20684069C0F3801AEC
:103A3000206C00F0080010B9BAF1000F23D0204626
:103A400002F0DEFB2068406900F04000402816D1FB
:103A50002068406920F0400021684861A06B50B1A7
:103A60005648A16B0865A06BFEF781FB10B1A06BF7
:103A7000016D88470CE02046FFF76EFF08E0204606
:103A8000FFF76AFF04E02046FFF766FF002020648E
:103A900088E7FFE7206B012879D105F010000028A6
:103AA00075D006F01000002871D000BF00200090F3
:103AB00020680068009020684068009000BF00BF48
:103AC0002068406900F04000402839D1A06B0068B0
:103AD00040681FFA80F8B8F1000F30D0A08D404543
:103AE0002DDDA4F82E80A06BC069B0F5807F1FD0BB
:103AF0002068C06820F480702168C8602068406930
:103B000020F00100216848612068406920F04000F1
:103B100021684861202084F83E000020206320684E
:103B2000C06820F010002168C860A06BFEF7CAFAD8
:103B3000A08DE28D801A81B22046FFF70CFF31E79D
:103B4000A08DE18D401A1FFA80F8E08DE8B1B8F140
:103B5000000F1AD02068C06820F490702168C860F7
:103B60002068406920F0010021684861202084F825
:103B70003E00002020632068C06820F0100021680B
:103B8000C86041462046FFF7E6FE0BE7FFE705F079
:103B9000800030B106F0800018B1204602F0F3FC3E
:103BA00000E705F0400030B106F0400018B12046B3
:103BB00002F041FBF6E600BFF4E60000ED6100080C
:103BC00010B504460CB9012010BDA06900B100E099
:103BD00000BF94F83D0028B9002084F83C0020463E
:103BE00000F028F8242084F83D002068C06820F404
:103BF00000502168C860204602F08CFB20680069F4
:103C000020F49040216808612068406920F02A0073
:103C1000216848612068C06840F400502168C8608D
:103C200000202064202084F83D0084F83E0000201D
:103C3000CAE7000010B586B004465B492068884298
:103C400055D100BF00BF002000905848006840F0E8
:103C50001000564908600846006800F01000009007
:103C600000BF00BF00BF00BF00BF002000904F4852
:103C70001438006840F001004C49143908600846C7
:103C8000006800F00100009000BF00BF00BF00BF4F
:103C900000BF002000900846006840F00100086066
:103CA0000846006800F00100009000BF00BF00BFA0
:103CB00048150190022002900120039002200490F8
:103CC0000720059001A93A48FEF77AFA4FF4806080
:103CD00001900720059001A93548FEF771FA2520CB
:103CE000FEF7D5FB032211462520FEF7E0FB314904
:103CF0002068884256D100BF00BF002000902B48AA
:103D0000001F006840F400302849091F0860084679
:103D1000006800F40030009000BF00BF00BF00BF8B
:103D200000BF0020009021481438006840F00100D6
:103D30001E49143908600846006800F00100009030
:103D400000BF00BF00BF00BF00BF002000900846BA
:103D5000006840F0010008600846006800F00100BB
:103D6000009000BF00BF00BF04200190022002901D
:103D700001200390022004900720059001A90C481F
:103D8000FEF71EFA082001900720059001A90848B7
:103D9000FEF716FA2620FEF77AFB032211462620AC
:103DA000FEF785FB06B010BD00100140443802400C
:103DB000000002400044004070B504460D4616461F
:103DC00094F83E00202816D105B10EB9012070BD2F
:103DD00000BF94F83C00012801D10220F7E7012040
:103DE00084F83C0000BF002020633246294620466C
:103DF00002F0A6FBEBE70220E9E7000010B504465D
:103E000025492068884203D12448007802F036FD15
:103E10002349206888423DD12248008800F40040B0
:103E200020BB2048008800F48040A8B11E480078DC
:103E30000A2803D000201B4908802BE0194800887D
:103E400040F4004017490880C8211848FCF7C7FC17
:103E50000020144908801DE0134800780D2806D181
:103E60001048008840F480400E49088012E00E4857
:103E700000780C490988C1F30D010C4A50540948D7
:103E80000088401C0749088008460088C72801DDD3
:103E90000020088010BD0000001001403C00002000
:103EA0000044004040000020420000201C0400208C
:103EB000704700001748007858B3002016E000F162
:103EC0003D01154A32F9111000EE101AB8EEC00A81
:103ED000DFED120A80EE201A9FED110A21EE000A92
:103EE000104901EB800181ED000A401C0328E6DB4C
:103EF0000848007800F0040058B10A4890ED020A22
:103F0000094880ED000A0348007820F004000149C8
:103F1000087070478C0200206AB80120000000473A
:103F2000000034432CB701209002002010B5034854
:103F300002F098FCFDF774FD10BD0000A15E0008C2
:103F400000BFFEE710B50020174908601748006859
:103F500020F44020154908600846006840F480209D
:103F60000860081D006820F40070091D0860081D25
:103F7000006820F44020091D08600846006840F4ED
:103F80000020086000200A49C1F8A402022003F0C2
:103F900091FA012004490860022003F08BFA002006
:103FA0000349C1F8A00210BDA082404200040240B3
:103FB0000080404200B587B000BF0020019010484B
:103FC000006840F002000E4908600846006800F0F2
:103FD0000200019000BF00BF4FF44070029001202A
:103FE000039004900220059002A90648FEF7E8F825
:103FF0000120054908600549C1F8A00207B000BDCD
:104000003038024000040240A48240420080404216
:1040100010B50020174908601748006820F44020B8
:10402000154908600846006840F480200860081DB3
:10403000006820F40070091D0860081D006820F465
:104040004020091D08600846006840F40020086010
:1040500001200A49C1F8A402022003F02BFA012032
:1040600004490860022003F025FA00200349C1F842
:10407000A00210BDA08240420004024000804042E5
:1040800070B5054600241448006820F44020124909
:104090000860002616E0002010490860022003F0A6
:1040A00009FA01200E49C1F8A0026006040E0B486F
:1040B0007C38006808B1601CC4B2012003F0FAF932
:1040C000701CC6B2082EE6DB15B9FFF7A1FF01E0B0
:1040D000FFF738FF204670BD00040240A082404236
:1040E0000080404270B504461D48006820F440201E
:1040F0001B4908600846006840F480200860081DDD
:10410000006820F40070091D0860081D006820F494
:104110004020091D08600846006840F4002008603F
:10412000002010490860002517E0E0090D49091D2D
:1041300008606006040E022003F0BCF901200A4961
:10414000C1F8A002022003F0B5F90020054908607B
:10415000022003F0AFF9681CC5B2082DE5DB70BD85
:1041600000040240A08240420080404210B518483E
:10417000006820F44020164908600846006840F4B2
:1041800080200860081D006820F40070091D086088
:10419000081D006820F44020091D086008460068DA
:1041A00040F40020086001200A4908600A49C1F86B
:1041B000A002042003F07EF90020064908600420D4
:1041C00003F078F900200449C1F8A00210BD0000F6
:1041D00000040240A48240420080404210B51748CB
:1041E000006820F44020154908600846006840F443
:1041F00080200860081D006820F40070091D086018
:10420000081D006820F44020091D08600846006869
:1042100040F4002008600020094908600949C1F8FD
:10422000A402042003F046F901200549086005496D
:10423000C1F8A402042003F03DF910BD00040240BF
:10424000A08240420080404210B50024114800681E
:1042500020F440200F49086001200F49086003F056
:1042600029F901200D49C1F8A00203F023F907E064
:10427000601CC4B2FA2C03DDFFF7B0FF012010BDB3
:104280000548803800680028F2D10349091F0860FA
:1042900000BFF4E700040240A48240420080404294
:1042A00010B50948006810B101280AD104E000F0F7
:1042B000C5F900F0EDF904E000F0C0F900F014FADF
:1042C00000BF00BF10BD0000D402002070B506463C
:1042D00011484088401E83B20F480088401E82B2B9
:1042E0000021084600F04CFA0122D1030B48FEF7EA
:1042F00071F800240AE0002503E0304600F0DCFC01
:104300006D1C05480088A842F7D8641C0248408804
:10431000A042F0D870BD00008AB901200018024008
:104320002DE9FF4F85B081468A4600200490039016
:104330000798A0EB09050898A0EB0A06CDF80890AD
:10434000CDF804A0002D01DD012705E00DB90027FF
:1043500002E04FF0FF376D42002E02DD4FF0010802
:1043600006E016B94FF0000802E04FF0FF38764241
:10437000B54201DD2C4600E034464FF0000B21E051
:10438000019A91B2029A90B200F022F8049828445F
:1043900004900398304403900498A04205DD0498EB
:1043A000001B04900298384402900398A04205DD57
:1043B0000398001B03900198404401900BF1010009
:1043C0001FFA80FB601C8345DADD09B0BDE8F08F81
:1043D00070B504460D462946204600F0C7F902484C
:1043E000008800F069FC70BDC002002008B51020F4
:1043F000022303220090044890ED000A2D217D2025
:1044000000F07CFA08BD00009002002000B587B0E3
:10441000142102A8FCF7E3F900BF0020019018481E
:10442000006840F04000164908600846006800F047
:104430004000019000BF00BF00224FF470411148BE
:10444000FDF7C8FF00224FF230110F48FDF7C2FF01
:104450004FF47040029001200390002004900590DA
:1044600002A90848FDF7ACFE01200390002004904B
:10447000059002A90448FDF7A3FE07B000BD0000A7
:1044800030380240001402400018024010B500F01D
:1044900057F9F72000F0AAFBA92000F099FB512062
:1044A00000F096FB2C2000F093FB822000F090FBA4
:1044B000C02000F09BFB112000F08AFB092000F0D7
:1044C00087FBC12000F092FB412000F081FBC5205A
:1044D00000F08CFB002000F07BFB0A2000F078FB52
:1044E000802000F075FBB12000F080FBB02000F0D0
:1044F0006FFB112000F06CFBB42000F077FB022072
:1045000000F066FBB62000F071FB022000F060FBBB
:10451000422000F05DFBB72000F068FBC62000F0F1
:1045200057FBBE2000F062FB002000F051FB04208E
:1045300000F04EFBE92000F059FB002000F048FBA2
:10454000362000F053FB682000F042FB3A2000F0D8
:104550004DFB662000F03CFBE02000F047FB002014
:1045600000F036FB072000F033FB102000F030FB9A
:10457000092000F02DFB172000F02AFB0B2000F093
:1045800027FB412000F024FB892000F021FB4B2079
:1045900000F01EFB0A2000F01BFB0C2000F018FBB3
:1045A0000E2000F015FB182000F012FB1B2000F07D
:1045B0000FFB0F2000F00CFBE12000F017FB0020A8
:1045C00000F006FB172000F003FB1A2000F000FBB0
:1045D000042000F0FDFA0E2000F0FAFA062000F0A8
:1045E000F7FA2F2000F0F4FA452000F0F1FA43200A
:1045F00000F0EEFA022000F0EBFA0A2000F0E8FAF0
:10460000092000F0E5FA322000F0E2FA362000F04E
:10461000DFFA0F2000F0DCFA112000F0E7FA782032
:10462000FDF7BAFD292000F0E1FA032000F0FEFAC0
:104630004FF6FF70FFF74AFE10BD00001CB50120C9
:1046400010A14FF6FF730022CDE90010C8211046DB
:10465000FDF740FC01200CA14FF6FF730022CDE9CD
:104660000010C8213C20FDF735FC012007A14FF6C2
:10467000FF730022CDE90010C8217820FDF72AFC45
:104680001CBD0000D2BB0000B6FE0000C8FD00004B
:104690001CB5012011A14FF6FF730022CDE90010D7
:1046A000C821F020FDF716FC01200DA14FF6FF7385
:1046B0000022CDE90010C8214FF49670FDF70AFCE6
:1046C000012008A14FF6FF730022CDE90010C82198
:1046D0004FF4B470FDF7FEFB1CBD0000D2BB000020
:1046E000B6FE0000C8FD00001CB5012011A14FF668
:1046F000FF730022CDE90010C821F020FDF7EAFB8E
:1047000001200DA14FF6FF730022CDE90010C82152
:104710004FF49670FDF7DEFB012008A14FF6FF7302
:104720000022CDE90010C8214FF4B470FDF7D2FB90
:104730001CBD0000C8FD0000B6FE0000D2BB00009A
:1047400010B500224FF480410748FDF743FE642076
:10475000FDF722FD012291030348FDF73BFE3220C5
:10476000FDF71AFD10BD00000018024070B50446A8
:104770000D462B4622462946204600F001F870BD22
:104780002DE9F04104460D4616461F461149887A28
:1047900000F02CFA201200F01BFAE0B200F018FA38
:1047A000301200F015FAF0B200F012FA0949087B55
:1047B00000F01CFA281200F00BFAE8B200F008FA38
:1047C000381200F005FAF8B200F002FA00F01CFA14
:1047D000BDE8F0818AB901202DE9FF4F83B0814601
:1047E0008A469346DDE91064404800880290A6F1AD
:1047F0002000C6B204EBD47009EB6000401E82B208
:104800000AEB0400401E83B2514648460194FFF76C
:10481000B7FF129850BB002525E00C2C07D106EB02
:104820004600334901EB800010F8058004E0314870
:1048300000EB061010F8058000270DE008F00100DD
:1048400018B1584600F038FA02E0069800F034FA41
:104850004FEA6808781CC7B204EBD471B7EB610F5C
:10486000ECDB681CC5B2A542D7DB2DE0002529E0B2
:104870000C2C07D106EB46001D4901EB800010F817
:10488000058004E01B4800EB061010F805800027A7
:1048900011E01648A0F800B008F0010038B10AEBAA
:1048A000050291B209EB070290B2FFF791FD4FEAC2
:1048B0006808781CC7B204EBD471B7EB610FE8DB72
:1048C000681CC5B2A542D3DB0849029808800A4893
:1048D0004088401E83B208480088401E82B20021F2
:1048E0000846FFF74DFF07B0BDE8F08FC00200207B
:1048F00050DC0008C4E000088AB901202DE9F04F1F
:104900002DED028B81B006468946B0EE408A1546F1
:1049100098460C9CBDEEC80A10EE107A00EE107A94
:10492000B8EEC00A38EE400AF0EE408A2B463A460E
:1049300049463046009400F033F80120A34604EBCA
:10494000DB71491001FB0561009088B213A31022AE
:10495000494600F07DF841460A2005F055FE00EE7C
:10496000100AB8EE400A20EE280AF0EE408ABDEEAA
:10497000E80A10EE10AA04EBDB714A10691C02FB76
:10498000016188B2434652464946009400F008F857
:1049900001B0BDEC028BBDE8F08F00002E000000DE
:1049A0002DE9FF4F83B0074691461E46109C4FF0FD
:1049B000000A002543E0701B401EC1B20A2005F02A
:1049C00023FEB9FBF0F00A21B0FBF1F201FB120863
:1049D000BAF1000F1BD1701EA84218DDB8F1000F0C
:1049E00013D100202021A346CDE90014029004EB4E
:1049F000DB71491001FB057188B213490B8813491B
:104A00000A880499FFF7E8FE17E04FF0010A002139
:104A100008F13000C0B2A346CDE90141009004EB9B
:104A2000DB71491001FB057188B207490B88074902
:104A30000A880499FFF7D0FE00BF681CC5B2B542D2
:104A4000B9DB07B0BDE8F08FC2020020C002002031
:104A50002DE9FE4306460F4615461C46DDF8288024
:104A60001DE013480088401EB04204DB1048408817
:104A7000401EB84201DABDE8FE8320788DE82101AE
:104A80000C4803880C48028839463046FFF7A4FEDC
:104A9000284605EBD07106EB61018EB2641C2078CC
:104AA0007E2802DC20782028DBDA00BFE3E7000064
:104AB0008AB90120C2020020C00200201CB50120DA
:104AC00037A31022002100900846FFF7C1FF012004
:104AD00036A31022192100900020FFF7B9FF012012
:104AE00036A310222D2100900020FFF7B1FF0120F6
:104AF00036A14FF6FF730022CDE90010C821B42083
:104B0000FDF7E8F9A023F02200211046FFF708FC8A
:104B1000A0234FF4F07219460020FFF701FCA023F8
:104B20004FF4B47200211046FFF7FAFBA02378225D
:104B300000211046FFF7F4FB16234FF4F0721946DC
:104B40000020FFF7EDFB2A234FF4F07219460020F6
:104B5000FFF7E6FB3E234FF4F07219460020FFF703
:104B6000DFFB52234FF4F07219460020FFF7D8FB09
:104B700066234FF4F07219460020FFF7D1FB7A2329
:104B80004FF4F07219460020FFF7CAFB8E234FF452
:104B9000F07219460020FFF7C3FBFFF781FB1CBD35
:104BA00054696D653A20287329000000566F6C74B3
:104BB0006167653A20285629000000007961773A3C
:104BC000202864656772656529000000BCD3000079
:104BD00010B504460122D1030348FDF7FBFB204634
:104BE00001F036F910BD00000018024010B504466F
:104BF00000224FF400410348FDF7ECFB204601F092
:104C000027F910BD0018024010B50249087AFFF7D5
:104C1000EDFF10BD8AB9012070B505460C46284647
:104C2000FFF7E4FFE0B2FFF7D3FF70BD10B5044615
:104C30002A20204948812B2088812C20088134B1EA
:104C4000012C10D0022C1AD0032C30D123E04FF4C9
:104C5000A070184908804FF4F07048800821362071
:104C6000FFF7DAFF24E04FF4F070124908804FF4A8
:104C7000A070488068213620FFF7CEFF18E04FF47F
:104C8000A0700C4908804FF4F0704880C82136208D
:104C9000FFF7C2FF0CE04FF4F070064908804FF4B4
:104CA000A0704880A8213620FFF7B6FF00E000BFC3
:104CB00000BF10BD8AB9012010B50446F82101EAF1
:104CC0002420FFF785FFFC2101EAE400FFF780FFC5
:104CD000E106080EFFF77CFF10BD02E00A2006F097
:104CE00023FFFBE710B5FFF765F980216B2000F08B
:104CF000D7F8642002F0D2FB00216B2000F0D0F83E
:104D0000032000F08BF8002000F080F8322000F043
:104D1000AAF80021382000F0C3F800216A2000F032
:104D2000BFF80021232000F0BBF88021372000F0DD
:104D3000B7F8752000F013F80446682C0BD1012158
:104D40006B2000F0ADF800216C2000F0A9F83220B3
:104D500000F089F801E0012010BD0020FCE770B5EB
:104D60000446FFF703FAD020FFF7BCF9FFF76CFA0F
:104D70002046FFF7B7F9FFF767FAFFF7F7F9D120F9
:104D8000FFF7B0F9FFF760FA0020FFF779F9054661
:104D9000FFF724FA284670BD2DE9F04106460F467C
:104DA00014461D46FFF7E2F9002141EA4601C8B268
:104DB000FFF798F9FFF748FA20B1FFF70FFA012043
:104DC000BDE8F0813846FFF78DF9FFF73DFAFFF7B0
:104DD000CDF9012101EB4601C8B2FFF783F9FFF7D6
:104DE00033FA0DE0012C04D10020FFF749F92870B7
:104DF00003E00120FFF744F92870601EC4B26D1C67
:104E0000002CEFD1FFF7EAF90020D9E710B50446EE
:104E1000E006010E1C2000F043F810BD10B504465A
:104E2000E006010E1B2000F03BF810BD70B50446F3
:104E30000025BC2C01DB012510E0622C01DB0225E2
:104E40000CE02A2C01DB032508E0142C01DB0425EF
:104E500004E00A2C01DB052500E0062529461A207E
:104E600000F01EF870BD70B50446B4F57A7F01DD20
:104E70004FF47A74042C00DA04244FF47A7090FB17
:104E8000F4F0401EC5B22946192000F009F8054685
:104E9000264604EBD671C1F34F00FFF7C7FF70BD84
:104EA00070B505460C46FFF761F9D020FFF71AF9F7
:104EB000FFF7CAF918B1FFF791F9012070BD284634
:104EC000FFF710F9FFF7C0F92046FFF70BF9FFF7DE
:104ED000BBF918B1FFF782F90120EFE7FFF77EF980
:104EE0000020EBE72DE9F04105460E4617469846AF
:104EF000FFF73CF9002141EA4501C8B2FFF7F2F89B
:104F0000FFF7A2F920B1FFF769F90120BDE8F081B0
:104F10003046FFF7E7F8FFF797F900240CE018F8A0
:104F20000400FFF7DFF8FFF78FF918B1FFF756F924
:104F30000120EBE7601CC4B2BC42F0DBFFF74EF986
:104F40000020E3E700B58BB0242102A8FBF747FC63
:104F50000020009001904FF0804018490860002028
:104F600048600021154881604FF6FF71C160002143
:104F700001618161032002900020039001200490D0
:104F80000020059006900220079001200890002044
:104F900009900A9002A90948FDF7C2FF08B1FCF781
:104FA0000EFE00200090019069460448FDF790FE37
:104FB00008B1FCF704FE0BB000BD0000B8050020EE
:104FC00000B58BB0242102A8FBF709FC002000905B
:104FD00001901848184908600020486000211648D0
:104FE00081604FF6FF71C160002101618161032082
:104FF000029000200390012004900020059006906C
:10500000079001200890002009900A9002A90A4800
:10501000FDF786FF08B1FCF7D2FD0020009001905B
:1050200069460548FDF754FE08B1FCF7C8FD0BB012
:1050300000BD0000000400400006002000B58BB059
:10504000242102A8FBF7CBFB002000900190184818
:1050500018490860002048600021164881604FF61A
:10506000FF71C16000210161816103200290002075
:1050700003900120049000200590069002200790E4
:1050800001200890002009900A9002A90948FDF724
:1050900047FF08B1FCF793FD00200090019069469E
:1050A0000448FDF715FE08B1FCF789FD0BB000BD03
:1050B000000800404806002000B58BB0242102A85B
:1050C000FBF78DFB002000900190184818490860FC
:1050D000002048600021164881604FF6FF71C160D2
:1050E00000210161816103200290002003900120D2
:1050F0000490002005900690079001200890002061
:1051000009900A9002A90A48FDF70AFF08B1FCF7C6
:1051100056FD00200090019069460548FDF7D8FD36
:1051200008B1FCF74CFD0BB000BD0000000C0040C6
:105130009006002000BFFEE770B504460E461546F7
:1051400036B1012E28D0022E4ED0032E72D172E03D
:1051500001204D4908604D48056000EE104AB8EE48
:10516000C00A4B4880ED000A00EE104AB8EEC00AB3
:10517000484880ED000A00EE104AB8EEC00A4648E2
:1051800080ED000A00EE104AB8EEC00A434880EDF8
:10519000000A04F035F975E001203B4908603B48FE
:1051A0000560604200EE100AB8EEC00A384880ED93
:1051B000000A604200EE100AB8EEC00A354880EDE1
:1051C000000A604200EE100AB8EEC00A324880EDD4
:1051D000000A604200EE100AB8EEC00A2F4880EDC7
:1051E000000A04F00DF94DE0012027490860274826
:1051F0000560604200EE100AB8EEC00A244880ED57
:10520000000A00EE104AB8EEC00A224880ED000AFB
:1052100000EE104AB8EEC00A1F4880ED000A604256
:1052200000EE100AB8EEC00A1C4880ED000A04F037
:10523000E7F827E025E001201349086013480560DE
:1052400000EE104AB8EEC00A114880ED000A604234
:1052500000EE100AB8EEC00A0E4880ED000A604267
:1052600000EE100AB8EEC00A0B4880ED000A00EE0E
:10527000104AB8EEC00A094880ED000A04F0C0F8F0
:1052800000E000BF00BF70BD9C000020A000002017
:10529000F4000020F8000020FC00002000010020A5
:1052A00010B5824800688249B1F9001008447F496E
:1052B0000860084690ED000AB8EEC00A7D4800F08C
:1052C0006FFDBDEEC00A10EE100A00B27A490880E8
:1052D0007A4801687848B0F9000001F0C5FB00B2D7
:1052E000754908800846B0F9000000EE100AB8EED3
:1052F000C00A734880ED000A6D48B0F9000000EE66
:10530000100AB8EEC00A6E4801F0CEFFBDEEC00A2A
:1053100010EE100A00B2684908800846B0F9000093
:1053200000F03AFC6349D1ED000A604991ED000AB2
:10533000B8EEC00A30EE600ABDEEC00A10EE100AE8
:1053400005F050F914282EDA9FED5E0A5C4880EDD6
:10535000000A5748B0F9000000EE100AB8EEC00A83
:10536000574801F0A1FFBDEEC00A10EE100A00B2CE
:10537000514908800846B0F9000000F00DFC0020FB
:105380004A4908609FED4F0A4A4880ED000A9FEDA8
:105390004D0A80ED010A9FED4B0A80ED020A9FED58
:1053A000490A80ED070A484800684849B1F90010E9
:1053B000084445490860084690ED000AB8EEC00A66
:1053C000434800F0EDFCBDEEC00A10EE100A00B23A
:1053D00040490880404801683E48B0F9000001F0AB
:1053E00043FB00B23B4908800846B0F9000000EEDC
:1053F000100AB8EEC00A394880ED000A3348B0F907
:10540000000000EE100AB8EEC00A344801F04CFF6C
:10541000BDEEC00A10EE100A00B22E490880084600
:10542000B0F9000000F0E8FB2949D1ED000A264957
:1054300091ED000AB8EEC00A30EE600ABDEEC00A77
:1054400010EE100A05F0CEF814282EDA9FED1D0A92
:10545000224880ED000A1D48B0F9000000EE100A55
:10546000B8EEC00A1D4801F01FFFBDEEC00A10EEE5
:10547000100A00B2174908800846B0F9000000F091
:10548000BBFB0020104908609FED0E0A104880ED1C
:10549000000A9FED0C0A80ED010A9FED0A0A80EDDB
:1054A000020A9FED080A80ED070A10BD5400002093
:1054B00000000020940C0020500000205C00002020
:1054C000040C002000000000580000200200002012
:1054D000B80C00205200002060000020280C0020A2
:1054E0007047000070B500240CE0002506E00020A5
:1054F000074901EBC5010855681CC5B2802DF6DBD4
:10550000601CC4B2082CF0DB00F0D2F870BD0000C3
:10551000D806002000B587B000BF00BF0020019072
:105520006148006840F040005F4908600846006834
:1055300000F04000019000BF00BF00BF00BF00BFEF
:10554000002001900846006840F0400008600846CE
:10555000006800F04000019000BF00BF00BF00BF26
:1055600000BF002001900846006840F0400008603D
:105570000846006800F04000019000BF00BF00BF77
:1055800000BF00BF002001900846006840F04000C6
:1055900008600846006800F04000019000BF00BFAE
:1055A00000BF4FF47040029001200390049002204D
:1055B000059002A93D48FCF703FE00224FF480410C
:1055C0003A48FCF707FF6420FCF7E6FD012291034F
:1055D0003648FCF7FFFE0021AE2000F08FF80021D6
:1055E000D52000F08BF80021502000F087F8002132
:1055F000A82000F083F800213F2000F07FF8002170
:10560000D32000F07BF80021084600F077F8002155
:10561000402000F073F800218D2000F06FF8002189
:10562000142000F06BF80021202000F067F8002122
:10563000022000F063F80021A12000F05FF80021B3
:10564000C02000F05BF80021DA2000F057F80021BC
:10565000122000F053F80021812000F04FF80021C3
:10566000EF2000F04BF80021D92000F047F800218E
:10567000F12000F043F80021DB2000F03FF800218A
:10568000302000F03BF80021A42000F037F8002182
:10569000A62000F033F80021AF2000F02FF8FFF72C
:1056A00021FF07B000BD0000303802400018024062
:1056B00070B500241CE004F1B001C8B2002100F074
:1056C0001DF80021084600F019F80021102000F014
:1056D00015F8002508E0084901EBC501085D012126
:1056E00000F00CF8681CC5B2802DF4DB601CC4B25D
:1056F000082CE0DB70BD0000D806002070B5044621
:105700000E462EB10122D1031848FCF763FE05E0D6
:1057100000224FF400411548FCF75CFE00251DE017
:1057200000224FF480511148FCF754FE04F0800031
:1057300028B1012251030D48FCF74CFE05E0002280
:105740004FF400510948FCF745FE012211030748B8
:10575000FCF740FE6006040E681CC5B2082DDFDBB6
:105760000122D1030148FCF735FE70BD001802404C
:1057700010B52DED0A8B9FEDE00AE04880ED000AA0
:105780009FEDDD0A80ED080A9FEDDB0A80ED010A3E
:105790009FEDD90A80ED020A9FEDD70A80ED070A36
:1057A0009FEDD70A80ED040A9FEDD60A80ED050A29
:1057B0009FEDD50A80ED060A9FEDCF0AD34880ED14
:1057C000000A9FEDCD0A80ED080A9FEDCB0A80ED1F
:1057D000010A9FEDC90A80ED020A9FEDC70A80ED1C
:1057E000070A9FEDCB0A80ED040A9FEDCA0A80EDFF
:1057F000050A9FEDC50A80ED060A9FEDBF0AC6485F
:1058000080ED000A9FEDBC0A80ED080A9FEDBA0A00
:1058100080ED010A9FEDB80A80ED020A9FEDB60AFD
:1058200080ED070A90ED010ABDEEC00A10EE104AA5
:10583000002C01DB214600E06142084607F03AFDFA
:1058400041EC1C0B9FEDB50B53EC102B07F04AFD00
:1058500041EC1B0B9FEDB30B53EC102B07F0E2FA5E
:1058600041EC1A0BB0EE4A0AF0EE6A0A01F048FB6E
:10587000B0EE409AF0EE609A9FEDAC0B53EC102B1B
:1058800051EC190B07F02EFD41EC180B07F098FABC
:10589000A14908619FEDA70A084680ED050A9FED22
:1058A000960A80ED060A9FED940AA34880ED000A4F
:1058B0009FED910A80ED080A9FED8F0A80ED010AA5
:1058C0009FED8D0A80ED020A9FED8B0A80ED070A9D
:1058D000084690ED010ABDEEC00A10EE104A002CF9
:1058E00001DB214600E06142084607F0E3FC41ECA1
:1058F0001C0B9FED8A0B53EC102B07F0F3FC41ECD3
:105900001B0B9FED880B53EC102B07F08BFA41EC2F
:105910001A0BB0EE4A0AF0EE6A0A01F0F1FAB0EEA4
:10592000409AF0EE609A9FED810B53EC102B51ECF6
:10593000190B07F0D7FC41EC180B07F041FA7E4930
:1059400008619FED7C0A084680ED050A9FED6A0A12
:1059500080ED060A9FED680A784880ED000A9FED09
:10596000660A80ED080A9FED640A80ED010A9FED4A
:10597000620A80ED020A9FED600A80ED070A664820
:1059800090ED010ABDEEC00A10EE104A002C01DBBA
:10599000214600E06142084607F08CFC41EC1C0BFC
:1059A0009FED5E0B53EC102B07F09CFC41EC1B0BA6
:1059B0009FED5C0B53EC102B07F034FA41EC1A0B03
:1059C000B0EE4A0AF0EE6A0A01F09AFAB0EE409A96
:1059D000F0EE609A9FED550B53EC102B51EC190B28
:1059E00007F080FC41EC180B07F0EAF95349086115
:1059F0009FED500A084680ED050A9FED3F0A80EDB5
:105A0000060A9FED3D0A4E4880ED000A9FED3A0AD6
:105A100080ED080A9FED380A80ED010A9FED360AF5
:105A200080ED020A9FED340A80ED070A3A4890EDB6
:105A3000010ABDEEC00A10EE104A002C01DB21461F
:105A400000E06142084607F035FC41EC1C0B9FED7D
:105A5000330B53EC102B07F045FC41EC180B9FED7A
:105A6000310B53EC102B07F0DDF941EC190BB0EEC4
:105A7000490AF0EE690A01F043FAB0EE40BAF0EEDE
:105A800060BA9FED2A0B53EC102B51EC1B0B07F067
:105A900029FC41EC1A0B07F093F9294908619FEDA5
:105AA000250A084680ED050A9FED130A80ED060AD7
:105AB0009FED110A234880ED000A9FED0F0A80ED4B
:105AC000080A9FED0D0A80ED010A9FED0B0A80ED9B
:105AD000020A9FED090A80ED070A9FED1B0A80ED7F
